:020000042000DA
:100000000000012099020020090300200B030020BA
:100010000D0300200F03002011030020000000004A
:10002000000000000000000000000000130300209A
:100030001503002000000000170300201903002012
:100040001B030020B12F00201F03002021030020EC
:10005000230300202503002027030020290300207C
:100060002B0300202D030020092800203528002024
:10007000330300203503002037030020390300201C
:100080003B0300203D0300203F03002041030020EC
:1000900043030020450300204703002049030020BC
:1000A0004B030020000000000000000000000000E2
:1000B0000000000000000000000000004D030020D0
:1000C0004F0300205103002053030020550300205C
:1000D00057030020590300205B0300205D0300202C
:1000E0005F030020610300206303002065030020FC
:1000F00067030020690300206B0300206D030020CC
:100100006F0300207103002073030020750300209B
:1001100077030020790300207B0300207D0300206B
:100120007F0300208103002083030020850300203B
:1001300087030020890300208B0300208D0300200B
:100140008F030020910300209303002095030020DB
:1001500097030020990300209B0300209D030020AB
:100160009F030020A1030020A3030020A50300207B
:10017000A7030020A9030020AB030020AD0300204B
:10018000AF030020B1030020B3030020B50300201B
:10019000B7030020B9030020BB030020BD030020EB
:1001A000BF030020C1030020C3030020C5030020BB
:1001B000C7030020C9030020CB030020CD0300208B
:1001C000CF030020D1030020D3030020D50300205B
:1001D000D7030020D9030020DB030020DD0300202B
:1001E000DF030020E1030020E3030020E5030020FB
:1001F000E7030020E9030020EB030020ED030020CB
:10020000EF030020F1030020F3030020F50300209A
:10021000F7030020F9030020FB030020FD0300206A
:10022000FF03002001040020030400200504002037
:1002300007040020090400200B0400200D04002006
:100240000F040020110400201304002015040020D6
:1002500017040020190400201B0400201D040020A6
:100260001F04002021040020230400202504002076
:1002700027040020290400202B0400202D04002046
:100280002F04002031040020330400203504002016
:100290003704002039040020684880476848002857
:1002A0000BD168486849694A884206D091421CBF10
:1002B00050F8043B41F8043BF8D165486549664A6B
:1002C000884206D091421CBF50F8043B41F8043BE1
:1002D000F8D162486249634A914218BF41F8040B61
:1002E000FAD1000000000000000000000000000043
:1002F000DFF874010FF2030E00474FF000004FF0DB
:100300000001DFF868F1FEE7FEE7FEE7FEE7FEE743
:10031000FEE7FEE7FEE7FEE7FEE7FEE7FEE7FEE7B5
:10032000FEE7FEE7FEE7FEE7FEE7FEE7FEE7FEE7A5
:10033000FEE7FEE7FEE7FEE7FEE7FEE7FEE7FEE795
:10034000FEE7FEE7FEE7FEE7FEE7FEE7FEE7FEE785
:10035000FEE7FEE7FEE7FEE7FEE7FEE7FEE7FEE775
:10036000FEE7FEE7FEE7FEE7FEE7FEE7FEE7FEE765
:10037000FEE7FEE7FEE7FEE7FEE7FEE7FEE7FEE755
:10038000FEE7FEE7FEE7FEE7FEE7FEE7FEE7FEE745
:10039000FEE7FEE7FEE7FEE7FEE7FEE7FEE7FEE735
:1003A000FEE7FEE7FEE7FEE7FEE7FEE7FEE7FEE725
:1003B000FEE7FEE7FEE7FEE7FEE7FEE7FEE7FEE715
:1003C000FEE7FEE7FEE7FEE7FEE7FEE7FEE7FEE705
:1003D000FEE7FEE7FEE7FEE7FEE7FEE7FEE7FEE7F5
:1003E000FEE7FEE7FEE7FEE7FEE7FEE7FEE7FEE7E5
:1003F000FEE7FEE7FEE7FEE7FEE7FEE7FEE7FEE7D5
:10040000FEE7FEE7FEE7FEE7FEE7FEE7FEE7FEE7C4
:10041000FEE7FEE7FEE7FEE7FEE7FEE7FEE7FEE7B4
:10042000FEE7FEE7FEE7FEE7FEE7FEE7FEE7FEE7A4
:10043000FEE7FEE7FEE7FEE7FEE70000ED32002004
:10044000000000000000002000000020743A00209E
:10045000743A0020743A00208C3B00200000000019
:100460008C3B0020F83B0020FD370020D91B0020EA
:1004700043F68C33C2F200031A780AB901201870CF
:10048000704700BF43F67420C2F2000008B503684D
:100490002BB140F20003C0F2000303B1984708BD3E
:1004A00080B588B000AFF860B9607A603B60FB68E7
:1004B000BA681A60FB681B6803F1080318464FF01E
:1004C000000101F027FCFB681B6803F10C031846D0
:1004D0004FF0000101F01EFCFB681B6818467968AC
:1004E00001F0E8FB3B68002B11D143F65013C2F238
:1004F000000307F1100C0FCBACE80700ACF800309C
:1005000007F1100318464FF0AE0101F0BFFBFB6886
:100510001B6803F104031846396801F0CBFBFB6844
:100520001B6803F1100318464FF0000101F0C2FBF5
:10053000FB681B6803F1180318464FF0000101F037
:10054000B9FBFB681B6803F1200318464FF000015C
:1005500001F0B0FBFB681B6803F1280318464FF05D
:10056000000101F0A7FBFB681B6803F1300318468C
:100570004FF0000101F09EFBFB681B6803F138039C
:1005800018464FF0000101F095FBFB681B6803F172
:10059000400318464FF0000101F08CFBFB681B681C
:1005A00003F1480318464FF0000101F083FBFB689C
:1005B0001B6803F1500318464FF0000101F07AFB6D
:1005C000FB681B6803F1580318464FF0000101F067
:1005D00071FBFB681B6803F1600318464FF00001D4
:1005E00001F068FBFB681B6803F1680318464FF0D5
:1005F000000101F05FFBFB681B6803F17003184604
:100600004FF0000101F056FBFB681B6803F1780313
:1006100018464FF0000101F04DFBFB681B6803F129
:10062000800318464FF0000101F044FBFB681B6893
:1006300003F1880318464FF0000101F03BFB07F17E
:100640002007BD4680BD00BF80B58AB000AF78608E
:100650000B46FB70FB78002B11D143F65013C2F20E
:10066000000307F1180C0FCBACE80700ACF8003022
:1006700007F1180318464FF0D30101F007FBFB7890
:10068000102B11D943F65013C2F2000307F1080CE6
:100690000FCBACE80700ACF8003007F108031846B0
:1006A0004FF0D40101F0F2FAFB78002B46D0FB7832
:1006B000102B43D8FA7843F64C03C2F200039B5C3C
:1006C00087F82730FB78082B1CD87B681B6803F160
:1006D0000803184601F020FB034687F8263097F8F8
:1006E000262097F8273042EA030387F826307B68F4
:1006F0001B6803F1080297F826301046194601F0EE
:1007000009FB1BE07B681B6803F10C03184601F032
:1007100003FB034687F8263097F8262097F8273002
:1007200042EA030387F826307B681B6803F10C025A
:1007300097F826301046194601F0ECFA07F1280721
:10074000BD4680BD80B58AB000AF78600B46FB70B7
:10075000FB78002B11D143F65013C2F2000307F1CE
:10076000180C0FCBACE80700ACF8003007F1180309
:10077000184640F2011101F089FAFB78102B11D9CB
:1007800043F65013C2F2000307F1080C0FCBACE89C
:100790000700ACF8003007F1080318464FF48171E8
:1007A00001F074FAFB78002B4CD0FB78102B49D861
:1007B000FA7843F64C03C2F200039B5C87F82730BB
:1007C000FB78082B1FD87B681B6803F108031846C9
:1007D00001F0A2FA034687F8263097F827306FEA2F
:1007E0000303DAB297F8263002EA030387F82630CB
:1007F0007B681B6803F1080297F8263010461946FB
:1008000001F088FA1EE07B681B6803F10C031846B0
:1008100001F082FA034687F8263097F827306FEA0E
:100820000303DAB297F8263002EA030387F826308A
:100830007B681B6803F10C0297F8263010461946B6
:1008400001F068FA07F12807BD4680BD80B586B083
:1008500000AF78607B681B6803F1E40318464FF033
:10086000010101F03FFA7B681B6803F1E4031846BD
:1008700001F03AFA0346012B11D043F65013C2F2AD
:10088000000307F1080C0FCBACE80700ACF8003010
:1008900007F1080318464FF4987101F0F7F907F1D2
:1008A0001807BD4680BD00BF80B586B000AF786038
:1008B0007B681B6803F1E40318464FF0000101F068
:1008C00011FA7B681B6803F1E403184601F00CFA87
:1008D0000346002B11D043F65013C2F2000307F178
:1008E000080C0FCBACE80700ACF8003007F10803A8
:1008F00018464FF4A17101F0C9F907F11807BD4678
:1009000080BD00BF80B598B000AFF8600B467A603C
:10091000FB72FB7A002B11D143F65013C2F2000395
:1009200007F1440C0FCBACE80700ACF8003007F13E
:10093000440318464FF4A97101F0A8F9FB7A102B73
:1009400011D943F65013C2F2000307F1340C0FCB58
:10095000ACE80700ACF8003007F13403184640F269
:10096000531101F093F9FB681B6803F10403184667
:1009700001F0A2F903467B657A687B6D9A4211D932
:1009800043F65013C2F2000307F1240C0FCBACE87E
:100990000700ACF8003007F1240318464FF4AD719E
:1009A00001F074F9FB7A002B57D0FB7A102B54D846
:1009B0007B68002B05D1FB7AF8681946FFF7C2FE69
:1009C0004BE0FB681A68F97A43F68403C2F200032D
:1009D00053F82130134418464FF0000101F06AF932
:1009E000FB681A68F97A43F6C803C2F2000353F8A9
:1009F000213013441846796801F05CF9FA7A43F61D
:100A0000C803C2F2000353F82230FB65FB681A6882
:100A1000FB6D1344184601F07FF9034687F85B30FD
:100A20007B68DBB297F85B209A4211D043F65013F3
:100A3000C2F2000307F1140C0FCBACE80700ACF8CE
:100A4000003007F11403184640F27D1101F01EF941
:100A5000FB7AF8681946FFF7F7FD07F16007BD4616
:100A600080BD00BF80B5A2B000AFF8607A603B6087
:100A70000B46FB72FB7A002B11D143F65013C2F2E6
:100A8000000307F1640C0FCBACE80700ACF80030B2
:100A900007F1640318464FF4C97101F0F7F8FB7AC7
:100AA000102B11D943F65013C2F2000307F1540C76
:100AB0000FCBACE80700ACF8003007F15403184640
:100AC00040F2931101F0E2F8FB681B6803F10403A4
:100AD000184601F0F1F803467B677A687B6F9A420B
:100AE00011D943F65013C2F2000307F1440C0FCBA7
:100AF000ACE80700ACF8003007F14403184640F2B8
:100B00009D1101F0C3F83A687B6F9A4211D943F600
:100B10005013C2F2000307F1340C0FCBACE807000E
:100B2000ACF8003007F1340318464FF4CF7101F0F0
:100B3000ADF8FB7A002B74D0FB7A102B71D8FB68D0
:100B40001A68F97A43F68403C2F2000353F821309D
:100B500013441846796801F0ADF8FA7A43F6840335
:100B6000C2F2000353F82230FB67FB681A68FB6F80
:100B70001344184601F0D0F8034687F87B307B68B1
:100B8000DBB297F87B209A4211D043F65013C2F2A1
:100B9000000307F1240C0FCBACE80700ACF80030E1
:100BA00007F12403184640F2B51101F06FF8FB6815
:100BB0001A68F97A43F6C803C2F2000353F82130E9
:100BC00013441846396801F075F8FA7A43F6C803F9
:100BD000C2F2000353F82230C7F88430FB681A6869
:100BE000D7F884301344184601F096F8034687F886
:100BF00083303B68DBB297F883209A4211D043F6EA
:100C00005013C2F2000307F1140C0FCBACE807003D
:100C1000ACF8003007F1140318464FF4E57101F009
:100C200035F807F18807BD4680BD00BF80B590B09C
:100C300000AF78600B46FB704FF000037B63FB78DE
:100C4000002B11D143F65013C2F2000307F11C0C24
:100C50000FCBACE80700ACF8003007F11C031846D6
:100C60004FF4F17101F012F8FB78102B11D943F613
:100C70005013C2F2000307F10C0C0FCBACE80700D5
:100C8000ACF8003007F10C03184640F2E31100F015
:100C9000FDFFFB78002B70D0FB78102B6DD8FA7815
:100CA00043F64C03C2F200039B5C87F83F30FB78AD
:100CB000082B12D87B681B6803F10803184601F063
:100CC0002BF8034687F83E3097F83E2097F83F30E0
:100CD00002EA030387F83E3011E07B681B6803F1EA
:100CE0000C03184601F018F8034687F83E3097F8D1
:100CF0003E2097F83F3002EA030387F83E3097F82A
:100D00003E30002B39D07B681A68F97843F68403AB
:100D1000C2F2000353F821301344184600F0CCFF10
:100D20000346FB627B681A68F97843F6C803C2F28F
:100D3000000353F821301344184600F0BDFF03466A
:100D40003B637B681B6803F10403184600F0B4FFA3
:100D50000346BB63FA6A3B6B9A4205D83A6BFB6A5F
:100D6000C3EB02037B6308E03A6BFB6AC3EB02024E
:100D7000BB6B134403F101037B637B6B184607F1E4
:100D80004007BD4680BD00BF80B59EB000AFF86093
:100D90007A600A46FA72FB704FF00003BB664FF0B0
:100DA0000003FB66FB7A002B11D143F65013C2F20D
:100DB000000307F1540C0FCBACE80700ACF800308F
:100DC00007F15403184640F25E2100F05FFFFB7A02
:100DD000102B11D943F65013C2F2000307F1440C53
:100DE0000FCBACE80700ACF8003007F1440318461D
:100DF00040F25F2100F04AFFFB7A002B00F0DB801D
:100E0000FB7A102B00F2D780FB681B6803F1040308
:100E1000184600F051FF03467B667A687B6E9A4263
:100E200011D943F65013C2F2000307F1340C0FCB73
:100E3000ACE80700ACF8003007F13403184640F284
:100E4000692100F023FF7B68002B05D1FB7AF8684D
:100E50001946FFF777FCAEE0FB78012B09D0022B97
:100E60002AD0002B32D14FF00003BB667B68FB66B3
:100E70002CE07A6E7B6882EA030303F00103DBB2A5
:100E8000002B0DD07A6E7B68C3EB020303F10103E4
:100E90004FEA5303BB66BA6E7B681344FB6615E0EA
:100EA0007A6E7B68C3EB02034FEA5303BB66BA6EEC
:100EB0007B681344FB6609E07A6E7B68C3EB020330
:100EC00003F10103BB664FF00003FB66FB681A6881
:100ED000F97A43F68403C2F2000353F82130134435
:100EE0001846B96E00F0E6FEFB681A68F97A43F618
:100EF000C803C2F2000353F8213013441846F96EB8
:100F000000F0D8FEFA7A43F68403C2F2000353F8E5
:100F100022307B67FB681A687B6F1344184600F029
:100F2000FBFE034687F87330BB6EDBB297F8732085
:100F30009A4211D043F65013C2F2000307F1240C79
:100F40000FCBACE80700ACF8003007F124031846DB
:100F500040F2CB2100F09AFEFA7A43F6C803C2F2BF
:100F6000000353F822307B67FB681A687B6F1344D9
:100F7000184600F0D1FE034687F87330FB6EDBB2F3
:100F800097F873209A4211D043F65013C2F200032F
:100F900007F1140C0FCBACE80700ACF8003007F1F8
:100FA0001403184640F2CF2100F070FEFB7AF86877
:100FB0001946FFF749FB07F17807BD4680BD00BF22
:100FC00080B590B000AF78600B46FB70FB78002BCB
:100FD00011D143F65013C2F2000307F12C0C0FCBD2
:100FE000ACE80700ACF8003007F12C03184640F2DB
:100FF000E52100F04BFEFB78102B11D943F650137E
:10100000C2F2000307F11C0C0FCBACE80700ACF8F0
:10101000003007F11C03184640F2E62100F036FECE
:10102000FB78002B40D0FB78102B3DD8FA7843F6A4
:101030006003C2F2000333F81230BB877B681B6881
:1010400003F19003184600F04FFE03467B877A8F2A
:10105000BB8F42EA03037B877B681B6803F1900226
:101060007B8F1046194600F03DFE7B681B6803F13C
:101070009003184600F038FE0346FB87FA8F7B8FFB
:101080009A4211D043F65013C2F2000307F10C0C40
:101090000FCBACE80700ACF8003007F10C031846A2
:1010A00040F2FE2100F0F2FD07F14007BD4680BD91
:1010B00080B590B000AF78600B46FB70FB78002BDA
:1010C00011D143F65013C2F2000307F12C0C0FCBE1
:1010D000ACE80700ACF8003007F12C03184640F2EA
:1010E000123100F0D3FDFB78102B11D943F65013C9
:1010F000C2F2000307F11C0C0FCBACE80700ACF800
:10110000003007F11C03184640F2133100F0BEFD19
:10111000FB78002B43D0FB78102B40D8FA7843F6AD
:101120006003C2F2000333F81230BB877B681B6890
:1011300003F19003184600F0D7FD03467B87BB8F71
:101140006FEA03039AB27B8F02EA03037B877B6813
:101150001B6803F190027B8F1046194600F0C2FD18
:101160007B681B6803F19003184600F0BDFD034641
:10117000FB87FA8F7B8F9A4211D043F65013C2F24D
:10118000000307F10C0C0FCBACE80700ACF8003003
:1011900007F10C03184640F22B3100F077FD07F100
:1011A0004007BD4680BD00BF80B586B000AF786007
:1011B0000B46FB707B681B6803F19402FB781046BA
:1011C000194600F08FFD7B681B6803F194031846F5
:1011D00000F08AFD0346FB82FB8ADBB2FA789A4272
:1011E00011D043F65013C2F2000307F1080C0FCBE5
:1011F000ACE80700ACF8003007F10803184640F2ED
:101200004A3100F043FD7B681B6803F1A0031846D8
:101210004FF0000100F066FD7B681B6803F19C0342
:1012200018464FF0000100F05DFD7B681B6803F17C
:10123000980318464FF6FF7100F054FD07F11807A8
:10124000BD4680BD80B590B000AF786013460A46B9
:10125000FA703B80FB78002B11D143F65013C2F299
:10126000000307F12C0C0FCBACE80700ACF8003002
:1012700007F12C03184640F2693100F007FDFB78B6
:10128000102B11D943F65013C2F2000307F11C0CC6
:101290000FCBACE80700ACF8003007F11C03184690
:1012A00040F26A3100F0F2FCFB78002B4CD0FB7866
:1012B000102B49D8FA7843F66003C2F2000333F8E2
:1012C0001230BB877B681B6803F1A003184600F04F
:1012D0000BFD03467B873B88002B05D07A8FBB8FA5
:1012E00042EA03037B8707E0BB8F6FEA03039AB2EE
:1012F0007B8F02EA03037B877B681B6803F1A002F4
:101300007B8F1046194600F0EDFC7B681B6803F1EB
:10131000A003184600F0E8FC0346FB87FA8F7B8F9A
:101320009A4211D043F65013C2F2000307F10C0C9D
:101330000FCBACE80700ACF8003007F10C031846FF
:101340004FF4617100F0A2FC07F14007BD4680BD7B
:1013500080B58AB000AF78600B46FB704FF0000399
:10136000FB84FB78002B11D143F65013C2F200032B
:1013700007F1180C0FCBACE80700ACF8003007F110
:10138000180318464FF4667100F080FCFB78102BB0
:1013900011D943F65013C2F2000307F1080C0FCB2A
:1013A000ACE80700ACF8003007F10803184640F23B
:1013B000993100F06BFCFB78002B11D0FB78102BDF
:1013C0000ED87B681A68F97843F60C13C2F2000352
:1013D00053F821301344184600F086FC0346FB8482
:1013E000FB8C184607F12807BD4680BD80B58AB042
:1013F00000AF78600B46FB70FB78002B11D143F6F1
:101400005013C2F2000307F1180C0FCBACE8070031
:10141000ACF8003007F11803184640F2B33100F081
:1014200035FCFB78102B11D943F65013C2F20003A0
:1014300007F1080C0FCBACE80700ACF8003007F15F
:10144000080318464FF46D7100F020FCFB78002B68
:1014500013D0FB78102B10D8FA7843F66003C2F251
:10146000000333F81230FB847B681B6803F1980299
:10147000FB8C1046194600F035FC07F12807BD46E5
:1014800080BD00BF80B58CB000AF78600B46FB70AC
:101490004FF00003FB85FB78002B11D143F650136E
:1014A000C2F2000307F11C0C0FCBACE80700ACF84C
:1014B000003007F11C03184640F2D33100F0E6FB80
:1014C000FB78102B11D943F65013C2F2000307F139
:1014D0000C0C0FCBACE80700ACF8003007F10C03A4
:1014E00018464FF4757100F0D1FBFB78002B18D033
:1014F000FB78102B15D8FA7843F66003C2F200038C
:1015000033F81230BB857B681B6803F198031846DB
:1015100000F0EAFB0346FB85FA8DBB8D02EA03036C
:10152000FB85FB8D184607F13007BD4680BD00BF27
:1015300080B584B000AF78607B681B6803F19C03C2
:10154000184600F0D1FB03467B817B681B6803F1E2
:101550009803184600F0C8FB03463B813A897B8913
:1015600002EA03033B813B89002B03D14FF00003C8
:101570007B7334E04FF00103FB813B8903F0FF03F1
:10158000002B07D1FB8903F10803FB813B894FEA5C
:1015900013233B813B8903F00F03002B07D1FB8909
:1015A00003F10403FB813B894FEA13133B813B8921
:1015B00003F00303002B07D1FB8903F10203FB8136
:1015C0003B894FEA93033B813B8903F00103002BE6
:1015D00003D1FB8903F10103FB81FB897B737B7BD7
:1015E000184607F11007BD4680BD00BF80B590B01A
:1015F00000AF78600B46FB70FB78002B11D143F6EF
:101600005013C2F2000307F12C0C0FCBACE807001B
:10161000ACF8003007F12C0318464FF4826100F05B
:1016200035FBFB78102B11D943F65013C2F200039F
:1016300007F11C0C0FCBACE80700ACF8003007F149
:101640001C03184640F2114100F020FBFB78002BF0
:1016500040D0FB78102B3DD8FA7843F66003C2F2F5
:10166000000333F81230BB877B681B6803F19C03CF
:10167000184600F039FB03467B877A8FBB8F42EA1E
:1016800003037B877B681B6803F19C027B8F1046FA
:10169000194600F027FB7B681B6803F19C03184682
:1016A00000F022FB0346FB87FA8F7B8F9A4211D012
:1016B00043F65013C2F2000307F10C0C0FCBACE859
:1016C0000700ACF8003007F10C03184640F2274140
:1016D00000F0DCFA07F14007BD4680BD80B590B050
:1016E00000AF78600B46FB70FB78002B11D143F6FE
:1016F0005013C2F2000307F12C0C0FCBACE807002B
:10170000ACF8003007F12C03184640F23B4100F0E2
:10171000BDFAFB78102B11D943F65013C2F2000327
:1017200007F11C0C0FCBACE80700ACF8003007F158
:101730001C03184640F23C4100F0A8FAFB78002B4D
:1017400043D0FB78102B40D8FA7843F66003C2F2FE
:10175000000333F81230BB877B681B6803F19C03DE
:10176000184600F0C1FA03467B87BB8F6FEA03037C
:101770009AB27B8F02EA03037B877B681B6803F1C5
:101780009C027B8F1046194600F0ACFA7B681B6800
:1017900003F19C03184600F0A7FA0346FB87FA8F73
:1017A0007B8F9A4211D043F65013C2F2000307F127
:1017B0000C0C0FCBACE80700ACF8003007F10C03C1
:1017C000184640F2524100F061FA07F14007BD4669
:1017D00080BD00BF80B58AB000AF78600B46FB705B
:1017E000FB78002B11D143F65013C2F2000307F12E
:1017F000180C0FCBACE80700ACF8003007F1180369
:10180000184640F2664100F041FAFB78102B11D9DE
:1018100043F65013C2F2000307F1080C0FCBACE8FB
:101820000700ACF8003007F10803184640F26741A2
:1018300000F02CFAFB78002B13D0FB78102B10D87B
:10184000FA7843F66003C2F2000333F81230FB84E7
:101850007B681B6803F19802FB8C1046194600F068
:1018600041FA07F12807BD4680BD00BF80B500AF33
:101870004FF01F004FF0010101F064FA80BD00BF7E
:1018800080B500AF4FF01F004FF0000101F05AFA91
:1018900080BD00BF80B500AF43F69C30C2F20000AF
:1018A00040F20001C4F205014FF2E152C0F205021C
:1018B0004FF48073FEF7F4FD43F6A030C2F200004F
:1018C00040F20011C4F2050140F2E73240F2CF735A
:1018D000FEF7E6FD80BD00BF80B483B000AF0346D5
:1018E000FB7107F10C07BD4680BC704780B582B024
:1018F00000AF78607B68002B10D143F69C30C2F2B9
:1019000000004FF00101FEF71DFF43F69C30C2F2CC
:1019100000004FF00201FEF715FF3BE07B68002B53
:101920001ADD7B6843F69C30C2F200004FF00101E3
:101930001A46FEF7E7FF43F69C30C2F200004FF074
:101940000101FEF781FE43F69C30C2F200004FF029
:101950000201FEF7F7FE1DE07B68C3F100037B6028
:101960007B6843F69C30C2F200004FF002011A4639
:10197000FEF7C8FF43F69C30C2F200004FF00201B0
:10198000FEF762FE43F69C30C2F200004FF0010108
:10199000FEF7D8FE07F10807BD4680BD80B582B0CE
:1019A00000AF78607B68002B10D143F69C30C2F208
:1019B00000004FF00301FEF7C5FE43F69C30C2F273
:1019C00000004FF00401FEF7BDFE3BE07B68002BFA
:1019D0001ADD7B6843F69C30C2F200004FF0030131
:1019E0001A46FEF78FFF43F69C30C2F200004FF01C
:1019F0000301FEF729FE43F69C30C2F200004FF0CF
:101A00000401FEF79FFE1DE07B68C3F100037B60CD
:101A10007B6843F69C30C2F200004FF004011A4686
:101A2000FEF770FF43F69C30C2F200004FF0040155
:101A3000FEF70AFE43F69C30C2F200004FF00301AD
:101A4000FEF780FE07F10807BD4680BD80B582B075
:101A500000AF78607B68002B10D143F69C30C2F257
:101A600000004FF00501FEF76DFE43F69C30C2F218
:101A700000004FF00601FEF765FE3BE07B68002B9F
:101A80001ADD7B6843F69C30C2F200004FF005017E
:101A90001A46FEF737FF43F69C30C2F200004FF0C3
:101AA0000501FEF7D1FD43F69C30C2F200004FF075
:101AB0000601FEF747FE1DE07B68C3F100037B6073
:101AC0007B6843F69C30C2F200004FF006011A46D4
:101AD000FEF718FF43F69C30C2F200004FF00601FB
:101AE000FEF7B2FD43F69C30C2F200004FF0050154
:101AF000FEF728FE07F10807BD4680BD80B582B01D
:101B000000AF78607B68002B10D143F69C30C2F2A6
:101B100000004FF00701FEF715FE43F69C30C2F2BD
:101B200000004FF00801FEF70DFE3BE07B68002B44
:101B30001ADD7B6843F69C30C2F200004FF00701CB
:101B40001A46FEF7DFFE43F69C30C2F200004FF06B
:101B50000701FEF779FD43F69C30C2F200004FF01A
:101B60000801FEF7EFFD1DE07B68C3F100037B6019
:101B70007B6843F69C30C2F200004FF008011A4621
:101B8000FEF7C0FE43F69C30C2F200004FF00801A1
:101B9000FEF75AFD43F69C30C2F200004FF00701F9
:101BA000FEF7D0FD07F10807BD4680BD80B582B0C5
:101BB00000AF78607B6803F12E037B607B6843F69F
:101BC000A030C2F200004FF001011A46FEF79AFE63
:101BD00007F10807BD4680BD80B582B000AFFFF7B2
:101BE00059FE01F05BF84FF01F004FF0050101F0C6
:101BF0008BF84FF00000FFF7D9FF6FF0FE00FFF702
:101C000075FEF6E780B400AF00BEBD4680BC7047ED
:101C100080B483B000AF7860396000BE07F10C0774
:101C2000BD4680BC704700BF80B483B000AF786011
:101C30000B46FB7000BE07F10C07BD4680BC704729
:101C400080B483B000AF786000BE07F10C07BD46DA
:101C500080BC704780B483B000AF786000BE07F1ED
:101C60000C07BD4680BC704780B483B000AF78607D
:101C700000BE07F10C07BD4680BC7047EFF3108033
:101C800072B6704780F310887047000080B487B048
:101C900000AF786039607B687B613B683B617B6942
:101CA0001B78DBB2FB733B69BB60BB6803F10103CC
:101CB000BB60F0E701607047006870470EB503FA3B
:101CC00001F303EA020301686FEA020201EA02017A
:101CD00041EA030101600EBD006800EA020020FA3B
:101CE00001F0704701807047008870470EB503FA15
:101CF00001F303EA020301886FEA020201EA02012A
:101D000041EA030101800EBD008800EA020020FACA
:101D100001F0704701707047007870470EB503FA04
:101D200001F303EA020301786FEA020201EA020109
:101D300041EA030101700EBD007800EA020020FABA
:101D400001F0704780B483B000AF0346FB804EF2D1
:101D50000013CEF20003B7F906204FEA5212F988B9
:101D600001F01F014FF0010000FA01F143F82210C9
:101D700007F10C07BD4680BC704700BF80B483B03C
:101D800000AF0346FB804EF20013CEF20003B7F91A
:101D900006204FEA5212F98801F01F014FF00100AE
:101DA00000FA01F102F1200243F8221007F10C07BA
:101DB000BD4680BC704700BF80B483B000AF03460F
:101DC000FB804EF20013CEF20003B7F906204FEA73
:101DD0005212F98801F01F014FF0010000FA01F1E1
:101DE00002F1600243F8221007F10C07BD4680BCE7
:101DF000704700BF80B588B000AFF860B960134687
:101E0000FB714FF00103FB824FF00003BB61FA68E6
:101E100043F6CC33C2F200039A4207D0FA6843F685
:101E2000A433C2F200039A4200D000BEBB68002B6C
:101E300000D100BE01F060FAFA6843F6CC33C2F27A
:101E400000039A422ED1FB684FF080421A60FB6873
:101E50004FF084425A60FB684FF00A021A8143F641
:101E60008423C2F200031B68BB6142F20003CEF27E
:101E7000040342F20002CEF20402126B42F080022E
:101E80001A634FF00A00FFF797FF42F20003CEF209
:101E9000040342F20002CEF20402126B22F080022E
:101EA0001A6331E0FA6840F20003C4F201031360E0
:101EB000FA6840F20003C4F220235360FB684FF03D
:101EC0000B021A8143F68823C2F200031B68BB6130
:101ED00042F20003CEF2040342F20002CEF2040208
:101EE000126B42F480721A634FF00B00FFF764FF2D
:101EF00042F20003CEF2040342F20002CEF20402E8
:101F0000126B22F480721A63FB681B684FF00002A8
:101F10001A71BB68002B21D0BA69BB68B2FBF3F31E
:101F2000FB61FB6903F00803002B06D0FB694FEA55
:101F3000131303F10103FB6103E0FB694FEA131381
:101F4000FB61FA694FF6FF739A4200D900BEFA6945
:101F50004FF6FF739A4201D8FB69FB82FB685B680E
:101F60004FF00102C3F89C21FB681B68FA8A4FEA14
:101F7000122292B2D2B21A71FB681B68FA8AD2B2EC
:101F80001A70FB685B684FF00002C3F89C21FB6885
:101F90001B68FA791A73FB681B684FF00E021A72FD
:101FA000FB685B684FF00002C3F81022FB684FF03B
:101FB00000021A61FB684FF00002DA60FB684FF024
:101FC00000025A61FB684FF00002DA61FA6842F2DF
:101FD000E953C2F200031362FB684FF000029A61FA
:101FE000FB684FF000025A62FB684FF000029A72E1
:101FF00007F12007BD4680BD80B489B000AFF8600E
:10200000B9607A604FF000033B61FA6843F6CC3365
:10201000C2F200039A4207D0FA6843F6A433C2F230
:1020200000039A4200D000BEBB68002B00D100BE66
:102030007B68002B00D100BEFA6843F6CC33C2F2B5
:1020400000039A4206D0FA6843F6A433C2F20003B2
:102050009A423DD1BB68002B3AD07B68002B37D029
:10206000FB681B681B7DFB76FB689A7AFB7E42EA65
:102070000303DAB2FB689A72FB7E03F02003002BA5
:1020800023D04FF01003FB617B680F2B01D87B68D6
:10209000FB614FF000037B610EE0FB681B68B968D1
:1020A0003A690A4412781A703B6903F101033B61F3
:1020B0007B6903F101037B617A69FB699A42ECD386
:1020C0007A687B69C3EB02037B607B68002BC7D116
:1020D00007F12407BD4680BC704700BF80B487B0BD
:1020E00000AF786039604FF00003BB607A6843F658
:1020F000CC33C2F200039A4207D07A6843F6A43385
:10210000C2F200039A4200D000BE3B68002B00D10F
:1021100000BE7A6843F6CC33C2F200039A4206D07E
:102120007A6843F6A433C2F200039A4238D13B687E
:10213000002B35D03A68BB6813441B783B612CE018
:102140007B681B681B7DFB757B689A7AFB7D42EA86
:102150000303DAB27B689A72FB7D03F02003002B45
:10216000EED04FF00003FB6011E07B681B683A691A
:10217000D2B21A70FB6803F10103FB60BB6803F184
:102180000103BB603A68BB6813441B783B613B6941
:10219000002B02D0FB680F2BE7D93B69002BCFD176
:1021A00007F11C07BD4680BC704700BF80B584B0F6
:1021B00000AFF860B9607A60FA6843F6CC33C2F2D7
:1021C00000039A4207D0FA6843F6A433C2F2000330
:1021D0009A4200D000BEBB68002B00D100BE7B68D5
:1021E000002B00D100BE7B68002B32D0BB68002BD7
:1021F0002FD0FA6843F6CC33C2F200039A4206D0DD
:10220000FA6843F6A433C2F200039A4221D1FB6874
:10221000BA68DA60FB687A681A61FB684FF00002FE
:102220005A61FB681B891BB21846FFF7C5FDFA68A7
:1022300042F2E953C2F200031362FB685B684FF09D
:102240000102C3F88420FB681B891BB21846FFF704
:1022500079FD07F11007BD4680BD00BF80B485B091
:1022600000AF78604FF00003BB734FF00003FB73C7
:102270007A6843F6CC33C2F200039A4207D07A68F8
:1022800043F6A433C2F200039A4200D000BE7A683B
:1022900043F6CC33C2F200039A4206D07A6843F682
:1022A000A433C2F200039A4217D17B681B681B7DDE
:1022B000FB737B689A7AFB7B42EA0303DAB27B68A2
:1022C0009A727B681B69002B07D1FB7B03F04003EC
:1022D000002B02D04FF00103BB73BB7B5BB21846EF
:1022E00007F11407BD4680BC704700BF80B487B0BB
:1022F00000AFF860B9607A604FF000033B614FF0C7
:102300000003FB75FA6843F6CC33C2F200039A422D
:1023100007D0FA6843F6A433C2F200039A4200D011
:1023200000BEBB68002B00D100BE7B68002B00D133
:1023300000BEFA6843F6CC33C2F200039A4206D0DC
:10234000FA6843F6A433C2F200039A4234D1BB6860
:10235000002B31D07B68002B2ED0FB681B681B7DC7
:10236000FB75FB689A7AFB7D42EA0303DAB2FB68ED
:102370009A7217E0BA683B691344FA6812681278D7
:10238000D2B21A703B6903F101033B61FB681B6821
:102390001B7DFB75FB689A7AFB7D42EA0303DAB288
:1023A000FB689A72FB7D03F00103DBB2002B03D0C4
:1023B0003A697B689A42DDD33B69184607F11C07EE
:1023C000BD4680BC704700BF80B582B000AF78606A
:1023D0000B46FB707A6843F6CC33C2F200039A4294
:1023E00007D07A6843F6A433C2F200039A4200D0C1
:1023F00000BE7A6843F6CC33C2F200039A4206D09C
:102400007A6843F6A433C2F200039A4216D17B687D
:102410001B891BB21846FFF7CFFC7B681B687A68E4
:1024200012681279D1B2FA7841EA0202D2B21A7174
:102430007B681B891BB21846FFF784FC07F108076D
:10244000BD4680BD80B582B000AF78600B46FB70A2
:102450007A6843F6CC33C2F200039A4207D07A6816
:1024600043F6A433C2F200039A4200D000BE7A6859
:1024700043F6CC33C2F200039A4206D07A6843F6A0
:10248000A433C2F200039A421CD17B681B687A68AD
:1024900012681279D1B2FA786FEA0202D2B201EA76
:1024A0000202D2B21A717B681B891BB21846FFF771
:1024B00083FCFB780F2B05D17B681B891BB2184668
:1024C000FFF75CFC07F10807BD4680BD80B584B00E
:1024D00000AF78607A6843F6CC33C2F200039A42C8
:1024E00007D07A6843F6A433C2F200039A4200D0C0
:1024F00000BE7A6843F6CC33C2F200039A4206D09B
:102500007A6843F6A433C2F200039A4267D17B682B
:102510001B681B7ADBB203F00F03FB73FB7B0C2BF6
:1025200054D801A252F823F05D250020CD250020CB
:1025300079250020CD25002095250020CD250020DF
:10254000B1250020CD250020CD250020CD2500205F
:10255000CD250020CD250020952500207B685B6AD5
:10256000002B00D100BE7B685B6A002B30D07B68FB
:102570005B6A7868984732E07B681B6A002B00D161
:1025800000BE7B681B6A002B24D07B681B6A7868BE
:10259000984724E07B68DB69002B00D100BE7B6894
:1025A000DB69002B18D07B68DB697868984716E0F8
:1025B0007B689B69002B00D100BE7B689B69002B68
:1025C0000CD07B689B697868984708E000BE06E0FD
:1025D00000BF04E000BF02E000BF00E000BF07F161
:1025E0001007BD4680BD00BF80B487B000AF7860E3
:1025F0007A6843F6CC33C2F200039A4207D07A6875
:1026000043F6A433C2F200039A4200D000BE7B68B6
:10261000DB68002B00D100BE7B681B69002B00D15A
:1026200000BE7A6843F6CC33C2F200039A4206D069
:102630007A6843F6A433C2F200039A4252D17B680F
:10264000DB68002B4ED07B681B69002B4AD07B686F
:102650001B681B7DFB727B689A7AFB7A42EA030354
:10266000DAB27B689A72FB7A03F02003002B29D040
:102670004FF010033B617B681A697B685B69C3EBB1
:1026800002037B617B690F2B01D87B693B614FF0B3
:102690000003FB6012E07B681B687A68D1687A6887
:1026A00052690A4412781A707B685B6903F101026F
:1026B0007B685A61FB6803F10103FB60FA683B69C0
:1026C0009A42E8D37B685A697B681B699A4209D1B0
:1026D0007B684FF000021A617B685B684FF0000274
:1026E000C3F8842007F11C07BD4680BC704700BFBB
:1026F00080B584B000AFF860B9601346FB71FA682A
:1027000043F6CC33C2F200039A4207D0FA6843F68C
:10271000A433C2F200039A4200D000BEBB68002B73
:1027200000D100BEFB79C02B00D900BEFA6843F689
:10273000CC33C2F200039A4206D0FA6843F6A433BF
:10274000C2F200039A4223D1BB68002B20D0FB7950
:10275000C02B1DD8FB68BA68DA61FB681A68FB7980
:1027600003F0C00343F00A03DBB21372FB681B895A
:102770001BB21846FFF720FBFB685B684FF00102B5
:10278000C3F88020FB681B891BB21846FFF7DAFAF2
:1027900007F11007BD4680BD80B483B000AF7860FC
:1027A0000B46FB707A6843F6CC33C2F200039A42C0
:1027B00007D07A6843F6A433C2F200039A4200D0ED
:1027C00000BE7A6843F6CC33C2F200039A4206D0C8
:1027D0007A6843F6A433C2F200039A420FD1FB7821
:1027E000002B06D17B685B684FF00002C3F8102213
:1027F00005E07B685B684FF00102C3F8102207F127
:102800000C07BD4680BC7047684620F007018D4626
:1028100089B500AF43F6CC30C2F20000FFF756FE98
:102820004FF00A00FFF7C8FABD46BDE8894085466B
:10283000704700BF684620F007018D4689B500AF9C
:1028400043F6A430C2F20000FFF740FE4FF00B0049
:10285000FFF7B2FABD46BDE889408546704700BF24
:1028600080B582B000AF786039607A6843F6CC33C7
:10287000C2F200039A4207D07A6843F6A433C2F248
:1028800000039A4200D000BE3B68002B00D100BE7E
:102890007A6843F6CC33C2F200039A4206D07A68D3
:1028A00043F6A433C2F200039A4217D13B68002BCF
:1028B00014D07B683A689A617B681B891BB2184602
:1028C000FFF77AFA7B685B684FF00102C3F8882053
:1028D0007B681B891BB21846FFF734FA07F108071B
:1028E000BD4680BD80B582B000AF786039607A683F
:1028F00043F6CC33C2F200039A4207D07A6843F61B
:10290000A433C2F200039A4200D000BE3B68002B01
:1029100000D100BE7A6843F6CC33C2F200039A427B
:1029200006D07A6843F6A433C2F200039A421FD15C
:102930003B68002B1CD07B683A681A627B684FF0BA
:102940000002DA607B684FF000021A617B681B8925
:102950001BB21846FFF730FA7B685B684FF0010244
:10296000C3F884207B681B891BB21846FFF7EAF97D
:1029700007F10807BD4680BD80B582B000AF786022
:1029800039607A6843F6CC33C2F200039A4207D02A
:102990007A6843F6A433C2F200039A4200D000BE24
:1029A0003B68002B00D100BE7A6843F6CC33C2F2FC
:1029B00000039A4206D07A6843F6A433C2F20003B9
:1029C0009A4217D13B68002B14D07B683A685A6250
:1029D0007B681B891BB21846FFF7EEF97B685B68C2
:1029E0004FF00102C3F88C207B681B891BB218468C
:1029F000FFF7A8F907F10807BD4680BD80B489B08C
:102A000000AFF860B9607A604FF00003FB754FF0DB
:102A10000003BB61FA6843F6CC33C2F200039A426A
:102A200007D0FA6843F6A433C2F200039A4200D0FA
:102A300000BEBB68002B00D100BE7B68002B00D11C
:102A400000BEFA6843F6CC33C2F200039A4206D0C5
:102A5000FA6843F6A433C2F200039A4231D1BB684C
:102A6000002B2ED07B68002B2BD0FB681B681B7DB6
:102A7000FB75FB689A7AFB7D42EA0303DAB2FB68D6
:102A80009A72FB7D03F02003002B1AD04FF0100345
:102A9000FB617B680F2B01D87B68FB614FF0000363
:102AA000BB610AE0FB681B68B968BA690A4412781E
:102AB0001A70BB6903F10103BB61BA69FB699A42F1
:102AC000F0D3BB69184607F12407BD4680BC7047A8
:102AD00080B485B000AF78604FF0FF33FB737A6845
:102AE00043F6CC33C2F200039A4207D07A6843F629
:102AF000A433C2F200039A4200D000BE7A6843F6C3
:102B0000CC33C2F200039A4206D07A6843F6A4336B
:102B1000C2F200039A4213D17B689A7A7B681B68E1
:102B20001B7DDBB242EA0303DAB27B689A727B68F0
:102B30009B7A23F06103FB737B684FF000029A726B
:102B4000FB7B184607F11407BD4680BC704700BFE9
:102B500080B485B000AF78604FF0FF33FB737A68C4
:102B600043F6CC33C2F200039A4207D07A6843F6A8
:102B7000A433C2F200039A4200D000BE7A6843F642
:102B8000CC33C2F200039A4206D07A6843F6A433EB
:102B9000C2F200039A4203D17B681B681B7EFB7361
:102BA000FB7B184607F11407BD4680BC704700BF89
:102BB00080B485B000AF78604FF00003FB737A6893
:102BC00043F6CC33C2F200039A4207D07A6843F648
:102BD000A433C2F200039A4200D000BE7A6843F6E2
:102BE000CC33C2F200039A4206D07A6843F6A4338B
:102BF000C2F200039A420FD17B681B681B7DFB73F6
:102C00007B689A7AFB7B42EA0303DAB27B689A72AA
:102C1000FB7B03F06003FB73FB7B184607F1140793
:102C2000BD4680BC704700BF80B483B000AF034690
:102C3000FB804EF20013CEF20003B7F906204FEAF4
:102C40005212F98801F01F014FF0010000FA01F162
:102C500043F8221007F10C07BD4680BC704700BF47
:102C600080B483B000AF0346FB804EF20013CEF277
:102C70000003B7F906204FEA5212F98801F01F014C
:102C80004FF0010000FA01F102F1600243F8221056
:102C900007F10C07BD4680BC704700BF80B582B00D
:102CA00000AF42F20003CEF2040342F20002CEF281
:102CB0000402126B42F480421A634FF000037B60FF
:102CC0000EE07A6843F6E013C2F2000333F81230E4
:102CD0001BB21846FFF7C4FF7B6803F101037B605A
:102CE0007B681F2BEDD942F20003CEF2040342F2BF
:102CF0000002CEF20402126B22F480421A6307F142
:102D00000807BD4680BD00BF80B485B000AF034654
:102D10003960FB71FB79FB60FB681F2B00D900BE9B
:102D2000FB681F2B08D8FA6843F66013C2F2000351
:102D300053F822303A681A6007F11407BD4680BC88
:102D4000704700BF80B485B000AF02460B46FA71F1
:102D5000BB71FB79FB60FB681F2B00D900BEFB68D1
:102D60001F2B09D840F20003C4F22623FA68B97970
:102D700002F5886243F8221007F11407BD4680BCB3
:102D8000704700BF80B487B000AF02460B46FA71AF
:102D9000BB71FB797B617B691F2B00D900BE7B690E
:102DA0001F2B7DD8BB79012B04D0022B60D0002BC8
:102DB0002ED074E043F20003C4F20103D3F888304C
:102DC000FB607B694FF0010202FA03F3FA6842EA02
:102DD0000303FB6043F20003C4F20103FA68C3F883
:102DE00088207A6943F66013C2F2000353F8223058
:102DF0001B683B613B6943F004033B617A6943F61E
:102E00006013C2F2000353F822303A691A6047E0B7
:102E100043F20003C4F20103D3F88830FB607B69FE
:102E20004FF0010202FA03F36FEA0303FA6802EAC1
:102E30000303FB6043F20003C4F20103FA68C3F822
:102E400088207A6943F66013C2F2000353F82230F7
:102E50001B683B613B6943F004033B617A6943F6BD
:102E60006013C2F2000353F822303A691A6017E087
:102E70007A6943F66013C2F2000353F822301B68EC
:102E80003B613B6923F004033B617A6943F66013BD
:102E9000C2F2000353F822303A691A6000E000BE23
:102EA00007F11C07BD4680BC704700BF80B584B0E9
:102EB00000AF0346FB71FB79FB60FB681F2B00D959
:102EC00000BEFB681F2B1ED8FA6843F66013C2F2DF
:102ED000000353F822301B68BB60FA6843F66013A6
:102EE000C2F2000353F82230BA6842F008021A60B6
:102EF000FA6843F6E013C2F2000333F812301BB253
:102F00001846FFF791FE07F11007BD4680BD00BFD0
:102F100080B485B000AF0346FB71FB79FB60FB68B2
:102F20001F2B00D900BEFB681F2B13D8FA6843F68D
:102F30006013C2F2000353F822301B68BB60FA68CA
:102F400043F66013C2F2000353F82230BA6822F04D
:102F500008021A6007F11407BD4680BC704700BF25
:102F600080B584B000AF0346FB71FB79FB60FB6862
:102F70001F2B00D900BEFB681F2B15D843F200039E
:102F8000C4F20103FA684FF0010101FA02F2C3F83A
:102F90008020FA6843F6E013C2F2000333F81230DF
:102FA0001BB21846FFF75CFE07F11007BD4680BD57
:102FB000684620F007018D4681B482B000AF42F22E
:102FC0000003CEF2040342F20002CEF20402126DBC
:102FD00042F4E0221A6542F20003CEF2040342F208
:102FE0000002CEF20402D26C22F47C1242F470127F
:102FF000DA6442F20003CEF2040342F20002CEF29F
:103000000402126D22F0706242F080721A654FF075
:1030100064033B6042F20003CEF204035B6B03F0F7
:1030200003037B607B68032B04D13B6803F1FF3310
:103030003B6002E04FF064033B603B68002BE9D14A
:103040004EF60053CEF2000340F20402C0F2FA52F0
:10305000DA6007F10807BD4681BC8546704700BFAE
:103060004FF00004EFF309842046704723461846CA
:10307000034683F3098870474FF00004EFF3088498
:103080002046704723461846034683F30888704756
:1030900080B483B000AF4FF000037B60EFF3128386
:1030A0007B607B68184607F10C07BD4680BC704703
:1030B00080B483B000AF78607B6883F3118807F138
:1030C0000C07BD4680BC704780B483B000AF4FF0A2
:1030D00000037B60EFF310837B607B68184607F189
:1030E0000C07BD4680BC704780B483B000AF7860E9
:1030F0007B6883F3108807F10C07BD4680BC7047DE
:1031000080B483B000AF4FF000037B60EFF3138314
:103110007B607B68184607F10C07BD4680BC704792
:1031200080B483B000AF78607B6883F3138807F1C5
:103130000C07BD4680BC704780B483B000AF4FF031
:1031400000037B60EFF314837B607B68184607F114
:103150000C07BD4680BC704780B483B000AF786078
:103160007B6883F3148807F10C07BD4680BC704769
:1031700080B485B000AF78604FF00003FB607B68DF
:103180001BBAFB60FB68184607F11407BD4680BCFC
:10319000704700BF80B485B000AF0346FB804FF09E
:1031A0000003FB60FB885BBAFB60FB68184607F115
:1031B0001407BD4680BC704780B485B000AF03469D
:1031C000FB804FF00003FB60FB88DBBAFB60FB6811
:1031D000184607F11407BD4680BC704780B485B01F
:1031E00000AF78604FF00003FB607B6893FAA3F3B5
:1031F000FB60FB68184607F11407BD4680BC7047AA
:1032000080B485B000AF78604FF00003FB737B683B
:10321000D3E84F3FFB73FB7B184607F11407BD460D
:1032200080BC704780B485B000AF78604FF0000379
:10323000FB817B68D3E85F3FFB81FB89184607F180
:103240001407BD4680BC704780B485B000AF78607D
:103250004FF00003FB607B6853E8003FFB60FB68B6
:10326000184607F11407BD4680BC704780B485B08E
:1032700000AF03463960FB714FF00003FB603B6811
:10328000FA79C3E8432FFB60FB68184607F114077F
:10329000BD4680BC704700BF80B485B000AF034618
:1032A0003960FB804FF00003FB603B68FA88C3E89D
:1032B000532FFB60FB68184607F11407BD4680BC1E
:1032C000704700BF80B485B000AF786039604FF0C0
:1032D0000003FB603B687A6843E80023FB60FB68FF
:1032E000184607F11407BD4680BC704780B400AF94
:1032F000BD4680BC704700BF80B58AB000AF43F6C2
:103300002023C2F20003BC460FCB8CE80F0042F230
:103310000003CEF204039B6C4FEA930303F0030314
:103320004FEA830307F12802134453F8283C3B611A
:1033300042F20003CEF204039B6C4FEA131303F036
:1033400003034FEA830307F12802134453F8283C90
:103350007B6142F20003CEF204039B6C4FEA9313AD
:1033600003F003034FEA830307F12802134453F8E1
:10337000283CBB6142F20003CEF20403DB6C4FEA4F
:10338000132303F01F033B6242F20003CEF2040357
:10339000DB6C4FEA533303F001037B623B6A03F1BA
:1033A0000103FB617B6A002B03D0FB694FEA4303F7
:1033B000FB6100F049F8024643F68023C2F20003A5
:1033C0001A6043F68023C2F200031A683B69B2FB1D
:1033D000F3F243F68423C2F200031A6043F680231B
:1033E000C2F200031A687B69B2FBF3F243F688234A
:1033F000C2F200031A6043F68023C2F200031A6887
:10340000BB69B2FBF3F243F68C23C2F200031A60ED
:1034100043F68023C2F200031A68FB69B2FBF3F2A1
:1034200043F69023C2F200031A6043F68023C2F2EF
:1034300000031A6843F67C23C2F200031A6007F106
:103440002807BD4680BD00BF80B48BB000AF4FF0F1
:1034500000037B6040F61C03C6F20803BB6040F229
:103460003023C6F20803FB60FB681B6823F070433F
:103470003B613A6941F2CF13C0F2A1539A4208D19D
:103480004EF62C73C6F201037B617B691B687B607F
:103490003DE0BB681A6844F24133C4F654439A4293
:1034A00035D140F64003C6F20803BB61BB691B6817
:1034B000FB61FB6923F07F43FB61FA6940F2003353
:1034C000C0F201039A4222D9FA694FF6FF73C0F2A3
:1034D00001039A4208D841F22C63C6F208033B620A
:1034E0003B6A1B687B6012E0FA694FF6FF73C0F21B
:1034F00002039A4208D841F6AC63C6F208037B6225
:103500007B6A1B687B6002E04FF000037B607B6896
:10351000002B05D100BE47F64003C0F27D137B604F
:103520007B68184607F12C07BD4680BC704700BF7A
:1035300080B483B000AF78604FF0FF33184607F1D6
:103540000C07BD4680BC704780B584B000AFF86002
:10355000B9607A6000F04CF903464FF00C021A6033
:103560004FF0FF33184607F11007BD4680BD00BF7E
:1035700080B483B000AF7860FEE700BF80B500AFD5
:1035800000F036F903464FF00B021A604FF0FF339C
:10359000184680BD80B483B000AF786039603B6866
:1035A0004FF400525A604FF00003184607F10C0721
:1035B000BD4680BC704700BF80B400AF4FF0010330
:1035C0001846BD4680BC704780B483B000AF7860B9
:1035D0004FF00103184607F10C07BD4680BC704749
:1035E00080B582B000AF7860396000F001F9034621
:1035F0004FF016021A604FF0FF33184607F1080724
:10360000BD4680BD80B582B000AF7860396000F003
:10361000EFF803464FF01F021A604FF0FF331846D1
:1036200007F10807BD4680BD80B485B000AFF860E3
:10363000B9607A604FF00003184607F11407BD46E1
:1036400080BC704780B485B000AFF860B9607A6024
:103650004FF0FF33184607F11407BD4680BC704792
:1036600080B485B000AFF860B9607A604FF00003B5
:10367000184607F11407BD4680BC704780B584B07A
:1036800000AFF860B9607A603B6043F69033C2F2F5
:1036900000031B68002B10D143F6CC30C2F20000AF
:1036A0004FF461414FF00302FEF7A4FB43F6903361
:1036B000C2F200034FF001021A603B6843F6CC30BF
:1036C000C2F2000079681A46FEF796FC3B6818467D
:1036D00007F11007BD4680BD80B584B000AF7860AB
:1036E00043F69833C2F200031B68002B08D143F65F
:1036F0009833C2F2000343F6F832C2F200021A60B5
:1037000043F69833C2F200031B68BB60EFF30883F3
:10371000FB6043F69833C2F200031A687B681A44D0
:10372000FB689A420FD94FF000004FF0010143F6B9
:103730003022C2F200024FF01903FFF79FFF4FF053
:103740000100FFF715FF43F69833C2F200031A6831
:103750007B681A4443F69833C2F200031A60BB68D0
:10376000184607F11007BD4680BD00BF80B483B086
:1037700000AF786039603B684FF400525A604FF0F8
:103780000003184607F10C07BD4680BC704700BF18
:1037900080B483B000AF78604FF0FF33184607F174
:1037A0000C07BD4680BC704780B582B000AF786022
:1037B00000F01EF803464FF002021A604FF0FF338C
:1037C000184607F10807BD4680BD00BF80B582B02E
:1037D00000AF786000F00CF803464FF00A021A6060
:1037E0004FF0FF33184607F10807BD4680BD00BF04
:1037F00043F69823C2F200031868704770B543F689
:103800006C2643F66C25C2F20006C2F20005761B58
:10381000B61006D0002455F8243001349847A6424B
:10382000F9D843F66C2543F67026C2F20005C2F2C1
:103830000006761B00F00EF9B61006D0002455F8ED
:10384000243001349847A642F9D870BD0001020423
:103850000810204080010204081020408000000071
:1038600000000100020004000800100020004000D9
:103870008000000100020004000800100020004049
:103880000080000000000000100000001800000090
:103890002000000028000000300000003800000078
:1038A00040000000480000005000000058000000E8
:1038B0006000000068000000700000007800000058
:1038C00080000000880000000000000014000000DC
:1038D0001C000000240000002C0000003400000048
:1038E0003C000000440000004C00000054000000B8
:1038F0005C000000640000006C0000007400000028
:103900007C000000840000008C000000000000002B
:10391000A4000000A8000000AC000000B0000000FF
:10392000B4000000B8000000BC000000C0000000AF
:10393000C4000000C8000000CC000000D00000005F
:10394000D4000000D8000000DC000000E00000000F
:103950002E2E2F636F72655F70776D2E63000000EF
:103960000030014004300140083001400C3001407B
:103970001030014014300140183001401C3001402B
:103980002030014024300140283001402C300140DB
:103990003030014034300140383001403C3001408B
:1039A0004030014044300140483001404C3001403B
:1039B0005030014054300140583001405C300140EB
:1039C0006030014064300140683001406C3001409B
:1039D0007030014074300140783001407C3001404B
:1039E00020002100220023002400250026002700BB
:1039F000280029002A002B002C002D002E002F006B
:103A0000300031003200330034003500360037001A
:103A1000380039003A003B003C003D003E003F00CA
:103A2000010000000200000004000000010000008E
:103A30004865617020616E6420737461636B2063FC
:103A40006F6C6C6973696F6E0A0000009C3A00200D
:103A500043000000F8B500BFF8BC08BC9E467047A4
:103A6000F8B500BFF8BC08BC9E467047850400202E
:043A700071040020BD
:103A7400000000000000000040787D0140787D01D6
:103A8400105E5F00105E5F00105E5F00105E5F00FE
:103A9400943B00209C3A002000000000000000003D
:103AA4000000000000000000000000000000000012
:103AB4000000000000000000503A00200000000058
:103AC40000000000000000000000000000000000F2
:103AD40000000000000000000000000000000000E2
:103AE40000000000000000000000000000000000D2
:103AF40000000000000000000000000000000000C2
:103B040000000000000000000000000000000000B1
:103B140000000000000000000000000000000000A1
:103B24000000000000000000000000000000000091
:103B34000000000000000000000000000000000081
:103B44000000000000000000000000000000000071
:103B54000000000000000000000000000000000061
:103B64000000000000000000000000000000000051
:103B74000000000000000000000000000000000041
:083B8400000000000000000039
:04000005200002993C
:00000001FF
