S00D000066696E616C2E737265630D
S315200000000000012099020020090300200B03002094
S315200000100D0300200F030020110300200000000024
S315200000200000000000000000000000001303002074
S3152000003015030020000000001703002019030020EC
S315200000401B030020291600201F0300202103002067
S315200000502303002025030020270300202903002056
S315200000602B0300202D030020ED0F00201D10002063
S3152000007033030020350300203703002039030020F6
S315200000803B0300203D0300203F03002041030020C6
S315200000904303002045030020470300204903002096
S315200000A04B030020000000000000000000000000BC
S315200000B00000000000000000000000004D030020AA
S315200000C04F03002051030020530300205503002036
S315200000D057030020590300205B0300205D03002006
S315200000E05F030020610300206303002065030020D6
S315200000F067030020690300206B0300206D030020A6
S315200001006F03002071030020730300207503002075
S3152000011077030020790300207B0300207D03002045
S315200001207F03002081030020830300208503002015
S3152000013087030020890300208B0300208D030020E5
S315200001408F030020910300209303002095030020B5
S3152000015097030020990300209B0300209D03002085
S315200001609F030020A1030020A3030020A503002055
S31520000170A7030020A9030020AB030020AD03002025
S31520000180AF030020B1030020B3030020B5030020F5
S31520000190B7030020B9030020BB030020BD030020C5
S315200001A0BF030020C1030020C3030020C503002095
S315200001B0C7030020C9030020CB030020CD03002065
S315200001C0CF030020D1030020D3030020D503002035
S315200001D0D7030020D9030020DB030020DD03002005
S315200001E0DF030020E1030020E3030020E5030020D5
S315200001F0E7030020E9030020EB030020ED030020A5
S31520000200EF030020F1030020F3030020F503002074
S31520000210F7030020F9030020FB030020FD03002044
S31520000220FF03002001040020030400200504002011
S3152000023007040020090400200B0400200D040020E0
S315200002400F040020110400201304002015040020B0
S3152000025017040020190400201B0400201D04002080
S315200002601F04002021040020230400202504002050
S3152000027027040020290400202B0400202D04002020
S315200002802F040020310400203304002035040020F0
S315200002903704002039040020684880476848002831
S315200002A00BD168486849694A884206D091421CBFEA
S315200002B050F8043B41F8043BF8D165486549664A45
S315200002C0884206D091421CBF50F8043B41F8043BBB
S315200002D0F8D162486249634A914218BF41F8040B3B
S315200002E0FAD100000000000000000000000000001D
S315200002F0DFF874010FF2030E00474FF000004FF0B5
S315200003000001DFF868F1FEE7FEE7FEE7FEE7FEE71D
S31520000310FEE7FEE7FEE7FEE7FEE7FEE7FEE7FEE78F
S31520000320FEE7FEE7FEE7FEE7FEE7FEE7FEE7FEE77F
S31520000330FEE7FEE7FEE7FEE7FEE7FEE7FEE7FEE76F
S31520000340FEE7FEE7FEE7FEE7FEE7FEE7FEE7FEE75F
S31520000350FEE7FEE7FEE7FEE7FEE7FEE7FEE7FEE74F
S31520000360FEE7FEE7FEE7FEE7FEE7FEE7FEE7FEE73F
S31520000370FEE7FEE7FEE7FEE7FEE7FEE7FEE7FEE72F
S31520000380FEE7FEE7FEE7FEE7FEE7FEE7FEE7FEE71F
S31520000390FEE7FEE7FEE7FEE7FEE7FEE7FEE7FEE70F
S315200003A0FEE7FEE7FEE7FEE7FEE7FEE7FEE7FEE7FF
S315200003B0FEE7FEE7FEE7FEE7FEE7FEE7FEE7FEE7EF
S315200003C0FEE7FEE7FEE7FEE7FEE7FEE7FEE7FEE7DF
S315200003D0FEE7FEE7FEE7FEE7FEE7FEE7FEE7FEE7CF
S315200003E0FEE7FEE7FEE7FEE7FEE7FEE7FEE7FEE7BF
S315200003F0FEE7FEE7FEE7FEE7FEE7FEE7FEE7FEE7AF
S31520000400FEE7FEE7FEE7FEE7FEE7FEE7FEE7FEE79E
S31520000410FEE7FEE7FEE7FEE7FEE7FEE7FEE7FEE78E
S31520000420FEE7FEE7FEE7FEE7FEE7FEE7FEE7FEE77E
S31520000430FEE7FEE7FEE7FEE7FEE7000031170020B5
S31520000440000000000000002000000020543800209A
S3152000045054380020543800207C3D00200000000045
S315200004607C3D0020183E0020C1190020450A0020AE
S3152000047043F67C53C2F200031A780AB90120187099
S31520000480704700BF43F65400C2F2000008B5036867
S315200004902BB140F20003C0F2000303B1984708BD18
S315200004A082B00190019B33B1019B03F1FF3301938D
S315200004B0019B002BF8D102B0704700BF2DE9F04F09
S315200004C0AFB081460DF19C0C43F2A86EC2F2000E2D
S315200004D0BEE80F00ACE80F0063469EE8070003C3A2
S315200004E01A804FF00004254627AE4FF013074FF031
S315200004F001084FF0020A2846294600F0F3FF335D33
S31520000500312B0AD15046FFF7CBFF2846414600F053
S31520000510E9FF3846FFF7C4FF09E03846FFF7C0FF7A
S315200005202846414600F0DEFF5046FFF7B9FF04F1AA
S315200005300104192CDFD14FF000004FF0020100F02A
S31520000540D1FF4FF000044FF0010643F20005C4F23C
S3152000055001053046FFF7A4FFD5F8847004F10104A5
S31520000560222CF6D14FF01E00FFF79AFF43F200042B
S31520000570C4F20104D4F8840025904FF01E00FFF742
S315200005808FFFD4F8841024914FF02000FFF788FFC6
S31520000590D4F8842023924FF02100FFF781FFD4F86E
S315200005A0843022934FF02100FFF77AFFD4F884306D
S315200005B04FF02100FFF774FFD4F8840021904FF00C
S315200005C02100FFF76DFFD4F8841020914FF0210011
S315200005D0FFF766FFD4F884B04FF01F00FFF760FFE7
S315200005E0D4F884A04FF01F00FFF75AFFD4F8848078
S315200005F04FF02000FFF754FFD4F884604FF020001E
S31520000600FFF74EFFD4F884504FF02000FFF748FF45
S31520000610D4F884201F924FF02000FFF741FFD4F832
S3152000062084301E934FF02000FFF73AFFD4F8840061
S315200006301D904FF02000FFF733FFD4F884101C9153
S315200006404FF02000FFF72CFFD4F884201B924FF0A8
S315200006502000FFF725FFD4F884301A934FF02000AE
S31520000660FFF71EFFD4F8840019904FF02000FFF703
S3152000067017FFD4F8841018914FF01E00FFF710FFD3
S31520000680D4F8842017924FF01E00FFF709FFD4F804
S31520000690843016934FF01E00FFF702FFD4F8840033
S315200006A015904FF01E00FFF7FBFED4F8841014912E
S315200006B04FF01E00FFF7F4FED4F8842013924FF07B
S315200006C01F00FFF7EDFED4F8843012934FF01F0081
S315200006D0FFF7E6FED4F8840011904FF01E00FFF7D6
S315200006E0DFFED4F8841010914FF01E00FFF7D8FEDD
S315200006F0D4F884200F924FF01E00FFF7D1FED4F8D5
S3152000070084300E934FF02000FFF7CAFED4F8840001
S315200007100D904FF01F00FFF7C3FED4F884100C9104
S315200007204FF02200FFF7BCFED4F884200B924FF046
S315200007301F00FFF7B5FED4F884300A934FF020004F
S31520000740FFF7AEFED4F8840009904FF01E00FFF7A5
S31520000750A7FED4F8841008914FF02000FFF7A0FEE2
S31520000760D4F8842007924FF02000FFF799FED4F8A2
S31520000770843006934FF02000FFF792FED4F88400D1
S3152000078005904FF01F00FFF78BFED4F884100491DC
S315200007904FF02200FFF784FED4F8842003924FF016
S315200007A01F00FFF77DFED4F8843002934FF020001F
S315200007B0FFF776FED4F8840001904FF01E00FFF775
S315200007C06FFED4F884304FF00002C9F80420C9F82F
S315200007D03050C9F82C60C9F82880C9F824A0C9F877
S315200007E020B02099C9F81C10219AC9F818202298FF
S315200007F0C9F814002399C9F81010249AC9F80C20B6
S315200008002598C9F80800C9F800704FF00002C9F809
S315200008104820C9F8442007994FEAC11202F0FF0286
S31520000820069800F0010142EA811203F0010342EA30
S315200008300303059901F0010243EA4213049800F0EC
S31520000840010243EA0213039901F0010243EAC203BB
S31520000850029800F0010243EA8203019901F00102A5
S3152000086043EA4203C9F840300F9A4FEAC21303F015
S31520000870FF030E9800F0010243EA8213089901F063
S31520000880010243EA02030D9800F0010243EA4213F3
S315200008900C9901F0010243EA02130B9800F00102C1
S315200008A043EAC2030A9901F0010243EA8203099846
S315200008B000F0010243EA4203C9F83C3017994FEA97
S315200008C0C11303F0FF03169800F0010243EA8213D6
S315200008D0109901F0010243EA0203159800F0010283
S315200008E043EA4213149901F0010243EA02131398D2
S315200008F000F0010243EAC203129901F0010243EA21
S315200009008203119800F0010243EA4203C9F8383005
S315200009101F994FEAC11303F0FF031E9800F001024E
S3152000092043EA8212189901F0010342EA03031D9853
S3152000093000F0010243EA42131C9901F0010243EA46
S3152000094002131B9800F0010243EAC2031A9901F030
S31520000950010243EA8203199800F0010243EA4203A6
S31520000960C9F8343048462FB0BDE8F08F70B594B042
S3152000097004460E466D4668464FF00101FFF79EFD80
S31520000980204669464FF04C0201F042F84FF0000332
S315200009906360336823B9236813B14FF001036360A2
S315200009A0304621464FF04C0201F032F863682BB1F5
S315200009B043F2C460C2F2000001F02EF914B070BDFB
S315200009C02DE9F04184B001AB43F2D462C2F20002B9
S315200009D007CA03C31A804FF00004254601AF4FF023
S315200009E013084FF001062846294600F07BFD3B5DA3
S315200009F0312B0AD13046FFF753FD2846314600F009
S31520000A0071FD4046FFF74CFD09E04046FFF748FDE3
S31520000A102846314600F066FD3046FFF741FD04F1D9
S31520000A200104092CDFD14FF000004FF0020100F045
S31520000A3059FD48F2A060C0F20100FFF731FD04B075
S31520000A40BDE8F08170B5A6B000F000FD4FF00004BF
S31520000A50009420464FF0030100F028FD20464FF079
S31520000A60020100F03FFDFFF7ABFF13AD44F2402437
S31520000A70C0F20F0428466946FFF778FF2046FFF7A5
S31520000A800FFDF7E72DE9F00543F6E853C2F2000320
S31520000A90984206D043F6C053C2F20003984200D0D3
S31520000AA000BE01B900BE02B900BE43F6E853C2F249
S31520000AB00003984205D043F6C053C2F20003984281
S31520000AC033D1131E18BF012300290CBF002303F0C6
S31520000AD00103002B29D04FF00007B8464FF0100A2B
S31520000AE003681B7D90F80AC043EA0C0C80F80AC004
S31520000AF013F0200F17D00F2A04D95646BC4643467A
S31520000B000F4404E00AB943460BE01646F6E70468AC
S31520000B10FD5C25700CF1010C03F101039E42F6D811
S31520000B206746C3EB0202002ADAD1BDE8F00570471A
S31520000B30F0B443F6E853C2F20003984206D043F6D7
S31520000B40C053C2F20003984200D000BE01B900BED5
S31520000B5043F6E853C2F20003984205D043F6C05349
S31520000B60C2F20003984228D139B30D782DB34FF045
S31520000B70000C66460468237D827A43EA020282726A
S31520000B8013F0200FF7D0C5B1334601EB0C070268EE
S31520000B90EDB2157003F1010303EB0C04FD5C0F2B82
S31520000BA08CBF00220122002D0CBF002202F0010280
S31520000BB0002AECD10DB1A446DCE7F0BC704700BF9B
S31520000BC010B443F6E853C2F20003984206D043F627
S31520000BD0C053C2F20003984200D000BE01B900BE45
S31520000BE00AB900BE36E0002934D043F6E853C2F2F3
S31520000BF00003984205D043F6C053C2F20003984240
S31520000C0028D1C16002614FF000034361038919B204
S31520000C104FEA511103F01F034FF0010202FA03F4C9
S31520000C204EF20013CEF2000301F1600143F8214099
S31520000C3040F66961C2F2000101624168C1F8842070
S31520000C40018908B24FEA501001F01F0102FA01F2A1
S31520000C5043F8202010BC704743F6E853C2F2000345
S31520000C60984209D043F6C053C2F20003984203D0FB
S31520000C7000BE4FF00000704703681B7D827A43EA6E
S31520000C8002028272026912B14FF000007047C3F36C
S31520000C908010704710B4034643F6E850C2F20000B5
S31520000CA0834206D043F6C050C2F20000834200D0F1
S31520000CB000BE01B900BE02B900BE43F6E850C2F23A
S31520000CC00000834205D043F6C050C2F200008342A2
S31520000CD02AD1101E18BF012000290CBF002400F0C5
S31520000CE001040CB31C6894F814C09C7A4CEA0404E2
S31520000CF09C721CEA000F17D04FF000001C6894F875
S31520000D0000C001F800C000F101001C6894F814C06E
S31520000D109C7A4CEA04049C72824294BF00240CF014
S31520000D200104002CEAD101E04FF0000010BC70470E
S31520000D3010B443F6E853C2F20003984207D043F6B4
S31520000D40C053C2F20003984201D000BE22E00389BC
S31520000D500FFA83FC4FEA5C1C03F01F034FF00102DD
S31520000D6002FA03F44EF20013CEF200030CF1600CEB
S31520000D7043F82C40046894F804C041EA0C01217120
S31520000D80018908B24FEA501001F01F0102FA01F260
S31520000D9043F8202010BC704743F6E853C2F2000304
S31520000DA0984207D043F6C053C2F20003984201D0BE
S31520000DB000BE704703681A7922EA01021A71038974
S31520000DC018B24FEA501003F01F034FF0010202FA47
S31520000DD003F24EF20013CEF2000300F1600C43F84A
S31520000DE02C200F2901BF4EF20013CEF20003203033
S31520000DF043F82020704700BF08B543F6E853C2F2F7
S31520000E000003984207D043F6C053C2F2000398422B
S31520000E1001D000BE08BD03681B7A03F00F030C2B1C
S31520000E2020D8DFE803F0071F0D1F131F191F1F1FF0
S31520000E301F1F1300436A0BB900BE08BD984708BDA3
S31520000E40036A0BB900BE08BD984708BDC3690BB934
S31520000E5000BE08BD984708BD83690BB900BE08BD12
S31520000E60984708BD00BE08BD10B443F6E853C2F249
S31520000E700003984206D043F6C053C2F200039842BC
S31520000E8000D000BEC26802B900BE016901B900BE29
S31520000E9043F6E853C2F20003984205D043F6C05306
S31520000EA0C2F20003984230D1002A2ED000292CD03D
S31520000EB003681B7D827A43EA0202827213F0200FB6
S31520000EC01AD002694369C3EB02030F2B04D94FF0F2
S31520000ED0100C4FF0000302E073B19C46F9E702685C
S31520000EE0C4684169615C1170426902F10102426184
S31520000EF003F101036345F2D3426903699A4201BFB4
S31520000F00002303614268C2F8843010BC704700BFDA
S31520000F1010B443F6E853C2F20003984206D043F6D3
S31520000F20C053C2F20003984200D000BE01B900BEF1
S31520000F30C02A00D900BE43F6E853C2F20003984205
S31520000F4005D043F6C053C2F2000398422FD1C02ADF
S31520000F508CBF0023012300290CBF002303F00103CB
S31520000F602BB3C161036802F0C00242F00A021A7272
S31520000F70038919B24FEA511103F01F034FF0010202
S31520000F8002FA03F44EF20013CEF2000301F16001DF
S31520000F9043F821404168C1F88020018908B24FEA10
S31520000FA0501001F01F0102FA01F243F8202010BC74
S31520000FB0704700BF43F6E853C2F20003984207D0B9
S31520000FC043F6C053C2F20003984201D000BE7047D8
S31520000FD029B943684FF00002C3F8102270474368CE
S31520000FE04FF00102C3F81022704700BF684620F078
S31520000FF007018D4601B543F6E850C2F20000FFF71F
S31520001000FBFE4EF20013CEF200034FF48062C3F8CB
S315200010108021BDE801408546704700BF684620F024
S3152000102007018D4601B543F6C050C2F20000FFF716
S31520001030E3FE4EF20013CEF200034FF40062C3F833
S315200010408021BDE801408546704700BF10B443F6B5
S31520001050E853C2F20003984206D043F6C053C2F2C8
S315200010600003984200D000BE01B900BE43F6E85303
S31520001070C2F20003984205D043F6C053C2F20003E1
S31520001080984220D1F9B18161038919B24FEA5111F1
S3152000109003F01F034FF0010202FA03F44EF200138D
S315200010A0CEF2000301F1600143F821404168C1F806
S315200010B08820018908B24FEA501001F01F0102FA78
S315200010C001F243F8202010BC704700BF10B443F64D
S315200010D0E853C2F20003984206D043F6C053C2F248
S315200010E00003984200D000BE01B900BE43F6E85383
S315200010F0C2F20003984205D043F6C053C2F2000361
S31520001100984224D119B301624FF00003C3600361F2
S31520001110038919B24FEA511103F01F034FF0010260
S3152000112002FA03F44EF20013CEF2000301F160013D
S3152000113043F821404168C1F88420018908B24FEA6A
S31520001140501001F01F0102FA01F243F8202010BCD2
S31520001150704700BF10B443F6E853C2F2000398422A
S3152000116006D043F6C053C2F20003984200D000BE18
S3152000117001B900BE43F6E853C2F20003984205D0F7
S3152000118043F6C053C2F20003984220D1F9B141621E
S31520001190038919B24FEA511103F01F034FF00102E0
S315200011A002FA03F44EF20013CEF2000301F16001BD
S315200011B043F821404168C1F88C20018908B24FEAE2
S315200011C0501001F01F0102FA01F243F8202010BC52
S315200011D0704700BF10B4034643F6E850C2F2000041
S315200011E0834206D043F6C050C2F20000834200D0AC
S315200011F000BE01B900BE02B900BE43F6E850C2F2F5
S315200012000000834205D043F6C050C2F2000083425C
S3152000121026D1101E18BF012000290CBF002400F083
S315200012200104ECB11C6894F814C09C7A4CEA0404BE
S315200012309C721CF0200F13D00F2A04D94FF01004F3
S315200012404FF0000002E058B11446F9E71A6811F889
S3152000125000C082F800C000F10100A042F6D301E0F0
S315200012604FF0000010BC7047024643F6E853C2F226
S315200012700003984209D043F6C053C2F200039842B5
S3152000128003D000BE4FF0FF0070471368187D937A95
S3152000129040EA030000F09E004FF00003937270476F
S315200012A043F6E853C2F20003984209D043F6C053EE
S315200012B0C2F20003984203D000BE4FF0FF007047F1
S315200012C00368187E704700BF43F6E853C2F2000356
S315200012D0984209D043F6C053C2F20003984203D085
S315200012E000BE4FF00000704703681B7D827A43EAF8
S315200012F00202827203F06000704700BF70B5044698
S315200013000D46164643F6E853C2F20003984206D02D
S3152000131043F6C053C2F20003984200D000BE05B97E
S3152000132000BE00F007FA43F6E853C2F200039C42DF
S3152000133026D143F6E853C2F200034FF080421A60EA
S315200013404FF084425A604FF00A021A8143F6600336
S31520001350C2F20003186842F20003CEF204031A6BAD
S3152000136042F080021A634EF20012CEF200024FF4CF
S315200013708061C2F880111A6B22F080021A6325E080
S3152000138040F20003C4F20103236040F20003C4F2DA
S31520001390202363604FF00B03238143F66403C2F2DC
S315200013A00003186842F20003CEF204031A6B42F4DB
S315200013B080721A634EF20012CEF200024FF40061E0
S315200013C0C2F880111A6B22F480721A6323684FF0D8
S315200013D000021A7115B94FF001050FE0B0FBF5F5C3
S315200013E015F0080F4FEA151518BF0135B5F5803FE2
S315200013F038BFADB202D300BE4FF0010563684FF08F
S315200014000102C3F89C2123684FEA15221A7123682A
S31520001410EDB21D7062684FF00003C2F89C3122685D
S31520001420167322684FF00E0111726268C2F81032EC
S315200014302361E3606361E36140F66962C2F2000200
S315200014402262A3616362A37270BD00BF10B442F230
S315200014500003CEF204031A6B42F480421A634FF063
S31520001460000343F2E060C2F200004FF0010C4EF29E
S315200014700014CEF20004C25A11B24FEA511102F002
S315200014801F020CFA02F201F1600144F8212003F157
S315200014900203402BEFD142F20003CEF204031A6B73
S315200014A022F480421A6310BC704700BF1F2801D95E
S315200014B000BE704743F2E063C2F2000303EB8000F4
S315200014C0036C1960704700BF1F2801D900BE704702
S315200014D040F20003C4F2262300F5886043F820106A
S315200014E0704700BF1F2801D900BE7047012903D0CD
S315200014F0E1B1022940D133E043F20003C4F20103F3
S31520001500D3F888104FF0010202FA00F242EA0102F3
S31520001510C3F8882043F2E063C2F2000303EB8000A5
S31520001520036C1A6842F004021A60704743F2000303
S31520001530C4F20103D3F888104FF0010202FA00F238
S3152000154021EA0202C3F8882043F2E063C2F20003D4
S3152000155003EB8000036C1A6842F004021A6070479D
S3152000156043F2E063C2F2000303EB8000036C1A68C7
S3152000157022F004021A60704700BE70471F2801D966
S3152000158000BE704743F2E063C2F2000303EB800221
S31520001590126C116841F00801116033F810301AB24C
S315200015A04FEA521203F01F034FF0010101FA03F133
S315200015B04EF20013CEF2000343F82210704700BF0C
S315200015C01F2801D900BE704743F2E063C2F2000330
S315200015D003EB8000036C1A6822F008021A60704739
S315200015E01F2801D900BE70474FF0010202FA00F110
S315200015F043F20003C4F20103C3F8801043F2E06310
S31520001600C2F2000333F8103019B24FEA511103F039
S315200016101F0302FA03F24EF20013CEF2000301F189
S31520001620600143F821207047684620F007018D4667
S3152000163001B442F20003CEF204031A6D42F4E02212
S315200016401A65DA6C22F47C1242F47012DA641A6D8E
S3152000165022F0706242F080721A654FF064021946D9
S3152000166010464B6B03F00303032B18BF0246F8D139
S31520001670013AF6D14EF60053CEF2000340F20402B0
S31520001680C0F2FA52DA6001BC85467047EFF3098052
S315200016900046704780F30988704700BFEFF3088043
S315200016A00046704780F30888704700BFEFF312802A
S315200016B0704700BF80F31188704700BFEFF310809A
S315200016C0704700BF80F31088704700BFEFF3138088
S315200016D0704700BF80F31388704700BFEFF3148074
S315200016E0704700BF80F31488704700BF00BA704768
S315200016F040BA7047C0BA704790FAA0F0704700BF52
S31520001700D0E84F0FC0B27047D0E85F0F80B2704765
S3152000171050E8000F704700BFC1E8400F704700BF78
S31520001720C1E8500F704700BF41E80000704700BF76
S31520001730704700BF30B484B043F2A073C2F20003F6
S31520001740EC460FCB8CE80F0042F20003CEF20403E6
S315200017509A6C02F00C0204A90A4452F8105C9A6CA6
S31520001760C2F3011201EB820252F8104C9A6CC2F3BA
S31520001770811201EB820252F8100CD96CDB6CC1F39A
S31520001780042101F1010113F4005F18BF490040F262
S315200017903023C6F208031A6822F0704241F2CF13B2
S315200017A0C0F2A1539A4205D14EF62C73C6F201031C
S315200017B01A6828E040F61C03C6F208031A6844F2A9
S315200017C04133C4F654439A421ED140F64003C6F232
S315200017D008031A6822F07F4240F20033C0F2010368
S315200017E09A4211D9B2F5003F05D241F22C63C6F2D6
S315200017F008031A6807E0B2F5403F05D241F6AC630C
S31520001800C6F208031A6822B900BE47F64002C0F2A3
S315200018107D1243F65C03C2F200031A60B2FBF5F5B3
S315200018205D60B2FBF4F49C60B2FBF0F0D860B2FBD2
S31520001830F1F119615A6104B030BC70474FF0FF30A6
S31520001840704700BFFEE700BF4FF400534B604FF0D8
S31520001850000070474FF00100704700BF4FF00100B5
S31520001860704700BF4FF00000704700BF4FF0FF30B9
S31520001870704700BF4FF00000704700BF4FF4005381
S315200018804B604FF0000070474FF0FF30704700BFAD
S3152000189008B500F08FF84FF00A0303604FF0FF30D1
S315200018A008BD00BF08B500F085F84FF002030360BD
S315200018B04FF0FF3008BD00BF08B500F07BF84FF0B1
S315200018C01F0303604FF0FF3008BD00BF08B500F0CE
S315200018D071F84FF0160303604FF0FF3008BD00BFCC
S315200018E008B500F067F84FF00B0303604FF0FF30A8
S315200018F008BD00BF08B500F05DF84FF00C0303608B
S315200019004FF0FF3008BD00BF38B515461C4643F6DC
S315200019108053C2F200031B6883B943F6E850C2F233
S3152000192000004FF461414FF00302FFF7E7FC43F656
S315200019308053C2F200034FF001021A6043F6E850CA
S31520001940C2F2000029462246FFF79CF8204638BD01
S3152000195008B543F68053C2F200035B6843B943F6E9
S315200019608053C2F2000343F61862C2F200025A60A4
S3152000197043F68053C2F200035A68EFF308831044FB
S3152000198083420FD24FF000004FF0010143F2B072B4
S31520001990C2F200024FF01903FFF7B6FF4FF0010025
S315200019A0FFF750FF43F68053C2F2000358601046FB
S315200019B008BD00BF43F67803C2F2000318687047DB
S315200019C070B543F64C0643F64C05C2F20006C2F249
S315200019D00005761BB61006D0002455F824300134B5
S315200019E09847A642F9D843F64C0543F65006C2F26C
S315200019F00005C2F20006761B01F01CFFB61006D0C9
S31520001A00002455F8243001349847A642F9D870BDF1
S31520001A10032A2DE9F0070BD83AB1002311F803C0A9
S31520001A2000F803C001339342F8D1BDE8F0077047B0
S31520001A3082180C46034603E014F8011C03F8011C27
S31520001A4003F003061946A44601330134002EF3D1D0
S31520001A501CF00304634608BFC1EB020C68D0654244
S31520001A60C4F1040A0CEB050733464FEACA0A5CF8B0
S31520001A7005604FEAC408551A08E057F8044F264671
S31520001A8004FA0AF449EA0404CC5004335C18032D02
S31520001A9026FA08F9A5F104050CEB0306EDDC002374
S31520001AA002E0F15CE154013319199142F9D3BCE704
S31520001AB053F8404C41F8404C53F83C4C41F83C4CD0
S31520001AC053F8384C41F8384C53F8344C41F8344CE0
S31520001AD053F8304C41F8304C53F82C4C41F82C4CF0
S31520001AE053F8284C41F8284C53F8244C41F8244C00
S31520001AF053F8204C41F8204C53F81C4C41F81C4C10
S31520001B0053F8184C41F8184C53F8144C41F8144C1F
S31520001B1053F8104C41F8104C53F80C4C41F80C4C2F
S31520001B2053F8084C41F8084C53F8044C41F8044C3F
S31520001B301C460D4640334031BCF13F0FACF1400C02
S31520001B40B6DC21462B46541B0FE051F8105C43F8B7
S31520001B50105C51F80C5C43F80C5C51F8085C43F8B7
S31520001B60085C51F8045C43F8045C0F2C0D469C4637
S31520001B7001F1100103F11003A4F11004E5DCCCEB14
S31520001B800201002303E0EC584CF8034004335E19AD
S31520001B90032903EB0C04A1F10401F4DC7FE700BF69
S31520001BA030B5044689B008460D4600F03DF843F2AC
S31520001BB0C8730195C2F2000303930290431C079356
S31520001BC00123049301AB0593022306930CB1A36969
S31520001BD0EBB143F678032046C2F200031B689B68EC
S31520001BE09A8912F4005F01BF42F400529A81596E1D
S31520001BF021F40052A16808BF5A6605AA00F028F908
S31520001C00002814BF4FF0FF300A2009B030BD20460F
S31520001C1000F0EEF8DDE700BF43F678030146C2F296
S31520001C2000031868BCE700BF20F0030110F0030092
S31520001C30C0F1000051F8043B00F1040C4FEACC0C33
S31520001C406FF000021CBF22FA0CF213434FF0010C76
S31520001C504CEA0C2C4CEA0C4CA3EB0C0222EA0302B5
S31520001C6012EACC1204BF51F8043B0430F4D013F02E
S31520001C70FF0F1FBF013013F47F4F013013F47F0F86
S31520001C8018BF0130704700BF704700BF704700BFC4
S31520001C90704700BF704700BF002070470020704784
S31520001CA043F6780341F69D41C2F20003C2F20001D9
S31520001CB0186800F091BA00BF43F6780341F69941BF
S31520001CC0C2F20003C2F20001186800F085BA00BF14
S31520001CD043F22501C2F2000100F07EBA43F2CC7332
S31520001CE0C2F200031868F3E710B5044600235C30FF
S31520001CF0A1811946E281082223606360A36063669E
S31520001D0023616361A36100F0F5FD42F6196042F696
S31520001D10DD5142F6B55242F6AD53C2F20000C2F290
S31520001D200001C2F20002C2F200036062A162E26216
S31520001D302363246210BD00BF70B568250E4605FBDF
S31520001D4001F505F10C0100F06DFA044648B100F1E9
S31520001D500C03002146602A4618462160A36000F045
S31520001D60C9FD204670BD00BF43F2CC73C2F200030A
S31520001D7070B51D680646AB69002B2AD0D8356B682E
S31520001D80AC68013B03D520E06834013B1DD4B4F98F
S31520001D900C20002AF8D100254FF0FF33656604F1A8
S31520001DA05C00E38129464FF001032560A3810822C8
S31520001DB0A560656025616561A56100F09BFDE56410
S31520001DC06563A563A564204670BD286828B10546CD
S31520001DD0D5E7284600F00CF8D0E730460421FFF777
S31520001DE0ABFF28600028F2D10C2304463360EAE7D3
S31520001DF070B58669044606B170BD41F6D14301250A
S31520001E00C2F20003C0F8D8608362C0F8DC60C0F874
S31520001E10E0608561FFF7A8FF60602046FFF7A4FF1A
S31520001E20A0602046FFF7A0FF324604212346E0604B
S31520001E306068FFF759FF2A46A06809212346FFF765
S31520001E4053FF2346E06812210222BDE870404BE78B
S31520001E502DE9F04F936885B090460C460390002BF1
S31520001E6064D088891FFA80FA1AF0080F00F0A08043
S31520001E700B69002B00F09C801AF0020BD8F800505A
S31520001E801CBF4FF0000A574636D11AF0010A1DBF73
S31520001E90DC46D9465F46564652D126B380B2A7685D
S31520001EA010F4007F00F08F80BE42BB4680F0A780F2
S31520001EB020683746B3465A46514600F0BFFCA26812
S31520001EC02368B146D71BA76037465B442360D8F802
S31520001ED00830C9EB0606CA44DF1BC8F808702FB3C2
S31520001EE0A089002EDAD1D5F800A06E680835D4E78F
S31520001EF0D5F800A06F680835B7F5806F34BF3B462C
S31520001F004FF4806352460398002FF1D0A66A216AC7
S31520001F10B04700288244C0EB070740F3EC80D8F88E
S31520001F200830181AC8F808000028E5D1002005B0A6
S31520001F30BDE8F08FD5F800904FF0000C6F6808359B
S31520001F40002FF7D0BCF1000F00F0B5806369BB45C8
S31520001F5034BFDA46BA46A668206822699E1990429E
S31520001F6094BF00220122B245D4BF002202F0010212
S31520001F70002A40F0AE809A45C0F28280A66A4A4680
S31520001F80CDF804C00398216AB047DDF804C0061EC8
S31520001F9040F3B180BBEB060B00F08680D8F8083002
S31520001FA0B144BF1B9E1BC8F80860002EC8D1BDE7F0
S31520001FB00398214600F042FF002840F0D480A089F3
S31520001FC01FFA80FA58E72068B9462369984294BFD9
S31520001FD000230123B7422CBF002303F00103002B6B
S31520001FE040F09D8063699E42C0F08C80A76A52466D
S31520001FF00398216AB847071E7DDDB94667E710F4C6
S31520002000906F08BF20683FF456AF62692169236844
S3152000201002EB42095B1A09EBD97903F1010CB444AE
S315200020204FEA6909E1454A463CBFE1464A4610F473
S31520002030806F00F0838011460398029300F0F2F837
S31520002040029B002800F099801A462169029301908C
S31520002050FFF7DEFCA289029BDDF804C022F4906221
S3152000206042F08002A281C3EB09020CEB0300374643
S31520002070B346A260C4F810C02060C4F814901AE7D2
S31520002080524649465646CDF804C000F0D7FBA26812
S315200020902368BBEB060BCAEB0202DDF804C05344EF
S315200020A0A26023607FF47AAF0398214600F0C2FF36
S315200020B008BBDC4672E748460A213A4600F084FB14
S315200020C000284BD000F1010B4FF0010CC9EB0B0B94
S315200020D03CE749463246CDF804C000F0AFFB236802
S315200020E0214603989B19236000F0A4FFDDF804C065
S315200020F000283FF44FAFA3894FF0FF3043F0400351
S31520002100A38114E73246514600F098FBA268236863
S315200021103746921BB1469B19A2602360D7E65146EB
S315200021203A4600F08BFB236803982146DB1923608F
S3152000213000F080FF00283FF4CAAEDCE70398029344
S3152000214000F046FC029B844600288CD12169039826
S3152000215001F080F803990C230B60CCE707F1010B03
S315200021604FF0010CF2E603990922A3894FF0FF30C4
S3152000217043F040030A60A381D9E6039A0C23136037
S31520002180B9E700BF2DE9F84507468A46FFF77CFDEB
S3152000219017F1D80608BFB04618D04FF0000875686A
S315200021A0B468013D0FD4B4F90C304BB1B4F90E30FC
S315200021B021463846B3F1FF3F02D0D04748EA00080F
S315200021C06834013DEFD53668002EE8D1FFF75EFD75
S315200021D04046BDE8F88500BF2DE9F0410646884611
S315200021E0FFF752FDD83608BF374615D00027756849
S315200021F0B468013D0DD4B4F90C303BB1B4F90E30BE
S315200022002046B3F1FF3F01D0C04707436834013D64
S31520002210F1D53668002EEAD1FFF738FD3846BDE8FD
S31520002220F08100BF2DE9F04F01F10B04162C83B08D
S3152000223006462FD8002310248C422CBF194643F083
S315200022400101002930D1304600F0BEFBB4F5FC7FF9
S315200022502ED24FEAD40E43F66C15C2F2000505EBDA
S31520002260CE02D368934200F006825A6803F108052D
S31520002270D968304622F0030C9A6863445C688A6009
S3152000228044F00104D1605C6000F0A0FB284603B056
S31520002290BDE8F08F24F00704E30F8C422CBF1946CB
S315200022A043F001010029CED00C2300253360EDE751
S315200022B05FEA542E04BF4FEAD40E4FEACE0040F018
S315200022C0908043F66C15C2F200052818C368984220
S315200022D006D10DE0002A80F26F81DB68984207D094
S315200022E0596821F003010A1B0F2AF3DD0EF1FF3E88
S315200022F00EF1010E43F66C17C2F2000707F1080132
S315200023008B68994208BF7A6826D05A6822F0030C57
S31520002310C4EB0C020F2A00F39481002AC96089605D
S3152000232080F29980BCF5007F80F065814FEADC0C55
S315200023304FF0010A7A6807EBCC004FEAAC0C0AFA98
S315200023400CFCD860D0F808804CEA02027A60C3F808
S315200023500880C8F80C3083604FF0010C4FEAAE03BA
S315200023600CFA03FC944500F2828012EA0C0F08D185
S315200023702EF0030E4FEA4C0C0EF1040E12EA0C0F4F
S31520002380F8D007EBCE09F246C846D8F80C30984567
S3152000239007D168E1002A80F27881DB68984500F051
S315200023A06281586820F00300021B0F2AF2DD1D46C9
S315200023B01F19D3F80CC044F0010E55F8084F3046CB
S315200023C0BA5042F00102C3F804E0CCF80840C4F841
S315200023D00CC08F60CF607A60B960F96000F0F6FAC1
S315200023E054E7BEF1040F9EBF4FEA941E0EF1380E3D
S315200023F04FEACE007FF665AFBEF1140F9CBF0EF1FB
S315200024005B0E4FEACE007FF65CAFBEF1540F9EBF47
S315200024104FEA143E0EF16E0E4FEACE007FF651AF14
S31520002420BEF5AA7F9EBF4FEAD43E0EF1770E4FEA45
S31520002430CE007FF646AF40F254539E4595BF4FEAF5
S31520002440944E4FF47C700EF17C0E4FF07E0E98BFAA
S315200024504FEACE0035E703EB0C0203F108053046C0
S31520002460536843F00103536000F0B0FA0EE7D7F843
S315200024700880D8F8043023F00309C4EB09024C4540
S3152000248094BF002301230F2AD8BF43F00103002B5A
S3152000249000F0A18043F68C5BD5F80824C2F2000B2D
S315200024A0DBF8003010331B19B2F1FF3F06D003F5DD
S315200024B07E631F3323F47E6323F01F0319463046C1
S315200024C0019300F05FFC019BB0F1FF3F824600F0D4
S315200024D0F48008EB0901814200F2EC80DBF804204D
S315200024E09A185145CBF8042000F04581D5F80854B8
S315200024F043F66C10C2F20000B5F1FF3F08BFC0F8EA
S3152000250008A403D05244511ACBF804101AF0070538
S31520002510304617BFC5F108054FF48055AA4405F586
S31520002520805553441B051B0DED1A294600F02AFC45
S31520002530B0F1FF3F00F02C81CAEB0001491941F0B0
S315200025400101DBF8042043F68C53C7F808A0C2F239
S315200025500003AA18B845CBF80420CAF8041017D0EF
S31520002560B9F10F0F40F2DF80A9F10C01052521F00A
S31520002570070108EB01000F2985604560D8F80400A3
S3152000258000F0010041EA0000C8F8040000F2AC8027
S31520002590D04643F68C53DBF82C10C2F200038A4255
S315200025A0DBF8301088BFDA6243F68C53C2F20003A0
S315200025B08A4288BF1A6382E05C189A68D9683046D6
S315200025C0666803F108058A6046F00103D1606360FE
S315200025D000F0FCF95AE608EB040342F0010244F04D
S315200025E001043046C8F8044008F108055A60BB606B
S315200025F000F0ECF94AE64FEA5C22042A54D9142A60
S3152000260000F289805B324FEAC208A84443F66C1771
S31520002610C2F20007D8F80800404503D16FE0806871
S31520002620804504D0426822F003029445F7D3D0F8BF
S315200026300CC0C3F80CC098607A68C360CCF8083028
S315200026408AE61F19304644F00104CF605C6003F12E
S315200026500805BA5042F001028F607A60B960F960CD
S3152000266000F0B4F912E60AF1010A1AF0030F5FD05E
S3152000267003F1080889E603F10802D3689A4208BFE5
S315200026800EF1020E3FF436AEEFE51D461918DA6854
S31520002690304655F8083F4C68936044F00104DA60F0
S315200026A04C6000F093F9F1E54FEA9C1238324FEA7C
S315200026B0C208AAE7B8453FF411AFD7F80880D8F882
S315200026C0042022F00302944294BF00230123121B0C
S315200026D00F2AD8BF43F00103002B3FF47CAF3046CE
S315200026E0002500F073F9D1E508F108013046019381
S315200026F000F0B0FD019BD7F808805A6849E74FF0F3
S31520002700010AD7F80480921084460AFA02F248EAAF
S3152000271002027A608DE7542A24D84FEA1C326E32A0
S315200027204FEAC20871E70123D046CAF80430C6E74B
S315200027304A461EF0030F13460EF1FF3E33D053F8E0
S3152000274008299A42F5D07B684FEA4C0C9C453FF607
S315200027508EAEBCF1000F3FF48AAE1CEA030F27D0E1
S31520002760D6460EE6B2F5AA7F15D84FEADC32773286
S315200027704FEAC20849E70805000D00287FF4B6AEE7
S31520002780D7F808804B4443F00103C8F8043000E72B
S3152000279001210025D5E640F2545082420DD94FF44E
S315200027A07C787E2231E77B6823EA0C037B60CBE7CB
S315200027B04FEA4C0C0AF1040ACFE74FEA9C427C32DE
S315200027C04FEAC20821E700BF10F0030FC9B210B4C8
S315200027D010D0002A2FD003788B422AD0013A05E068
S315200027E0002A28D00378013A8B4222D0013010F0FB
S315200027F0030FF5D1032A11D941EA012444EA0444FE
S31520002800036884EA0303A3F1013C2CEA030313F0D3
S31520002810803F03D1043A0430032AF1D85AB1037811
S315200028208B4206D0013A32B110F8013F013A8B4271
S31520002830F9D110BC70470020FBE700BF88428C46C8
S3152000284070B4054614460ED98B1898420BD242B165
S31520002850C2EB030C0146531E1CF80320CA54013B4D
S31520002860FAD270BC70470F2A09D8002CF9D0002361
S315200028701CF80320EA540133A342F9D1F1E741EAD7
S31520002880000313F0030FF0D194460C460346256847
S31520002890ACF1100C1D6065685D60A5689D60E568FB
S315200028A01034DD601033BCF10F0FF0D8103A4FEA28
S315200028B0121C0CF10105CCEB0C7C2D0102EB0C1645
S315200028C001EB050C4519032E3446CED900235CF8BE
S315200028D00320EA500433F21A032AF8D8043EB30838
S315200028E05A1CC3EB83739200944406EB8304AD1801
S315200028F0BBE700BF032AC9B230B407D822B10023F0
S31520002900C15401339342FBD130BC704700EB020C1B
S31520002910034601E003F8011C03F003041A460133C1
S31520002920002CF7D14FF00133C2EB0C0403FB01F36B
S315200029301FE042F8403C42F83C3C42F8383C42F822
S31520002940343C42F8303C42F82C3C42F8283C42F8D1
S31520002950243C42F8203C42F81C3C42F8183C42F801
S31520002960143C42F8103C42F80C3C42F8083C42F831
S31520002970043C154640323F2CA4F14004D9DC2A46BB
S31520002980C5EB0C0407E042F8103C42F80C3C42F838
S31520002990083C42F8043C154610320F2CA4F11004D2
S315200029A0F1DC2A46C5EB0C0501E042F8043C14464E
S315200029B00432032DA5F10405F7DC01E004F8011B20
S315200029C06445FBD3A0E700BF704700BF704700BF38
S315200029D02DE9F04F914683B007460E46002900F0B8
S315200029E03A81A1F1080809F10B04FFF7EDFF162C37
S315200029F0D8F804100B4600F2A080102200251446B9
S31520002A004C4538BF45F00105002D40F02A8121F0C4
S31520002A10030A9245A2BF4046554608F1080875DAD2
S31520002A2043F66C1308EB0A00C2F20003D3F808E061
S31520002A30864500F01A81D0F804C02CF0010B83449F
S31520002A40DBF804B01BF0010F7CD0AC46284611F011
S31520002A50010F40F09B8056F8081CC1EB080BDBF8F1
S31520002A60045025F00305002800F0DD80704500F0B5
S31520002A701F8105EB0A030CEB03059542B8BF1D46E3
S31520002A80C0F2D28081685B46C068AAF10402242A7B
S31520002A908160C86053F8081FDBF80C008160C860AD
S31520002AA000F2D080132A9C4621D931460BF1100C16
S31520002AB051F8040BCBF8080070680E1D1B2ACBF8C2
S31520002AC00C0014D94868311D0BF1180CCBF81000F6
S31520002AD070680E1D242ACBF8140008D14A680BF121
S31520002AE0200CCBF8182072680836CBF81C2031460B
S31520002AF098466246584651F8043B42F8043B7368B0
S31520002B00CCF804304B685360DBF80430C4EB050C7A
S31520002B10BCF10F0F26D8421903F0010343EA05053D
S31520002B204560536843F00103536038464546FFF736
S31520002B304DFF284603B0BDE8F08F24F00704224657
S31520002B40E50F5DE72CF0030C0CEB0A059542FFF62A
S31520002B507EAF82680B46C168404608F108088A6045
S31520002B60D160D3E7011903F0010301EB0C0243EA1C
S31520002B7004044CF0010344604B6038465368083126
S31520002B8043F00103536000F065FBCEE74946384623
S31520002B90FFF748FB0546002841D0D8F80430A0F1BD
S31520002BA0080223F0010141448A4200F0D780AAF1AD
S31520002BB004023146242A78D8132A034621D93446DA
S31520002BC054F8043B211D40F8043B031DD6F804C0ED
S31520002BD01B2AC5F804C014D9D4F804E01C1D01F141
S31520002BE0040CC0F804E048680CF104015860231D69
S31520002BF0242A06D1DCF8042062604A6808315A602B
S31520002C00083308461A4650F8044B42F8044B4968E4
S31520002C105960436853603146384600F01BFB3846FE
S31520002C20FFF7D4FE85E755449542AFDB5B46DBF8DC
S31520002C300C00AAF1040253F8081F242A8160C860F8
S31520002C407FF630AF184631469846FFF7F7FD5846CF
S31520002C50DBF804305AE7114603B0BDE8F04FFFF722
S31520002C60E1BA0C2300253B6063E7DEF8045004F14B
S31520002C70100B25F0030C0CEB0A005845B8BF704624
S31520002C80FFF6E5AE08EB0402011B41F001019A6054
S31520002C9051603846D8F80410354601F001031C432C
S31520002CA0C8F80440FFF792FE43E7FFF7C7FDB2E7F7
S31520002CB0554404F11001AC448C45B5DB5D46DBF888
S31520002CC00C00AAF1040255F8081F242A8160C86066
S31520002CD04CD8132A284624D931460BF1100051F836
S31520002CE004EBCBF808E0D6F804E00E1D1B2ACBF83F
S31520002CF00CE016D9D1F804E0311D0BF11800CBF801
S31520002D0010E0D6F804E00E1D242ACBF814E008D1F2
S31520002D104A680BF12000CBF8182072680836CBF8E9
S31520002D201C203146024651F804EB42F804EB766843
S31520002D304660496851600BEB0402C4EB0C0141F07C
S31520002D4001019A6051603846DBF8041001F0010356
S31520002D501C43CBF80440FFF739FEEAE655684046A7
S31520002D6008F1080825F003055544CFE631462846E4
S31520002D700093CDF804C0FFF761FDDDF804C0009B89
S31520002D80D9E700BF38B543F61064C2F20004054601
S31520002D90084600232360FEF7DBFDB0F1FF3F00D09D
S31520002DA038BD2368002BFBD02B6038BDB1F90E103F
S31520002DB000F0C6B810B50C46B1F90E1000F02AFB8B
S31520002DC0A389B0F1FF3F15BF606523F4805343F418
S31520002DD08053A38118BFA38110BD00BF2DE9F04108
S31520002DE01D468B890C461646074613F4807F06D06F
S31520002DF00223B1F90E10002200F00CFBA38923F464
S31520002E0080533846A3813246B4F90E102B46BDE8CE
S31520002E10F041FEF779BD00BF10B50C46B1F90E1092
S31520002E2000F07CFB002803DB636D1B18636510BD77
S31520002E30A38923F48053A38110BD00BF70B543F648
S31520002E407805C2F2000506460C46286810B183694B
S31520002E50002B36D043F2D473C2F200039C4238D002
S31520002E6043F2F473C2F200039C4241D043F61403AA
S31520002E70C2F200039C4204BF2B68DC68A28911467B
S31520002E8093B213F0080F184618BF226933D01AB32D
S31520002E9013F0010107D063690021A1605B42A361A1
S31520002EA042B1002070BD13F0020F08BF6169A16016
S31520002EB0002AF6D1A38913F0800FF2D04FF0FF300D
S31520002EC070BDFEF795FF43F2D473C2F200039C4215
S31520002ED0C6D12B685C68D1E703F42071B1F5007F79
S31520002EE0D6D03046214600F0ABFAA3892269CFE737
S31520002EF02B689C68C2E713F0100FDFD013F0040F85
S31520002F0008BF226917D0616B51B104F1440399427D
S31520002F1003D0304600F09EF9A28990B20023636365
S31520002F2022694FF6DB71C0F20001002300EA01019D
S31520002F306360A181226041F00803A3819BB2A6E7CA
S31520002F4038B543F61064C2F200040546084600234D
S31520002F502360FEF773FCB0F1FF3F00D038BD236835
S31520002F60002BFBD02B6038BD70B505460C460029DA
S31520002F704BD0FEF789FE15B1AB69002B48D043F242
S31520002F80D473C2F200039C4208BF6C680ED043F291
S31520002F90F473C2F200039C4208BFAC6806D043F625
S31520002FA01403C2F200039C4208BFEC68B4F90C601B
S31520002FB03EB32846214600F03DF8236B06463BB13A
S31520002FC02846216A984736EA200628BF4FF0FF3662
S31520002FD0A38913F0800F1FD1616B41B104F1440323
S31520002FE0994202D0284600F035F900236363A16C8C
S31520002FF021B1284600F02EF90023A3644FF00003E8
S31520003000A381FEF743FE304670BD0E46304670BDA6
S315200030102846FEF7EDFEB2E72846216900F01AF9A8
S31520003020DAE700BF43F678030146C2F200031868C8
S315200030309AE700BF0B692DE9F0410C468046002B2C
S3152000304071D010B18369002B78D043F2D473C2F2C9
S3152000305000039C4208BFD8F8044010D043F2F47312
S31520003060C2F200039C4208BFD8F8084007D043F6B6
S315200030701403C2F200039C4208BFD8F80C40A3896F
S315200030801AB212F0080F35D1626843F40063A381A7
S31520003090002A5EDDE66A002E45D09BB213F48052EC
S315200030A018BF656D59D013F0040F4AD1002340464E
S315200030B0216A2A46B047854238D1A1894FF2FF734B
S315200030C02269C0F2000301EA03030021616013F4C0
S315200030D0805F616BA381226018BF656519B304F117
S315200030E04403994202D0404600F0B4F800206063C1
S315200030F0BDE8F0812669B6B125682660AD1B12F0C1
S31520003100030F0CBF63690023A3600AE032462B46F7
S31520003110A76A4046216AB8470028C0EB0505064441
S3152000312004DD002DF2DC0020BDE8F081A3894FF0FC
S31520003130FF3043F04003A381BDE8F081FEF758FE3F
S3152000314083E76268636BAD1A002BAFD0236CED1A50
S31520003150ACE7226C002A9DDCE5E701234046216A84
S31520003160B047B0F1FF3F054602D0A389E66A9AE749
S31520003170D8F800301D2BD6D0A38943F04003A38175
S31520003180BDE8F081014628B143F67803C2F2000378
S3152000319018684FE743F2CC7343F23501C2F20003BD
S315200031A0C2F200011868FEF7EDBF00BFF8B543F67E
S315200031B06C14C2F200040F460546FFF705FCA3680F
S315200031C05E6826F0030606F57E630F33DF1B3F0B92
S315200031D0013F3F03B7F5805F07DB00212846FFF755
S315200031E0D1FDA368F318834204D02846FFF7EEFBEF
S315200031F00020F8BD79422846FFF7C4FDB0F1FF3F15
S3152000320010D0A26843F69053C2F20003F61B46F094
S315200032100106284656601A68D71B1F60FFF7D6FBA3
S315200032200120F8BD00212846FFF7ACFDA368C21A8D
S315200032300F2ADADD43F6745443F69051C2F20004A5
S31520003240C2F2000142F001022468001B08605A60A5
S31520003250CBE700BF2DE9F04105460C46002900F0DA
S315200032608880FFF7B1FBA4F1080243F66C1056687C
S31520003270C2F2000026F00103D0F808C0D1188C4510
S315200032804F6827F0030700F0958016F001064F607F
S315200032905FD00026CC19646814F0010F06D1DB1923
S315200032A0002E7AD08C68C9688C60E16043F00101F9
S315200032B0D3505160002E47D1B3F5007F5BD3590A16
S315200032C004299EBF4FEA931C0CF1380C4FEACC041C
S315200032D028D914299CBF01F15B0C4FEACC0421D9D3
S315200032E054299EBF4FEA133C0CF16E0C4FEACC04D6
S315200032F018D9B1F5AA7F9EBF4FEAD33C0CF1770CC3
S315200033004FEACC040ED940F2545C614595BF4FEA92
S31520003310934C4FF47C740CF17C0C4FF07E0C98BFD0
S315200033204FEACC040419A168A14203D164E089685C
S315200033308C4204D0486820F003008342F7D3CB6840
S31520003340D3609160CA609A602846BDE8F041FFF7D5
S315200033503DBB54F8084C00F1080C121B1B1994684D
S31520003360644547D0D2F80CC0CCF80840C4F80CC04D
S3152000337090E7BDE8F081DB084FF0010C466800EBD2
S31520003380C3019B100CFA03F3D1608C6846EA030351
S3152000339043609460E2608A60D6E78C681C4FBC422A
S315200033A081D1D35043F00103E260A2605360946060
S315200033B0D460C9E7FB1816F0010F07D154F8081C92
S315200033C0521A5B18D4689168A160CC6043F6785194
S315200033D08260C2F2000143F0010050600A68934205
S315200033E0B2D343F68C532846C2F200031968FFF77E
S315200033F0DDFEA9E701264DE7012644684FEAAC0C1D
S315200034000B4606FA0CFC44EA0C04446098E700BF1D
S315200034107439002038B543F61064C2F2000405461C
S31520003420084611461A4600232360FEF71BFAB0F120
S31520003430FF3F00D038BD2368002BFBD02B6038BD62
S315200034408B89F0B50C469AB291B012F0020F054660
S3152000345041D1B1F90E10002918DB01AA00F0FAF8C3
S31520003460002811DB029B03F47043B3F5005F14BF01
S3152000347000270127B3F5004F40D0A3894FF480667B
S3152000348043F40063A3810BE0A3899AB212F0800F64
S3152000349043F400630CBF4FF4806640260027A381C7
S315200034A028463146FEF7BEFE70B1A18941F6D142CB
S315200034B0C2F20002206141F080016661AA62A18108
S315200034C020607FB911B0F0BDA38913F4007FF9D134
S315200034D043F00203A38104F1470323612360012300
S315200034E06361EFE72846B4F90E1000F0C9F800280A
S315200034F0E8D0A38943F00103A381E3E742F6B5535D
S31520003500E26AC2F200039A42B7D1A2894FF48063DD
S315200035101E46236542EA0303A381C1E738B543F675
S315200035201064C2F200040546084611461A460023D6
S315200035302360FEF79FF9B0F1FF3F00D038BD236826
S31520003540002BFBD02B6038BD70B5044688B104F142
S31520003550480253685D1E07D4023302EB830656F8F1
S31520003560043D9847013DFAD5A36A0BB120469847FA
S3152000357070BD43F67803C2F200031C68E7E700BF7C
S3152000358070B50C460968054609B1FFF7F9FF2846CC
S315200035902146BDE87040FFF75DBE00BF43F67803C5
S315200035A0C2F2000370B51B680546984246D0436AAE
S315200035B01946BBB1DA68AAB10026915941B10C6807
S315200035C02846FFF747FE2146002CF8D16B6ADA68B9
S315200035D004363C2E01D0DA68EFE711462846FFF77D
S315200035E039FE696A096811B12846FFF733FE696911
S315200035F011B12846FFF72EFE696A11B12846FFF75A
S3152000360029FEA96B11B12846FFF724FEE96B11B1FB
S315200036102846FFF71FFE296C11B12846FFF71AFE30
S31520003620AB6CD3F8881011B12846FFF713FE696BEF
S3152000363011B12846FFF70EFEAB6903B970BDAB6A20
S3152000364028469847D5F8D8100029F7D02846BDE84F
S31520003650704095E738B543F61064C2F2000405467B
S315200036600846114600232360FEF7EEF8B0F1FF3F2F
S3152000367000D038BD2368002BFBD02B6038BD00BF9F
S3152000368038B543F61064C2F2000405460846002306
S315200036902360FEF7E3F8B0F1FF3F00D038BD236882
S315200036A0002BFBD02B6038BD3031303030303030FD
S315200036B030303030303031313030303030303131E0
S315200036C0310000005374617274206F6E20646F772E
S315200036D06E21000030303030303030303100000084
S315200036E02000210022002300240025002600270098
S315200036F0280029002A002B002C002D002E002F0048
S3152000370030003100320033003400350036003700F7
S31520003710380039003A003B003C003D003E003F00A7
S315200037200030014004300140083001400C30014097
S315200037301030014014300140183001401C30014047
S315200037402030014024300140283001402C300140F7
S315200037503030014034300140383001403C300140A7
S315200037604030014044300140483001404C30014057
S315200037705030014054300140583001405C30014007
S315200037806030014064300140683001406C300140B7
S315200037907030014074300140783001407C30014067
S315200037A001000000020000000400000001000000EB
S315200037B04865617020616E6420737461636B206359
S315200037C06F6C6C6973696F6E0A0000007C3800208C
S315200037D04300000000000000000000000000000080
S315200037E000000000000000000000000000000000B3
S315200037F000000000000000000000000000000000A3
S315200038000000000000000000000000000000000092
S315200038100000000000000000000000000000000082
S315200038200000000000000000000000000000000072
S3152000383000000000F8B500BFF8BC08BC9E467047E3
S31520003840F8B500BFF8BC08BC9E467047850400202A
S3092000385071040020B9
S31520003854000000000000000040787D01105E5F003B
S31520003864105E5F00105E5F00105E5F0040787D0191
S31520003874883D00207C38002000000000D43700203A
S31520003884F437002014380020000000000000000057
S315200038940000000000000000D037002000000000D7
S315200038A400000000000000000000000000000000EE
S315200038B400000000000000000000000000000000DE
S315200038C400000000000000000000000000000000CE
S315200038D400000000000000000000000000000000BE
S315200038E400000000000000000000000000000000AE
S315200038F4000000000000000000000000000000009E
S31520003904000000000000000000000000000000008D
S31520003914000000000000000000000000000000007D
S31520003924000000000000000000000000000000006D
S31520003934000000000000000000000000000000005D
S31520003944000000000000000000000000000000004D
S31520003954000000000000000000000000000000003D
S31520003964000000000000000000000000000000002D
S315200039746C3900206C3900207439002074390020F9
S315200039847C3900207C3900208439002084390020A9
S315200039948C3900208C390020943900209439002059
S315200039A49C3900209C390020A4390020A439002009
S315200039B4AC390020AC390020B4390020B4390020B9
S315200039C4BC390020BC390020C4390020C439002069
S315200039D4CC390020CC390020D4390020D439002019
S315200039E4DC390020DC390020E4390020E4390020C9
S315200039F4EC390020EC390020F4390020F439002079
S31520003A04FC390020FC390020043A0020043A002026
S31520003A140C3A00200C3A0020143A0020143A0020D4
S31520003A241C3A00201C3A0020243A0020243A002084
S31520003A342C3A00202C3A0020343A0020343A002034
S31520003A443C3A00203C3A0020443A0020443A0020E4
S31520003A544C3A00204C3A0020543A0020543A002094
S31520003A645C3A00205C3A0020643A0020643A002044
S31520003A746C3A00206C3A0020743A0020743A0020F4
S31520003A847C3A00207C3A0020843A0020843A0020A4
S31520003A948C3A00208C3A0020943A0020943A002054
S31520003AA49C3A00209C3A0020A43A0020A43A002004
S31520003AB4AC3A0020AC3A0020B43A0020B43A0020B4
S31520003AC4BC3A0020BC3A0020C43A0020C43A002064
S31520003AD4CC3A0020CC3A0020D43A0020D43A002014
S31520003AE4DC3A0020DC3A0020E43A0020E43A0020C4
S31520003AF4EC3A0020EC3A0020F43A0020F43A002074
S31520003B04FC3A0020FC3A0020043B0020043B002021
S31520003B140C3B00200C3B0020143B0020143B0020CF
S31520003B241C3B00201C3B0020243B0020243B00207F
S31520003B342C3B00202C3B0020343B0020343B00202F
S31520003B443C3B00203C3B0020443B0020443B0020DF
S31520003B544C3B00204C3B0020543B0020543B00208F
S31520003B645C3B00205C3B0020643B0020643B00203F
S31520003B746C3B00206C3B0020743B0020743B0020EF
S31520003B847C3B00207C3B0020843B0020843B00209F
S31520003B948C3B00208C3B0020943B0020943B00204F
S31520003BA49C3B00209C3B0020A43B0020A43B0020FF
S31520003BB4AC3B0020AC3B0020B43B0020B43B0020AF
S31520003BC4BC3B0020BC3B0020C43B0020C43B00205F
S31520003BD4CC3B0020CC3B0020D43B0020D43B00200F
S31520003BE4DC3B0020DC3B0020E43B0020E43B0020BF
S31520003BF4EC3B0020EC3B0020F43B0020F43B00206F
S31520003C04FC3B0020FC3B0020043C0020043C00201C
S31520003C140C3C00200C3C0020143C0020143C0020CA
S31520003C241C3C00201C3C0020243C0020243C00207A
S31520003C342C3C00202C3C0020343C0020343C00202A
S31520003C443C3C00203C3C0020443C0020443C0020DA
S31520003C544C3C00204C3C0020543C0020543C00208A
S31520003C645C3C00205C3C0020643C0020643C00203A
S31520003C746C3C00206C3C0020743C0020743C0020EA
S31520003C847C3C00207C3C0020843C0020843C00209A
S31520003C948C3C00208C3C0020943C0020943C00204A
S31520003CA49C3C00209C3C0020A43C0020A43C0020FA
S31520003CB4AC3C0020AC3C0020B43C0020B43C0020AA
S31520003CC4BC3C0020BC3C0020C43C0020C43C00205A
S31520003CD4CC3C0020CC3C0020D43C0020D43C00200A
S31520003CE4DC3C0020DC3C0020E43C0020E43C0020BA
S31520003CF4EC3C0020EC3C0020F43C0020F43C00206A
S31520003D04FC3C0020FC3C0020043D0020043D002017
S31520003D140C3D00200C3D0020143D0020143D0020C5
S31520003D241C3D00201C3D0020243D0020243D002075
S31520003D342C3D00202C3D0020343D0020343D002025
S31520003D443C3D00203C3D0020443D0020443D0020D5
S31520003D544C3D00204C3D0020543D0020543D002085
S31520003D645C3D00205C3D0020643D0020643D002035
S30D20003D74FFFFFFFF0000020023
S705200002993F
