S00D000066696E616C2E737265630D
S315200000000000012099020020090300200B03002094
S315200000100D0300200F030020110300200000000024
S315200000200000000000000000000000001303002074
S3152000003015030020000000001703002019030020EC
S315200000401B030020051E00201F0300202103002083
S315200000502303002025030020270300202903002056
S315200000602B0300202D0300200D1200203D1200201E
S3152000007033030020350300203703002039030020F6
S315200000803B0300203D0300203F03002041030020C6
S315200000904303002045030020470300204903002096
S315200000A04B030020000000000000000000000000BC
S315200000B00000000000000000000000004D030020AA
S315200000C04F03002051030020530300205503002036
S315200000D057030020590300205B0300205D03002006
S315200000E05F030020610300206303002065030020D6
S315200000F067030020690300206B0300206D030020A6
S315200001006F03002071030020730300207503002075
S3152000011077030020790300207B0300207D03002045
S315200001207F03002081030020830300208503002015
S3152000013087030020890300208B0300208D030020E5
S315200001408F030020910300209303002095030020B5
S3152000015097030020990300209B0300209D03002085
S315200001609F030020A1030020A3030020A503002055
S31520000170A7030020A9030020AB030020AD03002025
S31520000180AF030020B1030020B3030020B5030020F5
S31520000190B7030020B9030020BB030020BD030020C5
S315200001A0BF030020C1030020C3030020C503002095
S315200001B0C7030020C9030020CB030020CD03002065
S315200001C0CF030020D1030020D3030020D503002035
S315200001D0D7030020D9030020DB030020DD03002005
S315200001E0DF030020E1030020E3030020E5030020D5
S315200001F0E7030020E9030020EB030020ED030020A5
S31520000200EF030020F1030020F3030020F503002074
S31520000210F7030020F9030020FB030020FD03002044
S31520000220FF03002001040020030400200504002011
S3152000023007040020090400200B0400200D040020E0
S315200002400F040020110400201304002015040020B0
S3152000025017040020190400201B0400201D04002080
S315200002601F04002021040020230400202504002050
S3152000027027040020290400202B0400202D04002020
S315200002802F040020310400203304002035040020F0
S315200002903704002039040020684880476848002831
S315200002A00BD168486849694A884206D091421CBFEA
S315200002B050F8043B41F8043BF8D165486549664A45
S315200002C0884206D091421CBF50F8043B41F8043BBB
S315200002D0F8D162486249634A914218BF41F8040B3B
S315200002E0FAD100000000000000000000000000001D
S315200002F0DFF874010FF2030E00474FF000004FF0B5
S315200003000001DFF868F1FEE7FEE7FEE7FEE7FEE71D
S31520000310FEE7FEE7FEE7FEE7FEE7FEE7FEE7FEE78F
S31520000320FEE7FEE7FEE7FEE7FEE7FEE7FEE7FEE77F
S31520000330FEE7FEE7FEE7FEE7FEE7FEE7FEE7FEE76F
S31520000340FEE7FEE7FEE7FEE7FEE7FEE7FEE7FEE75F
S31520000350FEE7FEE7FEE7FEE7FEE7FEE7FEE7FEE74F
S31520000360FEE7FEE7FEE7FEE7FEE7FEE7FEE7FEE73F
S31520000370FEE7FEE7FEE7FEE7FEE7FEE7FEE7FEE72F
S31520000380FEE7FEE7FEE7FEE7FEE7FEE7FEE7FEE71F
S31520000390FEE7FEE7FEE7FEE7FEE7FEE7FEE7FEE70F
S315200003A0FEE7FEE7FEE7FEE7FEE7FEE7FEE7FEE7FF
S315200003B0FEE7FEE7FEE7FEE7FEE7FEE7FEE7FEE7EF
S315200003C0FEE7FEE7FEE7FEE7FEE7FEE7FEE7FEE7DF
S315200003D0FEE7FEE7FEE7FEE7FEE7FEE7FEE7FEE7CF
S315200003E0FEE7FEE7FEE7FEE7FEE7FEE7FEE7FEE7BF
S315200003F0FEE7FEE7FEE7FEE7FEE7FEE7FEE7FEE7AF
S31520000400FEE7FEE7FEE7FEE7FEE7FEE7FEE7FEE79E
S31520000410FEE7FEE7FEE7FEE7FEE7FEE7FEE7FEE78E
S31520000420FEE7FEE7FEE7FEE7FEE7FEE7FEE7FEE77E
S31520000430FEE7FEE7FEE7FEE7FEE700000D1F0020D1
S3152000044000000000000000200000002088A10020FD
S3152000045088A1002088A10020C0A60020000000005E
S31520000460C0A6002070A700209D210020AD0A0020F4
S315200004704AF2C063C2F200031A780AB90120187042
S31520000480704700BF4AF28810C2F2000008B5036820
S315200004902BB140F20003C0F2000303B1984708BD18
S315200004A082B00190019B33B1019B03F1FF3301938D
S315200004B0019B002BF8D102B0704700BF2DE9F04117
S315200004C084B001AB49F6D842C2F2000207CA03C380
S315200004D01A804FF00004254601AF4FF013084FF065
S315200004E001062846294601F00DF93B5D312B0AD13C
S315200004F03046FFF7D5FF2846314601F003F940463E
S31520000500FFF7CEFF09E04046FFF7CAFF28463146EF
S3152000051001F0F8F83046FFF7C3FF04F10104092C77
S31520000520DFD14FF000004FF0020101F0EBF848F266
S31520000530A060C0F20100FFF7B3FF04B0BDE8F08170
S315200005402DE9F04F9DB081460DF1540C49F6E44E4D
S31520000550C2F2000EBEE80F00ACE80F0063469EE82C
S31520000560070003C31A804FF00004254615AE4FF04E
S3152000057013074FF001084FF0020A2846294601F0DA
S31520000580C1F8335D312B0AD15046FFF789FF284643
S31520000590414601F0B7F83846FFF782FF09E03846B2
S315200005A0FFF77EFF2846414601F0ACF85046FFF79C
S315200005B077FF04F10104192CDFD14FF000004FF032
S315200005C0020101F09FF84FF000044FF0010743F2BB
S315200005D00005C4F201053846FFF762FFD5F88460AE
S315200005E004F10104222CF6D14FF01E00FFF758FF2C
S315200005F043F20004C4F20104D4F8841012914FF09F
S315200006001E00FFF74DFFD4F8842011924FF02000F2
S31520000610FFF746FFD4F8843010934FF02100FFF700
S315200006203FFFD4F884100F914FF02100FFF738FFD9
S31520000630D4F884304FF02100FFF732FFD4F884201D
S315200006400E924FF02100FFF72BFFD4F884300D9344
S315200006504FF02100FFF724FFD4F884100C914FF0BF
S315200006601F00FFF71DFFD4F884200B924FF01F00C8
S31520000670FFF716FFD4F884300A934FF02000FFF7D7
S315200006800FFFD4F8841009914FF02000FFF708FFE0
S31520000690D4F8842008924FF02000FFF701FFD4F809
S315200006A084504FF02000FFF7FBFED4F884704FF003
S315200006B02000FFF7F5FED4F884804FF02000FFF7E6
S315200006C0EFFED4F884A04FF02000FFF7E9FED4F81F
S315200006D084B04FF02000FFF7E3FED4F88430049373
S315200006E04FF02000FFF7DCFED4F8841006914FF07F
S315200006F02000FFF7D5FED4F884304FEAC51505F063
S31520000700FF0507F0010745EA871703F0010347EACB
S31520000710030308F0010843EA48130AF0010A43EAF2
S315200007200A130BF0010B43EACB03049901F00102F3
S3152000073043EA8203069901F0010243EA4202069245
S315200007404FF01E00FFF7ACFED4F884504FF01E0089
S31520000750FFF7A6FED4F884704FF01E00FFF7A0FE28
S31520000760D4F884804FF01E00FFF79AFED4F884A0B8
S315200007704FF01E00FFF794FED4F884B04FF01F0010
S31520000780FFF78EFED4F8842005924FF01F00FFF766
S3152000079087FED4F8843004934FF01E00FFF780FEC6
S315200007A0D4F884304FEAC51505F0FF0507F0010798
S315200007B045EA871703F0010347EA030308F0010817
S315200007C043EA48130AF0010A43EA0A130BF0010B25
S315200007D043EACB03059901F0010743EA8703049A0C
S315200007E002F0010743EA47074FF01E00FFF758FEC5
S315200007F0D4F884504FF01E00FFF752FED4F88480C0
S315200008004FF02000FFF74CFED4F884A04FF01F00D5
S31520000810FFF746FED4F884B04FF02200FFF740FEE3
S31520000820D4F8843007934FF01F00FFF739FED4F831
S31520000830841005914FF02000FFF732FED4F8842073
S3152000084004924FF01E00FFF72BFED4F884304FEAB7
S31520000850C51505F0FF0508F0010845EA881803F0DC
S31520000860010348EA03030AF0010A43EA4A130BF09C
S31520000870010B43EA0B13079901F0010243EAC20375
S31520000880059A02F0010543EA8503049901F0010562
S3152000089043EA45054FF02000FFF702FED4F8848096
S315200008A04FF02000FFF7FCFDD4F884A04FF0200085
S315200008B0FFF7F6FDD4F884B04FF01F00FFF7F0FDE8
S315200008C0D4F8842013924FF02200FFF7E9FDD4F8E4
S315200008D0843007934FF01F00FFF7E2FDD4F8841011
S315200008E005914FF02000FFF7DBFDD4F88420049219
S315200008F04FF01E00FFF7D4FDD4F884304FEAC81815
S3152000090008F0FF080AF0010A48EA8A1A03F00103F0
S315200009104AEA03030BF0010B43EA4B13139901F048
S31520000920010243EA0213079901F0010243EAC203D6
S31520000930059A02F0010443EA8403049901F00104B4
S3152000094043EA440449F60050C2F20000314601F061
S3152000095015FD49F60C50C2F20000129901F00EFD69
S3152000096049F61450C2F20000119901F007FD49F62C
S315200009701C50C2F20000109901F000FD49F62450E7
S31520000980C2F200000F9901F0F9FC0B9A00920A9B23
S31520000990019309990291089A039249F62C50C2F2C2
S315200009A000000E990D9A0C9B01F0E8FC49F6685060
S315200009B0C2F20000069901F0E1FC49F67450C2F239
S315200009C00000394601F0DAFC49F68050C2F20000F8
S315200009D0294601F0D3FC49F68C50C2F2000021468C
S315200009E001F0CCFC4FF00003C9F80430089BC9F88D
S315200009F030300999C9F82C100A9AC9F828200B9B7F
S31520000A00C9F824300C99C9F820100D9AC9F81C2071
S31520000A100E9BC9F818300F99C9F81410109AC9F806
S31520000A201020119BC9F80C301299C9F80810C9F882
S31520000A3000604FF00003C9F84830C9F84430C9F8BF
S31520000A404040C9F83C50C9F83870069AC9F8342095
S31520000A5048461DB0BDE8F08F70B594B004460E46EA
S31520000A606D4668464FF00101FFF76AFD204669464C
S31520000A704FF04C0201F0BAFB4FF00003636033687D
S31520000A8023B9236813B14FF0010363603046214632
S31520000A904FF04C0201F0AAFB63682BB149F698503F
S31520000AA0C2F2000001F0D8FC14B070BD2DE9F04F61
S31520000AB0BFB000F0DBFD4AF21870C2F200004FF41E
S31520000AC0E1314FF0030200F029FD4AF21070C2F224
S31520000AD0000040F20001C4F205014FF0A2024FF0DF
S31520000AE0010301F0A9F84FF00004189420464FF0B6
S31520000AF0030100F0EBFD20464FF0020100F002FE5C
S31520000B00FFF7DCFC2BAC18AF49F6A858C2F2000858
S31520000B1004F13403039349F6BC5AC2F2000A4AF29E
S31520000B201879C2F200094AF2107BC2F2000B44F295
S31520000B304026C0F20F0620463946FFF78DFF2C9B34
S31520000B40002B42D004F13C03009304F140030193AF
S31520000B500EA84146039A04F1380301F085FC4FF0B4
S31520000B6000038DF860302F9B23B14FF001038DF8E1
S31520000B705F3003E04FF000038DF85F302B9B23B1ED
S31520000B804FF001038DF85D3003E04FF000038DF840
S31520000B905D300DF1100CD646BEE80F00ACE80F0014
S31520000BA0BEE80F00ACE80F009EE803008CE80300C7
S31520000BB004AD484629464FF0280200F073F85846FF
S31520000BC029464FF0280200F0C5FF3046FFF768FCA3
S31520000BD0B1E700BF00BE704700BE704700BE704739
S31520000BE000BE704700BE704700BE7047EFF310800E
S31520000BF072B6704780F310887047000084B0029167
S31520000C0003788DF80F30029B0193019B03F10103BA
S31520000C100193F4E701607047006870470EB503FA48
S31520000C2001F303EA020301686FEA020201EA020104
S31520000C3041EA030101600EBD006800EA020020FAC5
S31520000C4001F0704701807047008870470EB503FA9F
S31520000C5001F303EA020301886FEA020201EA0201B4
S31520000C6041EA030101800EBD008800EA020020FA55
S31520000C7001F0704701707047007870470EB503FA8F
S31520000C8001F303EA020301786FEA020201EA020194
S31520000C9041EA030101700EBD007800EA020020FA45
S31520000CA001F070472DE9F0054AF24073C2F20003C5
S31520000CB0984206D04AF21873C2F20003984200D036
S31520000CC000BE01B900BE02B900BE4AF24073C2F2AC
S31520000CD00003984205D04AF21873C2F200039842E4
S31520000CE033D1131E18BF012300290CBF002303F0A4
S31520000CF00103002B29D04FF00007B8464FF0100A09
S31520000D0003681B7D90F80AC043EA0C0C80F80AC0E1
S31520000D1013F0200F17D00F2A04D95646BC46434657
S31520000D200F4404E00AB943460BE01646F6E704688A
S31520000D30FD5C25700CF1010C03F101039E42F6D8EF
S31520000D406746C3EB0202002ADAD1BDE8F0057047F8
S31520000D50F0B44AF24073C2F20003984206D04AF237
S31520000D601873C2F20003984200D000BE01B900BE3B
S31520000D704AF24073C2F20003984205D04AF2187331
S31520000D80C2F20003984228D139B30D782DB34FF023
S31520000D90000C66460468237D827A43EA0202827248
S31520000DA013F0200FF7D0C5B1334601EB0C070268CC
S31520000DB0EDB2157003F1010303EB0C04FD5C0F2B60
S31520000DC08CBF00220122002D0CBF002202F001025E
S31520000DD0002AECD10DB1A446DCE7F0BC704700BF79
S31520000DE010B44AF24073C2F20003984206D04AF287
S31520000DF01873C2F20003984200D000BE01B900BEAB
S31520000E000AB900BE36E0002934D04AF24073C2F255
S31520000E100003984205D04AF21873C2F200039842A2
S31520000E2028D1C16002614FF000034361038919B2E2
S31520000E304FEA511103F01F034FF0010202FA03F4A7
S31520000E404EF20013CEF2000301F1600143F8214077
S31520000E5041F28901C2F2000101624168C1F8842091
S31520000E60018908B24FEA501001F01F0102FA01F27F
S31520000E7043F8202010BC70474AF24073C2F20003A8
S31520000E80984209D04AF21873C2F20003984203D05E
S31520000E9000BE4FF00000704703681B7D827A43EA4C
S31520000EA002028272026912B14FF000007047C3F34A
S31520000EB08010704710B403464AF24070C2F2000018
S31520000EC0834206D04AF21870C2F20000834200D054
S31520000ED000BE01B900BE02B900BE4AF24070C2F29D
S31520000EE00000834205D04AF21870C2F20000834205
S31520000EF02AD1101E18BF012000290CBF002400F0A3
S31520000F0001040CB31C6894F814C09C7A4CEA0404BF
S31520000F109C721CEA000F17D04FF000001C6894F852
S31520000F2000C001F800C000F101001C6894F814C04C
S31520000F309C7A4CEA04049C72824294BF00240CF0F2
S31520000F400104002CEAD101E04FF0000010BC7047EC
S31520000F5010B44AF24073C2F20003984207D04AF214
S31520000F601873C2F20003984201D000BE22E0038922
S31520000F700FFA83FC4FEA5C1C03F01F034FF00102BB
S31520000F8002FA03F44EF20013CEF200030CF1600CC9
S31520000F9043F82C40046894F804C041EA0C012171FE
S31520000FA0018908B24FEA501001F01F0102FA01F23E
S31520000FB043F8202010BC70474AF24073C2F2000367
S31520000FC0984207D04AF21873C2F20003984201D021
S31520000FD000BE704703681A7922EA01021A71038952
S31520000FE018B24FEA501003F01F034FF0010202FA25
S31520000FF003F24EF20013CEF2000300F1600C43F828
S315200010002C200F2901BF4EF20013CEF20003203010
S3152000101043F82020704700BF08B54AF24073C2F259
S315200010200003984207D04AF21873C2F2000398428E
S3152000103001D000BE08BD03681B7A03F00F030C2BFA
S3152000104020D8DFE803F0071F0D1F131F191F1F1FCE
S315200010501F1F1300436A0BB900BE08BD984708BD81
S31520001060036A0BB900BE08BD984708BDC3690BB912
S3152000107000BE08BD984708BD83690BB900BE08BDF0
S31520001080984708BD00BE08BD10B44AF24073C2F2AC
S315200010900003984206D04AF21873C2F2000398421F
S315200010A000D000BEC26802B900BE016901B900BE07
S315200010B04AF24073C2F20003984205D04AF21873EE
S315200010C0C2F20003984230D1002A2ED000292CD01B
S315200010D003681B7D827A43EA0202827213F0200F94
S315200010E01AD002694369C3EB02030F2B04D94FF0D0
S315200010F0100C4FF0000302E073B19C46F9E702683A
S31520001100C4684169615C1170426902F10102426161
S3152000111003F101036345F2D3426903699A4201BF91
S31520001120002303614268C2F8843010BC704700BFB8
S3152000113010B44AF24073C2F20003984206D04AF233
S315200011401873C2F20003984200D000BE01B900BE57
S31520001150C02A00D900BE4AF24073C2F20003984268
S3152000116005D04AF21873C2F2000398422FD1C02A42
S315200011708CBF0023012300290CBF002303F00103A9
S315200011802BB3C161036802F0C00242F00A021A7250
S31520001190038919B24FEA511103F01F034FF00102E0
S315200011A002FA03F44EF20013CEF2000301F16001BD
S315200011B043F821404168C1F88020018908B24FEAEE
S315200011C0501001F01F0102FA01F243F8202010BC52
S315200011D0704700BF4AF24073C2F20003984207D01C
S315200011E04AF21873C2F20003984201D000BE70473B
S315200011F029B943684FF00002C3F8102270474368AC
S315200012004FF00102C3F81022704700BF684620F055
S3152000121007018D4601B54AF24070C2F20000FFF781
S31520001220FBFE4EF20013CEF200034FF48062C3F8A9
S315200012308021BDE801408546704700BF684620F002
S3152000124007018D4601B54AF21870C2F20000FFF779
S31520001250E3FE4EF20013CEF200034FF40062C3F811
S315200012608021BDE801408546704700BF10B44AF290
S315200012704073C2F20003984206D04AF21873C2F2B3
S315200012800003984200D000BE01B900BE4AF2407366
S31520001290C2F20003984205D04AF21873C2F2000344
S315200012A0984220D1F9B18161038919B24FEA5111CF
S315200012B003F01F034FF0010202FA03F44EF200136B
S315200012C0CEF2000301F1600143F821404168C1F8E4
S315200012D08820018908B24FEA501001F01F0102FA56
S315200012E001F243F8202010BC704700BF10B44AF228
S315200012F04073C2F20003984206D04AF21873C2F233
S315200013000003984200D000BE01B900BE4AF24073E5
S31520001310C2F20003984205D04AF21873C2F20003C3
S31520001320984224D119B301624FF00003C3600361D0
S31520001330038919B24FEA511103F01F034FF001023E
S3152000134002FA03F44EF20013CEF2000301F160011B
S3152000135043F821404168C1F88420018908B24FEA48
S31520001360501001F01F0102FA01F243F8202010BCB0
S31520001370704700BF10B44AF24073C2F2000398428D
S3152000138006D04AF21873C2F20003984200D000BE7B
S3152000139001B900BE4AF24073C2F20003984205D05A
S315200013A04AF21873C2F20003984220D1F9B1416281
S315200013B0038919B24FEA511103F01F034FF00102BE
S315200013C002FA03F44EF20013CEF2000301F160019B
S315200013D043F821404168C1F88C20018908B24FEAC0
S315200013E0501001F01F0102FA01F243F8202010BC30
S315200013F0704700BF10B403464AF24070C2F20000A4
S31520001400834206D04AF21870C2F20000834200D00E
S3152000141000BE01B900BE02B900BE4AF24070C2F257
S315200014200000834205D04AF21870C2F200008342BF
S3152000143026D1101E18BF012000290CBF002400F061
S315200014400104ECB11C6894F814C09C7A4CEA04049C
S315200014509C721CF0200F13D00F2A04D94FF01004D1
S315200014604FF0000002E058B11446F9E71A6811F867
S3152000147000C082F800C000F10100A042F6D301E0CE
S315200014804FF0000010BC704702464AF24073C2F289
S315200014900003984209D04AF21873C2F20003984218
S315200014A003D000BE4FF0FF0070471368187D937A73
S315200014B040EA030000F09E004FF00003937270474D
S315200014C04AF24073C2F20003984209D04AF21873D6
S315200014D0C2F20003984203D000BE4FF0FF007047CF
S315200014E00368187E704700BF4AF24073C2F20003B9
S315200014F0984209D04AF21873C2F20003984203D0E8
S3152000150000BE4FF00000704703681B7D827A43EAD5
S315200015100202827203F06000704700BF70B5044675
S315200015200D4616464AF24073C2F20003984206D090
S315200015304AF21873C2F20003984200D000BE05B9E1
S3152000154000BE00F0E5FC4AF24073C2F200039C4262
S3152000155026D14AF24073C2F200034FF080421A604D
S315200015604FF084425A604FF00A021A814AF29413CD
S31520001570C2F20003186842F20003CEF204031A6B8B
S3152000158042F080021A634EF20012CEF200024FF4AD
S315200015908061C2F880111A6B22F080021A6325E05E
S315200015A040F20003C4F20103236040F20003C4F2B8
S315200015B0202363604FF00B0323814AF29813C2F273
S315200015C00003186842F20003CEF204031A6B42F4B9
S315200015D080721A634EF20012CEF200024FF40061BE
S315200015E0C2F880111A6B22F480721A6323684FF0B6
S315200015F000021A7115B94FF001050FE0B0FBF5F5A1
S3152000160015F0080F4FEA151518BF0135B5F5803FBF
S3152000161038BFADB202D300BE4FF0010563684FF06C
S315200016200102C3F89C2123684FEA15221A71236808
S31520001630EDB21D7062684FF00003C2F89C3122683B
S31520001640167322684FF00E0111726268C2F81032CA
S315200016502361E3606361E36141F28902C2F2000221
S315200016602262A3616362A37270BD00BF10B442F20E
S315200016700003CEF204031A6B42F480421A634FF041
S31520001680000349F6E450C2F200004FF0010C4EF27E
S315200016900014CEF20004C25A11B24FEA511102F0E0
S315200016A01F020CFA02F201F1600144F8212003F135
S315200016B00203402BEFD142F20003CEF204031A6B51
S315200016C022F480421A6310BC704700BF1F2801D93C
S315200016D000BE704749F6E453C2F2000303EB8000D4
S315200016E0036C1960704700BF1F2801D900BE7047E0
S315200016F040F20003C4F2262300F5886043F8201048
S31520001700704700BF1F2801D900BE7047012903D0AA
S31520001710E1B1022940D133E043F20003C4F20103D0
S31520001720D3F888104FF0010202FA00F242EA0102D1
S31520001730C3F8882049F6E453C2F2000303EB800085
S31520001740036C1A6842F004021A60704743F20003E1
S31520001750C4F20103D3F888104FF0010202FA00F216
S3152000176021EA0202C3F8882049F6E453C2F20003B4
S3152000177003EB8000036C1A6842F004021A6070477B
S3152000178049F6E453C2F2000303EB8000036C1A68A7
S3152000179022F004021A60704700BE70471F2801D944
S315200017A000BE704749F6E453C2F2000303EB800201
S315200017B0126C116841F00801116033F810301AB22A
S315200017C04FEA521203F01F034FF0010101FA03F111
S315200017D04EF20013CEF2000343F82210704700BFEA
S315200017E01F2801D900BE704749F6E453C2F2000310
S315200017F003EB8000036C1A6822F008021A60704717
S315200018001F2801D900BE70474FF0010202FA00F1ED
S3152000181043F20003C4F20103C3F8801049F6E453EF
S31520001820C2F2000333F8103019B24FEA511103F017
S315200018301F0302FA03F24EF20013CEF2000301F167
S31520001840600143F82120704710B58AB00346D8B905
S3152000185049F6A46CC2F2000C6C46BCE80F000FC41B
S31520001860BCE80F000FC49CE8030044F8040B24F8DE
S31520001870021B4FEA1141217068464FF48A71FFF727
S31520001880BDF94FF0FF0005E00079C0F382004FF06C
S3152000189000021A710AB010BDF0B58BB00E4617467D
S315200018A00446C0B949F6A46CC2F2000C6D46BCE8E9
S315200018B00F000FC5BCE80F000FC59CE8030045F8D4
S315200018C0040B25F8021B4FEA1141297068464FF098
S315200018D0CC01FFF793F9C6B949F6A46CC2F2000C05
S315200018E06D46BCE80F000FC5BCE80F000FC59CE88D
S315200018F0030045F8040B25F8021B4FEA1141297015
S3152000190068464FF0CD01FFF779F9C7B949F6A46CBF
S31520001910C2F2000C6D46BCE80F000FC5BCE80F00F4
S315200019200FC59CE8030045F8040B25F8021B4FEA77
S315200019301141297068464FF0CE01FFF75FF9331E3B
S3152000194018BF0123002C0CBF002303F0010353B35F
S315200019504FB3206800F11000FFF78EF9237940EA93
S315200019600303237100F00200C0B2E0B14FF000057E
S31520001970206800F10400FFF77FF9705505F1010595
S31520001980206800F11000FFF777F9237940EA030376
S315200019902371C0F34000AF4294BF002000F0010045
S315200019A00028E5D101E04FF0000528460BB0F0BD38
S315200019B070B58AB00E460446C0B949F6A46CC2F288
S315200019C0000C6D46BCE80F000FC5BCE80F000FC524
S315200019D09CE8030045F8040B25F8021B4FEA114149
S315200019E0297068464FF0F301FFF708F9CEB949F69A
S315200019F0A46CC2F2000C6C46BCE80F000FC4BCE815
S31520001A000F000FC49CE8030044F8040B24F8021BC3
S31520001A104FEA1141217068464FF0F401FFF7EEF8C6
S31520001A2015E0A4B1337893B106F10105206800F1E1
S31520001A301000FFF721F910F0010FF7D02068317858
S31520001A40FFF718F92E4615F8013B002BEED10AB008
S31520001A5070BD00BFF0B58BB00E4617460546C0B91F
S31520001A6049F6A46CC2F2000C6C46BCE80F000FC409
S31520001A70BCE80F000FC49CE8030044F8040B24F8CC
S31520001A80021B4FEA1141217068464FF0A201FFF771
S31520001A90B5F8C6B949F6A46CC2F2000C6C46BCE88F
S31520001AA00F000FC4BCE80F000FC49CE8030044F8E5
S31520001AB0040B24F8021B4FEA1141217068464FF0AF
S31520001AC0A301FFF79BF8C7B949F6A46CC2F2000C34
S31520001AD06C46BCE80F000FC4BCE80F000FC49CE89E
S31520001AE0030044F8040B24F8021B4FEA114121702D
S31520001AF068464FF0A401FFF781F8331E18BF012373
S31520001B00002D0CBF002303F00103EBB1E7B12868D9
S31520001B1000F11000FFF7B0F810F0010F14D04FF0CD
S31520001B2000042868315DFFF7A5F804F10104286850
S31520001B3000F11000FFF7A0F8BC422CBF002000F0F7
S31520001B4001000028EDD101E04FF0000420460BB043
S31520001B50F0BD00BFF0B58BB00E4617460446C0B99F
S31520001B6049F6A46CC2F2000C6D46BCE80F000FC506
S31520001B70BCE80F000FC59CE8030045F8040B25F8C8
S31520001B80021B4FEA1141297068464FF07D01FFF78D
S31520001B9035F8C6B949F6A46CC2F2000C6D46BCE80D
S31520001BA00F000FC5BCE80F000FC59CE8030045F8E1
S31520001BB0040B25F8021B4FEA1141297068464FF0A5
S31520001BC07E01FFF71BF8C7B949F6A46CC2F2000CD8
S31520001BD06D46BCE80F000FC5BCE80F000FC59CE89A
S31520001BE0030045F8040B25F8021B4FEA1141297022
S31520001BF068464FF07F01FFF701F8331E18BF012317
S31520001C00002C0CBF002303F0010393B18FB14FF0DA
S31520001C100005206800F11000FFF72EF810F0010FE4
S31520001C20F7D02068715DFFF725F805F10105AF4271
S31520001C30EFD80BB0F0BD00BF2DE9F0418AB00F46BA
S31520001C4016461D460446D8B949F6A46EC2F2000EC1
S31520001C50EC46BEE80F00ACE80F00BEE80F00ACE88B
S31520001C600F009EE803004CF8040B2CF8021B4FEAE9
S31520001C7011418CF8001068464FF03001FEF7BEFF88
S31520001C80072D1BD949F6A46EC2F2000EEC46BEE81B
S31520001C900F00ACE80F00BEE80F00ACE80F009EE88E
S31520001CA003004CF8040B2CF8021B4FEA11418CF868
S31520001CB0001068464FF03101FEF7A0FFB6F5005F31
S31520001CC01BD349F6A46EC2F2000EEC46BEE80F0006
S31520001CD0ACE80F00BEE80F00ACE80F009EE803005A
S31520001CE04CF8040B2CF8021B4FEA11418CF800101B
S31520001CF068464FF03201FEF781FF072D8CBF002387
S31520001D000123002C0CBF002303F00103002B76D007
S31520001D10B6F5005F73D207F108084046F1B2FEF728
S31520001D20A9FF06F47F4107F10C0045EA6111FEF791
S31520001D30A1FF27604046FEF79FFF8046206800F1FE
S31520001D400C00FEF799FF074600F0F80348EA43180F
S31520001D501FFA88F8B04518D049F6A46CC2F2000CD8
S31520001D606E46BCE80F000FC6BCE80F000FC69CE805
S31520001D70030046F8040B26F8021B4FEA1141317086
S31520001D8068464FF05401FEF739FF07F00707AF42C8
S31520001D9018D049F6A46CC2F2000C6D46BCE80F00C0
S31520001DA00FC5BCE80F000FC59CE8030045F8040BDF
S31520001DB025F8021B4FEA1141297068464FF055015C
S31520001DC0FEF71CFF206800F11000FEF755FF00F01B
S31520001DD00203DBB283B1206800F10400FEF74CFF5A
S31520001DE08DF82700206800F11000FEF745FF00F06F
S31520001DF00200C0B20028EED14FF0000323710AB0D2
S31520001E00BDE8F081684620F007018D4601B442F214
S31520001E100003CEF204031A6D42F4E0221A65DA6C4E
S31520001E2022F47C1242F47012DA641A6D22F0706287
S31520001E3042F080721A654FF06402194610464B6BC9
S31520001E4003F00303032B18BF0246F8D1013AF6D15B
S31520001E504EF60053CEF2000340F20402C0F2FA52CC
S31520001E60DA6001BC85467047EFF30980004670476B
S31520001E7080F30988704700BFEFF30880004670475B
S31520001E8080F30888704700BFEFF31280704700BFC9
S31520001E9080F31188704700BFEFF31080704700BFB2
S31520001EA080F31088704700BFEFF31380704700BFA0
S31520001EB080F31388704700BFEFF31480704700BF8C
S31520001EC080F31488704700BF00BA704740BA704745
S31520001ED0C0BA704790FAA0F0704700BFD0E84F0F05
S31520001EE0C0B27047D0E85F0F80B2704750E8000F4D
S31520001EF0704700BFC1E8400F704700BFC1E8500FD0
S31520001F00704700BF41E80000704700BF704700BF20
S31520001F1030B484B049F6CC63C2F20003EC460FCB52
S31520001F208CE80F0042F20003CEF204039A6C02F012
S31520001F300C0204A90A4452F8105C9A6CC2F30112EE
S31520001F4001EB820252F8104C9A6CC2F3811201EB1B
S31520001F50820252F8100CD96CDB6CC1F3042101F11A
S31520001F60010113F4005F18BF490040F23023C6F286
S31520001F7008031A6822F0704241F2CF13C0F2A1532F
S31520001F809A4205D14EF62C73C6F201031A6828E050
S31520001F9040F61C03C6F208031A6844F24133C4F61D
S31520001FA054439A421ED140F64003C6F208031A68EB
S31520001FB022F07F4240F20033C0F201039A4211D947
S31520001FC0B2F5003F05D241F22C63C6F208031A6827
S31520001FD007E0B2F5403F05D241F6AC63C6F20803EE
S31520001FE01A6822B900BE47F64002C0F27D124AF2B4
S31520001FF09013C2F200031A60B2FBF5F55D60B2FBE6
S31520002000F4F49C60B2FBF0F0D860B2FBF1F11961F8
S315200020105A6104B030BC70474FF0FF30704700BFA4
S31520002020FEE700BF4FF400534B604FF000007047AF
S315200020304FF00100704700BF4FF00100704700BF0E
S315200020404FF00000704700BF4FF0FF30704700BFD1
S315200020504FF00000704700BF4FF400534B604FF025
S31520002060000070474FF0FF30704700BF08B500F002
S315200020708FF84FF00A0303604FF0FF3008BD00BF12
S3152000208008B500F085F84FF0020303604FF0FF30EB
S3152000209008BD00BF08B500F07BF84FF01F030360B2
S315200020A04FF0FF3008BD00BF08B500F071F84FF0C3
S315200020B0160303604FF0FF3008BD00BF08B500F0DF
S315200020C067F84FF00B0303604FF0FF3008BD00BFE9
S315200020D008B500F05DF84FF00C0303604FF0FF30B9
S315200020E008BD00BF38B515461C464AF2C463C2F285
S315200020F000031B6883B94AF24070C2F200004FF415
S3152000210061414FF00302FFF709FA4AF2C463C2F2B3
S3152000211000034FF001021A604AF24070C2F200003A
S3152000212029462246FEF7BEFD204638BD08B54AF2AE
S31520002130C463C2F200035B6843B94AF2C463C2F2C5
S3152000214000034AF27072C2F200025A604AF2C46375
S31520002150C2F200035A68EFF30883104483420FD279
S315200021604FF000004FF0010149F6DC62C2F2000296
S315200021704FF01903FFF7B6FF4FF00100FFF750FFAE
S315200021804AF2C463C2F200035860104608BD00BF7D
S315200021904AF2AC13C2F200031868704770B54AF2CF
S315200021A078164AF27815C2F20006C2F20005761BAE
S315200021B0B61006D0002455F8243001349847A6429C
S315200021C0F9D84AF278154AF27C16C2F20005C2F214
S315200021D00006761B07F0C4FFB61006D0002455F87B
S315200021E0243001349847A642F9D870BD032A2DE938
S315200021F0F0070BD83AB1002311F803C000F803C04A
S3152000220001339342F8D1BDE8F007704782180C4697
S31520002210034603E014F8011C03F8011C03F003062F
S315200022201946A44601330134002EF3D11CF00304D1
S31520002230634608BFC1EB020C68D06542C4F1040AAC
S315200022400CEB050733464FEACA0A5CF805604FEAED
S31520002250C408551A08E057F8044F264604FA0AF42B
S3152000226049EA0404CC5004335C18032D26FA08F9F5
S31520002270A5F104050CEB0306EDDC002302E0F15C7E
S31520002280E154013319199142F9D3BCE753F8404C74
S3152000229041F8404C53F83C4C41F83C4C53F8384CF0
S315200022A041F8384C53F8344C41F8344C53F8304C00
S315200022B041F8304C53F82C4C41F82C4C53F8284C10
S315200022C041F8284C53F8244C41F8244C53F8204C20
S315200022D041F8204C53F81C4C41F81C4C53F8184C30
S315200022E041F8184C53F8144C41F8144C53F8104C40
S315200022F041F8104C53F80C4C41F80C4C53F8084C50
S3152000230041F8084C53F8044C41F8044C1C460D4641
S3152000231040334031BCF13F0FACF1400CB6DC2146D6
S315200023202B46541B0FE051F8105C43F8105C51F813
S315200023300C5C43F80C5C51F8085C43F8085C51F8D7
S31520002340045C43F8045C0F2C0D469C4601F11001F9
S3152000235003F11003A4F11004E5DCCCEB0201002309
S3152000236003E0EC584CF8034004335E19032903EBD1
S315200023700C04A1F10401F4DC7FE700BF0FB44AF29C
S31520002380AC13C2F2000310B51C6882B024B1A36955
S3152000239013B9204604F024FA204605AC049A2346B5
S315200023A08168019401F0BCFB02B0BDE8104004B086
S315200023B0704700BF0EB410B5044683B018B18369C8
S315200023C00BB904F00DFA204606AC059A234681681F
S315200023D0019401F0A5FB03B0BDE8104003B070479F
S315200023E030B5044689B008460D4600F087F849F610
S315200023F0F4630195C2F2000303930290431C0793F2
S315200024000123049301AB0593022306930CB1A36920
S31520002410EBB14AF2AC132046C2F200031B689B685C
S315200024209A8912F4005F01BF42F400529A81596ED4
S3152000243021F40052A16808BF5A6605AA04F034FBAD
S31520002440002814BF4FF0FF300A2009B030BD2046C7
S3152000245004F0C6F9DDE700BF4AF2AC130146C2F22A
S3152000246000031868BCE700BF0EB44AF2AC1330B5BF
S315200024709CB01FACC2F20003054601A954F8042BF8
S315200024804FF0FF3C18684FF40273ADF81030234626
S31520002490059501956FF00045ADF812C00695039598
S315200024A01B9400F0E9F8019B00221A701CB0BDE8CD
S315200024B0304003B0704700BF0CB40B4610B59CB03B
S315200024C01EAC01A905934FF4027C54F8042B01930A
S315200024D04FF0FF33ADF8123023461B946FF00044C3
S315200024E0ADF810C00694039400F0C6F8019B0022B4
S315200024F01A701CB0BDE8104002B0704720F00301EE
S3152000250010F00300C0F1000051F8043B00F1040C68
S315200025104FEACC0C6FF000021CBF22FA0CF21343D8
S315200025204FF0010C4CEA0C2C4CEA0C4CA3EB0C02A1
S3152000253022EA030212EACC1204BF51F8043B04300B
S31520002540F4D013F0FF0F1FBF013013F47F4F01307B
S3152000255013F47F0F18BF0130704700BF2DE9F04FED
S3152000256085B092460C46039090681768002800F0C4
S3152000257081804FF000090B684D46002D54D0A66887
S31520002580B542B0463EBF18462E46A8463CD3A08943
S3152000259010F4906F08BF184636D06269216902EBA5
S315200025A0420B5B1A03F1010C0BEBDB7BAC444FEACD
S315200025B06B0BE3455A463CBFE3465A4610F4806F00
S315200025C037D011460398019304F010FD019B002893
S315200025D03BD01A46216901930290FFF707FEA28994
S315200025E0019BDDF808C022F4906242F08002A281AD
S315200025F02E46A846C3EB0B020CEB0300A260C4F8E0
S3152000260010C02060C4F814B04246494604F0FAFFD0
S31520002610A2682368961BA660DAF808204344236044
S31520002620551BCAF80850FDB1D7F800907D680837C9
S31520002630A3E70398019305F05BFD019B84460028E0
S31520002640D6D10398216904F04FF9039A0C234FF051
S31520002650FF3013600023A289CAF8043042F04002FA
S31520002660CAF80830A28102E02846CAF8045005B00C
S31520002670BDE8F08F5060FAE72DE9F04FC5B00E4661
S315200026809A461546099004F0FFFBB38913F0800F94
S3152000269000681B9003D03369002B01F08C800DF16C
S315200026A07409B3464C4600221092002318921792C2
S315200026B01A920D922DAA199328320DF1F70316922C
S315200026C007930023CDF8DC90389339932B78B3F118
S315200026D0250218BF0122002B0CBF002202F00102A6
S315200026E002B32E4616F8013F1A1E18BF0122252BCB
S315200026F00CBF002202F00102002AF3D1771B08BF8B
S3152000270035460FD06760389B399A01332560D21938
S31520002710072B3992389379DC08340D983546C01941
S315200027200D903378002B00F0378700214FF0000200
S31520002730CDF828A06B1C0C914FF0FF388DF80F2197
S315200027408A466A782B204FF0200C5D1CA2F12003CC
S31520002750582B00F21982DFE813F02902170217021C
S3152000276035021702170217021702170217023C0238
S3152000277048021702C802CF021702EF02F602F6023B
S31520002780F602F602F602F602F602F602F602170242
S31520002790170217021702170217021702170217024B
S315200027A017024F0288021702880217021702170221
S315200027B01702C10217021702EE03170217021702A9
S315200027C017021702930317021702AD031702170207
S315200027D0170217021702170217021702170217020B
S315200027E0C703D8038802880288020B03D80317027E
S315200027F017020F031702190329033E038C0317023E
S3152000280059031702840317021702EA00099859464A
S3152000281037AAFFF7A3FE00287CD14C467DE71899FE
S31520002820012940F35284119A01236360389B226068
S31520002830399A013338930132072B399200F3968562
S31520002840083401236360389B399A01331B9801327F
S31520002850072B39922060389300F37D850834109831
S3152000286000220023199906F069FE002840F003850E
S315200028701899119B4A1E6260591C389B2160399910
S31520002880013338938A18072B399200F32F840834A2
S315200028901A9A1A9862603EAA389B2260399A0133A6
S315200028A038931218072B399200F34F8104F108034D
S315200028B01AF0040F00F056810C990B9A8E1A002EEE
S315200028C040F35081102E49F60077D8BFC2F2000798
S315200028D040F3DE831024C2F200070DF1DC08DDF898
S315200028E024A003E0103E102E40F3D2835C60389A79
S315200028F0399901321F601031072A399103F10803F3
S315200029003892EFDD504659464246FFF727FE4B46A2
S315200029100028E7D05E46B3890D9813F0400F18BF04
S315200029204FF0FF300D900D9845B0BDE8F08F1AF0AE
S31520002930200F49F64470C2F200001492179000F05E
S31520002940C3820A99CB1D23F0070303F108020A92DA
S31520002950D3E9006756EA07010CBF002201221AEAD2
S31520002960020F40F0BC8402234FF000018DF80F11B6
S31520002970B8F1000FA8BF2AF0800AB8F1000F18BFDF
S3152000298042F00102002A00F06081012B00F034841D
S31520002990022B00F017841699CDF82C8011914FEA5E
S315200029A0D6084FEAD70C48EA477806F0070067466C
S315200029B04646303056EA070201F8010DEFD11AF0EB
S315200029C0010FDDF82C80119140F0DB84169B5B1AF9
S315200029D00E930E9BCDF854804345B8BF43460B93C8
S315200029E09DF80F3113B10B9901310B911AF00202A8
S315200029F0139202D00B9B02330B931AF08400129091
S31520002A0038D10C990B9A8E1A002E33DD102E49F6EA
S31520002A100077D8BFC2F2000720DD4FF01008C2F2BF
S31520002A20000702E0103E102E18DDC4F80480389B03
S31520002A30399A013327601032072B399204F10804A2
S31520002A403893EFDD0998594637AA4C46FFF786FD9D
S31520002A5000287FF45FAF103E102EE6DC6660389BC0
S31520002A6027605A1C399B38929B19072A399300F301
S31520002A70F78308349DF80F3173B101236360389BC7
S31520002A8043AA03322260399A013338930132072B45
S31520002A90399200F340830834139B6BB102236360A1
S31520002AA0389B43AA2260399A013338930232072B86
S31520002AB0399200F33A8308341298802800F0B282C3
S31520002AC015980E9BC61A002E2EDD102EA74FC8BFB6
S31520002AD04FF0100803DC1BE0103E102E18DDC4F862
S31520002AE00480389B399A013327601032072B39929C
S31520002AF004F108043893EFDD0998594637AA4C4665
S31520002B00FFF72CFD00287FF405AF103E102EE6DCE3
S31520002B106660389B27605A1C399B38929B19072A76
S31520002B20399300F3EE8208341AF4807F40F019823C
S31520002B300E99119A6160389B2260399A0133389335
S31520002B405218072B39927FF7B1AE0998594637AA02
S31520002B50FFF704FD00287FF4DDAE1AF0040F4B4684
S31520002B607FF4AAAE399B0D980B9A0C998A42ACBF7A
S31520002B70801840180D90002B40F09E820023DDF82F
S31520002B8028A038934C46A1E51492002A00F004852B
S31520002B9001208DF8B4204FF000012DAA0B908DF85E
S31520002BA00F1111920E90002115911FE79DF80F31FC
S31520002BB0002B40F00C840A992B468DF80FC12A78F9
S31520002BC00A91C2E50A994AF0010A2A782B460A9107
S31520002BD0BBE50A9B0A9A1B68111D002B0C93C0F2B9
S31520002BE0B2852A782B460A91AFE50A992B468DF8AD
S31520002BF00F012A780A91A8E54AF0100A14921AF0D1
S31520002C00200F00F087810A98C31D23F0070303F1E4
S31520002C1008010A91D3E90067002E77F10000C0F27F
S31520002C20768356EA07014FF001030CBF00220122EA
S31520002C30B8F1000FA8BF2AF0800AB8F1000F18BF1C
S31520002C4042F00102002A7FF4A0AE002B40F0E5817D
S31520002C501AF0010F00F0E18130238DF8DB302DAB27
S31520002C60012027330E901193B3E61AF0080F149221
S31520002C7000F0BF830A98C31D23F0070303F1080160
S31520002C800A915E681F68199610973846314605F0F6
S31520002C9009FC0346002800F09384384600220023CE
S31520002CA0314606F055FC002840F015849DF80F317A
S31520002CB0032049F6387249F634710B901498C2F203
S31520002CC00001C2F200022AF0800A4728D8BF0A462D
S31520002CD00321119200220E91159283E60A994AF059
S31520002CE0080A2A782B460A912FE50A992A784AF06B
S31520002CF0040A2B460A9128E52B4613F8012B2A2A8B
S31520002D0000F0CF86A2F13001092988BF4FF00008D4
S31520002D1010D802354FF0000815F8012C08EB88086A
S31520002D202B46013501EB4808A2F130010929F3D9D8
S31520002D3048EAE8781D4609E50A994AF0800A2A7881
S31520002D402B460A9101E5A2F1300100262B4606EB1F
S31520002D50860613F8012B01EB4606A2F130011D462B
S31520002D600929F3D90C961D46F0E400BF109F0020D8
S31520002D704AF0400A0A9934E72A786C2A00F0188427
S31520002D800A994AF0100A2B460A91DEE41AF0200F1F
S31520002D9000F023830A990D9A0B6810464FEAE071DA
S31520002DA00A9AC3E9000102F1040A8FE41AF020030B
S31520002DB0149200F0C7800A9BDA1D002322F0070236
S31520002DC002F108000A90D2E9006756EA07010CBF13
S31520002DD000220122C8E50A9A49F644700A99782306
S31520002DE0C2F200001493166804318DF80D314AF0B2
S31520002DF0020A3023321E18BF01228DF80C313646C6
S31520002E004FF00007179002230A91ADE50A9B149212
S31520002E104FF00002181D8DF80F211B680A901193A0
S31520002E20002B00F04D85B8F1000F1198C0F22A85CD
S31520002E300021424604F0ACFB0346002800F06E85D4
S31520002E4011981B1A0E93434540F38284CDF838809F
S31520002E50002128EAE8789DF80F31CDF82C801591CD
S31520002E60C0E51AF0200F149210D00A9BDA1D012318
S31520002E70A4E70A994AF0200A2A782B460A9164E4A4
S31520002E804AF0100A14921AF0200FEED11AF0100F01
S31520002E9040F054821AF0400F00F050820A98012325
S31520002EA0011D0A910688321E18BF012236464FF0B0
S31520002EB0000759E51AF0200F149249F62072C2F243
S31520002EC0000217927FF43DAD1AF0100F40F02D82CC
S31520002ED01AF0400F00F029820A990A1D0A920E88DC
S31520002EE036464FF0000735E5149201200A9A4FF036
S31520002EF000010B900E90136804328DF80F110A9280
S31520002F002DAA8DF8B43011924DE61AF0200F1492A6
S31520002F107FF479AE1AF0100F40F0ED811AF0400FD1
S31520002F2000F0E9810A98011D0A91B0F90060364641
S31520002F304FEAE67770E64AF0100A14921AF0200358
S31520002F407FF439AF1AF0100200F05F820A9A101D42
S31520002F500A901668321E18BF012236464FF0000727
S31520002F6002E5149B652B7FF75AAC109800220023AC
S31520002F70199906F0E3FA002800F0E1800123636046
S31520002F80389A49F66073C2F200032360399B0132F6
S31520002F9038920133072A3993D8BF04F1080300F386
S31520002FA09F82429A1898824203DB1AF0010F3FF45F
S31520002FB07FAC1B9901225A60389A196039990132DF
S31520002FC038920131072A399100F3EB830833189A96
S31520002FD0561E002E7FF76CAC102EA04F40F3E981D1
S31520002FE010240DF1DC0803E0103E102E40F3E181A1
S31520002FF05C60389A399901321F601031072A39915D
S3152000300003F108033892EFDD099859464246FFF747
S31520003010A5FA4B460028E7D07CE4169900220E92AA
S315200030201191D6E40C990B9A8E1A002E7FF748AD93
S31520003030102E8A4FC8BF4FF0100803DC1BE0103E4D
S31520003040102E18DDC4F80480389B399A0133276086
S315200030501032072B399204F108043893EFDD0998D2
S31520003060594637AA4C46FFF779FA00287FF452AC26
S31520003070103E102EE6DC6660389B27605A1C399B72
S3152000308038929B19072A399300F38881083417E56B
S315200030905E60389A1F60399B01323892F318072AEE
S315200030A039937FF760AD0998594637AAFFF756FA44
S315200030B000283FF457AD2DE40998594637AAFFF763
S315200030C04DFA00283FF45AAD24E41AF0010F7FF49C
S315200030D0AAAB01236360389B399A013311990132D7
S315200030E0072B3992216038937FF7D1AB099859463F
S315200030F037AAFFF733FA00287FF40CAC4C46FFF7CB
S31520003100C7BB0998594637AAFFF728FA00287FF443
S3152000311001AC4C4608E50998594637AAFFF71EFA2E
S3152000312000287FF4F7AB4C46B6E40998594637AAEF
S31520003130FFF714FA00287FF4EDAB4C46BCE4429B23
S31520003140002B40F3D98118998B42C0F26F81119AD6
S315200031506160389B2260399A013338935218072BC5
S315200031603992D8BF04F1080300F3BA83429C189819
S31520003170241A002C40F39B81102C384F40F38B816E
S31520003180CDF838A01026AA460DF1DC08099D03E0EB
S31520003190103C102C40F37C815E60389A39990132BC
S315200031A01F601031072A399103F108033892EFDDA9
S315200031B0284659464246FFF7D1F94B460028E7D024
S315200031C0FFF7A8BB1698DDF85CC0034611903109BD
S315200031D006F00F0241EA077138091CF802200E4654
S315200031E0074656EA070103F8012DF0D1169A1193E6
S315200031F0D21A0E92FFF7EDBB00230922B24273EBDF
S315200032000700169B3EBFCDF82C80A0461C461AD23E
S31520003210304639460A22002306F0EAF93046394676
S31520003220002302F1300C0A2204F801CD06F0E0F961
S3152000323006460F4609200021B042B941E8D323466D
S315200032404446DDF82C805A1E3036119203F8016C64
S31520003250169B9B1A0E93FFF7BCBB00BF109F002046
S315200032600998594637AAFFF779F900287FF452AB17
S315200032704C46FFF7FFBB1898461E002E7FF708AB7B
S31520003280102E9C4FC8BF4FF0100803DC1BE0103EE9
S31520003290102E18DDC4F80480389B399A0133276034
S315200032A01032072B399204F108043893EFDD099880
S315200032B0594637AA4C46FFF751F900287FF42AAB26
S315200032C0103E102EE6DC6660389B399A0133276063
S315200032D09219072B399238937FF7D9AA06E71498C3
S315200032E030214AF0020A012202238DF80C118DF8B2
S315200032F00D01FFF739BB0A9A131D16680A93364645
S315200033004FEAE677002E77F10000BFF68AAC7642C8
S3152000331067EB47072D2356EA07028DF80F310CBFBE
S31520003320002201220123FFF723BB0A9B181D1E68DA
S315200033300A9036464FF00007FFF70CBB0A9A131D7A
S3152000334016680A930123321E18BF012236464FF013
S315200033500007FFF709BB0998594637AAFFF7FEF879
S3152000336000287FF4D7AA4C46FFF779BA0998594620
S3152000337037AAFFF7F3F800287FF4CCAA4C46FFF7CC
S3152000338060BA302800F09682119A302302F8013D67
S31520003390169B11929B1A0E93FFF71BBB0998594651
S315200033A037AAFFF7DBF800287FF4B4AA4C46FFF7CC
S315200033B087BB5E60389A399901321F608919072ABE
S315200033C0399138923FF7C1AB0833FFF771BA0A99A2
S315200033D02B462A780A91FFF7B8B91AF0100F00F099
S315200033E0CD810A980D9900F1040A03681960FFF748
S315200033F06DB90A9AD31D23F0070303F108000A903A
S315200034005E681F68199610973FE41AF0400300F093
S31520003410A9810A9913460A1D0A920E88321E18BFE0
S31520003420012236464FF00007FFF79EBA119A6360D5
S3152000343038992260399A01313891D318072939935E
S3152000344000F3628208340123429E6360389B399AD6
S3152000345001331B980132072B3893D8BF04F1080398
S315200034602060399200F34682429A119918988E1953
S315200034701E60811A596039998A1A38991218399218
S315200034800131389107293FF760AB0833FFF710BAAF
S315200034905546DDF838A05C60389A399901321F60AC
S315200034A00919072A3991389200F37F8208331AF0D6
S315200034B0010F3FF4FDA91B9901225A60389A196021
S315200034C03999013238920131072A39913FF73DABBC
S315200034D00833FFF7EDB92D238DF80F31FFF7E8BB41
S315200034E00998594637AAFFF739F800287FF412AA17
S315200034F04B4656E5109F002001236360389A49F613
S315200035006073C2F200032360399B01323892013383
S31520003510072A3993D8BF04F1080300F37381429A2E
S315200035202AB9189818B91AF0010F3FF4C1A91B99A6
S3152000353001225A60389A196039990132389201313C
S31520003540072A399100F368810833429C6442002C93
S3152000355040F38781102C9E4F40F3A08110260DF159
S31520003560DC0803E0103C102C40F398815E60389A0A
S31520003570399901321F601031072A399103F1080366
S315200035803892EFDD099859464246FEF7E7FF4B464B
S315200035900028E7D0FFF7BEB9399B5E46002B3FF4E3
S315200035A0BAA90998594637AAFEF7D8FFFFF7B3B943
S315200035B00A994AF0200A6A786B1C0A91FFF7C5B867
S315200035C038463146089304F07FFF089B002840F0D8
S315200035D00181B8F1FF3F08BF08F107080ED0149A01
S315200035E0672A14BF00230123472A08BF43F001039B
S315200035F023B1B8F1000F08BF4FF0010833463A4611
S31520003600CDE93A234AF4807A3B9B002BC0F20A820A
S31520003610002315931499662914BF002301234629F4
S3152000362008BF43F001031293002B00F08A81032385
S31520003630CDF82C800B990E970F9600930998DDE90B
S315200036400E23019142A9029141A9039140A9049117
S3152000365002F00AF8149AB2F1670318BF0123472A29
S315200036600CBF002303F0010311902BB91AF0010FB0
S3152000367008BFDDF800C11AD0119B0B98129903EBF5
S31520003680000C29B11B78302B00F0D080429B9C4443
S315200036903846002200233146CDF820C005F04EFFE3
S315200036A0DDF820C0002800F07381CDF800C1149801
S315200036B01199672814BF00230123472808BF43F028
S315200036C00103C1EB0C011891002B00F04A81429AAC
S315200036D012F1030F0E9202DB904580F24B81149B70
S315200036E0023B14930E9A1498531E4293002B8DF886
S315200036F0F800C0F2D1812B228DF8F920092B00F396
S3152000370062813FA930338DF8FB3030238DF8FA30B3
S315200037103EAB189ACB1A18991A935918012A0E916A
S3152000372040F3CC810E9801300E9020EAE0710B9187
S31520003730159B002B00F0FD802D2300208DF80F31E6
S315200037401590FFF750B90C9B5B420C93FFF7CEBA4E
S315200037500E9A00209DF80F3122EAE27215900B9204
S31520003760FFF740B90A98011D0A910668321E18BF54
S31520003770012236464FF00007FFF7F6B81AF0400F41
S3152000378017BF0A9A0A990D9802F1040A11BF136805
S3152000379001F1040A0B680D9A14BF18801A60FEF70F
S315200037A095BF0998594637AAFEF7D8FE00287FF418
S315200037B0B1A84B460BE40998402103F017FC306072
S315200037C03061002800F08D8140237361FEF767BFCA
S315200037D0109F0020032049F6407249F63C710B9059
S315200037E01498C2F20001C2F2000215934728D8BFEE
S315200037F00A462AF0800A032111929DF80F310E9174
S31520003800FFF7F0B80998594637AAFEF7A7FE002811
S315200038107FF480A84B4682E60998594637AAFEF7D8
S315200038209DFE00287FF476A84B468EE63846002279
S3152000383000233146CDF820C005F080FEDDF820C0FB
S3152000384000287FF423AF0B9AC2F1010342931EE7AF
S315200038500998594637AAFEF781FE00287FF45AA810
S315200038604B46189A11985A60389A3999186001323D
S31520003870189838920918072A39913FF766A908330C
S31520003880FFF716B800211591FEF738FE9DF80F3187
S3152000389020EAE0720E900B92FFF7A4B85C60389A8B
S315200038A01F60511C399A3891121907293992CFDC99
S315200038B00833D6E716991198081A0E90FFF789B89B
S315200038C0B8F1060F34BF4146062149F65872C2F2B6
S315200038D0000221EAE1730E9111920B93FFF763B96F
S315200038E00998594637AAFEF739FE00287FF412A810
S315200038F04B463BE40998594637AAFEF72FFE002887
S315200039007FF408A84B46AFE50998594637AAFEF733
S3152000391025FE00287EF4FEAF4C4694E5CDF838808F
S3152000392028EAE8781590CDF82C809DF80F31FFF71E
S3152000393059B80E989DF80F3120EAE0700B90FFF7EA
S3152000394051B8149A652A14BF00230123452A08BFBB
S3152000395043F00103002B32D008F101030B9302231D
S3152000396068E61498652862DD149A662A1CBF429B75
S315200039700E936FD0189A0E9B9A425BDC1AF0010FB9
S3152000398040F0818023EAE37067210B901491CFE603
S31520003990409B9C4598BF9C467FF689AE302203F813
S315200039A0012B9C454093FAD881E60998594637AAB7
S315200039B0FEF7D4FD00287EF4ADAF4B4677E5CDF873
S315200039C02C80023336E646F2676C0DF1F700C6F21C
S315200039D0666C8CFB0321DA17C2EBA10202EB820193
S315200039E0A3EB410113463031092A00F8011DF0DC12
S315200039F03033421ED9B200F8011C079B934298BF70
S31520003A000DF1FA017FF684AE02460DF1FB0301E0CB
S31520003A1012F8011B03F8011C19460798013390423E
S31520003A20F6D875E62D2006F100461590F2E5429966
S31520003A300E9157E60E9918980029DABF0E9AC2F110
S31520003A40020301231B18672123EAE3720E931491C4
S31520003A500B926DE6429800280E9038DDB8F1000FE3
S31520003A6007D11AF0010F04BF20EAE0710B913FF451
S31520003A705FAE0E9A66201490531C43440E9323EA9D
S31520003A80E3710B9154E60E9A6723149301320E923A
S31520003A9022EAE2700B904BE62D225B428DF8F9204C
S31520003AA02CE60A991A78D1F8008004310A91B8F1E7
S31520003AB0000FB8BF4FF0FF38FEF747BE1AF0010FD0
S31520003AC004BF21EAE1730B933FF432AE2AE6B8F144
S31520003AD0000F0ED11AF0010F0BD101220B920E927C
S31520003AE026E609980C234FF0FF310D910360FEF76F
S31520003AF01ABF08F10203662023EAE3710E9314909D
S31520003B000B9115E6936810B5144613B95360184601
S31520003B1010BD02F0C9FF00236360A36010BD00BF83
S31520003B202DE9F04FADF5AE6D83B00E4615469A469B
S31520003B30814603F0A9F900681D90B9F1000F04D061
S31520003B40D9F81830002B00F05A8149F69473C2F246
S31520003B5000039E4208BFD9F8046010D049F6B4731A
S31520003B60C2F200039E4208BFD9F8086007D049F682
S31520003B70D473C2F200039E4208BFD9F80C60B6F88F
S31520003B800CC01FFA8CF313F4005F09D14CF4005CCF
S31520003B90726EA6F80CC01FFA8CF322F400527266DD
S31520003BA013F0080F01F001833269002A01F0FD822B
S31520003BB003F01A030A2B00F0E080002212921A92D8
S31520003BC000231C920DF59C641192043419920DF574
S31520003BD0A4621B9304320DF59063283203331892A6
S31520003BE007930023CDF84C45CDF85035CDF8543504
S31520003BF02B781A1E18BF0122252B0CBF002202F09B
S31520003C00010232B32F4617F8013F1A1E18BF0122B0
S31520003C10252B0CBF002202F00102002AF3D1B7EBBC
S31520003C20050808BF3D4614D0C4F80480DDF8503599
S31520003C30DDF8542501332560072B4244CDF8503555
S31520003C40CDF8542578DC083411983D46404411902F
S31520003C503B78002B7CD06B1C4FF0FF372B204FF08E
S31520003C60200C00214FF000020F918DF87725CDF81A
S31520003C702CA06A780A915D1CA2F12003582B00F231
S31520003C808682DFE813F0980284028402A40284026A
S31520003C9084028402840284028402AD02BA0284026F
S31520003CA0C102CA028402E702F002F002F002F00228
S31520003CB0F002F002F002F002F00284028402840292
S31520003CC0840284028402840284028402840204031D
S31520003CD026038402260384028402840284026A0361
S31520003CE0840284028104840284028402840284027F
S31520003CF01404840284022F0484028402840284022F
S31520003D008402840284028402840284024F046504AD
S31520003D10260326032603730365048402840279039B
S31520003D20840285039603AD030A048402CC0384022D
S31520003D30F40384028402C0000DF5A8624846314689
S31520003D400C32FFF7DFFE58B90DF59C6404347BE78F
S31520003D50DDF85435002B41F092810023CDF8503503
S31520003D60B38913F0400F02D04FF0FF301190119815
S31520003D705FB00DF5806DBDE8F08FB6F90E30002BE3
S31520003D80FFF61BAF376A2CF0020CD6F828E00DF5AB
S31520003D908E64ADF888C40C34B6F80EC02A46534655
S31520003DA0484621461FADCDF89C740027CDF88C548B
S31520003DB0CDF87C544FF48065CDF8A4E4ADF88AC4E0
S31520003DC0CDF89054CDF89474CDF88454FFF7A8FE1E
S31520003DD00028119009DB2146484602F091FB1199F3
S31520003DE0B84218BF4FF0FF311191BDF8883413F057
S31520003DF0400FBCD0B38943F04003B381B7E74846B0
S31520003E0002F0EEFCA1E60A9849F6447CC2F2000CC8
S31520003E10169210F0200FCDF864C000F06E830B9937
S31520003E20CB1D23F0070303F108020B92D3E900AB65
S31520003E305AEA0B020A9B0CBF00220122134240F0D1
S31520003E406B8602234FF000018DF87715002FA2BF55
S31520003E50DDF828C02CF0800CCDF828C0002F18BF24
S31520003E6042F00102002A00F01E84012B00F0DE85BC
S31520003E70022B00F0C185189913914FEADA084FEA10
S31520003E80DB0C48EA4B780AF00700E346C24630309E
S31520003E905AEA0B0201F8010DEFD1DDF828C0139183
S31520003EA01CF0010F40F08C861898401A10909DF84F
S31520003EB07735109A1797BA42B8BF3A460C9213B183
S31520003EC00C9A01320C920A9B0A9813F0020315935E
S31520003ED01EBFDDF830C00CF1020CCDF830C010F05A
S31520003EE0840014904DD10F990C9A8F1A002F48DD1B
S31520003EF0102F49F66478D8BFC2F2000830DDC2F22E
S31520003F0000080DF5A86B43464FF0100AA8460BF1A2
S31520003F100C0B1D4602E0103F102F1EDDC4F804A036
S31520003F20DDF85035DDF85425013325601032072B96
S31520003F30CDF8542504F10804CDF85035EBDD0DF508
S31520003F409C64484631465A460434FFF7DBFD002878
S31520003F507FF406AF103F102FE0DC2B4645469846EF
S31520003F606760DDF85035C4F800805A1CDDF85435FA
S31520003F70CDF85025DB19072ACDF8543500F38A856C
S31520003F8008349DF877359BB101236360DDF8503501
S31520003F900DF5AE6207322260DDF854250133CDF8E7
S31520003FA050350132072BCDF8542500F3B68408345A
S31520003FB0159B9BB102236360DDF850350DF5AE628B
S31520003FC004322260DDF854250133CDF85035023213
S31520003FD0072BCDF8542500F3AF840834DDF850C004
S31520003FE0BCF1800F00F07683179B109A9F1A002F42
S31520003FF043DD102FDFF88C8B2EDD43460DF5A86BA5
S31520004000A8464FF0100A0BF10C0B1D4602E0103F9C
S31520004010102F1EDDC4F804A0DDF85035DDF8542538
S31520004020013325601032072BCDF8542504F10804FE
S31520004030CDF85035EBDD0DF59C64484631465A46A1
S315200040400434FFF75FFD00287FF48AAE103F102F5F
S31520004050E0DC2B46454698466760DDF85035DDF8AE
S3152000406054250133C4F80080D219072BCDF85425E6
S31520004070CDF8503500F342840834DDF828C01CF40E
S31520004080807F40F09D82109813996060DDF850354E
S31520004090DDF85425013321601218072BCDF8503551
S315200040A0D8BF04F10803CDF8542500F39B830A9961
S315200040B011F0040F55D00F9ADDF830C0CCEB020773
S315200040C0002F4EDD102F49F66478D8BFC2F20008C3
S315200040D02EDDC2F200080DF5A86A42461024A84635
S315200040E00AF10C0A154602E0103F102F1DDD5C6018
S315200040F0DDF85025DDF8541501321D601031072AF0
S31520004100CDF8541503F10803CDF85025ECDD4846CB
S3152000411031465246FFF7F6FC0DF59C630433002822
S315200041207FF41EAE103F102FE1DC2A46454690460E
S315200041305F60DDF85025C3F80080DDF85435013284
S31520004140CDF85025FB18072ACDF854350BDD0DF593
S31520004150A862484631460C32FFF7D4FC00287FF48B
S31520004160FFADDDF8543511980C9A0F998A42ACBFF1
S31520004170801840181190002B40F042830DF59C6466
S315200041800023DDF82CA00434CDF8503530E5169206
S31520004190002A3FF4DDAD0DF5A46001234FF0000C9D
S315200041A004300C938DF824258DF877C51390109341
S315200041B00021179187E69DF87735002B40F02B8557
S315200041C00B992B468DF877C52A780B9153E50B99D9
S315200041D00A9B43F001030A932B462A780B914AE562
S315200041E00B990B9A09680F91111D0F9B002BC0F29A
S315200041F080872A782B460B913DE50B992B468DF827
S3152000420077052A780B9136E50B990A9B43F0040330
S315200042100A932B462A780B912DE52B4613F8012B72
S315200042202A2A01F0CD80A2F13001092901F2378036
S315200042300235002715F8012C07EB87072B46013599
S3152000424001EB4707A2F130010929F3D947EAE777BD
S315200042501D4611E50B992B460A9A42F080020A92D6
S315200042602A780B9107E5A2F130014FF000082B4682
S3152000427008EB880813F8012B01EB4808A2F130015E
S315200042801D460929F3D9CDF83C801D46F4E40A9B46
S31520004290169243F010030A93DDF828C01CF0200F75
S315200042A000F05D810B98C31D23F0070303F108017D
S315200042B00B91D3E900ABBAF1000F7BF10002C0F2FB
S315200042C09B845AEA0B034FF001030CBF0022012204
S315200042D0BCE50A98169210F0080F00F0ED840B99B1
S315200042E0CB1D23F0070303F108020B92D3F80480B9
S315200042F0D3F800A0CDF86C80CDF848A050464146B2
S3152000430004F0D0F88346002800F099855046002214
S315200043100023414605F01CF9002840F00B859DF846
S31520004320773549F6387149F634721698C2F200018B
S31520004330C2F200024FF0030C4728D8BF1146139152
S315200043400A99CDF830C021F08001CDF840C00A91FD
S315200043504FF0000CCDF85CC0B1E50B990A9B43F0F9
S3152000436008030A932B462A780B9184E40A9941F094
S3152000437040010A910B993CE72A786C2A00F0558572
S315200043800B990A9B0B9143F010030A932B4672E478
S315200043900A9A12F0200F00F082840B98119A036873
S315200043A010464FEAE0710B9AC3E9000102F1040AB4
S315200043B01EE416920A9A12F0200300F0EF800B9B5F
S315200043C0DA1D002322F0070202F1080CCDF82CC0DA
S315200043D0D2E900AB5AEA0B000CBF0022012231E5DC
S315200043E00B987821DDF828C01691036849F64470A9
S315200043F08DF8751530218DF874154CF0020C0B993B
S315200044001A1E18BF0122C2F200009A464FF0000B76
S315200044100431CDF828C0199002230B9112E50B9B8D
S3152000442016924FF00002181D8DF877251B680B9009
S315200044301393002B00F0C686002F1398C0F28F86A8
S3152000444000213A4603F0A4F80346002800F0F5863A
S3152000445013981B1A1093BB4240F3BE851097002178
S3152000446027EAE7779DF877350C97179127E5DDF84A
S3152000447028C016921CF0200F23D00B980123C21DB2
S3152000448022F0070202F108010B91D2E900AB5AEAA9
S315200044900B020CBF00220122D4E40A992B4641F0DC
S315200044A020010A910B992A780B91FFF7E4BB0A9B0E
S315200044B0169243F010030A93DDF828C01CF0200F53
S315200044C0DBD10A9B13F0100F00F0D5830B98012344
S315200044D0021D0B9201680A1E18BF01228A464FF060
S315200044E0000BAFE40A98169249F6207210F0200FBE
S315200044F0C2F2000219927FF492AC0A9B13F0100FBD
S3152000450040F01A830A9A12F0400F00F015830B9B95
S3152000451003F1040CCDF82CC0B3F800A0D2464FF01E
S31520004520000B85E416920DF5A4610B9A4FF0010C51
S315200045304FF000000431CDF830C0136804328DF8F6
S3152000454077050B921391CDF840C08DF824352FE6D0
S31520004550DDF828C016921CF0200F7FF4A3AE0A9A2D
S3152000456012F0100F40F0F1820A9A12F0400F00F07C
S31520004570EC820B9B03F1040CCDF82CC0B3F900A000
S31520004580D2464FEAEA7B96E60A99169241F0100146
S315200045900A910A9A12F020037FF411AF0A9911F0BA
S315200045A0100200F054830B9A02F1040CCDF82CC0B3
S315200045B011680A1E18BF01228A464FF0000B41E4FB
S315200045C0169A652A40F328811298002200231B9907
S315200045D004F0B4FF002800F0BE8101236360DDF8FB
S315200045E0502549F66073C2F200032360DDF8543586
S315200045F00132CDF850250133072ACDF85435D8BFDE
S3152000460004F1080300F39B83DDF870251A98824293
S3152000461004DB0A9911F0010F3FF449AD01225A60DB
S31520004620DDF85025DDF8541501321D980131072A91
S31520004630CDF854151860CDF8502500F35F85083362
S315200046401A994F1E002F7FF732AD102FDFF83485D1
S3152000465040F3EA8242460DF5A86AA84610240AF1DC
S315200046600C0A154603E0103F102F40F3DA825C60F7
S31520004670DDF85025DDF8541501321D601031072A6A
S31520004680CDF8541503F10803CDF85025EBDD484647
S3152000469031465246FFF736FA0DF59C63043300285F
S315200046A0E1D0FFF75DBB7BB90A9911F0010F0BD062
S315200046B00DF5A462302304328DF84B3527320123C1
S315200046C013921093FFF7F3BB1898002110911390C3
S315200046D0FFF7EDBB0F980C99471A002F7FF784AC94
S315200046E0102FDFF8A0842EDD43460DF5A86BA846D3
S315200046F04FF0100A0BF10C0B1D4602E0103F102F55
S315200047001EDDC4F804A0DDF85035DDF8542501334C
S3152000471025601032072BCDF8542504F10804CDF876
S315200047205035EBDD0DF59C64484631465A46043437
S31520004730FFF7E8F900287FF413AB103F102FE0DCD9
S315200047402B46454698466760DDF85035C4F800800C
S315200047505A1CDDF85435CDF85025DB19072ACDF83B
S31520004760543500F33A8208343EE413996360DDF849
S3152000477050252160DDF854150132CDF85025CB188F
S31520004780072ACDF8543500F3498508341D9A0123AC
S31520004790DDF870756360DDF850352260DDF854254C
S315200047A00133CDF850350132072BCDF85425D8BF2B
S315200047B004F1080300F323851398DDF87025C71943
S315200047C01A981F60811A5960DDF854158A1ADDF887
S315200047D050151218CDF854250131CDF8501507295A
S315200047E040F332820DF5A862484631460C32FFF777
S315200047F089F900287FF4B4AA0DF59C63043356E4A6
S315200048000DF5A862484631460C32FFF77BF90028A1
S315200048103FF4B4ACFFF7A4BA1A9901294CDD012361
S315200048206360DDF85035DDF85425013313980132E5
S31520004830072BCDF854252060CDF8503500F3B281F2
S31520004840083401236360DDF85035DDF85425013343
S315200048501D990132072BCDF854252160CDF850350E
S3152000486000F3928108341298002200231B9904F049
S3152000487065FE002840F01D811A9B13985A1E62601F
S31520004880DDF85035411C2160DDF854150133CDF893
S3152000489050358A18072BCDF8542521DC08341C9B6B
S315200048A00DF5AC621C9822606360DDF85035DDF8AA
S315200048B054250133FFF7F0BB0A9A12F0010FAED14F
S315200048C0139A01236360DDF850352260DDF8542504
S315200048D00133CDF850350132072BCDF85425DDDDD7
S315200048E00DF5A862484631460C32FFF70BF9002831
S315200048F07FF436AA0DF59C640434D0E70DF5A86242
S31520004900484631460C32FFF7FDF800287FF428AAE6
S315200049100DF59C640434FFF7B0BB0DF5A86248463C
S3152000492031460C32FFF7EEF800287FF419AA0DF570
S315200049309C640434FFF73CBB0DF5A862484631461B
S315200049400C32FFF7DFF800287FF40AAA0DF59C64E5
S315200049500434FFF743BBDDF87035002B40F3FD81AF
S315200049601A998B42FFF601AF139A6160DDF8503534
S315200049702260DDF854250133CDF850355218072B27
S31520004980CDF85425D8BF04F1080300F32984DDF8B7
S3152000499070451A98241A002C40F3B381102CDFF8A6
S315200049A0E48140F39D8142460DF5A86AA84610276A
S315200049B00AF10C0A154603E0103C102C40F38D81B9
S315200049C05F60DDF85025DDF8541501321D60103189
S315200049D0072ACDF8541503F10803CDF85025EBDD51
S315200049E0484631465246FFF78DF80DF59C63043351
S315200049F00028E1D0FFF7B4B9189A199813461392F4
S31520004A000AF00F024FEA1A1141EA0B714FEA1B1CFA
S31520004A10825C8A46E3465AEA0B0C03F8012DEFD155
S31520004A2018981393C01A1090FFF741BA0922002351
S31520004A30524573EB0B00DDF860801FD223464446B7
S31520004A40B8461F46504659460A22002304F0D0FD98
S31520004A5000235046594602F1300C0A2204F801CDB3
S31520004A6004F0C6FD0922002382468B46524573EB8D
S31520004A700B03E7D33B464746A0461C4608F1FF30CA
S31520004A800AF1300A139008F801AC1899091A109106
S31520004A90FFF70DBA0DF5A862484631460C32FFF7EE
S31520004AA031F800287FF45CA90DF59C640434FFF7E7
S31520004AB068BA1A994F1E002F7FF7F1AE102FDFF834
S31520004AC0C4804EDD43460DF5A86BA8464FF0100A6C
S31520004AD00BF10C0B1D4602E0103F102F3EDDC4F8F3
S31520004AE004A0DDF85035DDF8542501332560103259
S31520004AF0072BCDF8542504F10804CDF85035EBDD0D
S31520004B000DF59C64484631465A460434FEF7FAFFB2
S31520004B100028E1D0FFF724B916983021DDF828C007
S31520004B20012202238DF874154CF0020C8DF87505C0
S31520004B30CDF828C0FFF786B90B98011D03680B91A5
S31520004B409A464FF0000BFFF773B90B98011D0368C7
S31520004B500B919A464FEAEA7BFFF7ADBB2B464546BB
S31520004B6098466760DDF85035DDF854250133C4F8E2
S31520004B700080D219072BCDF85425CDF850357FF774
S31520004B808DAEADE6749F00200DF5A86248463146ED
S31520004B900C32FEF7B7FF00287FF4E2A80DF59C64DF
S31520004BA0043460E60DF5A862484631460C32FEF71D
S31520004BB0A9FF00287FF4D4A80DF59C64043440E6B0
S31520004BC0302800F0EC821398302300F8013D189924
S31520004BD01390091A1091FFF76AB90DF5A862484695
S31520004BE031460C32FEF78EFF00287FF4B9A80DF56A
S31520004BF09C640434FFF7F8B9DAF1000A6BEB4B0B2F
S31520004C002D235AEA0B0C8DF877350CBF0022012292
S31520004C100123FFF71BB90B992B462A780B91FFF737
S31520004C202AB82A46454690465F60DDF85025DDF8CD
S31520004C3054150132C3F80080C919072ACDF8541536
S31520004C40CDF850253FF7CEAD0833FFF730BA0A9896
S31520004C5010F0400300F0ED810B9913460A1D0B92CC
S31520004C60B1F800A0BAF1000218BF0122D2464FF0D7
S31520004C70000BFFF7E7B80A9B13F0400F00F0CC813A
S31520004C800B980123011D0B91B0F800A0BAF1000288
S31520004C9018BF0122D2464FF0000BFFF7D3B80A9B6C
S31520004CA013F0100F00F0A4810B98119900F1040A5B
S31520004CB003681960FEF79CBF0B98C31D23F00703FA
S31520004CC003F108010B91D3F80480D3F800A0CDF8A6
S31520004CD06C80CDF848A0FFF711BB2A464546904682
S31520004CE05C60DDF85025DDF854150132C3F80080EC
S31520004CF00919072ACDF85415CDF8502500F3EA8274
S31520004D0008330A9911F0010F3FF4D1A901225A6004
S31520004D10DDF85025DDF8541501321D980131072A9A
S31520004D20CDF854151860CDF850253FF75BAD083304
S31520004D30FFF7BDB92D238DF87735FFF7F2BA0DF5BC
S31520004D40A862484631460C32FEF7DCFE00287FF486
S31520004D5007A80DF59C63043356E401236360DDF850
S31520004D60502549F66073C2F200032360DDF85435FE
S31520004D700132CDF850250133072ACDF85435D8BF56
S31520004D8004F1080300F38781DDF870253AB91A9AF1
S31520004D902AB9DDF828C01CF0010F3FF488A90122AA
S31520004DA05A60DDF85025DDF8541501321D98013181
S31520004DB0072ACDF854151860CDF8502500F37981CF
S31520004DC00833DDF870757F42002F40F3B381102F32
S31520004DD0DFF8508640F3D28142460DF5A86AA846F0
S31520004DE010240AF10C0A154603E0103F102F40F359
S31520004DF0C2815C60DDF85025DDF8541501321D6056
S31520004E001031072ACDF8541503F10803CDF85025A3
S31520004E10EBDD484631465246FEF774FE0DF59C639F
S31520004E2004330028E1D0FEF79BBF0B996B1C0A9A2E
S31520004E3042F020020A926A780B91FEF71CBF504678
S31520004E40414603F041FB002840F0FF80B7F1FF3FC9
S31520004E5000F051821698672814BF002301234728A3
S31520004E6008BF43F0010313B1002F08BF01270DF53A
S31520004E70AB60434652460A99C0E90023DDF85C350B
S31520004E8041F480710A91002BC0F2648200211791AF
S31520004E901698662814BF00230123462808BF43F02E
S31520004EA001031093002B00F0D181BC460323CDF8DB
S31520004EB030A00DF5AE61CDF83480484600930291BE
S31520004EC00DF5AC61DDE90C230C31CDF804C003915E
S31520004ED00DF5AD61CDF824C0049100F0C5FB169AFE
S31520004EE0DDF824C0B2F1670318BF0123472A0CBF9F
S31520004EF0002303F00103139033B90A9B13F0010F2B
S31520004F0008BFDDF868B516D01398109900EB0C0B86
S31520004F1031B10378302B00F0DA80DDF870359B4410
S31520004F20504600220023414604F008FB002800F0EA
S31520004F30C281CDF868B5169A1398672A14BF002344
S31520004F400123472A08BF43F00103C0EB0B001A9048
S31520004F50002B00F08A81DDF8701511F1030F1091F6
S31520004F6002DB8F4280F28C81169A023A16921099B1
S31520004F70169A4B1ECDF87035002B8DF86025C0F2A1
S31520004F8034822B228DF86125092B00F3B6810DF58D
S31520004F90AC62303304328DF8633530238DF86235B8
S31520004FA00DF5AC631A981A99D31A18181C9301296F
S31520004FB0109040F3108210980130109020EAE07192
S31520004FC00C911798002800F06E812D2300218DF872
S31520004FD077351791FEF774BF109A4FF0000C9DF8A5
S31520004FE0773522EAE272CDF85CC00C92FEF767BFF5
S31520004FF00A9A12F0400F17BF0B980B9A119900F1DD
S31520005000040A11BF036802F1040A1368119814BF39
S3152000501019801860FEF7ECBD0B9A131D0B931168CF
S3152000502001230A1E18BF01228A464FF0000BFEF705
S3152000503009BF0B98021D0B9201680A1E18BF012298
S315200050408A464FF0000BFEF7FDBE49F6407249F640
S315200050503C731699C2F20003C2F2000203204729CC
S31520005060D8BF1A4613920A9A0C9022F08002CDF8E5
S315200050705CB00A929DF877351090FEF720BF0DF5AB
S31520005080A862484631460C32FEF73CFD00287EF4E5
S3152000509067AEFEF762BE0DF5A862484631460C3271
S315200050A0FEF730FD00287EF45BAE0DF59C630433DD
S315200050B06AE60DF5A862484631460C32FEF722FD17
S315200050C000287EF44DAE0DF59C63043379E65046F8
S315200050D0002200234146CDF824C004F02FFADDF843
S315200050E024C000287FF419AFCCF10103CDF8703528
S315200050F015E70F9A52420F92FFF787B80DF5A8626F
S31520005100484631460C32FEF7FDFC00287EF428AED8
S315200051100DF59C630433FFF793BA0DF5A862484654
S3152000512031460C32FEF7EEFC00287EF419AE0DF562
S315200051309C6304331A9913985960DDF85025DDF8DD
S315200051405415186001321A98CDF850250918072AE7
S31520005150CDF854153FF746AB0833FEF7A8BF00211C
S315200051601791FDF7CBF99DF8773520EAE07210907C
S315200051700C92FEF7A4BE2A46454690465F60DDF8AF
S315200051805025DDF854150132C3F80080C919072AC5
S31520005190CDF85415CDF85025BFDC0833CAE7189A48
S315200051A01399511A1091FEF782BE4846314600F0F7
S315200051B049F900287EF4D8ADB6F80CC01FFA8CF356
S315200051C0FEF7F6BC062F28BF062749F65871C2F20D
S315200051D0000127EAE772109713910C92FEF7E8BFB9
S315200051E00DF5A862484631460C32FEF78BFC0028A6
S315200051F07EF4B6AD0DF59C630433FFF7C8BB0DF501
S31520005200A862484631460C32FEF77CFC00287EF424
S31520005210A7AD0DF59C630433FFF7CEBA0DF5A86252
S31520005220484631460C32FEF76DFC00287EF498ADD8
S315200052300DF59C640434FFF7A9BA109727EAE7779F
S3152000524017900C979DF87735FEF739BE1699652984
S3152000525014BF00230123452908BF43F00103002B77
S3152000526046D007F1010C022321E6169B652B76DD3D
S31520005270169A662A1CBFDDF87035109300F08380DD
S315200052801A9B109883426EDC0A9911F0010F40F0A8
S315200052908E8020EAE07267230C92169391E600270F
S315200052A01D46FEF7E9BC10999DF8773521EAE17194
S315200052B00C91FEF704BEDDF868359B4598BF9B46EA
S315200052C07FF639AE302203F8012B9B45CDF86835A1
S315200052D0F9D830E60DF5A862484631460C32FEF77D
S315200052E011FC00287EF43CAD0DF59C63043308E5E3
S315200052F0BC460233DBE50737B9E546F2676C0DF5A8
S3152000530090610331C6F2666C8CFB0320DA17C2EB80
S31520005310A00202EB8200A3EB400013463030092A9C
S3152000532001F8010DF0DC3033481EDAB201F8012C09
S31520005330079B83426AD90DF5AC63033301E011F86C
S31520005340012B03F8012C1A46DDF81CC001338C45CD
S31520005350F5D825E62D2208F10048179298E5DDF8C4
S315200053607005109003E6109B1A99002BDABF10984F
S31520005370C0F1020301235B186722109323EAE3732B
S3152000538016920C931DE6DDF870050028109031DD8D
S315200053901FB90A9911F0010F0ED0109866211691A7
S315200053A0431CDB19109323EAE3720C9209E610984A
S315200053B0672116910130109020EAE0720C9200E6E7
S315200053C00B991A780F6804310B91002FB8BF4FF054
S315200053D0FF37FEF750BC0A9A12F0010F04BF20EAED
S315200053E0E0730C933FF4EDADE5E52D225B428DF89D
S315200053F06125C9E577B90A9B13F0010F0AD14FF051
S31520005400010CCDF830C0CDF840C0DAE50DF5AC6220
S315200054100232C5E50237662127EAE7721097169110
S315200054200C92CEE5749F002010B44AF2AC14C2F25E
S3152000543000048C46134601466246206810BCFEF7DF
S315200054406FBB00BF70B54AF2AC15C2F20005064626
S315200054500C46286810B18369002B36D049F6947320
S31520005460C2F200039C4238D049F6B473C2F200035C
S315200054709C4241D049F6D473C2F200039C4204BF39
S315200054802B68DC68A289114693B213F0080F1846E0
S3152000549018BF226933D01AB313F0010107D063690C
S315200054A00021A1605B42A36142B1002070BD13F0D0
S315200054B0020F08BF6169A160002AF6D1A38913F003
S315200054C0800FF2D04FF0FF3070BD01F089F949F618
S315200054D09473C2F200039C42C6D12B685C68D1E764
S315200054E003F42071B1F5007FD6D03046214601F075
S315200054F0FFFCA3892269CFE72B689C68C2E713F0DB
S31520005500100FDFD013F0040F08BF226917D0616B8C
