:020000042000DA
:100000000000012099020020090300200B030020BA
:100010000D0300200F03002011030020000000004A
:10002000000000000000000000000000130300209A
:100030001503002000000000170300201903002012
:100040001B030020491D00201F0300202103002066
:10005000230300202503002027030020290300207C
:100060002B0300202D0300205111002081110020BE
:10007000330300203503002037030020390300201C
:100080003B0300203D0300203F03002041030020EC
:1000900043030020450300204703002049030020BC
:1000A0004B030020000000000000000000000000E2
:1000B0000000000000000000000000004D030020D0
:1000C0004F0300205103002053030020550300205C
:1000D00057030020590300205B0300205D0300202C
:1000E0005F030020610300206303002065030020FC
:1000F00067030020690300206B0300206D030020CC
:100100006F0300207103002073030020750300209B
:1001100077030020790300207B0300207D0300206B
:100120007F0300208103002083030020850300203B
:1001300087030020890300208B0300208D0300200B
:100140008F030020910300209303002095030020DB
:1001500097030020990300209B0300209D030020AB
:100160009F030020A1030020A3030020A50300207B
:10017000A7030020A9030020AB030020AD0300204B
:10018000AF030020B1030020B3030020B50300201B
:10019000B7030020B9030020BB030020BD030020EB
:1001A000BF030020C1030020C3030020C5030020BB
:1001B000C7030020C9030020CB030020CD0300208B
:1001C000CF030020D1030020D3030020D50300205B
:1001D000D7030020D9030020DB030020DD0300202B
:1001E000DF030020E1030020E3030020E5030020FB
:1001F000E7030020E9030020EB030020ED030020CB
:10020000EF030020F1030020F3030020F50300209A
:10021000F7030020F9030020FB030020FD0300206A
:10022000FF03002001040020030400200504002037
:1002300007040020090400200B0400200D04002006
:100240000F040020110400201304002015040020D6
:1002500017040020190400201B0400201D040020A6
:100260001F04002021040020230400202504002076
:1002700027040020290400202B0400202D04002046
:100280002F04002031040020330400203504002016
:100290003704002039040020684880476848002857
:1002A0000BD168486849694A884206D091421CBF10
:1002B00050F8043B41F8043BF8D165486549664A6B
:1002C000884206D091421CBF50F8043B41F8043BE1
:1002D000F8D162486249634A914218BF41F8040B61
:1002E000FAD1000000000000000000000000000043
:1002F000DFF874010FF2030E00474FF000004FF0DB
:100300000001DFF868F1FEE7FEE7FEE7FEE7FEE743
:10031000FEE7FEE7FEE7FEE7FEE7FEE7FEE7FEE7B5
:10032000FEE7FEE7FEE7FEE7FEE7FEE7FEE7FEE7A5
:10033000FEE7FEE7FEE7FEE7FEE7FEE7FEE7FEE795
:10034000FEE7FEE7FEE7FEE7FEE7FEE7FEE7FEE785
:10035000FEE7FEE7FEE7FEE7FEE7FEE7FEE7FEE775
:10036000FEE7FEE7FEE7FEE7FEE7FEE7FEE7FEE765
:10037000FEE7FEE7FEE7FEE7FEE7FEE7FEE7FEE755
:10038000FEE7FEE7FEE7FEE7FEE7FEE7FEE7FEE745
:10039000FEE7FEE7FEE7FEE7FEE7FEE7FEE7FEE735
:1003A000FEE7FEE7FEE7FEE7FEE7FEE7FEE7FEE725
:1003B000FEE7FEE7FEE7FEE7FEE7FEE7FEE7FEE715
:1003C000FEE7FEE7FEE7FEE7FEE7FEE7FEE7FEE705
:1003D000FEE7FEE7FEE7FEE7FEE7FEE7FEE7FEE7F5
:1003E000FEE7FEE7FEE7FEE7FEE7FEE7FEE7FEE7E5
:1003F000FEE7FEE7FEE7FEE7FEE7FEE7FEE7FEE7D5
:10040000FEE7FEE7FEE7FEE7FEE7FEE7FEE7FEE7C4
:10041000FEE7FEE7FEE7FEE7FEE7FEE7FEE7FEE7B4
:10042000FEE7FEE7FEE7FEE7FEE7FEE7FEE7FEE7A4
:10043000FEE7FEE7FEE7FEE7FEE70000511E0020B4
:100440000000000000000020000000205086002076
:100450005086002050860020888B0020000000007D
:10046000888B0020388C0020E1200020450A0020E5
:1004700048F68833C2F200031A780AB901201870CE
:10048000704700BF48F25060C2F2000008B5036830
:100490002BB140F20003C0F2000303B1984708BD3E
:1004A00082B00190019B33B1019B03F1FF330193B3
:1004B000019B002BF8D102B0704700BF2DE9F04F2F
:1004C000AFB081460DF19C0C48F2802EC2F2000EB6
:1004D000BEE80F00ACE80F0063469EE8070003C3C8
:1004E0001A804FF00004254627AE4FF013074FF057
:1004F00001084FF0020A2846294601F0A5F8335DAD
:10050000312B0AD15046FFF7CBFF2846414601F078
:100510009BF83846FFF7C4FF09E03846FFF7C0FFF5
:100520002846414601F090F85046FFF7B9FF04F124
:100530000104192CDFD14FF000004FF0020101F04F
:1005400083F84FF000044FF0010643F20005C4F2B7
:1005500001053046FFF7A4FFD5F8847004F10104CB
:10056000222CF6D14FF01E00FFF79AFF43F2000451
:10057000C4F20104D4F8840025904FF01E00FFF768
:100580008FFFD4F8841024914FF02000FFF788FFEC
:10059000D4F8842023924FF02100FFF781FFD4F894
:1005A000843022934FF02100FFF77AFFD4F8843093
:1005B0004FF02100FFF774FFD4F8840021904FF032
:1005C0002100FFF76DFFD4F8841020914FF0210037
:1005D000FFF766FFD4F884B04FF01F00FFF760FF0D
:1005E000D4F884A04FF01F00FFF75AFFD4F884809E
:1005F0004FF02000FFF754FFD4F884604FF0200044
:10060000FFF74EFFD4F884504FF02000FFF748FF6B
:10061000D4F884201F924FF02000FFF741FFD4F858
:1006200084301E934FF02000FFF73AFFD4F8840087
:100630001D904FF02000FFF733FFD4F884101C9179
:100640004FF02000FFF72CFFD4F884201B924FF0CE
:100650002000FFF725FFD4F884301A934FF02000D4
:10066000FFF71EFFD4F8840019904FF02000FFF729
:1006700017FFD4F8841018914FF01E00FFF710FFF9
:10068000D4F8842017924FF01E00FFF709FFD4F82A
:10069000843016934FF01E00FFF702FFD4F8840059
:1006A00015904FF01E00FFF7FBFED4F88410149154
:1006B0004FF01E00FFF7F4FED4F8842013924FF0A1
:1006C0001F00FFF7EDFED4F8843012934FF01F00A7
:1006D000FFF7E6FED4F8840011904FF01E00FFF7FC
:1006E000DFFED4F8841010914FF01E00FFF7D8FE03
:1006F000D4F884200F924FF01E00FFF7D1FED4F8FB
:1007000084300E934FF02000FFF7CAFED4F8840027
:100710000D904FF01F00FFF7C3FED4F884100C912A
:100720004FF02200FFF7BCFED4F884200B924FF06C
:100730001F00FFF7B5FED4F884300A934FF0200075
:10074000FFF7AEFED4F8840009904FF01E00FFF7CB
:10075000A7FED4F8841008914FF02000FFF7A0FE08
:10076000D4F8842007924FF02000FFF799FED4F8C8
:10077000843006934FF02000FFF792FED4F88400F7
:1007800005904FF01F00FFF78BFED4F88410049102
:100790004FF02200FFF784FED4F8842003924FF03C
:1007A0001F00FFF77DFED4F8843002934FF0200045
:1007B000FFF776FED4F8840001904FF01E00FFF79B
:1007C0006FFED4F884304FF00002C9F80420C9F855
:1007D0003050C9F82C60C9F82880C9F824A0C9F89D
:1007E00020B02099C9F81C10219AC9F81820229825
:1007F000C9F814002399C9F81010249AC9F80C20DC
:100800002598C9F80800C9F800704FF00002C9F82F
:100810004820C9F8442007994FEAC11202F0FF02AC
:10082000069800F0010142EA811203F0010342EA56
:100830000303059901F0010243EA4213049800F012
:10084000010243EA0213039901F0010243EAC203E1
:10085000029800F0010243EA8203019901F00102CB
:1008600043EA4203C9F840300F9A4FEAC21303F03B
:10087000FF030E9800F0010243EA8213089901F089
:10088000010243EA02030D9800F0010243EA421319
:100890000C9901F0010243EA02130B9800F00102E7
:1008A00043EAC2030A9901F0010243EA820309986C
:1008B00000F0010243EA4203C9F83C3017994FEABD
:1008C000C11303F0FF03169800F0010243EA8213FC
:1008D000109901F0010243EA0203159800F00102A9
:1008E00043EA4213149901F0010243EA02131398F8
:1008F00000F0010243EAC203129901F0010243EA47
:100900008203119800F0010243EA4203C9F838302B
:100910001F994FEAC11303F0FF031E9800F0010274
:1009200043EA8212189901F0010342EA03031D9879
:1009300000F0010243EA42131C9901F0010243EA6C
:1009400002131B9800F0010243EAC2031A9901F056
:10095000010243EA8203199800F0010243EA4203CC
:10096000C9F8343048462FB0BDE8F08F70B594B068
:1009700004460E466D4668464FF00101FFF79EFDA6
:10098000204669464FF04C0201F0D2FB4FF00003C5
:100990006360336823B9236813B14FF001036360C8
:1009A000304621464FF04C0201F0C2FB63682BB188
:1009B00048F29C20C2F2000001F0BEFC14B070BDF1
:1009C0002DE9F04184B001AB48F2AC22C2F2000242
:1009D00007CA03C31A804FF00004254601AF4FF049
:1009E00013084FF001062846294600F02DFE3B5D16
:1009F000312B0AD13046FFF753FD2846314600F02F
:100A000023FE4046FFF74CFD09E04046FFF748FD56
:100A10002846314600F018FE3046FFF741FD04F14C
:100A20000104092CDFD14FF000004FF0020100F06B
:100A30000BFE48F2A060C0F20100FFF731FD04B0E8
:100A4000BDE8F0812DE9F04FBFB000F0B1FD48F6F0
:100A5000E030C2F200004FF4E1314FF0030200F049
:100A6000FFFC48F6D830C2F2000040F20001C4F2A8
:100A700005014FF0A2024FF0010301F07FF84FF0A3
:100A80000004189420464FF0030100F0C1FD2046F9
:100A90004FF0020100F0D8FDFFF792FF2BAD18AE2A
:100AA00004AF48F2B828C2F2000848F6E03AC2F2B1
:100AB000000A48F6D839C2F2000944F24024C0F2D4
:100AC0000F0428463146FFF751FFDDF8BCC02B98D4
:100AD000389A399BDDF8E8B0DDF8ECE02C99B1B13B
:100AE000CDF800B0CDF804E0CDF808C0039038464A
:100AF000414601F029FC00F101025046394600F060
:100B000073F8484639464FF0500200F0C5FF2046C2
:100B1000FFF7C6FCD5E700BF00BE704700BE7047B8
:100B200000BE704700BE704700BE704700BE7047F1
:100B3000EFF3108072B6704780F3108870470000A2
:100B400084B0029103788DF80F30029B0193019BD2
:100B500003F101030193F4E70160704700687047F7
:100B60000EB503FA01F303EA020301686FEA020219
:100B700001EA020141EA030101600EBD006800EADA
:100B8000020020FA01F0704701807047008870472A
:100B90000EB503FA01F303EA020301886FEA0202C9
:100BA00001EA020141EA030101800EBD008800EA6A
:100BB000020020FA01F0704701707047007870471A
:100BC0000EB503FA01F303EA020301786FEA0202A9
:100BD00001EA020141EA030101700EBD007800EA5A
:100BE000020020FA01F070472DE9F00548F60843AD
:100BF000C2F20003984206D048F6E033C2F2000386
:100C0000984200D000BE01B900BE02B900BE48F64D
:100C10000843C2F20003984205D048F6E033C2F21E
:100C20000003984233D1131E18BF012300290CBFC3
:100C3000002303F00103002B29D04FF00007B84632
:100C40004FF0100A03681B7D90F80AC043EA0C0CB1
:100C500080F80AC013F0200F17D00F2A04D9564687
:100C6000BC4643460F4404E00AB943460BE016462F
:100C7000F6E70468FD5C25700CF1010C03F101033B
:100C80009E42F6D86746C3EB0202002ADAD1BDE8DD
:100C9000F0057047F0B448F60843C2F200039842EA
:100CA00006D048F6E033C2F20003984200D000BEFE
:100CB00001B900BE48F60843C2F20003984205D0CD
:100CC00048F6E033C2F20003984228D139B30D78D8
:100CD0002DB34FF0000C66460468237D827A43EA08
:100CE0000202827213F0200FF7D0C5B1334601EB38
:100CF0000C070268EDB2157003F1010303EB0C045D
:100D0000FD5C0F2B8CBF00220122002D0CBF0022A6
:100D100002F00102002AECD10DB1A446DCE7F0BCE0
:100D2000704700BF10B448F60843C2F2000398426F
:100D300006D048F6E033C2F20003984200D000BE6D
:100D400001B900BE0AB900BE36E0002934D048F629
:100D50000843C2F20003984205D048F6E033C2F2DD
:100D60000003984228D1C16002614FF00003436143
:100D7000038919B24FEA511103F01F034FF001022A
:100D800002FA03F44EF20013CEF2000301F1600107
:100D900043F8214040F6CD71C2F200010162416882
:100DA000C1F88420018908B24FEA501001F01F01F8
:100DB00002FA01F243F8202010BC704748F60843BD
:100DC000C2F20003984209D048F6E033C2F20003B1
:100DD000984203D000BE4FF00000704703681B7DAF
:100DE000827A43EA02028272026912B14FF0000075
:100DF0007047C3F38010704710B4034648F60840AC
:100E0000C2F20000834206D048F6E030C2F2000091
:100E1000834200D000BE01B900BE02B900BE48F650
:100E20000840C2F20000834205D048F6E030C2F22A
:100E3000000083422AD1101E18BF012000290CBFD8
:100E4000002400F001040CB31C6894F814C09C7AD0
:100E50004CEA04049C721CEA000F17D04FF000000B
:100E60001C6894F800C001F800C000F101001C6883
:100E700094F814C09C7A4CEA04049C72824294BF99
:100E800000240CF00104002CEAD101E04FF0000036
:100E900010BC704710B448F60843C2F200039842F1
:100EA00007D048F6E033C2F20003984201D000BEFA
:100EB00022E003890FFA83FC4FEA5C1C03F01F0356
:100EC0004FF0010202FA03F44EF20013CEF20003D7
:100ED0000CF1600C43F82C40046894F804C041EA1B
:100EE0000C012171018908B24FEA501001F01F0175
:100EF00002FA01F243F8202010BC704748F608437C
:100F0000C2F20003984207D048F6E033C2F2000371
:100F1000984201D000BE704703681A7922EA0102A4
:100F20001A71038918B24FEA501003F01F034FF0F3
:100F3000010202FA03F24EF20013CEF2000300F1B6
:100F4000600C43F82C200F2901BF4EF20013CEF2A3
:100F50000003203043F82020704700BF08B548F652
:100F60000843C2F20003984207D048F6E033C2F2C9
:100F70000003984201D000BE08BD03681B7A03F04D
:100F80000F030C2B20D8DFE803F0071F0D1F131FE2
:100F9000191F1F1F1F1F1300436A0BB900BE08BD96
:100FA000984708BD036A0BB900BE08BD984708BD45
:100FB000C3690BB900BE08BD984708BD83690BB96A
:100FC00000BE08BD984708BD00BE08BD10B448F675
:100FD0000843C2F20003984206D048F6E033C2F25A
:100FE0000003984200D000BEC26802B900BE016989
:100FF00001B900BE48F60843C2F20003984205D08A
:1010000048F6E033C2F20003984230D1002A2ED0D5
:1010100000292CD003681B7D827A43EA0202827287
:1010200013F0200F1AD002694369C3EB02030F2BA0
:1010300004D94FF0100C4FF0000302E073B19C464E
:10104000F9E70268C4684169615C1170426902F1A4
:101050000102426103F101036345F2D3426903696E
:101060009A4201BF002303614268C2F8843010BC79
:10107000704700BF10B448F60843C2F2000398421C
:1010800006D048F6E033C2F20003984200D000BE1A
:1010900001B900BEC02A00D900BE48F60843C2F21A
:1010A0000003984205D048F6E033C2F200039842AC
:1010B0002FD1C02A8CBF0023012300290CBF00239D
:1010C00003F001032BB3C161036802F0C00242F0D8
:1010D0000A021A72038919B24FEA511103F01F0371
:1010E0004FF0010202FA03F44EF20013CEF20003B5
:1010F00001F1600143F821404168C1F88020018975
:1011000008B24FEA501001F01F0102FA01F243F851
:10111000202010BC704700BF48F60843C2F200030D
:10112000984207D048F6E033C2F20003984201D05B
:1011300000BE704729B943684FF00002C3F810227F
:10114000704743684FF00102C3F81022704700BF98
:10115000684620F007018D4601B548F60840C2F206
:101160000000FFF7FBFE4EF20013CEF200034FF437
:101170008062C3F88021BDE801408546704700BF0A
:10118000684620F007018D4601B548F6E030C2F20E
:101190000000FFF7E3FE4EF20013CEF200034FF41F
:1011A0000062C3F88021BDE801408546704700BF5A
:1011B00010B448F60843C2F20003984206D048F63D
:1011C000E033C2F20003984200D000BE01B900BE75
:1011D00048F60843C2F20003984205D048F6E033CF
:1011E000C2F20003984220D1F9B18161038919B29A
:1011F0004FEA511103F01F034FF0010202FA03F40A
:101200004EF20013CEF2000301F1600143F82140D9
:101210004168C1F88820018908B24FEA501001F0F6
:101220001F0102FA01F243F8202010BC704700BFF2
:1012300010B448F60843C2F20003984206D048F6BC
:10124000E033C2F20003984200D000BE01B900BEF4
:1012500048F60843C2F20003984205D048F6E0334E
:10126000C2F20003984224D119B301624FF0000387
:10127000C3600361038919B24FEA511103F01F03E0
:101280004FF0010202FA03F44EF20013CEF2000313
:1012900001F1600143F821404168C1F884200189CF
:1012A00008B24FEA501001F01F0102FA01F243F8B0
:1012B000202010BC704700BF10B448F60843C2F2AB
:1012C0000003984206D048F6E033C2F20003984289
:1012D00000D000BE01B900BE48F60843C2F20003C8
:1012E000984205D048F6E033C2F20003984220D17C
:1012F000F9B14162038919B24FEA511103F01F039A
:101300004FF0010202FA03F44EF20013CEF2000392
:1013100001F1600143F821404168C1F88C20018946
:1013200008B24FEA501001F01F0102FA01F243F82F
:10133000202010BC704700BF10B4034648F6084098
:10134000C2F20000834206D048F6E030C2F200004C
:10135000834200D000BE01B900BE02B900BE48F60B
:101360000840C2F20000834205D048F6E030C2F2E5
:101370000000834226D1101E18BF012000290CBF97
:10138000002400F00104ECB11C6894F814C09C7AAD
:101390004CEA04049C721CF0200F13D00F2A04D9CD
:1013A0004FF010044FF0000002E058B11446F9E786
:1013B0001A6811F800C082F800C000F10100A042D4
:1013C000F6D301E04FF0000010BC7047024648F62B
:1013D0000843C2F20003984209D048F6E033C2F253
:1013E0000003984203D000BE4FF0FF00704713681F
:1013F000187D937A40EA030000F09E004FF000034E
:101400009372704748F60843C2F20003984209D02D
:1014100048F6E033C2F20003984203D000BE4FF01A
:10142000FF0070470368187E704700BF48F6084306
:10143000C2F20003984209D048F6E033C2F200033A
:10144000984203D000BE4FF00000704703681B7D38
:10145000827A43EA0202827203F06000704700BFA2
:1014600070B504460D46164648F60843C2F200031E
:10147000984206D048F6E033C2F20003984200D00A
:1014800000BE05B900BE00F0E5FC48F60843C2F214
:1014900000039C4226D148F60843C2F200034FF0F5
:1014A00080421A604FF084425A604FF00A021A815B
:1014B00048F25C63C2F20003186842F20003CEF205
:1014C00004031A6B42F080021A634EF20012CEF24D
:1014D00000024FF48061C2F880111A6B22F0800282
:1014E0001A6325E040F20003C4F20103236040F2D6
:1014F0000003C4F2202363604FF00B03238148F202
:101500006063C2F20003186842F20003CEF20403E3
:101510001A6B42F480721A634EF20012CEF200028D
:101520004FF40061C2F880111A6B22F480721A63C2
:1015300023684FF000021A7115B94FF001050FE052
:10154000B0FBF5F515F0080F4FEA151518BF01357A
:10155000B5F5803F38BFADB202D300BE4FF00105F4
:1015600063684FF00102C3F89C2123684FEA1522FB
:101570001A712368EDB21D7062684FF00003C2F863
:101580009C312268167322684FF00E011172626856
:10159000C2F810322361E3606361E36140F6CD720B
:1015A000C2F200022262A3616362A37270BD00BF37
:1015B00010B442F20003CEF204031A6B42F48042EC
:1015C0001A634FF0000348F2CC20C2F200004FF043
:1015D000010C4EF20014CEF20004C25A11B24FEACE
:1015E000511102F01F020CFA02F201F1600144F8FD
:1015F000212003F10203402BEFD142F20003CEF28F
:1016000004031A6B22F480421A6310BC704700BFB7
:101610001F2801D900BE704748F2CC23C2F2000354
:1016200003EB8000036C1960704700BF1F2801D9CD
:1016300000BE704740F20003C4F2262300F5886024
:1016400043F82010704700BF1F2801D900BE704723
:10165000012903D0E1B1022940D133E043F2000374
:10166000C4F20103D3F888104FF0010202FA00F22D
:1016700042EA0102C3F8882048F2CC23C2F20003F8
:1016800003EB8000036C1A6842F004021A60704792
:1016900043F20003C4F20103D3F888104FF00102B3
:1016A00002FA00F221EA0202C3F8882048F2CC23B1
:1016B000C2F2000303EB8000036C1A6842F00402DC
:1016C0001A60704748F2CC23C2F2000303EB80009B
:1016D000036C1A6822F004021A60704700BE70475B
:1016E0001F2801D900BE704748F2CC23C2F2000384
:1016F00003EB8002126C116841F00801116033F8AD
:1017000010301AB24FEA521203F01F034FF00101DA
:1017100001FA03F14EF20013CEF2000343F8221057
:10172000704700BF1F2801D900BE704748F2CC2384
:10173000C2F2000303EB8000036C1A6822F0080277
:101740001A6070471F2801D900BE70474FF0010290
:1017500002FA00F143F20003C4F20103C3F880105F
:1017600048F2CC23C2F2000333F8103019B24FEA2A
:10177000511103F01F0302FA03F24EF20013CEF2EE
:10178000000301F1600143F82120704710B58AB0D1
:101790000346D8B948F28C3CC2F2000C6C46BCE857
:1017A0000F000FC4BCE80F000FC49CE8030044F80E
:1017B000040B24F8021B4FEA1141217068464FF4D4
:1017C0008A71FFF7BDF94FF0FF0005E00079C0F323
:1017D00082004FF000021A710AB010BDF0B58BB054
:1017E0000E4617460446C0B948F28C3CC2F2000CC3
:1017F0006D46BCE80F000FC5BCE80F000FC59CE8A4
:10180000030045F8040B25F8021B4FEA114129702B
:1018100068464FF0CC01FFF793F9C6B948F28C3C0B
:10182000C2F2000C6D46BCE80F000FC5BCE80F000B
:101830000FC59CE8030045F8040B25F8021B4FEA8E
:101840001141297068464FF0CD01FFF779F9C7B90A
:1018500048F28C3CC2F2000C6D46BCE80F000FC58C
:10186000BCE80F000FC59CE8030045F8040B25F801
:10187000021B4FEA1141297068464FF0CE01FFF775
:101880005FF9331E18BF0123002C0CBF002303F0A7
:10189000010353B34FB3206800F11000FFF78EF936
:1018A000237940EA0303237100F00200C0B2E0B1E3
:1018B0004FF00005206800F10400FFF77FF9705534
:1018C00005F10105206800F11000FFF777F9237991
:1018D00040EA03032371C0F34000AF4294BF0020ED
:1018E00000F001000028E5D101E04FF00005284696
:1018F0000BB0F0BD70B58AB00E460446C0B948F2D0
:101900008C3CC2F2000C6D46BCE80F000FC5BCE871
:101910000F000FC59CE8030045F8040B25F8021BD7
:101920004FEA1141297068464FF0F301FFF708F9BB
:10193000CEB948F28C3CC2F2000C6C46BCE80F00F9
:101940000FC4BCE80F000FC49CE8030044F8040B6C
:1019500024F8021B4FEA1141217068464FF0F40150
:10196000FFF7EEF815E0A4B1337893B106F1010565
:10197000206800F11000FFF721F910F0010FF7D0F7
:1019800020683178FFF718F92E4615F8013B002B37
:10199000EED10AB070BD00BFF0B58BB00E46174651
:1019A0000546C0B948F28C3CC2F2000C6C46BCE85B
:1019B0000F000FC4BCE80F000FC49CE8030044F8FC
:1019C000040B24F8021B4FEA1141217068464FF0C6
:1019D000A201FFF7B5F8C6B948F28C3CC2F2000C80
:1019E0006C46BCE80F000FC4BCE80F000FC49CE8B5
:1019F000030044F8040B24F8021B4FEA1141217044
:101A000068464FF0A301FFF79BF8C7B948F28C3C3A
:101A1000C2F2000C6C46BCE80F000FC4BCE80F001B
:101A20000FC49CE8030044F8040B24F8021B4FEA9F
:101A30001141217068464FF0A401FFF781F8331E71
:101A400018BF0123002D0CBF002303F00103EBB1ED
:101A5000E7B1286800F11000FFF7B0F810F0010FAF
:101A600014D04FF000042868315DFFF7A5F804F1A9
:101A70000104286800F11000FFF7A0F8BC422CBF59
:101A8000002000F001000028EDD101E04FF000043B
:101A900020460BB0F0BD00BFF0B58BB00E46174628
:101AA0000446C0B948F28C3CC2F2000C6D46BCE85A
:101AB0000F000FC5BCE80F000FC59CE8030045F8F8
:101AC000040B25F8021B4FEA1141297068464FF0BC
:101AD0007D01FFF735F8C6B948F28C3CC2F2000C24
:101AE0006D46BCE80F000FC5BCE80F000FC59CE8B1
:101AF000030045F8040B25F8021B4FEA1141297039
:101B000068464FF07E01FFF71BF8C7B948F28C3CDE
:101B1000C2F2000C6D46BCE80F000FC5BCE80F0018
:101B20000FC59CE8030045F8040B25F8021B4FEA9B
:101B30001141297068464FF07F01FFF701F8331E0D
:101B400018BF0123002C0CBF002303F0010393B145
:101B50008FB14FF00005206800F11000FFF72EF85C
:101B600010F0010FF7D02068715DFFF725F805F13F
:101B70000105AF42EFD80BB0F0BD00BF2DE9F04139
:101B80008AB00F4616461D460446D8B948F28C3E28
:101B9000C2F2000EEC46BEE80F00ACE80F00BEE853
:101BA0000F00ACE80F009EE803004CF8040B2CF883
:101BB000021B4FEA11418CF8001068464FF03001CB
:101BC000FEF7BEFF072D1BD948F28C3EC2F2000E75
:101BD000EC46BEE80F00ACE80F00BEE80F00ACE832
:101BE0000F009EE803004CF8040B2CF8021B4FEA90
:101BF00011418CF8001068464FF03101FEF7A0FF4C
:101C0000B6F5005F1BD348F28C3EC2F2000EEC46E4
:101C1000BEE80F00ACE80F00BEE80F00ACE80F0014
:101C20009EE803004CF8040B2CF8021B4FEA11410C
:101C30008CF8001068464FF03201FEF781FF072D47
:101C40008CBF00230123002C0CBF002303F00103F1
:101C5000002B76D0B6F5005F73D207F10808404636
:101C6000F1B2FEF7A9FF06F47F4107F10C0045EA47
:101C70006111FEF7A1FF27604046FEF79FFF8046F7
:101C8000206800F10C00FEF799FF074600F0F8030A
:101C900048EA43181FFA88F8B04518D048F28C3C3F
:101CA000C2F2000C6E46BCE80F000FC6BCE80F0085
:101CB0000FC69CE8030046F8040B26F8021B4FEA07
:101CC0001141317068464FF05401FEF739FF07F0BB
:101CD0000707AF4218D048F28C3CC2F2000C6D46A8
:101CE000BCE80F000FC5BCE80F000FC59CE803005F
:101CF00045F8040B25F8021B4FEA1141297068468C
:101D00004FF05501FEF71CFF206800F11000FEF7B0
:101D100055FF00F00203DBB283B1206800F104003C
:101D2000FEF74CFF8DF82700206800F11000FEF749
:101D300045FF00F00200C0B20028EED14FF00003D2
:101D400023710AB0BDE8F081684620F007018D4696
:101D500001B442F20003CEF204031A6D42F4E02211
:101D60001A65DA6C22F47C1242F47012DA641A6D8D
:101D700022F0706242F080721A654FF064021946D8
:101D800010464B6B03F00303032B18BF0246F8D138
:101D9000013AF6D14EF60053CEF2000340F20402AF
:101DA000C0F2FA52DA6001BC85467047EFF3098051
:101DB0000046704780F30988704700BFEFF3088042
:101DC0000046704780F30888704700BFEFF3128029
:101DD000704700BF80F31188704700BFEFF3108099
:101DE000704700BF80F31088704700BFEFF3138087
:101DF000704700BF80F31388704700BFEFF3148073
:101E0000704700BF80F31488704700BF00BA704766
:101E100040BA7047C0BA704790FAA0F0704700BF50
:101E2000D0E84F0FC0B27047D0E85F0F80B2704764
:101E300050E8000F704700BFC1E8400F704700BF77
:101E4000C1E8500F704700BF41E80000704700BF75
:101E5000704700BF30B484B048F2B433C2F200031C
:101E6000EC460FCB8CE80F0042F20003CEF20403E5
:101E70009A6C02F00C0204A90A4452F8105C9A6CA5
:101E8000C2F3011201EB820252F8104C9A6CC2F3B9
:101E9000811201EB820252F8100CD96CDB6CC1F399
:101EA000042101F1010113F4005F18BF490040F261
:101EB0003023C6F208031A6822F0704241F2CF13B1
:101EC000C0F2A1539A4205D14EF62C73C6F201031B
:101ED0001A6828E040F61C03C6F208031A6844F2A8
:101EE0004133C4F654439A421ED140F64003C6F231
:101EF00008031A6822F07F4240F20033C0F2010367
:101F00009A4211D9B2F5003F05D241F22C63C6F2D4
:101F100008031A6807E0B2F5403F05D241F6AC630A
:101F2000C6F208031A6822B900BE47F64002C0F2A2
:101F30007D1248F25863C2F200031A60B2FBF5F555
:101F40005D60B2FBF4F49C60B2FBF0F0D860B2FBD1
:101F5000F1F119615A6104B030BC70474FF0FF30A5
:101F6000704700BFFEE700BF4FF400534B604FF0D7
:101F7000000070474FF00100704700BF4FF00100B4
:101F8000704700BF4FF00000704700BF4FF0FF30B8
:101F9000704700BF4FF00000704700BF4FF4005380
:101FA0004B604FF0000070474FF0FF30704700BFAC
:101FB00008B500F08FF84FF00A0303604FF0FF30D0
:101FC00008BD00BF08B500F085F84FF002030360BC
:101FD0004FF0FF3008BD00BF08B500F07BF84FF0B0
:101FE0001F0303604FF0FF3008BD00BF08B500F0CD
:101FF00071F84FF0160303604FF0FF3008BD00BFCB
:1020000008B500F067F84FF00B0303604FF0FF30A6
:1020100008BD00BF08B500F05DF84FF00C03036089
:102020004FF0FF3008BD00BF38B515461C4648F6D6
:102030008C33C2F200031B6883B948F60840C2F231
:1020400000004FF461414FF00302FFF709FA48F630
:102050008C33C2F200034FF001021A6048F60840C8
:10206000C2F2000029462246FEF7BEFD204638BDDA
:1020700008B548F68C33C2F200035B6843B948F6F2
:102080008C33C2F2000348F63842C2F200025A60B2
:1020900048F68C33C2F200035A68EFF30883104409
:1020A00083420FD24FF000004FF0010148F2C432DA
:1020B000C2F200024FF01903FFF7B6FF4FF0010024
:1020C000FFF750FF48F68C33C2F200035860104609
:1020D00008BD00BF48F27463C2F20003186870477D
:1020E00070B548F2406648F24065C2F20006C2F29E
:1020F0000005761BB61006D0002455F824300134B4
:102100009847A642F9D848F2406548F24466C2F2C0
:102110000005C2F20006761B06F086FAB61006D05D
:10212000002455F8243001349847A642F9D870BDF0
:10213000032A2DE9F0070BD83AB1002311F803C0A8
:1021400000F803C001339342F8D1BDE8F0077047AF
:1021500082180C46034603E014F8011C03F8011C26
:1021600003F003061946A44601330134002EF3D1CF
:102170001CF00304634608BFC1EB020C68D0654243
:10218000C4F1040A0CEB050733464FEACA0A5CF8AF
:1021900005604FEAC408551A08E057F8044F264670
:1021A00004FA0AF449EA0404CC5004335C18032D01
:1021B00026FA08F9A5F104050CEB0306EDDC002373
:1021C00002E0F15CE154013319199142F9D3BCE703
:1021D00053F8404C41F8404C53F83C4C41F83C4CCF
:1021E00053F8384C41F8384C53F8344C41F8344CDF
:1021F00053F8304C41F8304C53F82C4C41F82C4CEF
:1022000053F8284C41F8284C53F8244C41F8244CFE
:1022100053F8204C41F8204C53F81C4C41F81C4C0E
:1022200053F8184C41F8184C53F8144C41F8144C1E
:1022300053F8104C41F8104C53F80C4C41F80C4C2E
:1022400053F8084C41F8084C53F8044C41F8044C3E
:102250001C460D4640334031BCF13F0FACF1400C01
:10226000B6DC21462B46541B0FE051F8105C43F8B6
:10227000105C51F80C5C43F80C5C51F8085C43F8B6
:10228000085C51F8045C43F8045C0F2C0D469C4636
:1022900001F1100103F11003A4F11004E5DCCCEB13
:1022A0000201002303E0EC584CF8034004335E19AC
:1022B000032903EB0C04A1F10401F4DC7FE700BF68
:1022C00030B5044689B008460D4600F087F848F25C
:1022D000DC330195C2F2000303930290431C079381
:1022E0000123049301AB0593022306930CB1A36968
:1022F000EBB148F274632046C2F200031B689B688E
:102300009A8912F4005F01BF42F400529A81596E1B
:1023100021F40052A16808BF5A6605AA02F058FDD0
:10232000002814BF4FF0FF300A2009B030BD20460E
:1023300002F0EAFBDDE700BF48F274630146C2F237
:1023400000031868BCE700BF0EB448F2746330B5F0
:102350009CB01FACC2F20003054601A954F8042B3F
:102360004FF0FF3C18684FF40273ADF8103023466D
:10237000059501956FF00045ADF812C006950395DF
:102380001B9400F0E9F8019B00221A701CB0BDE814
:10239000304003B0704700BF0CB40B4610B59CB082
:1023A0001EAC01A905934FF4027C54F8042B019351
:1023B0004FF0FF33ADF8123023461B946FF000440A
:1023C000ADF810C00694039400F0C6F8019B0022FB
:1023D0001A701CB0BDE8104002B0704720F0030135
:1023E00010F00300C0F1000051F8043B00F1040CB0
:1023F0004FEACC0C6FF000021CBF22FA0CF2134320
:102400004FF0010C4CEA0C2C4CEA0C4CA3EB0C02E8
:1024100022EA030212EACC1204BF51F8043B043052
:10242000F4D013F0FF0F1FBF013013F47F4F0130C2
:1024300013F47F0F18BF0130704700BF2DE9F04F34
:1024400085B092460C46039090681768002800F00B
:1024500081804FF000090B684D46002D54D0A668CE
:10246000B542B0463EBF18462E46A8463CD3A0898A
:1024700010F4906F08BF184636D06269216902EBEC
:10248000420B5B1A03F1010C0BEBDB7BAC444FEA14
:102490006B0BE3455A463CBFE3465A4610F4806F47
:1024A00037D011460398019302F0C6FE019B002825
:1024B0003BD01A46216901930290FFF739FEA289A9
:1024C000019BDDF808C022F4906242F08002A281F4
:1024D0002E46A846C3EB0B020CEB0300A260C4F827
:1024E00010C02060C4F814B04246494603F0B0F969
:1024F000A2682368961BA660DAF80820434423608C
:10250000551BCAF80850FDB1D7F800907D68083710
:10251000A3E70398019303F011FF019B8446002871
:10252000D6D10398216902F073FB039A0C234FF074
:10253000FF3013600023A289CAF8043042F0400241
:10254000CAF80830A28102E02846CAF8045005B053
:10255000BDE8F08F5060FAE72DE9F04FC5B00E46A8
:102560009A461546099002F023FEB38913F0800FB6
:1025700000681B9003D03369002B01F08C800DF1B3
:102580007409B3464C460022109200231892179209
:102590001A920D922DAA199328320DF1F703169273
:1025A00007930023CDF8DC90389339932B78B3F15F
:1025B000250218BF0122002B0CBF002202F00102ED
:1025C00002B32E4616F8013F1A1E18BF0122252B12
:1025D0000CBF002202F00102002AF3D1771B08BFD2
:1025E00035460FD06760389B399A01332560D21980
:1025F000072B3992389379DC08340D983546C01989
:102600000D903378002B00F0378700214FF0000247
:10261000CDF828A06B1C0C914FF0FF388DF80F21DE
:102620008A466A782B204FF0200C5D1CA2F1200313
:10263000582B00F21982DFE813F029021702170263
:1026400035021702170217021702170217023C027F
:1026500048021702C802CF021702EF02F602F60282
:10266000F602F602F602F602F602F602F602170289
:102670001702170217021702170217021702170292
:1026800017024F0288021702880217021702170268
:102690001702C10217021702EE03170217021702F0
:1026A00017021702930317021702AD03170217024E
:1026B0001702170217021702170217021702170252
:1026C000C703D8038802880288020B03D8031702C5
:1026D00017020F031702190329033E038C03170285
:1026E00059031702840317021702EA000998594692
:1026F00037AAFFF7A3FE00287CD14C467DE7189946
:10270000012940F35284119A01236360389B2260AF
:10271000399A013338930132072B399200F39685A9
:10272000083401236360389B399A01331B980132C6
:10273000072B39922060389300F37D850834109878
:1027400000220023199905F0CDF9002840F00385F7
:102750001899119B4A1E6260591C389B2160399957
:10276000013338938A18072B399200F32F840834E9
:102770001A9A1A9862603EAA389B2260399A0133ED
:1027800038931218072B399200F34F8104F1080394
:102790001AF0040F00F056810C990B9A8E1A002E35
:1027A00040F35081102E48F2E837D8BFC2F200073C
:1027B00040F3DE831024C2F200070DF1DC08DDF8DF
:1027C00024A003E0103E102E40F3D2835C60389AC0
:1027D000399901321F601031072A399103F108033A
:1027E0003892EFDD504659464246FFF727FE4B46EA
:1027F0000028E7D05E46B3890D9813F0400F18BF4C
:102800004FF0FF300D900D9845B0BDE8F08F1AF0F5
:10281000200F48F22C40C2F200001492179000F0F2
:10282000C3820A99CB1D23F0070303F108020A9221
:10283000D3E9006756EA07010CBF002201221AEA19
:10284000020F40F0BC8402234FF000018DF80F11FD
:10285000B8F1000FA8BF2AF0800AB8F1000F18BF26
:1028600042F00102002A00F06081012B00F0348464
:10287000022B00F017841699CDF82C8011914FEAA5
:10288000D6084FEAD70C48EA477806F007006746B3
:102890004646303056EA070201F8010DEFD11AF032
:1028A000010FDDF82C80119140F0DB84169B5B1A40
:1028B0000E930E9BCDF854804345B8BF43460B930F
:1028C0009DF80F3113B10B9901310B911AF00202EF
:1028D000139202D00B9B02330B931AF084001290D8
:1028E00038D10C990B9A8E1A002E33DD102E48F237
:1028F000E837D8BFC2F2000720DD4FF01008C2F25F
:10290000000702E0103E102E18DDC4F80480389B4A
:10291000399A013327601032072B399204F10804E9
:102920003893EFDD0998594637AA4C46FFF786FDE4
:1029300000287FF45FAF103E102EE6DC6660389B07
:1029400027605A1C399B38929B19072A399300F348
:10295000F78308349DF80F3173B101236360389B0E
:1029600043AA03322260399A013338930132072B8C
:10297000399200F340830834139B6BB102236360E8
:10298000389B43AA2260399A013338930232072BCD
:10299000399200F33A8308341298802800F0B2820A
:1029A00015980E9BC61A002E2EDD102EA74FC8BFFD
:1029B0004FF0100803DC1BE0103E102E18DDC4F8A9
:1029C0000480389B399A013327601032072B3992E3
:1029D00004F108043893EFDD0998594637AA4C46AC
:1029E000FFF72CFD00287FF405AF103E102EE6DC2B
:1029F0006660389B27605A1C399B38929B19072ABE
:102A0000399300F3EE8208341AF4807F40F0198283
:102A10000E99119A6160389B2260399A013338937C
:102A20005218072B39927FF7B1AE0998594637AA49
:102A3000FFF704FD00287FF4DDAE1AF0040F4B46CB
:102A40007FF4AAAE399B0D980B9A0C998A42ACBFC1
:102A5000801840180D90002B40F09E820023DDF876
:102A600028A038934C46A1E51492002A00F0048572
:102A700001208DF8B4204FF000012DAA0B908DF8A5
:102A80000F1111920E90002115911FE79DF80F3143
:102A9000002B40F00C840A992B468DF80FC12A7840
:102AA0000A91C2E50A994AF0010A2A782B460A914E
:102AB000BBE50A9B0A9A1B68111D002B0C93C0F200
:102AC000B2852A782B460A91AFE50A992B468DF8F4
:102AD0000F012A780A91A8E54AF0100A14921AF018
:102AE000200F00F087810A98C31D23F0070303F12C
:102AF00008010A91D3E90067002E77F10000C0F2C7
:102B0000768356EA07014FF001030CBF0022012231
:102B1000B8F1000FA8BF2AF0800AB8F1000F18BF63
:102B200042F00102002A7FF4A0AE002B40F0E581C4
:102B30001AF0010F00F0E18130238DF8DB302DAB6E
:102B4000012027330E901193B3E61AF0080F149268
:102B500000F0BF830A98C31D23F0070303F10801A7
:102B60000A915E681F68199610973846314603F03F
:102B7000BFFD0346002800F093843846002200235E
:102B8000314604F0B9FF002840F015849DF80F315C
:102B9000032048F2204248F21C410B901498C2F2E4
:102BA0000001C2F200022AF0800A4728D8BF0A4674
:102BB0000321119200220E91159283E60A994AF0A0
:102BC000080A2A782B460A912FE50A992A784AF0B2
:102BD000040A2B460A9128E52B4613F8012B2A2AD2
:102BE00000F0CF86A2F13001092988BF4FF000081C
:102BF00010D802354FF0000815F8012C08EB8808B2
:102C00002B46013501EB4808A2F130010929F3D91F
:102C100048EAE8781D4609E50A994AF0800A2A78C8
:102C20002B460A9101E5A2F1300100262B4606EB66
:102C3000860613F8012B01EB4606A2F130011D4672
:102C40000929F3D90C961D46F0E400BFF883002053
:102C50004AF0400A0A9934E72A786C2A00F018846E
:102C60000A994AF0100A2B460A91DEE41AF0200F66
:102C700000F023830A990D9A0B6810464FEAE07121
:102C80000A9AC3E9000102F1040A8FE41AF0200352
:102C9000149200F0C7800A9BDA1D002322F007027D
:102CA00002F108000A90D2E9006756EA07010CBF5A
:102CB00000220122C8E50A9A48F22C400A9978239A
:102CC000C2F200001493166804318DF80D314AF0F9
:102CD000020A3023321E18BF01228DF80C3136460D
:102CE0004FF00007179002230A91ADE50A9B14925A
:102CF0004FF00002181D8DF80F211B680A901193E8
:102D0000002B00F04D85B8F1000F1198C0F22A8514
:102D10000021424602F062FD0346002800F06E8565
:102D200011981B1A0E93434540F38284CDF83880E6
:102D3000002128EAE8789DF80F31CDF82C80159114
:102D4000C0E51AF0200F149210D00A9BDA1D01235F
:102D5000A4E70A994AF0200A2A782B460A9164E4EB
:102D60004AF0100A14921AF0200FEED11AF0100F48
:102D700040F054821AF0400F00F050820A9801236C
:102D8000011D0A910688321E18BF012236464FF0F7
:102D9000000759E51AF0200F149248F20842C2F2D7
:102DA000000217927FF43DAD1AF0100F40F02D8213
:102DB0001AF0400F00F029820A990A1D0A920E8823
:102DC00036464FF0000735E5149201200A9A4FF07D
:102DD00000010B900E90136804328DF80F110A92C7
:102DE0002DAA8DF8B43011924DE61AF0200F1492EE
:102DF0007FF479AE1AF0100F40F0ED811AF0400F19
:102E000000F0E9810A98011D0A91B0F90060364688
:102E10004FEAE67770E64AF0100A14921AF020039F
:102E20007FF439AF1AF0100200F05F820A9A101D89
:102E30000A901668321E18BF012236464FF000076E
:102E400002E5149B652B7FF75AAC109800220023F3
:102E5000199904F047FE002800F0E1800123636027
:102E6000389A48F24843C2F200032360399B01328A
:102E700038920133072A3993D8BF04F1080300F3CD
:102E80009F82429A1898824203DB1AF0010F3FF4A6
:102E90007FAC1B9901225A60389A19603999013226
:102EA00038920131072A399100F3EB830833189ADD
:102EB000561E002E7FF76CAC102EA04F40F3E98118
:102EC00010240DF1DC0803E0103E102E40F3E181E8
:102ED0005C60389A399901321F601031072A3991A4
:102EE00003F108033892EFDD099859464246FFF78F
:102EF000A5FA4B460028E7D07CE4169900220E92F2
:102F00001191D6E40C990B9A8E1A002E7FF748ADDA
:102F1000102E8A4FC8BF4FF0100803DC1BE0103E94
:102F2000102E18DDC4F80480389B399A01332760CD
:102F30001032072B399204F108043893EFDD099819
:102F4000594637AA4C46FFF779FA00287FF452AC6D
:102F5000103E102EE6DC6660389B27605A1C399BB9
:102F600038929B19072A399300F38881083417E5B2
:102F70005E60389A1F60399B01323892F318072A35
:102F800039937FF760AD0998594637AAFFF756FA8B
:102F900000283FF457AD2DE40998594637AAFFF7AA
:102FA0004DFA00283FF45AAD24E41AF0010F7FF4E3
:102FB000AAAB01236360389B399A0133119901321E
:102FC000072B3992216038937FF7D1AB0998594686
:102FD00037AAFFF733FA00287FF40CAC4C46FFF712
:102FE000C7BB0998594637AAFFF728FA00287FF48B
:102FF00001AC4C4608E50998594637AAFFF71EFA76
:1030000000287FF4F7AB4C46B6E40998594637AA36
:10301000FFF714FA00287FF4EDAB4C46BCE4429B6A
:10302000002B40F3D98118998B42C0F26F81119A1D
:103030006160389B2260399A013338935218072B0C
:103040003992D8BF04F1080300F3BA83429C189860
:10305000241A002C40F39B81102C384F40F38B81B5
:10306000CDF838A01026AA460DF1DC08099D03E032
:10307000103C102C40F37C815E60389A3999013203
:103080001F601031072A399103F108033892EFDDF0
:10309000284659464246FFF7D1F94B460028E7D06B
:1030A000FFF7A8BB1698DDF85CC003461190310904
:1030B00006F00F0241EA077138091CF802200E469B
:1030C000074656EA070103F8012DF0D1169A11932D
:1030D000D21A0E92FFF7EDBB00230922B24273EB26
:1030E0000700169B3EBFCDF82C80A0461C461AD286
:1030F000304639460A22002304F04EFD3046394658
:10310000002302F1300C0A2204F801CD04F044FD42
:1031100006460F4609200021B042B941E8D32346B4
:103120004446DDF82C805A1E3036119203F8016CAB
:10313000169B9B1A0E93FFF7BCBB00BFF8830020C1
:103140000998594637AAFFF779F900287FF452AB5E
:103150004C46FFF7FFBB1898461E002E7FF708ABC2
:10316000102E9C4FC8BF4FF0100803DC1BE0103E30
:10317000102E18DDC4F80480389B399A013327607B
:103180001032072B399204F108043893EFDD0998C7
:10319000594637AA4C46FFF751F900287FF42AAB6D
:1031A000103E102EE6DC6660389B399A01332760AA
:1031B0009219072B399238937FF7D9AA06E714980A
:1031C00030214AF0020A012202238DF80C118DF8F9
:1031D0000D01FFF739BB0A9A131D16680A9336468C
:1031E0004FEAE677002E77F10000BFF68AAC764210
:1031F00067EB47072D2356EA07028DF80F310CBF06
:10320000002201220123FFF723BB0A9B181D1E6821
:103210000A9036464FF00007FFF70CBB0A9A131DC1
:1032200016680A930123321E18BF012236464FF05A
:103230000007FFF709BB0998594637AAFFF7FEF8C0
:1032400000287FF4D7AA4C46FFF779BA0998594667
:1032500037AAFFF7F3F800287FF4CCAA4C46FFF713
:1032600060BA302800F09682119A302302F8013DAE
:10327000169B11929B1A0E93FFF71BBB0998594698
:1032800037AAFFF7DBF800287FF4B4AA4C46FFF713
:1032900087BB5E60389A399901321F608919072A05
:1032A000399138923FF7C1AB0833FFF771BA0A99E9
:1032B0002B462A780A91FFF7B8B91AF0100F00F0E0
:1032C000CD810A980D9900F1040A03681960FFF78F
:1032D0006DB90A9AD31D23F0070303F108000A9081
:1032E0005E681F68199610973FE41AF0400300F0DB
:1032F000A9810A9913460A1D0A920E88321E18BF28
:10330000012236464FF00007FFF79EBA119A63601C
:1033100038992260399A01313891D31807293993A5
:1033200000F3628208340123429E6360389B399A1D
:1033300001331B980132072B3893D8BF04F10803DF
:103340002060399200F34682429A119918988E199A
:103350001E60811A596039998A1A3899121839925F
:103360000131389107293FF760AB0833FFF710BAF6
:103370005546DDF838A05C60389A399901321F60F3
:103380000919072A3991389200F37F8208331AF01D
:10339000010F3FF4FDA91B9901225A60389A196068
:1033A0003999013238920131072A39913FF73DAB03
:1033B0000833FFF7EDB92D238DF80F31FFF7E8BB88
:1033C0000998594637AAFFF739F800287FF412AA5E
:1033D0004B4656E5F883002001236360389A48F293
:1033E0004843C2F200032360399B01323892013313
:1033F000072A3993D8BF04F1080300F37381429A76
:103400002AB9189818B91AF0010F3FF4C1A91B99ED
:1034100001225A60389A1960399901323892013183
:10342000072A399100F368810833429C6442002CDA
:1034300040F38781102C9E4F40F3A08110260DF1A0
:10344000DC0803E0103C102C40F398815E60389A51
:10345000399901321F601031072A399103F10803AD
:103460003892EFDD099859464246FEF7E7FF4B4692
:103470000028E7D0FFF7BEB9399B5E46002B3FF42A
:10348000BAA90998594637AAFEF7D8FFFFF7B3B98A
:103490000A994AF0200A6A786B1C0A91FFF7C5B8AE
:1034A00038463146089303F035F9089B002840F070
:1034B0000181B8F1FF3F08BF08F107080ED0149A48
:1034C000672A14BF00230123472A08BF43F00103E2
:1034D00023B1B8F1000F08BF4FF0010833463A4658
:1034E000CDE93A234AF4807A3B9B002BC0F20A8252
:1034F000002315931499662914BF0023012346293C
:1035000008BF43F001031293002B00F08A810323CC
:10351000CDF82C800B990E970F9600930998DDE952
:103520000E23019142A9029141A9039140A904915E
:1035300000F0EAFA149AB2F1670318BF0123472A90
:103540000CBF002303F0010311902BB91AF0010FF7
:1035500008BFDDF800C11AD0119B0B98129903EB3C
:10356000000C29B11B78302B00F0D080429B9C448A
:103570003846002200233146CDF820C004F0B2FACC
:10358000DDF820C0002800F07381CDF800C1149848
:103590001199672814BF00230123472808BF43F06F
:1035A0000103C1EB0C011891002B00F04A81429AF3
:1035B00012F1030F0E9202DB904580F24B81149BB7
:1035C000023B14930E9A1498531E4293002B8DF8CD
:1035D000F800C0F2D1812B228DF8F920092B00F3DD
:1035E00062813FA930338DF8FB3030238DF8FA30FB
:1035F0003EAB189ACB1A18991A935918012A0E91B2
:1036000040F3CC810E9801300E9020EAE0710B91CE
:10361000159B002B00F0FD802D2300208DF80F312D
:103620001590FFF750B90C9B5B420C93FFF7CEBA95
:103630000E9A00209DF80F3122EAE27215900B924B
:10364000FFF740B90A98011D0A910668321E18BF9B
:10365000012236464FF00007FFF7F6B81AF0400F88
:1036600017BF0A9A0A990D9802F1040A11BF13684C
:1036700001F1040A0B680D9A14BF18801A60FEF756
:1036800095BF0998594637AAFEF7D8FE00287FF45F
:10369000B1A84B460BE40998402101F0CDFD306004
:1036A0003061002800F08D8140237361FEF767BF11
:1036B000F8830020032048F2284248F224410B906E
:1036C0001498C2F20001C2F2000215934728D8BF35
:1036D0000A462AF0800A032111929DF80F310E91BB
:1036E000FFF7F0B80998594637AAFEF7A7FE002859
:1036F0007FF480A84B4682E60998594637AAFEF720
:103700009DFE00287FF476A84B468EE638460022C0
:1037100000233146CDF820C004F0E4F9DDF820C0E4
:1037200000287FF423AF0B9AC2F1010342931EE7F6
:103730000998594637AAFEF781FE00287FF45AA857
:103740004B46189A11985A60389A39991860013284
:10375000189838920918072A39913FF766A9083353
:10376000FFF716B800211591FEF738FE9DF80F31CE
:1037700020EAE0720E900B92FFF7A4B85C60389AD2
:103780001F60511C399A3891121907293992CFDCE0
:103790000833D6E716991198081A0E90FFF789B8E2
:1037A000B8F1060F34BF4146062148F24042C2F24A
:1037B000000221EAE1730E9111920B93FFF763B9B6
:1037C0000998594637AAFEF739FE00287FF412A857
:1037D0004B463BE40998594637AAFEF72FFE0028CE
:1037E0007FF408A84B46AFE50998594637AAFEF77B
:1037F00025FE00287EF4FEAF4C4694E5CDF83880D7
:1038000028EAE8781590CDF82C809DF80F31FFF765
:1038100059B80E989DF80F3120EAE0700B90FFF731
:1038200051B8149A652A14BF00230123452A08BF02
:1038300043F00103002B32D008F101030B93022364
:1038400068E61498652862DD149A662A1CBF429BBC
:103850000E936FD0189A0E9B9A425BDC1AF0010F00
:1038600040F0818023EAE37067210B901491CFE64A
:10387000409B9C4598BF9C467FF689AE302203F85A
:10388000012B9C454093FAD881E60998594637AAFE
:10389000FEF7D4FD00287EF4ADAF4B4677E5CDF8BA
:1038A0002C80023336E646F2676C0DF1F700C6F263
:1038B000666C8CFB0321DA17C2EBA10202EB8201DA
:1038C000A3EB410113463031092A00F8011DF0DC59
:1038D0003033421ED9B200F8011C079B934298BFB7
:1038E0000DF1FA017FF684AE02460DF1FB0301E013
:1038F00012F8011B03F8011C194607980133904286
:10390000F6D875E62D2006F100461590F2E54299AD
:103910000E9157E60E9918980029DABF0E9AC2F157
:10392000020301231B18672123EAE3720E9314910B
:103930000B926DE6429800280E9038DDB8F1000F2A
:1039400007D11AF0010F04BF20EAE0710B913FF498
:103950005FAE0E9A66201490531C43440E9323EAE4
:10396000E3710B9154E60E9A6723149301320E9281
:1039700022EAE2700B904BE62D225B428DF8F92093
:103980002CE60A991A78D1F8008004310A91B8F12E
:10399000000FB8BF4FF0FF38FEF747BE1AF0010F17
:1039A00004BF21EAE1730B933FF432AE2AE6B8F18B
:1039B000000F0ED11AF0010F0BD101220B920E92C3
:1039C00026E609980C234FF0FF310D910360FEF7B6
:1039D0001ABF08F10203662023EAE3710E931490E4
:1039E0000B9115E6000000002DE9F84F03690E6900
:1039F000824689469E4200F38380F21C01F1140541
:103A000000F11404013E92008B18121803F104080F
:103A100059685068013103F007FB0746002839D088
:103A200000239C461A46E958E0581FFA81FE4FEAE7
:103A3000114B81B20EFB07CE51180BFB07FC0CEBB0
:103A40001E4C1FFA8EFECEEB01011FFA8CF24FEADC
:103A50001C4CC2EB10421FFA81FE02EB21424EEADF
:103A60000241E1500433121459198845DBD2321D4A
:103A70000AEB8203596869B99C4209D25AF822209C
:103A800012B105E01A681AB9043B013E9C42F9D311
:103A9000CAF810604946504601F0F6FF00282CDBBA
:103AA000002301379C46EA58E05891B2120C1FFAE5
:103AB00080F9C2EB1042C1EB0901614402EB2142E3
:103AC00089B241EA0241E15004334FEA224C5A19CB
:103AD0009045E8D2321D0AEB8203596869B99C42CD
:103AE00009D25AF8222012B105E01A681AB9043B2B
:103AF000013E9C42F9D3CAF810603846BDE8F88F01
:103B00000020BDE8F88F00BF2DE9F04F466AA1B054
:103B10000446904699462D9D002E00F0238432687D
:103B200082B1616A4FF0010C766820460B685660DE
:103B30004A6819460CFA02F29A6002F0DFF8636AEA
:103B400000221A60B9F1000638DB00232B6040F236
:103B50000003C7F6F0731A4606EA0303934217D030
:103B60000022002340464946CDE9068903F0BAFF0A
:103B7000002829D02C9801232E990360002900F0F9
:103B8000D080794B581E2E9A136021B0BDE8F08F7B
:103B90002C9842F20F730360B8F1000F00F095808B
:103BA00048F25840C2F200002E990029EDD0C278A8
:103BB000C31C002AE7D000F10803E4E726F0004622
:103BC0000123B1462B60C2E72046DDE906231EA98A
:103BD00000911FA9019102F0E3F8C6F30A5583464C
:103BE000002D7ED0DDE90601A5F57E751F9F073DFE
:103BF00021F07F4323F4700343F07E51002341F40E
:103C0000E001199340F200030022C3F6F87303F0B9
:103C10004DFB4FA3D3E9002303F0FCFC4EA3D3E9F3
:103C2000002303F045FBCDE90801284603F08CFC96
:103C30004BA3D3E9002303F0EDFC02460B46DDE97C
:103C4000080103F035FBCDE9080103F07DFF0022F8
:103C500000230646DDE9080103F04EFF40B130467F
:103C600003F072FCDDE9082303F03CFF00B9013EDC
:103C7000162E5BD901231893013FB7EB050A42BF0B
:103C8000CAF1000ACDF83CA04FF0000A01D400228E
:103C90000F92002EC0F27183B24400231796159341
:103CA0002A9B092B62D8052B40F377862A98002798
:103CB00004382A902A998B1E032B00F2DD83DFE85B
:103CC00013F0A503D803D503C40326F07F4626F4DA
:103CD0007006002E7FF464AF48F24C40C2F2000040
:103CE00062E71F9F1E9BFB1803F586639D1C202D1A
:103CF000DCBFC5F1200008FA00F008DD1E3BC5F16D
:103D0000400216FA02F228FA03F342EA030003F033
:103D10000BFCA5F586650122033D1992A1F1F8710E
:103D200070E748F24840C2F200002EE748F2005324
:103D3000DDE90601C2F2000303EBC603D3E9002369
:103D400003F0DAFE002840F02083189094E700BFCB
:103D500061436F63A787D23FB3C8608B288AC63F91
:103D6000FB799F501344D33F4984002000234FF038
:103D7000FF301F4601212A931190169108902B9332
:103D8000656A00236B602046696801F0D3FF636AAF
:103D900028601B681093002F00F05B81002E40F319
:103DA0002A8448F2005306F00F02C2F200033511D4
:103DB00003EBC20315F0100FD3E90001CDE90C01AC
:103DC00000F0E78248F2D853DDE90601C2F20003B1
:103DD00005F00F054FF00308D3E9082303F044FD75
:103DE000CDE91201BDB148F2D857DDE90C23C2F28A
:103DF000000715F0010F1046194607D0D7E9002338
:103E000008F1010803F006FC02460B4608376D1066
:103E1000EFD1CDE90C23DDE90C23DDE9120103F03C
:103E200023FDCDE90C011899002900F0DE8040F255
:103E30000003DDE90C010022C3F6F0734FF000052A
:103E400003F05AFE08B14FF00105089A002AD4BFCA
:103E5000002505F00105002D00F0C780119B002B07
:103E600040F3F58040F200030022C4F22403DDE9B0
:103E70000C0103F0CFFBCDE90C0108F10100711E2C
:103E8000129103F061FB02460B46DDE90C0103F0E1
:103E9000C1FB40F200030022C4F21C0303F008FA45
:103EA000DDF844C08046A1F15079169B002B00F04C
:103EB000AD8348F2005340F20001C2F2000300203B
:103EC00003EBCC03C3F6E071CDF80CC053E9022339
:103ED00003F0CAFC42464B46109D03F0E7F98046CA
:103EE0008946DDE90C0103F02FFE074603F02CFBA9
:103EF00002460B46DDE90C0103F0D8F907F1300367
:103F0000CDE90C01404605F8013B4946DDE90C23AB
:103F100003F010FE002840F0138240F20001DDE9BA
:103F20000C230020C3F6F07103F0C0F902460B46E3
:103F30004046494603F0FEFDDDF80CC0002840F085
:103F4000E783BCF1010F40F38280CDF868B0012710
:103F5000CDF870A01D966646DDE90CAB0C9410E020
:103F600040F200010020C3F6F07103F09FF94246D1
:103F70004B4603F0C1FD002840F0C783B74280F2F2
:103F80008B8440F20003404649460022C4F22403D9
:103F9000013503F03FFB40F200030022C4F224038A
:103FA000804689465046594603F034FB8B4682468C
:103FB00003F0CAFD044603F0C7FA303402460B464C
:103FC0005046594603F072F9109A4B46D455424672
:103FD000013782468B4603F08FFD52465B46002830
:103FE000BED0DDF868B00C9CAAE1404603F0ACFA04
:103FF000DDE90C2303F00EFB40F200030022C4F2C3
:104000001C0303F055F9089AA1F150758046A946A2
:10401000002A40F0EC8240F20003DDE90C010022AE
:10402000C4F2140303F042F942462B46CDE90C01D9
:1040300003F080FD002840F04A824246DDE90C0191
:1040400005F1004303F058FD002840F0D581DDE97B
:1040500006891E9B6FEA03074FEAD7770E2ECCBF67
:10406000002707F00107002F00F0B7802B9848F2D7
:104070000053C2F20003089903EBC603C20F0029E4
:10408000CCBF002202F00102D3E90001CDE9040116
:10409000002A40F0A08102460B464046494603F004
:1040A000E3FB109D03F050FD824603F04DFADDE97D
:1040B000042303F0AFFA02460B464046494603F09C
:1040C000F5F80AF1300305F8013B089A012A804609
:1040D000894652D040F200030022C4F2240303F0C8
:1040E00099FA00220023CDE9060103F0FBFC002829
:1040F00040F0EB8110984FF00108CDF82CB0A346AA
:10410000871C0F96DDF82090DDE906450AE003F0F4
:1041100081FA0022002304460D4603F0E3FC002848
:1041200040F0CE81DDE904232046294608F101084C
:1041300003F09AFB3E4603F007FD824603F004FAC3
:10414000DDE9042303F066FA02460B4620462946C1
:1041500003F0ACF800220AF1300C07F801CC01376B
:10416000C14540F20003C4F22403D0D135465C4679
:104170000F9E8046DDF82CB0894642464B464046AD
:10418000494603F095F8804689464246DDE9040138
:104190004B4603F0B1FC60B9DDE9040142464B46F1
:1041A00003F0A0FC002800F090811AF0010F00F04D
:1041B0008C81109900E01D4615F8012C6B1E392AE0
:1041C00040F067838B42F6D11099302301363122BB
:1041D0000B70109B1A701296B2E0169A002A40F0EB
:1041E000DF80159F0F9D0C92002DD4BF002301236B
:1041F000BAF1000FD4BF002303F001034BB1AA456D
:10420000B4BF53462B460F98C3EB0A0AED1AC01AE7
:104210000F90159900291CDD169A002A00F0E982FA
:10422000002F12DD0C993A46204601F0E3FF5A4672
:104230000C9020460C9901F0F5FE594603462046A5
:10424000039301F05BFD039B9B46159BDA1B40F03B
:1042500011830121204601F07FFF06901798002866
:1042600005DD06992046179A01F0C4FF06902A99A9
:10427000012940F30A810027179B002B40F061823F
:104280000123534413F01F0340F02A811C230F9A8B
:104290009A44ED18D2180F920F9B002B05DD59465A
:1042A0001A46204601F060FE8346BAF1000F05DD94
:1042B00006995246204601F057FE069018980028AD
:1042C00040F029822A9808990228D4BF00230123AC
:1042D0000029CCBF002303F00103002B00F00C8168
:1042E000002940F08C8005220699089B204601F0A9
:1042F0003DFF06905846069901F0C6FB00287EDD7A
:10430000109D01360027DDF830A0312305F8013B70
:104310000699204601F0F2FCBAF1000F00F0D580BA
:104320003B1E18BF012357450CBF002303F00103B8
:10433000002B40F0D0805146204601F0DFFC129661
:104340002046594601F0DAFC129A531C00222A70CA
:104350002C982E990360002900F0D4812E9A109891
:10436000156012E4102000F05FFFC66046608660B2
:10437000066006466062FFF7D2BB0F9871420022CA
:104380001591801B17920F908AE40021013E18912D
:1043900072E4DDE906234FF00208CDE9122321E59E
:1043A0002A98012840F36C82089A1598531E984267
:1043B000C0F25882C71A089B002BA8BF0F9DC0F2FD
:1043C00073820F9A204601219A44D2180F9201F06D
:1043D000C3FE0C9008E7089B73B940F2000300226B
:1043E000C4F21403DDE9040103F014F942464B461C
:1043F00003F096FB00286AD0002206920C922B9BB9
:104400000027DDF830A0DE43109D81E700211691E2
:104410002B98002840F39F812B980146119008901B
:10442000656A002217296A6040F2AB8204235B00B0
:10443000013203F114008842F9D9089B6A600E2BFF
:104440008CBF002707F001079DE4012216922B9BE9
:10445000F3181193591C0029C8BF0891E0DC0E29FC
:104460008CBF002707F00107089189E40123169308
:10447000CEE700221692EAE74FF0FF330027012033
:104480001193169008932B977AE4B8F1000F7FF4FC
:10449000F2AE29F07F4323F47003002B7FF4EBAEE0
:1044A00040F20003C7F6F07309EA0303002B3FF460
:1044B000E2AE0F9A0AF1010A012701320F92DBE600
:1044C00035465C460F9EDDF82CB0129638E700208A
:1044D00006900C9014E73946204601F00FFC2AE7BD
:1044E000C3F12003042B40F354820F99043B9A44F8
:1044F000ED18C9180F91CFE61699002900F0318107
:10450000002D05DD0C992A46204601F02DFD0C906A
:10451000002F40F0EA81DDF830A0109D012308F063
:1045200001000C9F11900F951D460C960699584658
:10453000FFF75AFA394630300B90584601F0A4FA8A
:10454000069952460646204601F092FCC368804612
:10455000002B3DD04FF001094146204601F0CEFB33
:104560002A9959EA010103D1119A002A00F0EB813E
:10457000002EC0F29E812A9A324303D1119B002B58
:1045800000F09781B9F1000F00F3CE810F990B9ADB
:1045900001F8012B089B0F919D4200F0C281594602
:1045A0000A220023204601F0E1FD574539468346A3
:1045B00014D00A2200232046013501F0D7FD5146D0
:1045C0000A2200230746204601F0D0FD8246ADE7CF
:1045D0005846414601F058FA8146BDE720460A2276
:1045E0000023013501F0C2FD074682469EE7129680
:1045F000DDF820C059E47542002D40F00181DDE96D
:1046000006014FF00208CDE90C010CE448F200511C
:104610004246C2F200014B4601EBCC01CDF80CC082
:10462000109D51E9020102F0F5FFCDE91A01DDE923
:104630000C0103F089FA074602F086FF0B4602469A
:10464000DDE90C0102F032FE07F13003CDE90C0187
:1046500005F8013BDDF80CC0BCF1010F29D0D146B3
:10466000DDE90C01B246109E1C9501276546A04667
:1046700040F200030022C4F2240302F0CBFFCDE994
:104680000C0103F061FA044602F05EFF303402468A
:104690000B46DDE90C0102F009FEF4550137AF428B
:1046A000E6D11C9D013F56464446CA46ED19CDE968
:1046B0000C0140F200030022C3F6E073DDE91A01A9
:1046C00002F0F6FD02460B46DDE90C0103F032FA7A
:1046D000F0B940F20001DDE91A230020C3F6E071D1
:1046E00002F0E4FD02460B46DDE90C0103F004FA9A
:1046F00000283FF4ACAC2B461D4613F8012D302AA0
:10470000FAD01DE61098FFF740BADDF868B00C9CAF
:10471000129E109950E55846069901F0B5F9002807
:10472000BFF6D0AD594620460A22002301F01EFDF7
:104730001699013E8346002940F01981119A08928A
:10474000C0E50698036900EB8303186901F04AF994
:10475000C0F1200395E50121119108912B91FFF7FC
:104760000FBB109DB146169FAA46DDF81880089E23
:1047700002E001F0FBFC834641465846FFF734F95E
:1047800001350A220023594600F1300C0AF807C00F
:1047900001372046BE42ECDCDDF830A04E46002753
:1047A000CDF82CC059460122204601F0DDFB0699C8
:1047B000834601F069F900280FDD109900E01D46DD
:1047C00015F8012C6B1E392A40F08C808B42F6D1F3
:1047D0001099312301360B709AE503D10B9810F034
:1047E000010FEAD12B461D4613F8012D302AFAD0CD
:1047F0008EE55946159A204601F0FCFC834628E5D3
:1048000005F00F0348F20052C2F20002DDE9060192
:1048100002EBC303D3E9002302F0FCFE2D1108BF15
:104820004FF00208CDE90C013FF4FDAA48F2D85739
:10483000DDE90C234FF00208C2F2000715F0010F6A
:104840001046194607D0D7E9002308F1010802F005
:10485000E1FE02460B4608376D10EFD1CDE90C237F
:10486000FFF7E1BA1599179A5B1AC918D218159172
:104870001792A0E55946204601F0BCFC8346E8E4C7
:104880001999002947D003F58663159F03330F9DBF
:1048900097E50132D2B29DE4DDF868B0DDF870A092
:1048A0001D9E0C9CFFF7D3BB0F99002308980D1A8F
:1048B00087E5B9F1000F0F9D0C9E0FDD59460122CF
:1048C000204601F051FB0699834601F0DDF80028EF
:1048D00047DD0B99392931D001310B910B9A05F83D
:1048E000012B15E501321A7012E50C9A2046516829
:1048F00001F020FA0C9B03F10C011A6902329200BC
:1049000005460C30FDF714FC20462946012201F033
:104910002BFB824601E61F9B159F0F9DC3F13603BB
:104920004FE50F9D0C9E3DE70B9B0F9D392B0C9E79
:1049300004D00B98431C05F8013BE9E4392305F842
:10494000013B10993CE70B9833460F9D39280C9E8C
:10495000F4D0002B01DD01300B900B9905F8011B01
:10496000D6E4BBD10B9810F0010FB7D0B1E700230C
:104970000C9920460A2201F0F9FB119B08930C9038
:10498000A0E408990E298CBF002707F00107FFF764
:10499000FAB93FF481AC1C3379E40127FFF78AB9F7
:1049A000704700BF704700BF704700BF704700BF2F
:1049B000002070470020704748F2746344F6B51138
:1049C000C2F20003C2F20001186800F0C5BB00BFCC
:1049D00048F2746344F6B111C2F20003C2F200015E
:1049E000186800F0B9BB00BF46F60941C2F20001E9
:1049F00000F0B2BB48F2E033C2F200031868F3E7FC
:104A000010B5044600235C30A1811946E2810822DA
:104A100023606360A360636623616361A36100F048
:104A200073FF46F2C57046F2897146F2617246F232
:104A30005973C2F20000C2F20001C2F20002C2F2D7
:104A400000036062A162E2622363246210BD00BFC2
:104A500070B568250E4605FB01F505F10C0100F067
:104A6000EBFB044648B100F10C03002146602A46E6
:104A700018462160A36000F047FF204670BD00BFCC
:104A800048F2E033C2F2000370B51D680646AB6918
:104A9000002B2AD0D8356B68AC68013B03D520E0E9
:104AA0006834013B1DD4B4F90C20002AF8D100254C
:104AB0004FF0FF33656604F15C00E38129464FF057
:104AC00001032560A3810822A560656025616561F9
:104AD000A56100F019FFE5646563A563A564204640
:104AE00070BD286828B10546D5E7284600F00CF8C7
:104AF000D0E730460421FFF7ABFF28600028F2D151
:104B00000C2304463360EAE770B58669044606B1B3
:104B100070BD44F6E9130125C2F20003C0F8D86065
:104B20008362C0F8DC60C0F8E0608561FFF7A8FF31
:104B300060602046FFF7A4FFA0602046FFF7A0FFBB
:104B4000324604212346E0606068FFF759FF2A4699
:104B5000A06809212346FFF753FF2346E06812218E
:104B60000222BDE870404BE7F8B548F27874C2F213
:104B700000040F46054600F031FFA3685E6826F08A
:104B8000030606F57E630F33DF1B3F0B013F3F0338
:104B9000B7F5805F07DB0021284601F0C9FDA36857
:104BA000F318834204D0284600F01AFF0020F8BD15
:104BB0007942284601F0BCFDB0F1FF3F10D0A26859
:104BC00048F6A833C2F20003F61B46F00106284659
:104BD00056601A68D71B1F6000F002FF0120F8BD65
:104BE0000021284601F0A4FDA368C21A0F2ADADDCD
:104BF00048F6803448F6A831C2F20004C2F200013F
:104C000042F001022468001B08605A60CBE700BF35
:104C10002DE9F04105460C46002900F0888000F09F
:104C2000DDFEA4F1080248F278705668C2F2000076
:104C300026F00103D0F808C0D1188C454F6827F042
:104C4000030700F0958016F001064F605FD0002644
:104C5000CC19646814F0010F06D1DB19002E7AD04C
:104C60008C68C9688C60E16043F00101D3505160E9
:104C7000002E47D1B3F5007F5BD3590A04299EBFAC
:104C80004FEA931C0CF1380C4FEACC0428D91429B4
:104C90009CBF01F15B0C4FEACC0421D954299EBF83
:104CA0004FEA133C0CF16E0C4FEACC0418D9B1F565
:104CB000AA7F9EBF4FEAD33C0CF1770C4FEACC049D
:104CC0000ED940F2545C614595BF4FEA934C4FF4C6
:104CD0007C740CF17C0C4FF07E0C98BF4FEACC0436
:104CE0000419A168A14203D164E089688C4204D010
:104CF000486820F003008342F7D3CB68D36091600B
:104D0000CA609A602846BDE8F04100F069BE54F8D8
:104D1000084C00F1080C121B1B199468644547D01D
:104D2000D2F80CC0CCF80840C4F80CC090E7BDE83D
:104D3000F081DB084FF0010C466800EBC3019B10CB
:104D40000CFA03F3D1608C6846EA03034360946075
:104D5000E2608A60D6E78C681C4FBC4281D1D35098
:104D600043F00103E260A26053609460D460C9E73D
:104D7000FB1816F0010F07D154F8081C521A5B18E3
:104D8000D4689168A160CC6048F684318260C2F238
:104D9000000143F0010050600A689342B2D348F624
:104DA000A4332846C2F200031968FFF7DDFEA9E725
:104DB00001264DE7012644684FEAAC0C0B4606FA83
:104DC0000CFC44EA0C04446098E700BF8087002094
:104DD0002DE9F04F936885B090460C460390002B68
:104DE00064D088891FFA80FA1AF0080F00F0A080BA
:104DF0000B69002B00F09C801AF0020BD8F80050D1
:104E00001CBF4FF0000A574636D11AF0010A1DBFE9
:104E1000DC46D9465F46564652D126B380B2A768D3
:104E200010F4007F00F08F80BE42BB4680F0A78068
:104E300020683746B3465A46514600F009FDA2683D
:104E40002368B146D71BA76037465B442360D8F878
:104E50000830C9EB0606CA44DF1BC8F808702FB338
:104E6000A089002EDAD1D5F800A06E680835D4E705
:104E7000D5F800A06F680835B7F5806F34BF3B46A2
:104E80004FF4806352460398002FF1D0A66A216A3E
:104E9000B04700288244C0EB070740F3EC80D8F805
:104EA0000830181AC8F808000028E5D1002005B01D
:104EB000BDE8F08FD5F800904FF0000C6F68083512
:104EC000002FF7D0BCF1000F00F0B5806369BB453F
:104ED00034BFDA46BA46A668206822699E19904215
:104EE00094BF00220122B245D4BF002202F0010289
:104EF000002A40F0AE809A45C0F28280A66A4A46F7
:104F0000CDF804C00398216AB047DDF804C0061E3E
:104F100040F3B180BBEB060B00F08680D8F8083078
:104F2000B144BF1B9E1BC8F80860002EC8D1BDE766
:104F30000398214601F046FD002840F0D480A08966
:104F40001FFA80FA58E72068B9462369984294BF4F
:104F500000230123B7422CBF002303F00103002BE1
:104F600040F09D8063699E42C0F08C80A76A5246E3
:104F70000398216AB847071E7DDDB94667E710F43C
:104F8000906F08BF20683FF456AF626921692368BB
:104F900002EB42095B1A09EBD97903F1010CB44425
:104FA0004FEA6909E1454A463CBFE1464A4610F4EA
:104FB000806F00F0838011460398029300F03CF963
:104FC000029B002800F099801A4621690293019003
:104FD000FDF7AEF8A289029BDDF804C022F49062CE
:104FE00042F08002A281C3EB09020CEB03003746BA
:104FF000B346A260C4F810C02060C4F814901AE749
:10500000524649465646CDF804C000F021FCA2683D
:105010002368BBEB060BCAEB0202DDF804C0534465
:10502000A26023607FF47AAF0398214601F0F4FD7B
:1050300008BBDC4672E748460A213A4600F0CEFB40
:1050400000284BD000F1010B4FF0010CC9EB0B0B0A
:105050003CE749463246CDF804C000F0F9FB23682E
:10506000214603989B19236001F0D6FDDDF804C0AA
:1050700000283FF44FAFA3894FF0FF3043F04003C7
:10508000A38114E73246514600F0E2FBA268236890
:105090003746921BB1469B19A2602360D7E6514662
:1050A0003A4600F0D5FB236803982146DB192360BC
:1050B00001F0B2FD00283FF4CAAEDCE7039802938A
:1050C00001F03CF9029B844600288CD121690398A9
:1050D000FFF79EFD03990C230B60CCE707F1010B52
:1050E0004FF0010CF2E603990922A3894FF0FF303B
:1050F00043F040030A60A381D9E6039A0C231360AE
:10510000B9E700BF2DE9F84507468A46FFF748FC96
:1051100017F1D80608BFB04618D04FF000087568E0
:10512000B468013D0FD4B4F90C304BB1B4F90E3072
:1051300021463846B3F1FF3F02D0D04748EA000885
:105140006834013DEFD53668002EE8D1FFF72AFC20
:105150004046BDE8F88500BF2DE9F0410646884687
:10516000FFF71EFCD83608BF374615D000277568F4
:10517000B468013D0DD4B4F90C303BB1B4F90E3034
:105180002046B3F1FF3F01D0C04707436834013DDB
:10519000F1D53668002EEAD1FFF704FC3846BDE8A9
:1051A000F08100BF48F2BC43C2F2000318687047A8
:1051B00000487047C084002000487047C084002029
:1051C00070B505460E46144672B148F2E4311046F9
:1051D000C2F2000101F008FB58B948F2E4302C6239
:1051E000C2F20000EE6170BD48F2E430C2F200008D
:1051F00070BD48F218412046C2F2000101F0F4FAF5
:105200000028EAD0002070BD48F274630A46C2F25A
:10521000000301461868D3E748F274630146C2F2FE
:1052200000031868FFF7F4BC48F274630146C2F249
:105230000003186800F000B82DE9F04F01F10B04ED
:10524000162C83B006462FD8002310248C422CBF86
:10525000194643F00101002930D1304600F0BEFB71
:10526000B4F5FC7F2ED24FEAD40E48F27875C2F224
:10527000000505EBCE02D368934200F006825A681F
:1052800003F10805D968304622F0030C9A6863449C
:105290005C688A6044F00104D1605C6000F0A0FBAF
:1052A000284603B0BDE8F08F24F00704E30F8C42DA
:1052B0002CBF194643F001010029CED00C23002554
:1052C0003360EDE75FEA542E04BF4FEAD40E4FEA95
:1052D000CE0040F0908048F27875C2F200052818A0
:1052E000C368984206D10DE0002A80F26F81DB6826
:1052F000984207D0596821F003010A1B0F2AF3DDF9
:105300000EF1FF3E0EF1010E48F27877C2F200076F
:1053100007F108018B68994208BF7A6826D05A685D
:1053200022F0030CC4EB0C020F2A00F39481002A34
:10533000C960896080F29980BCF5007F80F065814A
:105340004FEADC0C4FF0010A7A6807EBCC004FEA19
:10535000AC0C0AFA0CFCD860D0F808804CEA0202C7
:105360007A60C3F80880C8F80C3083604FF0010CF5
:105370004FEAAE030CFA03FC944500F2828012EA75
:105380000C0F08D12EF0030E4FEA4C0C0EF1040E58
:1053900012EA0C0FF8D007EBCE09F246C846D8F84F
:1053A0000C30984507D168E1002A80F27881DB68EB
:1053B000984500F06281586820F00300021B0F2A14
:1053C000F2DD1D461F19D3F80CC044F0010E55F84C
:1053D000084F3046BA5042F00102C3F804E0CCF85E
:1053E0000840C4F80CC08F60CF607A60B960F96083
:1053F00000F0F6FA54E7BEF1040F9EBF4FEA941E88
:105400000EF1380E4FEACE007FF665AFBEF1140FF5
:105410009CBF0EF15B0E4FEACE007FF65CAFBEF193
:10542000540F9EBF4FEA143E0EF16E0E4FEACE00AF
:105430007FF651AFBEF5AA7F9EBF4FEAD43E0EF174
:10544000770E4FEACE007FF646AF40F254539E45AA
:1054500095BF4FEA944E4FF47C700EF17C0E4FF0E6
:105460007E0E98BF4FEACE0035E703EB0C0203F146
:1054700008053046536843F00103536000F0B0FA6A
:105480000EE7D7F80880D8F8043023F00309C4EBFE
:1054900009024C4594BF002301230F2AD8BF43F0D3
:1054A0000103002B00F0A18048F6A43BD5F80824A6
:1054B000C2F2000BDBF8003010331B19B2F1FF3FD2
:1054C00006D003F57E631F3323F47E6323F01F03AE
:1054D00019463046019301F02BF9019BB0F1FF3FD3
:1054E000824600F0F48008EB0901814200F2EC8072
:1054F000DBF804209A185145CBF8042000F04581D0
:10550000D5F8085448F27870C2F20000B5F1FF3FB8
:1055100008BFC0F808A403D05244511ACBF80410B5
:105520001AF00705304617BFC5F108054FF480553E
:10553000AA4405F5805553441B051B0DED1A294659
:1055400001F0F6F8B0F1FF3F00F02C81CAEB00014A
:10555000491941F00101DBF8042048F6A433C7F8EB
:1055600008A0C2F20003AA18B845CBF80420CAF874
:10557000041017D0B9F10F0F40F2DF80A9F10C0130
:10558000052521F0070108EB01000F298560456022
:10559000D8F8040000F0010041EA0000C8F8040057
:1055A00000F2AC80D04648F6A433DBF82C10C2F2EF
:1055B00000038A42DBF8301088BFDA6248F6A43371
:1055C000C2F200038A4288BF1A6382E05C189A68BC
:1055D000D9683046666803F108058A6046F0010321
:1055E000D160636000F0FCF95AE608EB040342F076
:1055F000010244F001043046C8F8044008F10805EF
:105600005A60BB6000F0ECF94AE64FEA5C22042ADB
:1056100054D9142A00F289805B324FEAC208A844A8
:1056200048F27877C2F20007D8F80800404503D165
:105630006FE08068804504D0426822F00302944500
:10564000F7D3D0F80CC0C3F80CC098607A68C36078
:10565000CCF808308AE61F19304644F00104CF60C8
:105660005C6003F10805BA5042F001028F607A6075
:10567000B960F96000F0B4F912E60AF1010A1AF013
:10568000030F5FD003F1080889E603F10802D3682D
:105690009A4208BF0EF1020E3FF436AEEFE51D460A
:1056A0001918DA68304655F8083F4C68936044F0A2
:1056B0000104DA604C6000F093F9F1E54FEA9C12C6
:1056C00038324FEAC208AAE7B8453FF411AFD7F81D
:1056D0000880D8F8042022F00302944294BF0023EB
:1056E0000123121B0F2AD8BF43F00103002B3FF404
:1056F0007CAF3046002500F073F9D1E508F10801D0
:1057000030460193FFF784FA019BD7F808805A6866
:1057100049E74FF0010AD7F80480921084460AFA4C
:1057200002F248EA02027A608DE7542A24D84FEA4E
:105730001C326E324FEAC20871E70123D046CAF824
:105740000430C6E74A461EF0030F13460EF1FF3E33
:1057500033D053F808299A42F5D07B684FEA4C0CB5
:105760009C453FF68EAEBCF1000F3FF48AAE1CEABA
:10577000030F27D0D6460EE6B2F5AA7F15D84FEA1A
:10578000DC3277324FEAC20849E70805000D0028ED
:105790007FF4B6AED7F808804B4443F00103C8F855
:1057A000043000E701210025D5E640F25450824242
:1057B0000DD94FF47C787E2231E77B6823EA0C0315
:1057C0007B60CBE74FEA4C0C0AF1040ACFE74FEAC3
:1057D0009C427C324FEAC20821E700BF10F0030F61
:1057E000C9B210B410D0002A2FD003788B422AD02F
:1057F000013A05E0002A28D00378013A8B4222D0F2
:10580000013010F0030FF5D1032A11D941EA012428
:1058100044EA0444036884EA0303A3F1013C2CEA4C
:10582000030313F0803F03D1043A0430032AF1D874
:105830005AB103788B4206D0013A32B110F8013FD9
:10584000013A8B42F9D110BC70470020FBE700BF42
:1058500088428C4670B4054614460ED98B1898427F
:105860000BD242B1C2EB030C0146531E1CF80320BD
:10587000CA54013BFAD270BC70470F2A09D8002CD9
:10588000F9D000231CF80320EA540133A342F9D1D4
:10589000F1E741EA000313F0030FF0D194460C4600
:1058A00003462568ACF1100C1D6065685D60A56855
:1058B0009D60E5681034DD601033BCF10F0FF0D847
:1058C000103A4FEA121C0CF10105CCEB0C7C2D01B7
:1058D00002EB0C1601EB050C4519032E3446CED90C
:1058E00000235CF80320EA500433F21A032AF8D8A4
:1058F000043EB3085A1CC3EB83739200944406EB36
:105900008304AD18BBE700BF032AC9B230B407D87F
:1059100022B10023C15401339342FBD130BC704704
:1059200000EB020C034601E003F8011C03F0030442
:105930001A460133002CF7D14FF00133C2EB0C04AF
:1059400003FB01F31FE042F8403C42F83C3C42F8C4
:10595000383C42F8343C42F8303C42F82C3C42F8A7
:10596000283C42F8243C42F8203C42F81C3C42F8D7
:10597000183C42F8143C42F8103C42F80C3C42F807
:10598000083C42F8043C154640323F2CA4F1400448
:10599000D9DC2A46C5EB0C0407E042F8103C42F87B
:1059A0000C3C42F8083C42F8043C154610320F2CDF
:1059B000A4F11004F1DC2A46C5EB0C0501E042F825
:1059C000043C14460432032DA5F10405F7DC01E084
:1059D00004F8011B6445FBD3A0E700BF704700BF7C
:1059E000704700BF020C03461204B2B1002013F04E
:1059F0007F4F01D108301B0213F0704F01D10430EA
:105A00001B0113F0404F01D102309B00002B03DB40
:105A100013F0804F04D00130704703041020E6E7F4
:105A2000202070470368024613F0070009D013F0E6
:105A3000010F21D113F0020F22D19B080220136025
:105A4000704799B209B91B0C102013F0FF0F01D158
:105A500008301B0A13F00F0F01D104301B0913F09B
:105A6000030F01D102309B0813F0010F02D15B0834
:105A700004D0013013607047002070472020704729
:105A80005B0801201360704703460A69006910B47F
:105A9000801A11D1043203F1140C92009B1889185A
:105AA0000431043353F8044C043B51F8042C0439FA
:105AB000944203D19C45F5D310BC704738BF4FF0DA
:105AC000FF30F9D30120F7E740F20003C7F6F07387
:105AD00001EA0303A3F15073002B02DD19460020F5
