:020000042000DA
:100000000000012099020020090300200B030020BA
:100010000D0300200F03002011030020000000004A
:10002000000000000000000000000000130300209A
:100030001503002000000000170300201903002012
:100040001B0300209D1D00201F0300202103002012
:10005000230300202503002027030020290300207C
:100060002B0300202D030020A5110020D511002016
:10007000330300203503002037030020390300201C
:100080003B0300203D0300203F03002041030020EC
:1000900043030020450300204703002049030020BC
:1000A0004B030020000000000000000000000000E2
:1000B0000000000000000000000000004D030020D0
:1000C0004F0300205103002053030020550300205C
:1000D00057030020590300205B0300205D0300202C
:1000E0005F030020610300206303002065030020FC
:1000F00067030020690300206B0300206D030020CC
:100100006F0300207103002073030020750300209B
:1001100077030020790300207B0300207D0300206B
:100120007F0300208103002083030020850300203B
:1001300087030020890300208B0300208D0300200B
:100140008F030020910300209303002095030020DB
:1001500097030020990300209B0300209D030020AB
:100160009F030020A1030020A3030020A50300207B
:10017000A7030020A9030020AB030020AD0300204B
:10018000AF030020B1030020B3030020B50300201B
:10019000B7030020B9030020BB030020BD030020EB
:1001A000BF030020C1030020C3030020C5030020BB
:1001B000C7030020C9030020CB030020CD0300208B
:1001C000CF030020D1030020D3030020D50300205B
:1001D000D7030020D9030020DB030020DD0300202B
:1001E000DF030020E1030020E3030020E5030020FB
:1001F000E7030020E9030020EB030020ED030020CB
:10020000EF030020F1030020F3030020F50300209A
:10021000F7030020F9030020FB030020FD0300206A
:10022000FF03002001040020030400200504002037
:1002300007040020090400200B0400200D04002006
:100240000F040020110400201304002015040020D6
:1002500017040020190400201B0400201D040020A6
:100260001F04002021040020230400202504002076
:1002700027040020290400202B0400202D04002046
:100280002F04002031040020330400203504002016
:100290003704002039040020684880476848002857
:1002A0000BD168486849694A884206D091421CBF10
:1002B00050F8043B41F8043BF8D165486549664A6B
:1002C000884206D091421CBF50F8043B41F8043BE1
:1002D000F8D162486249634A914218BF41F8040B61
:1002E000FAD1000000000000000000000000000043
:1002F000DFF874010FF2030E00474FF000004FF0DB
:100300000001DFF868F1FEE7FEE7FEE7FEE7FEE743
:10031000FEE7FEE7FEE7FEE7FEE7FEE7FEE7FEE7B5
:10032000FEE7FEE7FEE7FEE7FEE7FEE7FEE7FEE7A5
:10033000FEE7FEE7FEE7FEE7FEE7FEE7FEE7FEE795
:10034000FEE7FEE7FEE7FEE7FEE7FEE7FEE7FEE785
:10035000FEE7FEE7FEE7FEE7FEE7FEE7FEE7FEE775
:10036000FEE7FEE7FEE7FEE7FEE7FEE7FEE7FEE765
:10037000FEE7FEE7FEE7FEE7FEE7FEE7FEE7FEE755
:10038000FEE7FEE7FEE7FEE7FEE7FEE7FEE7FEE745
:10039000FEE7FEE7FEE7FEE7FEE7FEE7FEE7FEE735
:1003A000FEE7FEE7FEE7FEE7FEE7FEE7FEE7FEE725
:1003B000FEE7FEE7FEE7FEE7FEE7FEE7FEE7FEE715
:1003C000FEE7FEE7FEE7FEE7FEE7FEE7FEE7FEE705
:1003D000FEE7FEE7FEE7FEE7FEE7FEE7FEE7FEE7F5
:1003E000FEE7FEE7FEE7FEE7FEE7FEE7FEE7FEE7E5
:1003F000FEE7FEE7FEE7FEE7FEE7FEE7FEE7FEE7D5
:10040000FEE7FEE7FEE7FEE7FEE7FEE7FEE7FEE7C4
:10041000FEE7FEE7FEE7FEE7FEE7FEE7FEE7FEE7B4
:10042000FEE7FEE7FEE7FEE7FEE7FEE7FEE7FEE7A4
:10043000FEE7FEE7FEE7FEE7FEE70000A51E002060
:10044000000000000000002000000020A08A002022
:10045000A08A0020A08A0020D88F00200000000081
:10046000D88F00208890002035210020AD0A002080
:1004700048F6D873C2F200031A780AB9012018703E
:10048000704700BF48F6A020C2F2000008B503681C
:100490002BB140F20003C0F2000303B1984708BD3E
:1004A00082B00190019B33B1019B03F1FF330193B3
:1004B000019B002BF8D102B0704700BF2DE9F0413D
:1004C00084B001AB48F24862C2F2000207CA03C31B
:1004D0001A804FF00004254601AF4FF013084FF08B
:1004E00001062846294601F0D9F83B5D312B0AD197
:1004F0003046FFF7D5FF2846314601F0CFF8404699
:10050000FFF7CEFF09E04046FFF7CAFF2846314615
:1005100001F0C4F83046FFF7C3FF04F10104092CD1
:10052000DFD14FF000004FF0020101F0B7F848F2C0
:10053000A060C0F20100FFF7B3FF04B0BDE8F08196
:100540002DE9F04F9DB081460DF1540C48F2546EE8
:10055000C2F2000EBEE80F00ACE80F0063469EE852
:10056000070003C31A804FF00004254615AE4FF074
:1005700013074FF001084FF0020A2846294601F000
:100580008DF8335D312B0AD15046FFF789FF28469D
:10059000414601F083F83846FFF782FF09E038460C
:1005A000FFF77EFF2846414601F078F85046FFF7F6
:1005B00077FF04F10104192CDFD14FF000004FF058
:1005C000020101F06BF84FF000044FF0010743F215
:1005D0000005C4F201053846FFF762FFD5F88460D4
:1005E00004F10104222CF6D14FF01E00FFF758FF52
:1005F00043F20004C4F20104D4F8841012914FF0C5
:100600001E00FFF74DFFD4F8842011924FF0200018
:10061000FFF746FFD4F8843010934FF02100FFF726
:100620003FFFD4F884100F914FF02100FFF738FFFF
:10063000D4F884304FF02100FFF732FFD4F8842043
:100640000E924FF02100FFF72BFFD4F884300D936A
:100650004FF02100FFF724FFD4F884100C914FF0E5
:100660001F00FFF71DFFD4F884200B924FF01F00EE
:10067000FFF716FFD4F884300A934FF02000FFF7FD
:100680000FFFD4F8841009914FF02000FFF708FF06
:10069000D4F8842008924FF02000FFF701FFD4F82F
:1006A00084504FF02000FFF7FBFED4F884704FF029
:1006B0002000FFF7F5FED4F884804FF02000FFF70C
:1006C000EFFED4F884A04FF02000FFF7E9FED4F845
:1006D00084B04FF02000FFF7E3FED4F88430049399
:1006E0004FF02000FFF7DCFED4F8841006914FF0A5
:1006F0002000FFF7D5FED4F884304FEAC51505F089
:10070000FF0507F0010745EA871703F0010347EAF1
:10071000030308F0010843EA48130AF0010A43EA18
:100720000A130BF0010B43EACB03049901F0010219
:1007300043EA8203069901F0010243EA420206926B
:100740004FF01E00FFF7ACFED4F884504FF01E00AF
:10075000FFF7A6FED4F884704FF01E00FFF7A0FE4E
:10076000D4F884804FF01E00FFF79AFED4F884A0DE
:100770004FF01E00FFF794FED4F884B04FF01F0036
:10078000FFF78EFED4F8842005924FF01F00FFF78C
:1007900087FED4F8843004934FF01E00FFF780FEEC
:1007A000D4F884304FEAC51505F0FF0507F00107BE
:1007B00045EA871703F0010347EA030308F001083D
:1007C00043EA48130AF0010A43EA0A130BF0010B4B
:1007D00043EACB03059901F0010743EA8703049A32
:1007E00002F0010743EA47074FF01E00FFF758FEEB
:1007F000D4F884504FF01E00FFF752FED4F88480E6
:100800004FF02000FFF74CFED4F884A04FF01F00FB
:10081000FFF746FED4F884B04FF02200FFF740FE09
:10082000D4F8843007934FF01F00FFF739FED4F857
:10083000841005914FF02000FFF732FED4F8842099
:1008400004924FF01E00FFF72BFED4F884304FEADD
:10085000C51505F0FF0508F0010845EA881803F002
:10086000010348EA03030AF0010A43EA4A130BF0C2
:10087000010B43EA0B13079901F0010243EAC2039B
:10088000059A02F0010543EA8503049901F0010588
:1008900043EA45054FF02000FFF702FED4F88480BC
:1008A0004FF02000FFF7FCFDD4F884A04FF02000AB
:1008B000FFF7F6FDD4F884B04FF01F00FFF7F0FD0E
:1008C000D4F8842013924FF02200FFF7E9FDD4F80A
:1008D000843007934FF01F00FFF7E2FDD4F8841037
:1008E00005914FF02000FFF7DBFDD4F8842004923F
:1008F0004FF01E00FFF7D4FDD4F884304FEAC8183B
:1009000008F0FF080AF0010A48EA8A1A03F0010316
:100910004AEA03030BF0010B43EA4B13139901F06E
:10092000010243EA0213079901F0010243EAC203FC
:10093000059A02F0010443EA8403049901F00104DA
:1009400043EA440448F27060C2F20000314601F00C
:10095000E1FC48F27C60C2F20000129901F0DAFC7E
:1009600048F28460C2F20000119901F0D3FC48F211
:100970008C60C2F20000109901F0CCFC48F2946047
:10098000C2F200000F9901F0C5FC0B9A00920A9B7D
:10099000019309990291089A039248F29C60C2F26D
:1009A00000000E990D9A0C9B01F0B4FC48F2D8603F
:1009B000C2F20000069901F0ADFC48F2E460C2F218
:1009C0000000394601F0A6FC48F2F060C2F20000D7
:1009D000294601F09FFC48F2FC60C2F2000021466B
:1009E00001F098FC4FF00003C9F80430089BC9F8E7
:1009F00030300999C9F82C100A9AC9F828200B9BA5
:100A0000C9F824300C99C9F820100D9AC9F81C2097
:100A10000E9BC9F818300F99C9F81410109AC9F82C
:100A20001020119BC9F80C301299C9F80810C9F8A8
:100A300000604FF00003C9F84830C9F84430C9F8E5
:100A40004040C9F83C50C9F83870069AC9F83420BB
:100A500048461DB0BDE8F08F70B594B004460E4610
:100A60006D4668464FF00101FFF76AFD2046694672
:100A70004FF04C0201F086FB4FF0000363603368D7
:100A800023B9236813B14FF0010363603046214658
:100A90004FF04C0201F076FB63682BB148F208700E
:100AA000C2F2000001F0A4FC14B070BD2DE9F04FBB
:100AB000ABB000F0A7FD49F23000C2F200004FF4E5
:100AC000E1314FF0030200F0F5FC49F22800C2F2D8
:100AD000000040F20001C4F2050140F216524FF04E
:100AE000030301F075F84FF00004049420464FF022
:100AF000030100F0B7FD20464FF0020100F0CEFDEB
:100B0000FFF7DCFC17AD04AE48F2386AC2F2000A07
:100B10006F4649F23009C2F200094FF00F0849F25E
:100B2000280BC2F2000B44F24024C0F20F04284606
:100B30003146FFF791FF189BA3B19AE80F00BC461E
:100B4000ACE80700624622F8023B4FEA13431370F9
:100B500048466946424600F071F8584669464246A2
:100B600000F0C4FF2046FFF79BFCE0E700BE7047A3
:100B700000BE704700BE704700BE704700BE7047A1
:100B800000BE7047EFF3108072B6704780F3108894
:100B90007047000084B0029103788DF80F30029BFB
:100BA0000193019B03F101030193F4E70160704796
:100BB000006870470EB503FA01F303EA0203016807
:100BC0006FEA020201EA020141EA030101600EBD7F
:100BD000006800EA020020FA01F0704701807047C7
:100BE000008870470EB503FA01F303EA0203018897
:100BF0006FEA020201EA020141EA030101800EBD2F
:100C0000008800EA020020FA01F070470170704786
:100C1000007870470EB503FA01F303EA0203017886
:100C20006FEA020201EA020141EA030101700EBD0E
:100C3000007800EA020020FA01F070472DE9F00583
:100C400049F25803C2F20003984206D049F2300339
:100C5000C2F20003984200D000BE01B900BE02B942
:100C600000BE49F25803C2F20003984205D049F28F
:100C70003003C2F20003984233D1131E18BF012380
:100C800000290CBF002303F00103002B29D04FF0F3
:100C90000007B8464FF0100A03681B7D90F80AC0A1
:100CA00043EA0C0C80F80AC013F0200F17D00F2A6B
:100CB00004D95646BC4643460F4404E00AB94346AD
:100CC0000BE01646F6E70468FD5C25700CF1010C9C
:100CD00003F101039E42F6D86746C3EB0202002AE5
:100CE000DAD1BDE8F0057047F0B449F25803C2F21A
:100CF0000003984206D049F23003C2F20003984242
:100D000000D000BE01B900BE49F25803C2F2000390
:100D1000984205D049F23003C2F20003984228D12C
:100D200039B30D782DB34FF0000C66460468237D6F
:100D3000827A43EA0202827213F0200FF7D0C5B123
:100D4000334601EB0C070268EDB2157003F10103A5
:100D500003EB0C04FD5C0F2B8CBF00220122002D45
:100D60000CBF002202F00102002AECD10DB1A44612
:100D7000DCE7F0BC704700BF10B449F25803C2F280
:100D80000003984206D049F23003C2F200039842B1
:100D900000D000BE01B900BE0AB900BE36E000298D
:100DA00034D049F25803C2F20003984205D049F208
:100DB0003003C2F20003984228D1C16002614FF0B3
:100DC00000034361038919B24FEA511103F01F0375
:100DD0004FF0010202FA03F44EF20013CEF20003C8
:100DE00001F1600143F8214041F22101C2F200010A
:100DF00001624168C1F88420018908B24FEA5010AD
:100E000001F01F0102FA01F243F8202010BC7047E4
:100E100049F25803C2F20003984209D049F2300364
:100E2000C2F20003984203D000BE4FF000007047AA
:100E300003681B7D827A43EA02028272026912B160
:100E40004FF000007047C3F38010704710B40346A2
:100E500049F25800C2F20000834206D049F2300045
:100E6000C2F20000834200D000BE01B900BE02B948
:100E700000BE49F25800C2F20000834205D049F298
:100E80003000C2F2000083422AD1101E18BF012098
:100E900000290CBF002400F001040CB31C6894F876
:100EA00014C09C7A4CEA04049C721CEA000F17D010
:100EB0004FF000001C6894F800C001F800C000F179
:100EC00001001C6894F814C09C7A4CEA04049C72DB
:100ED000824294BF00240CF00104002CEAD101E00E
:100EE0004FF0000010BC704710B449F25803C2F232
:100EF0000003984207D049F23003C2F2000398423F
:100F000001D000BE22E003890FFA83FC4FEA5C1C8B
:100F100003F01F034FF0010202FA03F44EF2001334
:100F2000CEF200030CF1600C43F82C40046894F8F6
:100F300004C041EA0C012171018908B24FEA501046
:100F400001F01F0102FA01F243F8202010BC7047A3
:100F500049F25803C2F20003984207D049F2300325
:100F6000C2F20003984201D000BE704703681A79AC
:100F700022EA01021A71038918B24FEA501003F0F5
:100F80001F034FF0010202FA03F24EF20013CEF2F9
:100F9000000300F1600C43F82C200F2901BF4EF232
:100FA0000013CEF20003203043F82020704700BF2A
:100FB00008B549F25803C2F20003984207D049F23B
:100FC0003003C2F20003984201D000BE08BD03689E
:100FD0001B7A03F00F030C2B20D8DFE803F0071F68
:100FE0000D1F131F191F1F1F1F1F1300436A0BB96B
:100FF00000BE08BD984708BD036A0BB900BE08BD16
:10100000984708BDC3690BB900BE08BD984708BD25
:1010100083690BB900BE08BD984708BD00BE08BD76
:1010200010B449F25803C2F20003984206D049F2C4
:101030003003C2F20003984200D000BEC26802B979
:1010400000BE016901B900BE49F25803C2F20003B3
:10105000984205D049F23003C2F20003984230D1E1
:10106000002A2ED000292CD003681B7D827A43EA07
:101070000202827213F0200F1AD002694369C3EB97
:1010800002030F2B04D94FF0100C4FF0000302E0C5
:1010900073B19C46F9E70268C4684169615C1170EC
:1010A000426902F10102426103F101036345F2D397
:1010B000426903699A4201BF002303614268C2F892
:1010C000843010BC704700BF10B449F25803C2F21C
:1010D0000003984206D049F23003C2F2000398425E
:1010E00000D000BE01B900BEC02A00D900BE49F23E
:1010F0005803C2F20003984205D049F23003C2F20D
:10110000000398422FD1C02A8CBF0023012300295D
:101110000CBF002303F001032BB3C161036802F08D
:10112000C00242F00A021A72038919B24FEA511141
:1011300003F01F034FF0010202FA03F44EF2001312
:10114000CEF2000301F1600143F821404168C1F88B
:101150008020018908B24FEA501001F01F0102FA05
:1011600001F243F8202010BC704700BF49F2580339
:10117000C2F20003984207D049F23003C2F20003E2
:10118000984201D000BE704729B943684FF0000271
:10119000C3F81022704743684FF00102C3F81022D1
:1011A000704700BF684620F007018D4601B549F23F
:1011B0005800C2F20000FFF7FBFE4EF20013CEF221
:1011C00000034FF48062C3F88021BDE801408546EA
:1011D000704700BF684620F007018D4601B549F20F
:1011E0003000C2F20000FFF7E3FE4EF20013CEF231
:1011F00000034FF40062C3F88021BDE8014085463A
:10120000704700BF10B449F25803C2F2000398427D
:1012100006D049F23003C2F20003984200D000BE6B
:1012200001B900BE49F25803C2F20003984205D04A
:1012300049F23003C2F20003984220D1F9B1816132
:10124000038919B24FEA511103F01F034FF0010255
:1012500002FA03F44EF20013CEF2000301F1600132
:1012600043F821404168C1F88820018908B24FEA5B
:10127000501001F01F0102FA01F243F8202010BCC7
:10128000704700BF10B449F25803C2F200039842FD
:1012900006D049F23003C2F20003984200D000BEEB
:1012A00001B900BE49F25803C2F20003984205D0CA
:1012B00049F23003C2F20003984224D119B301620B
:1012C0004FF00003C3600361038919B24FEA511163
:1012D00003F01F034FF0010202FA03F44EF2001371
:1012E000CEF2000301F1600143F821404168C1F8EA
:1012F0008420018908B24FEA501001F01F0102FA60
:1013000001F243F8202010BC704700BF10B449F22E
:101310005803C2F20003984206D049F23003C2F2E9
:101320000003984200D000BE01B900BE49F2580344
:10133000C2F20003984205D049F23003C2F2000322
:10134000984220D1F9B14162038919B24FEA511193
:1013500003F01F034FF0010202FA03F44EF20013F0
:10136000CEF2000301F1600143F821404168C1F869
:101370008C20018908B24FEA501001F01F0102FAD7
:1013800001F243F8202010BC704700BF10B40346A0
:1013900049F25800C2F20000834206D049F2300000
:1013A000C2F20000834200D000BE01B900BE02B903
:1013B00000BE49F25800C2F20000834205D049F253
:1013C0003000C2F20000834226D1101E18BF012057
:1013D00000290CBF002400F00104ECB11C6894F853
:1013E00014C09C7A4CEA04049C721CF0200F13D0A9
:1013F0000F2A04D94FF010044FF0000002E058B15A
:101400001446F9E71A6811F800C082F800C000F12C
:101410000100A042F6D301E04FF0000010BC70477D
:10142000024649F25803C2F20003984209D049F239
:101430003003C2F20003984203D000BE4FF0FF0019
:1014400070471368187D937A40EA030000F09E000D
:101450004FF000039372704749F25803C2F2000341
:10146000984209D049F23003C2F20003984203D0F7
:1014700000BE4FF0FF0070470368187E704700BF42
:1014800049F25803C2F20003984209D049F23003EE
:10149000C2F20003984203D000BE4FF00000704734
:1014A00003681B7D827A43EA0202827203F06000C5
:1014B000704700BF70B504460D46164649F2580302
:1014C000C2F20003984206D049F23003C2F2000390
:1014D000984200D000BE05B900BE00F0E5FC49F21C
:1014E0005803C2F200039C4226D149F25803C2F2CB
:1014F00000034FF080421A604FF084425A604FF070
:101500000A021A8148F6AC23C2F20003186842F2BC
:101510000003CEF204031A6B42F080021A634EF20B
:101520000012CEF200024FF48061C2F880111A6BF3
:1015300022F080021A6325E040F20003C4F20103A6
:10154000236040F20003C4F2202363604FF00B03DA
:10155000238148F6B023C2F20003186842F2000368
:10156000CEF204031A6B42F480721A634EF2001238
:10157000CEF200024FF40061C2F880111A6B22F41F
:1015800080721A6323684FF000021A7115B94FF088
:1015900001050FE0B0FBF5F515F0080F4FEA151542
:1015A00018BF0135B5F5803F38BFADB202D300BEDC
:1015B0004FF0010563684FF00102C3F89C212368D6
:1015C0004FEA15221A712368EDB21D7062684FF060
:1015D0000003C2F89C312268167322684FF00E0196
:1015E00011726268C2F810322361E3606361E361E3
:1015F00041F22102C2F200022262A3616362A3727D
:1016000070BD00BF10B442F20003CEF204031A6BA7
:1016100042F480421A634FF0000348F21870C2F29D
:1016200000004FF0010C4EF20014CEF20004C25A3A
:1016300011B24FEA511102F01F020CFA02F201F14D
:10164000600144F8212003F10203402BEFD142F264
:101650000003CEF204031A6B22F480421A6310BC1A
:10166000704700BF1F2801D900BE704748F21873A9
:10167000C2F2000303EB8000036C1960704700BFE7
:101680001F2801D900BE704740F20003C4F2262390
:1016900000F5886043F82010704700BF1F2801D96B
:1016A00000BE7047012903D0E1B1022940D133E0E7
:1016B00043F20003C4F20103D3F888104FF0010293
:1016C00002FA00F242EA0102C3F8882048F21873D5
:1016D000C2F2000303EB8000036C1A6842F00402BC
:1016E0001A60704743F20003C4F20103D3F8881074
:1016F0004FF0010202FA00F221EA0202C3F8882048
:1017000048F21873C2F2000303EB8000036C1A68FE
:1017100042F004021A60704748F21873C2F20003E4
:1017200003EB8000036C1A6822F004021A60704711
:1017300000BE70471F2801D900BE704748F21873D9
:10174000C2F2000303EB8002126C116841F0080141
:10175000116033F810301AB24FEA521203F01F032F
:101760004FF0010101FA03F14EF20013CEF2000333
:1017700043F82210704700BF1F2801D900BE7047F0
:1017800048F21873C2F2000303EB8000036C1A687E
:1017900022F008021A6070471F2801D900BE704766
:1017A0004FF0010202FA00F143F20003C4F2010318
:1017B000C3F8801048F21873C2F2000333F81030F7
:1017C00019B24FEA511103F01F0302FA03F24EF26D
:1017D0000013CEF2000301F1600143F821207047AD
:1017E00010B58AB00346D8B948F2D87CC2F2000CD2
:1017F0006C46BCE80F000FC4BCE80F000FC49CE8A7
:10180000030044F8040B24F8021B4FEA1141217035
:1018100068464FF48A71FFF7BDF94FF0FF0005E00D
:101820000079C0F382004FF000021A710AB010BDB7
:10183000F0B58BB00E4617460446C0B948F2D87CC6
:10184000C2F2000C6D46BCE80F000FC5BCE80F00EB
:101850000FC59CE8030045F8040B25F8021B4FEA6E
:101860001141297068464FF0CC01FFF793F9C6B9D2
:1018700048F2D87CC2F2000C6D46BCE80F000FC5E0
:10188000BCE80F000FC59CE8030045F8040B25F8E1
:10189000021B4FEA1141297068464FF0CD01FFF756
:1018A00079F9C7B948F2D87CC2F2000C6D46BCE8A1
:1018B0000F000FC5BCE80F000FC59CE8030045F8FA
:1018C000040B25F8021B4FEA1141297068464FF0BE
:1018D000CE01FFF75FF9331E18BF0123002C0CBFA8
:1018E000002303F0010353B34FB3206800F110004D
:1018F000FFF78EF9237940EA0303237100F0020019
:10190000C0B2E0B14FF00005206800F10400FFF71D
:101910007FF9705505F10105206800F11000FFF70F
:1019200077F9237940EA03032371C0F34000AF4203
:1019300094BF002000F001000028E5D101E04FF045
:10194000000528460BB0F0BD70B58AB00E460446BF
:10195000C0B948F2D87CC2F2000C6D46BCE80F005A
:101960000FC5BCE80F000FC59CE8030045F8040B49
:1019700025F8021B4FEA1141297068464FF0F30128
:10198000FFF708F9CEB948F2D87CC2F2000C6C46D9
:10199000BCE80F000FC4BCE80F000FC49CE80300B4
:1019A00044F8040B24F8021B4FEA114121706846E9
:1019B0004FF0F401FFF7EEF815E0A4B1337893B1DE
:1019C00006F10105206800F11000FFF721F910F081
:1019D000010FF7D020683178FFF718F92E4615F877
:1019E000013B002BEED10AB070BD00BFF0B58BB04B
:1019F0000E4617460546C0B948F2D87CC2F2000C24
:101A00006C46BCE80F000FC4BCE80F000FC49CE894
:101A1000030044F8040B24F8021B4FEA1141217023
:101A200068464FF0A201FFF7B5F8C6B948F2D87C76
:101A3000C2F2000C6C46BCE80F000FC4BCE80F00FB
:101A40000FC49CE8030044F8040B24F8021B4FEA7F
:101A50001141217068464FF0A301FFF79BF8C7B909
:101A600048F2D87CC2F2000C6C46BCE80F000FC4F0
:101A7000BCE80F000FC49CE8030044F8040B24F8F2
:101A8000021B4FEA1141217068464FF0A401FFF795
:101A900081F8331E18BF0123002D0CBF002303F073
:101AA0000103EBB1E7B1286800F11000FFF7B0F8CF
:101AB00010F0010F14D04FF000042868315DFFF7DB
:101AC000A5F804F10104286800F11000FFF7A0F860
:101AD000BC422CBF002000F001000028EDD101E045
:101AE0004FF0000420460BB0F0BD00BFF0B58BB046
:101AF0000E4617460446C0B948F2D87CC2F2000C24
:101B00006D46BCE80F000FC5BCE80F000FC59CE890
:101B1000030045F8040B25F8021B4FEA1141297018
:101B200068464FF07D01FFF735F8C6B948F2D87C1A
:101B3000C2F2000C6D46BCE80F000FC5BCE80F00F8
:101B40000FC59CE8030045F8040B25F8021B4FEA7B
:101B50001141297068464FF07E01FFF71BF8C7B9A5
:101B600048F2D87CC2F2000C6D46BCE80F000FC5ED
:101B7000BCE80F000FC59CE8030045F8040B25F8EE
:101B8000021B4FEA1141297068464FF07F01FFF7B1
:101B900001F8331E18BF0123002C0CBF002303F0F3
:101BA000010393B18FB14FF00005206800F11000E0
:101BB000FFF72EF810F0010FF7D02068715DFFF7E6
:101BC00025F805F10105AF42EFD80BB0F0BD00BF1D
:101BD0002DE9F0418AB00F4616461D460446D8B995
:101BE00048F2D87EC2F2000EEC46BEE80F00ACE828
:101BF0000F00BEE80F00ACE80F009EE803004CF8B1
:101C0000040B2CF8021B4FEA11418CF800106846B7
:101C10004FF03001FEF7BEFF072D1BD948F2D87EEA
:101C2000C2F2000EEC46BEE80F00ACE80F00BEE8C2
:101C30000F00ACE80F009EE803004CF8040B2CF8F2
:101C4000021B4FEA11418CF8001068464FF0310139
:101C5000FEF7A0FFB6F5005F1BD348F2D87EC2F2B4
:101C6000000EEC46BEE80F00ACE80F00BEE80F0027
:101C7000ACE80F009EE803004CF8040B2CF8021BA4
:101C80004FEA11418CF8001068464FF03201FEF720
:101C900081FF072D8CBF00230123002C0CBF0023E4
:101CA00003F00103002B76D0B6F5005F73D207F185
:101CB00008084046F1B2FEF7A9FF06F47F4107F19C
:101CC0000C0045EA6111FEF7A1FF27604046FEF7D0
:101CD0009FFF8046206800F10C00FEF799FF074641
:101CE00000F0F80348EA43181FFA88F8B04518D006
:101CF00048F2D87CC2F2000C6E46BCE80F000FC65A
:101D0000BCE80F000FC69CE8030046F8040B26F859
:101D1000021B4FEA1141317068464FF05401FEF743
:101D200039FF07F00707AF4218D048F2D87CC2F25B
:101D3000000C6D46BCE80F000FC5BCE80F000FC5D6
:101D40009CE8030045F8040B25F8021B4FEA1141FB
:101D5000297068464FF05501FEF71CFF206800F11E
:101D60001000FEF755FF00F00203DBB283B12068DC
:101D700000F10400FEF74CFF8DF82700206800F109
:101D80001000FEF745FF00F00200C0B20028EED1BF
:101D90004FF0000323710AB0BDE8F081684620F0DF
:101DA00007018D4601B442F20003CEF204031A6D1E
:101DB00042F4E0221A65DA6C22F47C1242F47012CA
:101DC000DA641A6D22F0706242F080721A654FF088
:101DD0006402194610464B6B03F00303032B18BF34
:101DE0000246F8D1013AF6D14EF60053CEF2000386
:101DF00040F20402C0F2FA52DA6001BC8546704734
:101E0000EFF309800046704780F30988704700BFF0
:101E1000EFF308800046704780F30888704700BFE2
:101E2000EFF31280704700BF80F31188704700BF46
:101E3000EFF31080704700BF80F31088704700BF39
:101E4000EFF31380704700BF80F31388704700BF23
:101E5000EFF31480704700BF80F31488704700BF11
:101E600000BA704740BA7047C0BA704790FAA0F005
:101E7000704700BFD0E84F0FC0B27047D0E85F0F87
:101E800080B2704750E8000F704700BFC1E8400FB4
:101E9000704700BFC1E8500F704700BF41E8000025
:101EA000704700BF704700BF30B484B048F60003ED
:101EB000C2F20003EC460FCB8CE80F0042F20003A5
:101EC000CEF204039A6C02F00C0204A90A4452F800
:101ED000105C9A6CC2F3011201EB820252F8104CB2
:101EE0009A6CC2F3811201EB820252F8100CD96C89
:101EF000DB6CC1F3042101F1010113F4005F18BF91
:101F0000490040F23023C6F208031A6822F07042FA
:101F100041F2CF13C0F2A1539A4205D14EF62C7371
:101F2000C6F201031A6828E040F61C03C6F2080353
:101F30001A6844F24133C4F654439A421ED140F623
:101F40004003C6F208031A6822F07F4240F20033D1
:101F5000C0F201039A4211D9B2F5003F05D241F215
:101F60002C63C6F208031A6807E0B2F5403F05D2B9
:101F700041F6AC63C6F208031A6822B900BE47F600
:101F80004002C0F27D1248F6A823C2F200031A6094
:101F9000B2FBF5F55D60B2FBF4F49C60B2FBF0F0CF
:101FA000D860B2FBF1F119615A6104B030BC7047DE
:101FB0004FF0FF30704700BFFEE700BF4FF4005303
:101FC0004B604FF0000070474FF00100704700BFBA
:101FD0004FF00100704700BF4FF00000704700BF96
:101FE0004FF0FF30704700BF4FF00000704700BF58
:101FF0004FF400534B604FF0000070474FF0FF303C
:10200000704700BF08B500F08FF84FF00A03036077
:102010004FF0FF3008BD00BF08B500F085F84FF065
:10202000020303604FF0FF3008BD00BF08B500F0A9
:102030007BF84FF01F0303604FF0FF3008BD00BF77
:1020400008B500F071F84FF0160303604FF0FF3051
:1020500008BD00BF08B500F067F84FF00B03036040
:102060004FF0FF3008BD00BF08B500F05DF84FF03D
:102070000C0303604FF0FF3008BD00BF38B51546B4
:102080001C4648F6DC73C2F200031B6883B949F2B0
:102090005800C2F200004FF461414FF00302FFF715
:1020A00009FA48F6DC73C2F200034FF001021A602D
:1020B00049F25800C2F2000029462246FEF7BEFD52
:1020C000204638BD08B548F6DC73C2F200035B68F1
:1020D00043B948F6DC73C2F2000349F28802C2F247
:1020E00000025A6048F6DC73C2F200035A68EFF34C
:1020F0000883104483420FD24FF000004FF00101DB
:1021000048F61002C2F200024FF01903FFF7B6FFC3
:102110004FF00100FFF750FF48F6DC73C2F20003F6
:102120005860104608BD00BF48F6C423C2F2000341
:102130001868704770B548F6902648F69025C2F2A8
:102140000006C2F20005761BB61006D0002455F832
:10215000243001349847A642F9D848F6902548F62D
:102160009426C2F20005C2F20006761B06F084FC3B
:10217000B61006D0002455F8243001349847A64202
:10218000F9D870BD032A2DE9F0070BD83AB1002326
:1021900011F803C000F803C001339342F8D1BDE841
:1021A000F007704782180C46034603E014F8011C40
:1021B00003F8011C03F003061946A4460133013459
:1021C000002EF3D11CF00304634608BFC1EB020CE0
:1021D00068D06542C4F1040A0CEB050733464FEAA8
:1021E000CA0A5CF805604FEAC408551A08E057F8B7
:1021F000044F264604FA0AF449EA0404CC50043396
:102200005C18032D26FA08F9A5F104050CEB03066A
:10221000EDDC002302E0F15CE15401331919914235
:10222000F9D3BCE753F8404C41F8404C53F83C4CD0
:1022300041F83C4C53F8384C41F8384C53F8344C86
:1022400041F8344C53F8304C41F8304C53F82C4C96
:1022500041F82C4C53F8284C41F8284C53F8244CA6
:1022600041F8244C53F8204C41F8204C53F81C4CB6
:1022700041F81C4C53F8184C41F8184C53F8144CC6
:1022800041F8144C53F8104C41F8104C53F80C4CD6
:1022900041F80C4C53F8084C41F8084C53F8044CE6
:1022A00041F8044C1C460D4640334031BCF13F0F11
:1022B000ACF1400CB6DC21462B46541B0FE051F824
:1022C000105C43F8105C51F80C5C43F80C5C51F85E
:1022D000085C43F8085C51F8045C43F8045C0F2C7C
:1022E0000D469C4601F1100103F11003A4F1100406
:1022F000E5DCCCEB0201002303E0EC584CF8034092
:1023000004335E19032903EB0C04A1F10401F4DC8E
:102310007FE700BF0FB448F6C423C2F2000310B534
:102320001C6882B024B1A36913B9204602F008FFEB
:10233000204605AC049A23468168019400F09EF87B
:1023400002B0BDE8104004B0704700BF0EB410B535
:10235000044683B018B183690BB902F0F1FE204640
:1023600006AC059A23468168019400F087F803B013
:10237000BDE8104003B0704730B5044689B0084648
:102380000D4600F03DF848F628030195C2F200031F
:1023900003930290431C07930123049301AB05931D
:1023A000022306930CB1A369EBB148F6C42320467F
:1023B000C2F200031B689B689A8912F4005F01BF98
:1023C00042F400529A81596E21F40052A16808BF6C
:1023D0005A6605AA03F018F8002814BF4FF0FF3022
:1023E0000A2009B030BD204602F0AAFEDDE700BF9A
:1023F00048F6C4230146C2F200031868BCE700BFD8
:1024000020F0030110F00300C0F1000051F8043B7C
:1024100000F1040C4FEACC0C6FF000021CBF22FA52
:102420000CF213434FF0010C4CEA0C2C4CEA0C4C10
:10243000A3EB0C0222EA030212EACC1204BF51F809
:10244000043B0430F4D013F0FF0F1FBF013013F42E
:102450007F4F013013F47F0F18BF0130704700BF6A
:10246000936810B5144613B95360184610BD02F0B6
:10247000CBFF00236360A36010BD00BF2DE9F04FC8
:10248000ADF5AE6D83B00E4615469A46814603F013
:10249000ABF900681D90B9F1000F04D0D9F81830DD
:1024A000002B00F05A8148F6A803C2F200039E42B6
:1024B00008BFD9F8046010D048F6C803C2F2000380
:1024C0009E4208BFD9F8086007D048F6E803C2F278
:1024D00000039E4208BFD9F80C60B6F80CC01FFA82
:1024E0008CF313F4005F09D14CF4005C726EA6F813
:1024F0000CC01FFA8CF322F40052726613F0080F1E
:1025000001F001833269002A01F0FD8203F01A0311
:102510000A2B00F0E080002212921A9200231C92F3
:102520000DF59C641192043419920DF5A4621B936D
:1025300004320DF590632832033318920793002379
:10254000CDF84C45CDF85035CDF854352B781A1EC2
:1025500018BF0122252B0CBF002202F0010232B36A
:102560002F4617F8013F1A1E18BF0122252B0CBF5A
:10257000002202F00102002AF3D1B7EB050808BFE0
:102580003D4614D0C4F80480DDF85035DDF85425FC
:1025900001332560072B4244CDF85035CDF8542542
:1025A00078DC083411983D46404411903B78002B6C
:1025B0007CD06B1C4FF0FF372B204FF0200C0021FC
:1025C0004FF000020F918DF87725CDF82CA06A7896
:1025D0000A915D1CA2F12003582B00F28682DFE8ED
:1025E00013F0980284028402A4028402840284020A
:1025F000840284028402AD02BA028402C102CA02C9
:102600008402E702F002F002F002F002F002F002AF
:10261000F002F002F0028402840284028402840246
:102620008402840284028402840204032603840256
:10263000260384028402840284026A0384028402E0
:1026400081048402840284028402840214048402C9
:1026500084022F048402840284028402840284029D
:1026600084028402840284024F0465042603260344
:1026700026037303650484028402790384028503BC
:102680009603AD030A048402CC038402F40384029B
:102690008402C0000DF5A862484631460C32FFF7AF
:1026A000DFFE58B90DF59C6404347BE7DDF8543542
:1026B000002B41F092810023CDF85035B38913F0FF
:1026C000400F02D04FF0FF30119011985FB00DF520
:1026D000806DBDE8F08FB6F90E30002BFFF61BAF12
:1026E000376A2CF0020CD6F828E00DF58E64ADF8B0
:1026F00088C40C34B6F80EC02A46534648462146D4
:102700001FADCDF89C740027CDF88C54CDF87C54C7
:102710004FF48065CDF8A4E4ADF88AC4CDF89054A8
:10272000CDF89474CDF88454FFF7A8FE00281190DA
:1027300009DB2146484602F093FB1199B84218BFC5
:102740004FF0FF311191BDF8883413F0400FBCD029
:10275000B38943F04003B381B7E7484602F0F0FC89
:10276000A1E60A9848F6780CC2F2000C169210F016
:10277000200FCDF864C000F06E830B99CB1D23F0C1
:10278000070303F108020B92D3E900AB5AEA0B02EC
:102790000A9B0CBF00220122134240F06B860223E9
:1027A0004FF000018DF87715002FA2BFDDF828C08B
:1027B0002CF0800CCDF828C0002F18BF42F0010289
:1027C000002A00F01E84012B00F0DE85022B00F0B1
:1027D000C185189913914FEADA084FEADB0C48EAF1
:1027E0004B780AF00700E346C24630305AEA0B0243
:1027F00001F8010DEFD1DDF828C013911CF0010F95
:1028000040F08C861898401A10909DF87735109AF1
:102810001797BA42B8BF3A460C9213B10C9A0132DC
:102820000C920A9B0A9813F0020315931EBFDDF861
:1028300030C00CF1020CCDF830C010F084001490C0
:102840004DD10F990C9A8F1A002F48DD102F48F6A2
:102850003408D8BFC2F2000830DDC2F200080DF51E
:10286000A86B43464FF0100AA8460BF10C0B1D460F
:1028700002E0103F102F1EDDC4F804A0DDF8503533
:10288000DDF85425013325601032072BCDF854258F
:1028900004F10804CDF85035EBDD0DF59C64484695
:1028A00031465A460434FFF7DBFD00287FF406AFBB
:1028B000103F102FE0DC2B46454698466760DDF858
:1028C0005035C4F800805A1CDDF85435CDF8502539
:1028D000DB19072ACDF8543500F38A8508349DF8B2
:1028E00077359BB101236360DDF850350DF5AE629D
:1028F00007322260DDF854250133CDF8503501321E
:10290000072BCDF8542500F3B6840834159B9BB1F2
:1029100002236360DDF850350DF5AE6204322260AB
:10292000DDF854250133CDF850350232072BCDF8B0
:10293000542500F3AF840834DDF850C0BCF1800F9B
:1029400000F07683179B109A9F1A002F43DD102FFB
:10295000DFF88C8B2EDD43460DF5A86BA8464FF0B3
:10296000100A0BF10C0B1D4602E0103F102F1EDD6C
:10297000C4F804A0DDF85035DDF854250133256096
:102980001032072BCDF8542504F10804CDF850354A
:10299000EBDD0DF59C64484631465A460434FFF79A
:1029A0005FFD00287FF48AAE103F102FE0DC2B463D
:1029B000454698466760DDF85035DDF8542501330B
:1029C000C4F80080D219072BCDF85425CDF8503526
:1029D00000F342840834DDF828C01CF4807F40F006
:1029E0009D82109813996060DDF85035DDF854250C
:1029F000013321601218072BCDF85035D8BF04F1F0
:102A00000803CDF8542500F39B830A9911F0040FB5
:102A100055D00F9ADDF830C0CCEB0207002F4EDD09
:102A2000102F48F63408D8BFC2F200082EDDC2F2DB
:102A300000080DF5A86A42461024A8460AF10C0ABF
:102A4000154602E0103F102F1DDD5C60DDF85025BB
:102A5000DDF8541501321D601031072ACDF85415E8
:102A600003F10803CDF85025ECDD484631465246C7
:102A7000FFF7F6FC0DF59C63043300287FF41EAECF
:102A8000103F102FE1DC2A46454690465F60DDF896
:102A90005025C3F80080DDF854350132CDF85025BB
:102AA000FB18072ACDF854350BDD0DF5A862484612
:102AB00031460C32FFF7D4FC00287FF4FFADDDF87F
:102AC000543511980C9A0F998A42ACBF801840185F
:102AD0001190002B40F042830DF59C640023DDF83B
:102AE0002CA00434CDF8503530E51692002A3FF47E
:102AF000DDAD0DF5A46001234FF0000C04300C9304
:102B00008DF824258DF877C5139010930021179127
:102B100087E69DF87735002B40F02B850B992B46E7
:102B20008DF877C52A780B9153E50B990A9B43F0F2
:102B300001030A932B462A780B914AE50B990B9ACD
:102B400009680F91111D0F9B002BC0F280872A7816
:102B50002B460B913DE50B992B468DF877052A788E
:102B60000B9136E50B990A9B43F004030A932B461D
:102B70002A780B912DE52B4613F8012B2A2A01F018
:102B8000CD80A2F13001092901F2378002350027FA
:102B900015F8012C07EB87072B46013501EB47079A
:102BA000A2F130010929F3D947EAE7771D4611E57B
:102BB0000B992B460A9A42F080020A922A780B91CE
:102BC00007E5A2F130014FF000082B4608EB88081A
:102BD00013F8012B01EB4808A2F130011D46092929
:102BE000F3D9CDF83C801D46F4E40A9B169243F0DD
:102BF00010030A93DDF828C01CF0200F00F05D815F
:102C00000B98C31D23F0070303F108010B91D3E9CF
:102C100000ABBAF1000F7BF10002C0F29B845AEACC
:102C20000B034FF001030CBF00220122BCE50A9800
:102C3000169210F0080F00F0ED840B99CB1D23F0D5
:102C4000070303F108020B92D3F80480D3F800A025
:102C5000CDF86C80CDF848A05046414604F0D2F83B
:102C60008346002800F09985504600220023414603
:102C700005F01EF9002840F00B859DF8773548F6E1
:102C80006C0148F668021698C2F20001C2F2000216
:102C90004FF0030C4728D8BF114613910A99CDF87D
:102CA00030C021F08001CDF840C00A914FF0000CF7
:102CB000CDF85CC0B1E50B990A9B43F008030A9379
:102CC0002B462A780B9184E40A9941F040010A913D
:102CD0000B993CE72A786C2A00F055850B990A9BE2
:102CE0000B9143F010030A932B4672E40A9A12F0F8
:102CF000200F00F082840B98119A036810464FEA67
:102D0000E0710B9AC3E9000102F1040A1EE4169275
:102D10000A9A12F0200300F0EF800B9BDA1D0023CB
:102D200022F0070202F1080CCDF82CC0D2E900AB6A
:102D30005AEA0B000CBF0022012231E50B987821E2
:102D4000DDF828C01691036848F678008DF87515EF
:102D500030218DF874154CF0020C0B991A1E18BF17
:102D60000122C2F200009A464FF0000B0431CDF868
:102D700028C0199002230B9112E50B9B16924FF07D
:102D80000002181D8DF877251B680B901393002BFC
:102D900000F0C686002F1398C0F28F8600213A46B5
:102DA00003F0A6F80346002800F0F58613981B1AD6
:102DB0001093BB4240F3BE851097002127EAE777C6
:102DC0009DF877350C97179127E5DDF828C0169206
:102DD0001CF0200F23D00B980123C21D22F0070204
:102DE00002F108010B91D2E900AB5AEA0B020CBFC9
:102DF00000220122D4E40A992B4641F020010A91D5
:102E00000B992A780B91FFF7E4BB0A9B169243F0CB
:102E100010030A93DDF828C01CF0200FDBD10A9BB9
:102E200013F0100F00F0D5830B980123021D0B92B5
:102E300001680A1E18BF01228A464FF0000BAFE45A
:102E40000A98169248F6540210F0200FC2F20002BF
:102E500019927FF492AC0A9B13F0100F40F01A8382
:102E60000A9A12F0400F00F015830B9B03F1040C3B
:102E7000CDF82CC0B3F800A0D2464FF0000B85E48B
:102E800016920DF5A4610B9A4FF0010C4FF0000063
:102E90000431CDF830C0136804328DF877050B92F9
:102EA0001391CDF840C08DF824352FE6DDF828C009
:102EB00016921CF0200F7FF4A3AE0A9A12F0100FA6
:102EC00040F0F1820A9A12F0400F00F0EC820B9B66
:102ED00003F1040CCDF82CC0B3F900A0D2464FEAA0
:102EE000EA7B96E60A99169241F010010A910A9A35
:102EF00012F020037FF411AF0A9911F0100200F0D4
:102F000054830B9A02F1040CCDF82CC011680A1EF0
:102F100018BF01228A464FF0000B41E4169A652A39
:102F200040F328811298002200231B9904F0B6FF79
:102F3000002800F0BE8101236360DDF8502548F6CB
:102F40009403C2F200032360DDF854350132CDF85A
:102F500050250133072ACDF85435D8BF04F10803B2
:102F600000F39B83DDF870251A98824204DB0A99EE
:102F700011F0010F3FF449AD01225A60DDF85025F0
:102F8000DDF8541501321D980131072ACDF854158A
:102F90001860CDF8502500F35F8508331A994F1E4D
:102FA000002F7FF732AD102FDFF8348540F3EA822F
:102FB00042460DF5A86AA84610240AF10C0A1546E7
:102FC00003E0103F102F40F3DA825C60DDF85025FB
:102FD000DDF8541501321D601031072ACDF8541563
:102FE00003F10803CDF85025EBDD48463146524643
:102FF000FFF736FA0DF59C6304330028E1D0FFF7A4
:103000005DBB7BB90A9911F0010F0BD00DF5A462DD
:10301000302304328DF84B3527320123139210935D
:10302000FFF7F3BB1898002110911390FFF7EDBB49
:103030000F980C99471A002F7FF784AC102FDFF8F8
:10304000A0842EDD43460DF5A86BA8464FF0100A6C
:103050000BF10C0B1D4602E0103F102F1EDDC4F8D3
:1030600004A0DDF85035DDF8542501332560103219
:10307000072BCDF8542504F10804CDF85035EBDDCD
:103080000DF59C64484631465A460434FFF7E8F98A
:1030900000287FF413AB103F102FE0DC2B46454691
:1030A00098466760DDF85035C4F800805A1CDDF89A
:1030B0005435CDF85025DB19072ACDF8543500F3E7
:1030C0003A8208343EE413996360DDF850252160AC
:1030D000DDF854150132CDF85025CB18072ACDF86C
:1030E000543500F3498508341D9A0123DDF87075C5
:1030F0006360DDF850352260DDF854250133CDF8EA
:1031000050350132072BCDF85425D8BF04F1080300
:1031100000F323851398DDF87025C7191A981F60EE
:10312000811A5960DDF854158A1ADDF85015121805
:10313000CDF854250131CDF85015072940F33282DE
:103140000DF5A862484631460C32FFF789F9002890
:103150007FF4B4AA0DF59C63043356E40DF5A86220
:10316000484631460C32FFF77BF900283FF4B4ACF7
:10317000FFF7A4BA1A9901294CDD01236360DDF839
:103180005035DDF85425013313980132072BCDF863
:1031900054252060CDF8503500F3B2810834012366
:1031A0006360DDF85035DDF8542501331D99013297
:1031B000072BCDF854252160CDF8503500F39281CE
:1031C00008341298002200231B9904F067FE00289F
:1031D00040F01D811A9B13985A1E6260DDF850352D
:1031E000411C2160DDF854150133CDF850358A18A3
:1031F000072BCDF8542521DC08341C9B0DF5AC625F
:103200001C9822606360DDF85035DDF854250133E9
:10321000FFF7F0BB0A9A12F0010FAED1139A012307
:103220006360DDF850352260DDF854250133CDF8B8
:1032300050350132072BCDF85425DDDD0DF5A862A0
:10324000484631460C32FFF70BF900287FF436AAC6
:103250000DF59C640434D0E70DF5A862484631466C
:103260000C32FFF7FDF800287FF428AA0DF59C64C6
:103270000434FFF7B0BB0DF5A862484631460C3266
:10328000FFF7EEF800287FF419AA0DF59C640434CA
:10329000FFF73CBB0DF5A862484631460C32FFF7FC
:1032A000DFF800287FF40AAA0DF59C640434FFF7C8
:1032B00043BBDDF87035002B40F3FD811A998B423A
:1032C000FFF601AF139A6160DDF850352260DDF83A
:1032D00054250133CDF850355218072BCDF854251D
:1032E000D8BF04F1080300F32984DDF870451A986B
:1032F000241A002C40F3B381102CDFF8E48140F352
:103300009D8142460DF5A86AA84610270AF10C0ACD
:10331000154603E0103C102C40F38D815F60DDF812
:103320005025DDF8541501321D601031072ACDF803
:10333000541503F10803CDF85025EBDD484631461E
:103340005246FFF78DF80DF59C6304330028E1D059
:10335000FFF7B4B9189A1998134613920AF00F029E
:103360004FEA1A1141EA0B714FEA1B1C825C8A4634
:10337000E3465AEA0B0C03F8012DEFD1189813938A
:10338000C01A1090FFF741BA09220023524573EB8F
:103390000B00DDF860801FD223464446B8461F4626
:1033A000504659460A22002304F0D2FD002350461D
:1033B000594602F1300C0A2204F801CD04F0C8FD90
:1033C0000922002382468B46524573EB0B03E7D359
:1033D0003B464746A0461C4608F1FF300AF1300A3A
:1033E000139008F801AC1899091A1091FFF70DBA5B
:1033F0000DF5A862484631460C32FFF731F8002837
:103400007FF45CA90DF59C640434FFF768BA1A993F
:103410004F1E002F7FF7F1AE102FDFF8C4804EDD76
:1034200043460DF5A86BA8464FF0100A0BF10C0BA4
:103430001D4602E0103F102F3EDDC4F804A0DDF869
:103440005035DDF85425013325601032072BCDF8B7
:10345000542504F10804CDF85035EBDD0DF59C64DE
:10346000484631465A460434FEF7FAFF0028E1D0B8
:10347000FFF724B916983021DDF828C00122022375
:103480008DF874154CF0020C8DF87505CDF828C038
:10349000FFF786B90B98011D03680B919A464FF010
:1034A000000BFFF773B90B98011D03680B919A4647
:1034B0004FEAEA7BFFF7ADBB2B464546984667606F
:1034C000DDF85035DDF854250133C4F80080D219F9
:1034D000072BCDF85425CDF850357FF78DAEADE6EE
:1034E000448800200DF5A862484631460C32FEF7AC
:1034F000B7FF00287FF4E2A80DF59C64043460E671
:103500000DF5A862484631460C32FEF7A9FF0028A7
:103510007FF4D4A80DF59C64043440E6302800F014
:10352000EC821398302300F8013D18991390091A82
:103530001091FFF76AB90DF5A862484631460C3282
:10354000FEF78EFF00287FF4B9A80DF59C640434C3
:10355000FFF7F8B9DAF1000A6BEB4B0B2D235AEAAF
:103560000B0C8DF877350CBF002201220123FFF7E9
:103570001BB90B992B462A780B91FFF72AB82A46DC
:10358000454690465F60DDF85025DDF85415013260
:10359000C3F80080C919072ACDF85415CDF8502575
:1035A0003FF7CEAD0833FFF730BA0A9810F040036A
:1035B00000F0ED810B9913460A1D0B92B1F800A0A3
:1035C000BAF1000218BF0122D2464FF0000BFFF7FC
:1035D000E7B80A9B13F0400F00F0CC810B98012351
:1035E000011D0B91B0F800A0BAF1000218BF012232
:1035F000D2464FF0000BFFF7D3B80A9B13F0100F21
:1036000000F0A4810B98119900F1040A0368196075
:10361000FEF79CBF0B98C31D23F0070303F10801BD
:103620000B91D3F80480D3F800A0CDF86C80CDF8CE
:1036300048A0FFF711BB2A46454690465C60DDF87E
:103640005025DDF854150132C3F800800919072A06
:10365000CDF85415CDF8502500F3EA8208330A99C5
:1036600011F0010F3FF4D1A901225A60DDF8502575
:10367000DDF8541501321D980131072ACDF8541593
:103680001860CDF850253FF75BAD0833FFF7BDB9A3
:103690002D238DF87735FFF7F2BA0DF5A86248466D
:1036A00031460C32FEF7DCFE00287FF407A80DF54A
:1036B0009C63043356E401236360DDF8502548F62B
:1036C0009403C2F200032360DDF854350132CDF8D3
:1036D00050250133072ACDF85435D8BF04F108032B
:1036E00000F38781DDF870253AB91A9A2AB9DDF816
:1036F00028C01CF0010F3FF488A901225A60DDF8B0
:103700005025DDF8541501321D980131072ACDF8F6
:1037100054151860CDF8502500F379810833DDF891
:1037200070757F42002F40F3B381102FDFF8508671
:1037300040F3D28142460DF5A86AA84610240AF14A
:103740000C0A154603E0103F102F40F3C2815C6065
:10375000DDF85025DDF8541501321D601031072ABF
:10376000CDF8541503F10803CDF85025EBDD48469C
:1037700031465246FEF774FE0DF59C630433002873
:10378000E1D0FEF79BBF0B996B1C0A9A42F0200216
:103790000A926A780B91FEF71CBF5046414603F02F
:1037A00043FB002840F0FF80B7F1FF3F00F051825B
:1037B0001698672814BF00230123472808BF43F049
:1037C000010313B1002F08BF01270DF5AB6043467D
:1037D00052460A99C0E90023DDF85C3541F4807156
:1037E0000A91002BC0F26482002117911698662876
:1037F00014BF00230123462808BF43F001031093A0
:10380000002B00F0D181BC460323CDF830A00DF58C
:10381000AE61CDF834804846009302910DF5AC615D
:10382000DDE90C230C31CDF804C003910DF5AD6139
:10383000CDF824C0049100F0C7FB169ADDF824C02F
:10384000B2F1670318BF0123472A0CBF002303F01E
:103850000103139033B90A9B13F0010F08BFDDF881
:1038600068B516D01398109900EB0C0B31B10378A2
:10387000302B00F0DA80DDF870359B445046002292
:103880000023414604F00AFB002800F0C281CDF875
:1038900068B5169A1398672A14BF00230123472A94
:1038A00008BF43F00103C0EB0B001A90002B00F09F
:1038B0008A81DDF8701511F1030F109102DB8F4240
:1038C00080F28C81169A023A16921099169A4B1E23
:1038D000CDF87035002B8DF86025C0F234822B2294
:1038E0008DF86125092B00F3B6810DF5AC623033FC
:1038F00004328DF8633530238DF862350DF5AC63F5
:103900001A981A99D31A18181C930129109040F389
:10391000108210980130109020EAE0710C911798F5
:10392000002800F06E812D2300218DF87735179146
:10393000FEF774BF109A4FF0000C9DF8773522EA1D
:10394000E272CDF85CC00C92FEF767BF0A9A12F0E3
:10395000400F17BF0B980B9A119900F1040A11BF81
:10396000036802F1040A1368119814BF19801860E3
:10397000FEF7ECBD0B9A131D0B93116801230A1E71
:1039800018BF01228A464FF0000BFEF709BF0B98C3
:10399000021D0B9201680A1E18BF01228A464FF0D1
:1039A000000BFEF7FDBE48F6740248F67003169948
:1039B000C2F20003C2F2000203204729D8BF1A4610
:1039C00013920A9A0C9022F08002CDF85CB00A9211
:1039D0009DF877351090FEF720BF0DF5A862484698
:1039E00031460C32FEF73CFD00287EF467AEFEF750
:1039F00062BE0DF5A862484631460C32FEF730FD36
:103A000000287EF45BAE0DF59C6304336AE60DF589
:103A1000A862484631460C32FEF722FD00287EF4AB
:103A20004DAE0DF59C63043379E650460022002329
:103A30004146CDF824C004F031FADDF824C0002856
:103A40007FF419AFCCF10103CDF8703515E70F9A6B
:103A500052420F92FFF787B80DF5A86248463146EB
:103A60000C32FEF7FDFC00287EF428AE0DF59C63B9
:103A70000433FFF793BA0DF5A862484631460C327D
:103A8000FEF7EEFC00287EF419AE0DF59C630433BE
:103A90001A9913985960DDF85025DDF8541518600F
:103AA00001321A98CDF850250918072ACDF8541577
:103AB0003FF746AB0833FEF7A8BF00211791FEF78A
:103AC0009FFC9DF8773520EAE07210900C92FEF78B
:103AD000A4BE2A46454690465F60DDF85025DDF8D5
:103AE00054150132C3F80080C919072ACDF85415BE
:103AF000CDF85025BFDC0833CAE7189A1399511A3C
:103B00001091FEF782BE4846314600F049F9002880
:103B10007EF4D8ADB6F80CC01FFA8CF3FEF7F6BCF5
:103B2000062F28BF062748F68C01C2F2000127EABB
:103B3000E772109713910C92FEF7E8BF0DF5A8629B
:103B4000484631460C32FEF78BFC00287EF4B6ADB9
:103B50000DF59C630433FFF7C8BB0DF5A86248461A
:103B600031460C32FEF77CFC00287EF4A7AD0DF543
:103B70009C630433FFF7CEBA0DF5A8624846314680
:103B80000C32FEF76DFC00287EF498AD0DF59C64B8
:103B90000434FFF7A9BA109727EAE77717900C9734
:103BA0009DF87735FEF739BE1699652914BF0023B5
:103BB0000123452908BF43F00103002B46D007F13C
:103BC000010C022321E6169B652B76DD169A662AE8
:103BD0001CBFDDF87035109300F083801A9B10989D
:103BE00083426EDC0A9911F0010F40F08E8020EACA
:103BF000E07267230C92169391E600271D46FEF7AC
:103C0000E9BC10999DF8773521EAE1710C91FEF736
:103C100004BEDDF868359B4598BF9B467FF639AEFC
:103C2000302203F8012B9B45CDF86835F9D830E6F2
:103C30000DF5A862484631460C32FEF711FC00280B
:103C40007EF43CAD0DF59C63043308E5BC460233BD
:103C5000DBE50737B9E546F2676C0DF59061033196
:103C6000C6F2666C8CFB0320DA17C2EBA00202EBF3
:103C70008200A3EB400013463030092A01F8010D01
:103C8000F0DC3033481EDAB201F8012C079B834286
:103C90006AD90DF5AC63033301E011F8012B03F889
:103CA000012C1A46DDF81CC001338C45F5D825E6F9
:103CB0002D2208F10048179298E5DDF87005109064
:103CC00003E6109B1A99002BDABF1098C0F102038B
:103CD00001235B186722109323EAE37316920C9377
:103CE0001DE6DDF870050028109031DD1FB90A9936
:103CF00011F0010F0ED0109866211691431CDB19AC
:103D0000109323EAE3720C9209E61098672116914A
:103D10000130109020EAE0720C9200E60B991A78BC
:103D20000F6804310B91002FB8BF4FF0FF37FEF73B
:103D300050BC0A9A12F0010F04BF20EAE0730C9302
:103D40003FF4EDADE5E52D225B428DF86125C9E537
:103D500077B90A9B13F0010F0AD14FF0010CCDF88F
:103D600030C0CDF840C0DAE50DF5AC620232C5E5F1
:103D70000237662127EAE772109716910C92CEE57A
:103D80004488002010B448F6C424C2F200048C46D3
:103D9000134601466246206810BCFEF76FBB00BFA9
:103DA00070B548F6C425C2F2000506460C462868E0
:103DB00010B18369002B36D048F6A803C2F2000385
:103DC0009C4238D048F6C803C2F200039C4241D05E
:103DD00048F6E803C2F200039C4204BF2B68DC688B
:103DE000A289114693B213F0080F184618BF226932
:103DF00033D01AB313F0010107D063690021A16029
:103E00005B42A36142B1002070BD13F0020F08BFF6
:103E10006169A160002AF6D1A38913F0800FF2D066
:103E20004FF0FF3070BD01F08BF948F6A803C2F2E5
:103E300000039C42C6D12B685C68D1E703F4207173
:103E4000B1F5007FD6D03046214601F001FDA389AF
:103E50002269CFE72B689C68C2E713F0100FDFD010
:103E600013F0040F08BF226917D0616B51B104F140
:103E70004403994203D0304601F0E6F9A28990B29A
:103E80000023636322694FF6DB71C0F20001002357
:103E900000EA01016360A181226041F00803A3816F
:103EA0009BB2A6E7000000002DE9F84F03690E69F8
:103EB000824689469E4200F38380F21C01F114057C
:103EC00000F11404013E92008B18121803F104084B
:103ED00059685068013103F083FA0746002839D049
:103EE00000239C461A46E958E0581FFA81FE4FEA23
:103EF000114B81B20EFB07CE51180BFB07FC0CEBEC
:103F00001E4C1FFA8EFECEEB01011FFA8CF24FEA17
:103F10001C4CC2EB10421FFA81FE02EB21424EEA1A
:103F20000241E1500433121459198845DBD2321D85
:103F30000AEB8203596869B99C4209D25AF82220D7
:103F400012B105E01A681AB9043B013E9C42F9D34C
:103F5000CAF810604946504602F020F900282CDBD0
:103F6000002301379C46EA58E05891B2120C1FFA20
:103F700080F9C2EB1042C1EB0901614402EB21421E
:103F800089B241EA0241E15004334FEA224C5A1906
:103F90009045E8D2321D0AEB8203596869B99C4208
:103FA00009D25AF8222012B105E01A681AB9043B66
:103FB000013E9C42F9D3CAF810603846BDE8F88F3C
:103FC0000020BDE8F88F00BF2DE9F04F466AA1B090
:103FD0000446904699462D9D002E00F023843268B9
:103FE00082B1616A4FF0010C766820460B6856601A
:103FF0004A6819460CFA02F29A6002F009FA636AFA
:1040000000221A60B9F1000638DB00232B6040F271
:104010000003C7F6F0731A4606EA0303934217D06B
:104020000022002340464946CDE9068903F036FFC9
:10403000002829D02C9801232E990360002900F034
:10404000D080794B581E2E9A136021B0BDE8F08FB6
:104050002C9842F20F730360B8F1000F00F09580C6
:1040600048F6A400C2F200002E990029EDD0C278D3
:10407000C31C002AE7D000F10803E4E726F000465D
:104080000123B1462B60C2E72046DDE906231EA9C5
:1040900000911FA9019102F00DFAC6F30A5583465B
:1040A000002D7ED0DDE90601A5F57E751F9F073D39
:1040B00021F07F4323F4700343F07E51002341F449
:1040C000E001199340F200030022C3F6F87303F0F5
:1040D000C9FA4FA3D3E9002303F078FC4EA3D3E938
:1040E000002303F0C1FACDE90801284603F008FCDB
:1040F0004BA3D3E9002303F069FC02460B46DDE93C
:10410000080103F0B1FACDE9080103F0F9FE00223D
:1041100000230646DDE9080103F0CAFE40B130463F
:1041200003F0EEFBDDE9082303F0B8FE00B9013E21
:10413000162E5BD901231893013FB7EB050A42BF46
:10414000CAF1000ACDF83CA04FF0000A01D40022C9
:104150000F92002EC0F27183B2440023179615937C
:104160002A9B092B62D8052B40F377862A980027D3
:1041700004382A902A998B1E032B00F2DD83DFE896
:1041800013F0A503D803D503C40326F07F4626F415
:104190007006002E7FF464AF48F69800C2F200006B
:1041A00062E71F9F1E9BFB1803F586639D1C202D55
:1041B000DCBFC5F1200008FA00F008DD1E3BC5F1A8
:1041C000400216FA02F228FA03F342EA030003F06F
:1041D00087FBA5F586650122033D1992A1F1F871CF
:1041E00070E748F69400C2F200002EE748F650133C
:1041F000DDE90601C2F2000303EBC603D3E90023A5
:1042000003F056FE002840F02083189094E700BF8A
:1042100061436F63A787D23FB3C8608B288AC63FCC
:10422000FB799F501344D33F9588002000234FF023
:10423000FF301F4601212A931190169108902B936D
:10424000656A00236B602046696802F0FDF8636AC6
:1042500028601B681093002F00F05B81002E40F354
:104260002A8448F6501306F00F02C2F200033511FB
:1042700003EBC20315F0100FD3E90001CDE90C01E7
:1042800000F0E78248F62823DDE90601C2F20003C8
:1042900005F00F054FF00308D3E9082303F0C0FC35
:1042A000CDE91201BDB148F62827DDE90C23C2F2A1
:1042B000000715F0010F1046194607D0D7E9002373
:1042C00008F1010803F082FB02460B4608376D1027
:1042D000EFD1CDE90C23DDE90C23DDE9120103F078
:1042E0009FFCCDE90C011899002900F0DE8040F216
:1042F0000003DDE90C010022C3F6F0734FF0000566
:1043000003F0D6FD08B14FF00105089A002AD4BF8A
:10431000002505F00105002D00F0C780119B002B42
:1043200040F3F58040F200030022C4F22403DDE9EB
:104330000C0103F04BFBCDE90C0108F10100711EEB
:10434000129103F0DDFA02460B46DDE90C0103F0A1
:104350003DFB40F200030022C4F21C0303F084F989
:10436000DDF844C08046A1F15079169B002B00F087
:10437000AD8348F6501340F20001C2F20003002062
:1043800003EBCC03C3F6E071CDF80CC053E9022374
:1043900003F046FC42464B46109D03F063F980460D
:1043A0008946DDE90C0103F0ABFD074603F0A8FAEE
:1043B00002460B46DDE90C0103F054F907F1300326
:1043C000CDE90C01404605F8013B4946DDE90C23E7
:1043D00003F08CFD002840F0138240F20001DDE97B
:1043E0000C230020C3F6F07103F03CF902460B46A3
:1043F0004046494603F07AFDDDF80CC0002840F045
:10440000E783BCF1010F40F38280CDF868B001274B
:10441000CDF870A01D966646DDE90CAB0C9410E05B
:1044200040F200010020C3F6F07103F01BF9424690
:104430004B4603F03DFD002840F0C783B74280F2B1
:104440008B8440F20003404649460022C4F2240314
:10445000013503F0BBFA40F200030022C4F224034A
:10446000804689465046594603F0B0FA8B4682464C
:1044700003F046FD044603F043FA303402460B468F
:104480005046594603F0EEF8109A4B46D455424632
:10449000013782468B4603F00BFD52465B460028EF
:1044A000BED0DDF868B00C9CAAE1404603F028FAC3
:1044B000DDE90C2303F08AFA40F200030022C4F283
:1044C0001C0303F0D1F8089AA1F150758046A94663
:1044D000002A40F0EC8240F20003DDE90C010022EA
:1044E000C4F2140303F0BEF842462B46CDE90C019A
:1044F00003F0FCFC002840F04A824246DDE90C0152
:1045000005F1004303F0D4FC002840F0D581DDE93B
:1045100006891E9B6FEA03074FEAD7770E2ECCBFA2
:10452000002707F00107002F00F0B7802B9848F60E
:104530005013C2F20003089903EBC603C20F00290F
:10454000CCBF002202F00102D3E90001CDE9040151
:10455000002A40F0A08102460B464046494603F03F
:104560005FFB109D03F0CCFC824603F0C9F9DDE946
:10457000042303F02BFA02460B464046494603F05B
:1045800071F80AF1300305F8013B089A012A8046C8
:10459000894652D040F200030022C4F2240303F003
:1045A00015FA00220023CDE9060103F077FC00286C
:1045B00040F0EB8110984FF00108CDF82CB0A346E5
:1045C000871C0F96DDF82090DDE906450AE003F030
:1045D000FDF90022002304460D4603F05FFC00288D
:1045E00040F0CE81DDE904232046294608F1010888
:1045F00003F016FB3E4603F083FC824603F080F98D
:10460000DDE9042303F0E2F902460B462046294681
:1046100003F028F800220AF1300C07F801CC01372A
:10462000C14540F20003C4F22403D0D135465C46B4
:104630000F9E8046DDF82CB0894642464B464046E8
:10464000494603F011F8804689464246DDE90401F7
:104650004B4603F02DFC60B9DDE9040142464B46B0
:1046600003F01CFC002800F090811AF0010F00F00C
:104670008C81109900E01D4615F8012C6B1E392A1B
:1046800040F067838B42F6D11099302301363122F6
:104690000B70109B1A701296B2E0169A002A40F026
:1046A000DF80159F0F9D0C92002DD4BF00230123A6
:1046B000BAF1000FD4BF002303F001034BB1AA45A8
:1046C000B4BF53462B460F98C3EB0A0AED1AC01A23
:1046D0000F90159900291CDD169A002A00F0E98236
:1046E000002F12DD0C993A46204602F00DF95A4689
:1046F0000C9020460C9902F01FF8594603462046BC
:10470000039301F085FE039B9B46159BDA1B40F04B
:1047100011830121204602F0A9F80690179800287D
:1047200005DD06992046179A02F0EEF806902A99C0
:10473000012940F30A810027179B002B40F061827A
:104740000123534413F01F0340F02A811C230F9AC6
:104750009A44ED18D2180F920F9B002B05DD594695
:104760001A46204601F08AFF8346BAF1000F05DDA4
:1047700006995246204601F081FF069018980028BD
:1047800040F029822A9808990228D4BF00230123E7
:104790000029CCBF002303F00103002B00F00C81A3
:1047A000002940F08C8005220699089B204602F0E3
:1047B00067F806905846069901F0F0FC00287EDD67
:1047C000109D01360027DDF830A0312305F8013BAC
:1047D0000699204601F01CFEBAF1000F00F0D580CA
:1047E0003B1E18BF012357450CBF002303F00103F4
:1047F000002B40F0D0805146204601F009FE129671
:104800002046594601F004FE129A531C00222A70D9
:104810002C982E990360002900F0D4812E9A1098CC
:10482000156012E4102001F089F8C66046608660C9
:10483000066006466062FFF7D2BB0F987142002205
:104840001591801B17920F908AE40021013E189168
:1048500072E4DDE906234FF00208CDE9122321E5D9
:104860002A98012840F36C82089A1598531E9842A2
:10487000C0F25882C71A089B002BA8BF0F9DC0F238
:1048800073820F9A204601219A44D2180F9201F0A8
:10489000EDFF0C9008E7089B73B940F2000300227B
:1048A000C4F21403DDE9040103F090F842464B46DC
:1048B00003F012FB00286AD0002206920C922B9B78
:1048C0000027DDF830A0DE43109D81E7002116911E
:1048D0002B98002840F39F812B9801461190089057
:1048E000656A002217296A6040F2AB8204235B00EC
:1048F000013203F114008842F9D9089B6A600E2B3B
:104900008CBF002707F001079DE4012216922B9B24
:10491000F3181193591C0029C8BF0891E0DC0E2937
:104920008CBF002707F00107089189E40123169343
:10493000CEE700221692EAE74FF0FF33002701206E
:104940001193169008932B977AE4B8F1000F7FF437
:10495000F2AE29F07F4323F47003002B7FF4EBAE1B
:1049600040F20003C7F6F07309EA0303002B3FF49B
:10497000E2AE0F9A0AF1010A012701320F92DBE63B
:1049800035465C460F9EDDF82CB0129638E70020C5
:1049900006900C9014E73946204601F039FD2AE7CD
:1049A000C3F12003042B40F354820F99043B9A4433
:1049B000ED18C9180F91CFE61699002900F0318142
:1049C000002D05DD0C992A46204601F057FE0C907B
:1049D000002F40F0EA81DDF830A0109D012308F09F
:1049E00001000C9F11900F951D460C960699584694
:1049F000FFF75AFA394630300B90584601F0CEFB9B
:104A0000069952460646204601F0BCFDC368804622
:104A1000002B3DD04FF001094146204601F0F8FC43
:104A20002A9959EA010103D1119A002A00F0EB8179
:104A3000002EC0F29E812A9A324303D1119B002B93
:104A400000F09781B9F1000F00F3CE810F990B9A16
:104A500001F8012B089B0F919D4200F0C28159463D
:104A60000A220023204601F00BFF574539468346B2
:104A700014D00A2200232046013501F001FF5146DF
:104A80000A2200230746204601F0FAFE8246ADE7DF
:104A90005846414601F082FB8146BDE720460A2286
:104AA0000023013501F0ECFE074682469EE7129690
:104AB000DDF820C059E47542002D40F00181DDE9A8
:104AC00006014FF00208CDE90C010CE448F6501144
:104AD0004246C2F200014B4601EBCC01CDF80CC0BE
:104AE000109D51E9020102F071FFCDE91A01DDE9E3
:104AF0000C0103F005FA074602F002FF0B460246DE
:104B0000DDE90C0102F0AEFD07F13003CDE90C0147
:104B100005F8013BDDF80CC0BCF1010F29D0D146EE
:104B2000DDE90C01B246109E1C9501276546A046A2
:104B300040F200030022C4F2240302F047FFCDE953
:104B40000C0103F0DDF9044602F0DAFE30340246CF
:104B50000B46DDE90C0102F085FDF4550137AF424B
:104B6000E6D11C9D013F56464446CA46ED19CDE9A3
:104B70000C0140F200030022C3F6E073DDE91A01E4
:104B800002F072FD02460B46DDE90C0103F0AEF9BE
:104B9000F0B940F20001DDE91A230020C3F6E0710C
:104BA00002F060FD02460B46DDE90C0103F080F9DE
:104BB00000283FF4ACAC2B461D4613F8012D302ADB
:104BC000FAD01DE61098FFF740BADDF868B00C9CEB
:104BD000129E109950E55846069901F0DFFA002818
:104BE000BFF6D0AD594620460A22002301F048FE08
:104BF0001699013E8346002940F01981119A0892C6
:104C0000C0E50698036900EB8303186901F074FAA4
:104C1000C0F1200395E50121119108912B91FFF737
:104C20000FBB109DB146169FAA46DDF81880089E5E
:104C300002E001F025FE834641465846FFF734F96D
:104C400001350A220023594600F1300C0AF807C04A
:104C500001372046BE42ECDCDDF830A04E4600278E
:104C6000CDF82CC059460122204601F007FD0699D7
:104C7000834601F093FA00280FDD109900E01D46ED
:104C800015F8012C6B1E392A40F08C808B42F6D12E
:104C90001099312301360B709AE503D10B9810F06F
:104CA000010FEAD12B461D4613F8012D302AFAD008
:104CB0008EE55946159A204601F026FE834628E5E2
:104CC00005F00F0348F65012C2F20002DDE90601BA
:104CD00002EBC303D3E9002302F078FE2D1108BFD5
:104CE0004FF00208CDE90C013FF4FDAA48F6282751
:104CF000DDE90C234FF00208C2F2000715F0010FA6
:104D00001046194607D0D7E9002308F1010802F040
:104D10005DFE02460B4608376D10EFD1CDE90C233E
:104D2000FFF7E1BA1599179A5B1AC918D2181591AD
:104D30001792A0E55946204601F0E6FD8346E8E4D7
:104D40001999002947D003F58663159F03330F9DFA
:104D500097E50132D2B29DE4DDF868B0DDF870A0CD
:104D60001D9E0C9CFFF7D3BB0F99002308980D1ACA
:104D700087E5B9F1000F0F9D0C9E0FDD594601220A
:104D8000204601F07BFC0699834601F007FA0028D3
:104D900047DD0B99392931D001310B910B9A05F878
:104DA000012B15E501321A7012E50C9A2046516864
:104DB00001F04AFB0C9B03F10C011A6902329200CC
:104DC00005460C30FDF7DEF920462946012201F0A8
:104DD00055FC824601E61F9B159F0F9DC3F13603CC
:104DE0004FE50F9D0C9E3DE70B9B0F9D392B0C9EB5
:104DF00004D00B98431C05F8013BE9E4392305F87E
:104E0000013B10993CE70B9833460F9D39280C9EC7
:104E1000F4D0002B01DD01300B900B9905F8011B3C
:104E2000D6E4BBD10B9810F0010FB7D0B1E7002347
:104E30000C9920460A2201F023FD119B08930C9047
:104E4000A0E408990E298CBF002707F00107FFF79F
:104E5000FAB93FF481AC1C3379E40127FFF78AB932
:104E60000B692DE9F0410C468046002B71D010B142
:104E70008369002B78D048F6A803C2F200039C4255
:104E800008BFD8F8044010D048F6C803C2F20003A7
:104E90009C4208BFD8F8084007D048F6E803C2F2A1
:104EA00000039C4208BFD8F80C40A3891AB212F044
:104EB000080F35D1626843F40063A381002A5EDDE8
:104EC000E66A002E45D09BB213F4805218BF656D80
:104ED00059D013F0040F4AD100234046216A2A46D4
:104EE000B047854238D1A1894FF2FF732269C0F2E1
:104EF000000301EA03030021616013F4805F616B2A
:104F0000A381226018BF656519B304F14403994277
:104F100002D0404600F098F900206063BDE8F081BF
:104F20002669B6B125682660AD1B12F0030F0CBFD1
:104F300063690023A3600AE032462B46A76A404615
:104F4000216AB8470028C0EB0505064404DD002DA2
:104F5000F2DC0020BDE8F081A3894FF0FF3043F080
:104F60004003A381BDE8F08100F0EAF883E76268BE
:104F7000636BAD1A002BAFD0236CED1AACE7226C3B
:104F8000002A9DDCE5E701234046216AB047B0F1E5
:104F9000FF3F054602D0A389E66A9AE7D8F80030B9
:104FA0001D2BD6D0A38943F04003A381BDE8F08137
:104FB000014628B148F6C423C2F2000318684FE73F
:104FC00048F62C0344F66161C2F20003C2F200010C
:104FD000186800F0B3BB00BF704700BF704700BF48
:104FE000704700BF704700BF002070470020704727
:104FF00048F6C42344F6ED71C2F20003C2F2000188
:10500000186800F0C5BB00BF48F6C42344F6E97138
:10501000C2F20003C2F20001186800F0B9BB00BF81
:1050200047F21921C2F2000100F0B2BB48F62C038E
:10503000C2F200031868F3E710B5044600235C30A1
:10504000A1811946E281082223606360A360636640
:1050500023616361A36100F0E1FF46F6D96046F683
:105060009D6146F6756246F66D63C2F20000C2F2BB
:105070000001C2F20002C2F200036062A162E262B9
:105080002363246210BD00BF70B568250E4605FB82
:1050900001F505F10C0100F059FC044648B100F19E
:1050A0000C03002146602A4618462160A36000F0E8
:1050B000B5FF204670BD00BF48F62C03C2F20003C6
:1050C00070B51D680646AB69002B2AD0D8356B68D1
:1050D000AC68013B03D520E06834013B1DD4B4F932
:1050E0000C20002AF8D100254FF0FF33656604F14B
:1050F0005C00E38129464FF001032560A38108226B
:10510000A560656025616561A56100F087FFE564C4
:105110006563A563A564204670BD286828B105466F
:10512000D5E7284600F00CF8D0E730460421FFF719
:10513000ABFF28600028F2D10C2304463360EAE775
:1051400070B58669044606B170BD45F2210301259C
:10515000C2F20003C0F8D8608362C0F8DC60C0F817
:10516000E0608561FFF7A8FF60602046FFF7A4FFBD
:10517000A0602046FFF7A0FF324604212346E060EE
:105180006068FFF759FF2A46A06809212346FFF708
:1051900053FF2346E06812210222BDE870404BE72E
:1051A000F8B548F6C834C2F200040F46054600F0D0
:1051B0009FFFA3685E6826F0030606F57E630F3343
:1051C000DF1B3F0B013F3F03B7F5805F07DB00218B
:1051D000284601F037FEA368F318834204D028461E
:1051E00000F088FF0020F8BD7942284601F02AFE31
:1051F000B0F1FF3F10D0A26848F6F873C2F2000386
:10520000F61B46F00106284656601A68D71B1F6039
:1052100000F070FF0120F8BD0021284601F012FEC9
:10522000A368C21A0F2ADADD48F6D07448F6F8717E
:10523000C2F20004C2F2000142F001022468001B25
:1052400008605A60CBE700BF2DE9F04105460C46E7
:10525000002900F0888000F04BFFA4F1080248F616
:10526000C8305668C2F2000026F00103D0F808C02A
:10527000D1188C454F6827F0030700F0958016F091
:1052800001064F605FD00026CC19646814F0010F4E
:1052900006D1DB19002E7AD08C68C9688C60E16079
:1052A00043F00101D3505160002E47D1B3F5007F88
:1052B0005BD3590A04299EBF4FEA931C0CF1380CAA
:1052C0004FEACC0428D914299CBF01F15B0C4FEAAA
:1052D000CC0421D954299EBF4FEA133C0CF16E0C2B
:1052E0004FEACC0418D9B1F5AA7F9EBF4FEAD33C50
:1052F0000CF1770C4FEACC040ED940F2545C6145B6
:1053000095BF4FEA934C4FF47C740CF17C0C4FF03A
:105310007E0C98BF4FEACC040419A168A14203D1C6
:1053200064E089688C4204D0486820F0030083421E
:10533000F7D3CB68D3609160CA609A602846BDE815
:10534000F04100F0D7BE54F8084C00F1080C121BD5
:105350001B199468644547D0D2F80CC0CCF80840BB
:10536000C4F80CC090E7BDE8F081DB084FF0010CF9
:10537000466800EBC3019B100CFA03F3D1608C6804
:1053800046EA030343609460E2608A60D6E78C6873
:105390001C4FBC4281D1D35043F00103E260A260B4
:1053A00053609460D460C9E7FB1816F0010F07D171
:1053B00054F8081C521A5B18D4689168A160CC603C
:1053C00048F6D4718260C2F2000143F001005060DF
:1053D0000A689342B2D348F6F4732846C2F2000337
:1053E0001968FFF7DDFEA9E701264DE701264468AD
:1053F0004FEAAC0C0B4606FA0CFC44EA0C04446081
:1054000098E700BFD08B00202DE9F04F936885B05E
:1054100090460C460390002B64D088891FFA80FACE
:105420001AF0080F00F0A0800B69002B00F09C80A0
:105430001AF0020BD8F800501CBF4FF0000A574674
:1054400036D11AF0010A1DBFDC46D9465F465646E2
:1054500052D126B380B2A76810F4007F00F08F808D
:10546000BE42BB4680F0A78020683746B3465A4606
:10547000514600F077FDA2682368B146D71BA760AC
:1054800037465B442360D8F80830C9EB0606CA44A7
:10549000DF1BC8F808702FB3A089002EDAD1D5F829
:1054A00000A06E680835D4E7D5F800A06F6808350D
:1054B000B7F5806F34BF3B464FF480635246039884
:1054C000002FF1D0A66A216AB04700288244C0EBC1
:1054D000070740F3EC80D8F80830181AC8F808001D
:1054E0000028E5D1002005B0BDE8F08FD5F8009088
:1054F0004FF0000C6F680835002FF7D0BCF1000F9B
:1055000000F0B5806369BB4534BFDA46BA46A66889
:10551000206822699E19904294BF00220122B24560
:10552000D4BF002202F00102002A40F0AE809A456A
:10553000C0F28280A66A4A46CDF804C00398216A68
:10554000B047DDF804C0061E40F3B180BBEB060B8C
:1055500000F08680D8F80830B144BF1B9E1BC8F805
:105560000860002EC8D1BDE703982146FEF718FC5D
:10557000002840F0D480A0891FFA80FA58E72068FC
:10558000B9462369984294BF00230123B7422CBF38
:10559000002303F00103002B40F09D8063699E42CD
:1055A000C0F08C80A76A52460398216AB847071E4C
:1055B0007DDDB94667E710F4906F08BF20683FF4BF
:1055C00056AF62692169236802EB42095B1A09EB55
:1055D000D97903F1010CB4444FEA6909E1454A461F
:1055E0003CBFE1464A4610F4806F00F083801146CC
:1055F0000398029300F0AAF9029B002800F099801A
:105600001A46216902930190FCF7BCFDA289029B16
:10561000DDF804C022F4906242F08002A281C3EB64
:1056200009020CEB03003746B346A260C4F810C071
:105630002060C4F814901AE7524649465646CDF801
:1056400004C000F08FFCA2682368BBEB060BCAEB1A
:105650000202DDF804C05344A26023607FF47AAFF5
:1056600003982146FFF7FCFB08BBDC4672E748467F
:105670000A213A4600F03CFC00284BD000F1010B17
:105680004FF0010CC9EB0B0B3CE749463246CDF815
:1056900004C000F067FC2368214603989B1923602F
:1056A000FFF7DEFBDDF804C000283FF44FAFA3890D
:1056B0004FF0FF3043F04003A38114E732465146D8
:1056C00000F050FCA26823683746921BB1469B1934
:1056D000A2602360D7E651463A4600F043FC2368B7
:1056E00003982146DB192360FFF7BAFB00283FF43B
:1056F000CAAEDCE70398029301F0AAF9029B844644
:1057000000288CD121690398FFF79EFD03990C2393
:105710000B60CCE707F1010B4FF0010CF2E60399A7
:105720000922A3894FF0FF3043F040030A60A381B0
:10573000D9E6039A0C231360B9E700BF2DE9F845B9
:1057400007468A46FFF748FC17F1D80608BFB0465F
:1057500018D04FF000087568B468013D0FD4B4F953
:105760000C304BB1B4F90E3021463846B3F1FF3F4F
:1057700002D0D04748EA00086834013DEFD53668CA
:10578000002EE8D1FFF72AFC4046BDE8F88500BFAF
:105790002DE9F04106468846FFF71EFCD83608BFC3
:1057A000374615D000277568B468013D0DD4B4F9AB
:1057B0000C303BB1B4F90E302046B3F1FF3F01D0BD
:1057C000C04707436834013DF1D53668002EEAD161
:1057D000FFF704FC3846BDE8F08100BF48F6081327
:1057E000C2F2000318687047004870470C89002017
:1057F000004870470C89002070B505460E461446D7
:1058000072B148F630011046C2F2000101F076FB99
:1058100058B948F630002C62C2F20000EE6170BD4B
:1058200048F63000C2F2000070BD48F66401204620
:10583000C2F2000101F062FB0028EAD0002070BD36
:1058400048F6C4230A46C2F2000301461868D3E7AB
:105850008B89F0B50C469AB291B012F0020F054652
:1058600041D1B1F90E10002918DB01AA01F0DCFCCE
:10587000002811DB029B03F47043B3F5005F14BFF3
:1058800000270127B3F5004F40D0A3894FF480666D
:1058900043F40063A3810BE0A3899AB212F0800F56
:1058A00043F400630CBF4FF4806640260027A381B9
:1058B0002846314600F04AF870B1A18945F221022C
:1058C000C2F20002206141F080016661AA62A181FA
:1058D00020607FB911B0F0BDA38913F4007FF9D126
:1058E00043F00203A38104F14703236123600123F2
:1058F0006361EFE72846B4F90E1001F0ABFC002815
:10590000E8D0A38943F00103A381E3E746F675637A
:10591000E26AC2F200039A42B7D1A2894FF48063CF
:105920001E46236542EA0303A381C1E748F6C42368
:105930000146C2F200031868FFF786BC48F6C4238C
:105940000146C2F20003186800F000B82DE9F04FDC
:1059500001F10B04162C83B006462FD80023102427
:105960008C422CBF194643F00101002930D130464A
:1059700000F0BEFBB4F5FC7F2ED24FEAD40E48F601
:10598000C835C2F2000505EBCE02D368934200F0A1
:1059900006825A6803F10805D968304622F0030CE4
:1059A0009A6863445C688A6044F00104D1605C607A
:1059B00000F0A0FB284603B0BDE8F08F24F00704F8
:1059C000E30F8C422CBF194643F001010029CED0D1
:1059D0000C2300253360EDE75FEA542E04BF4FEA45
:1059E000D40E4FEACE0040F0908048F6C835C2F29F
:1059F00000052818C368984206D10DE0002A80F2FD
:105A00006F81DB68984207D0596821F003010A1BB7
:105A10000F2AF3DD0EF1FF3E0EF1010E48F6C837F6
:105A2000C2F2000707F108018B68994208BF7A6843
:105A300026D05A6822F0030CC4EB0C020F2A00F3A4
:105A40009481002AC960896080F29980BCF5007F4A
:105A500080F065814FEADC0C4FF0010A7A6807EBB1
:105A6000CC004FEAAC0C0AFA0CFCD860D0F80880E5
:105A70004CEA02027A60C3F80880C8F80C308360F0
:105A80004FF0010C4FEAAE030CFA03FC944500F210
:105A9000828012EA0C0F08D12EF0030E4FEA4C0C54
:105AA0000EF1040E12EA0C0FF8D007EBCE09F24605
:105AB000C846D8F80C30984507D168E1002A80F232
:105AC0007881DB68984500F06281586820F0030017
:105AD000021B0F2AF2DD1D461F19D3F80CC044F03B
