S00D000066696E616C2E737265630D
S315600000000000012099020000090300000B030000B4
S315600000100D0300000F030000110300000000000044
S315600000200000000000000000000000001303000054
S31560000030150300000000000017030000190300000C
S315600000401B030000496800001F0300002103000035
S315600000502303000025030000270300002903000096
S315600000602B0300002D0300002D2A0000592A0000F2
S315600000703303000035030000370300003903000036
S315600000803B0300003D0300003F0300004103000006
S3156000009043030000450300004703000049030000D6
S315600000A04B0300000000000000000000000000009C
S315600000B00000000000000000000000004D0300008A
S315600000C04F03000051030000530300005503000076
S315600000D057030000590300005B0300005D03000046
S315600000E05F03000061030000630300006503000016
S315600000F067030000690300006B0300006D030000E6
S315600001006F030000710300007303000075030000B5
S3156000011077030000790300007B0300007D03000085
S315600001207F03000081030000830300008503000055
S3156000013087030000890300008B0300008D03000025
S315600001408F030000910300009303000095030000F5
S3156000015097030000990300009B0300009D030000C5
S315600001609F030000A1030000A3030000A503000095
S31560000170A7030000A9030000AB030000AD03000065
S31560000180AF030000B1030000B3030000B503000035
S31560000190B7030000B9030000BB030000BD03000005
S315600001A0BF030000C1030000C3030000C5030000D5
S315600001B0C7030000C9030000CB030000CD030000A5
S315600001C0CF030000D1030000D3030000D503000075
S315600001D0D7030000D9030000DB030000DD03000045
S315600001E0DF030000E1030000E3030000E503000015
S315600001F0E7030000E9030000EB030000ED030000E5
S31560000200EF030000F1030000F3030000F5030000B4
S31560000210F7030000F9030000493F0000713F00004A
S31560000220993F0000C13F0000E93F00001140000017
S31560000230394000006140000089400000B140000084
S31560000240D9400000014100002941000051410000F1
S3156000025079410000A1410000C9410000F141000060
S3156000026019420000414200006942000091420000CC
S31560000270B9420000E142000009430000314300003A
S315600002805943000081430000A9430000D1430000A8
S31560000290F943000021440000684880476848002808
S315600002A00BD168486849694A884206D091421CBFAA
S315600002B050F8043B41F8043BF8D165486549664A05
S315600002C0884206D091421CBF50F8043B41F8043B7B
S315600002D0F8D162486249634A914218BF41F8040BFB
S315600002E0FAD10000000000000000000000000000DD
S315600002F0DFF874010FF2030E00474FF000004FF075
S315600003000001DFF868F1FEE7FEE7FEE7FEE7FEE7DD
S31560000310FEE7FEE7FEE7FEE7FEE7FEE7FEE7FEE74F
S31560000320FEE7FEE7FEE7FEE7FEE7FEE7FEE7FEE73F
S31560000330FEE7FEE7FEE7FEE7FEE7FEE7FEE7FEE72F
S31560000340FEE7FEE7FEE7FEE7FEE7FEE7FEE7FEE71F
S31560000350FEE7FEE7FEE7FEE7FEE7FEE7FEE7FEE70F
S31560000360FEE7FEE7FEE7FEE7FEE7FEE7FEE7FEE7FF
S31560000370FEE7FEE7FEE7FEE7FEE7FEE7FEE7FEE7EF
S31560000380FEE7FEE7FEE7FEE7FEE7FEE7FEE7FEE7DF
S31560000390FEE7FEE7FEE7FEE7FEE7FEE7FEE7FEE7CF
S315600003A0FEE7FEE7FEE7FEE7FEE7FEE7FEE7FEE7BF
S315600003B0FEE7FEE7FEE7FEE7FEE7FEE7FEE7FEE7AF
S315600003C0FEE7FEE7FEE7FEE7FEE7FEE7FEE7FEE79F
S315600003D0FEE7FEE7FEE7FEE7FEE7FEE7FEE7FEE78F
S315600003E0FEE7FEE7FEE7FEE7FEE7FEE7FEE7FEE77F
S315600003F0FEE7FEE7FEE7FEE7FEE7FEE7FEE7FEE76F
S31560000400FEE7FEE7FEE7FEE7FEE7FEE7FEE7FEE75E
S31560000410FEE7FEE7FEE7FEE7FEE7FEE7FEE7FEE74E
S31560000420FEE7FEE7FEE7FEE7FEE7FEE7FEE7FEE73E
S31560000430FEE7FEE7FEE7FEE7FEE70000856B0000ED
S3156000044001000000700400607004000008000020D5
S315600004503C29016008000020B00500200000000073
S31560000460B00500207807002079780000E91C0000BC
S3156000047040F2B053C2F200031A780AB9012018702C
S31560000480704700BF40F20800C2F2000008B503687A
S315600004902BB140F20003C0F2000303B1984708BDD8
S315600004A080B588B000AFF860B9607A603B60FB6881
S315600004B0BA681A60FB681B6803F1080318464FF0B8
S315600004C0000101F039FDFB681B6803F10C03184657
S315600004D04FF0000101F030FDFB681B681846796833
S315600004E001F0FAFC3B68002B11D142F26413C0F2B2
S315600004F0010307F1100C0FCBACE80700ACF8003035
S3156000050007F1100318464FF0AE0101F0D1FCFB680D
S315600005101B6803F104031846396801F0DDFCFB68CB
S315600005201B6803F1100318464FF0000101F0D4FC7C
S31560000530FB681B6803F1180318464FF0000101F0D1
S31560000540CBFCFB681B6803F1200318464FF00001E3
S3156000055001F0C2FCFB681B6803F1280318464FF0E4
S31560000560000101F0B9FCFB681B6803F13003184613
S315600005704FF0000101F0B0FCFB681B6803F1380323
S3156000058018464FF0000101F0A7FCFB681B6803F1F9
S31560000590400318464FF0000101F09EFCFB681B68A3
S315600005A003F1480318464FF0000101F095FCFB6823
S315600005B01B6803F1500318464FF0000101F08CFCF4
S315600005C0FB681B6803F1580318464FF0000101F001
S315600005D083FCFB681B6803F1600318464FF000015B
S315600005E001F07AFCFB681B6803F1680318464FF05C
S315600005F0000101F071FCFB681B6803F1700318468B
S315600006004FF0000101F068FCFB681B6803F178039A
S3156000061018464FF0000101F05FFCFB681B6803F1B0
S31560000620800318464FF0000101F056FCFB681B681A
S3156000063003F1880318464FF0000101F04DFC07F105
S315600006402007BD4680BD00BF80B58AB000AF786028
S315600006500B46FB70FB78002B11D142F26413C0F29B
S31560000660010307F1180C0FCBACE80700ACF80030BB
S3156000067007F1180318464FF0D30101F019FCFB7817
S31560000680102B11D942F26413C0F2010307F1080C72
S315600006900FCBACE80700ACF8003007F1080318464A
S315600006A04FF0D40101F004FCFB78002B46D0FB78B8
S315600006B0102B43D8FA7842F26003C0F201039B5CC8
S315600006C087F82730FB78082B1CD87B681B6803F1FA
S315600006D00803184601F032FC034687F8263097F87F
S315600006E0262097F8273042EA030387F826307B688E
S315600006F01B6803F1080297F826301046194601F088
S315600007001BFC1BE07B681B6803F10C03184601F0B9
S3156000071015FC034687F8263097F8262097F8273089
S3156000072042EA030387F826307B681B6803F10C02F4
S3156000073097F826301046194601F0FEFB07F12807A8
S31560000740BD4680BD80B58AB000AF78600B46FB7051
S31560000750FB78002B11D142F26413C0F2010307F15A
S31560000760180C0FCBACE80700ACF8003007F11803A3
S31560000770184640F2011101F09BFBFB78102B11D952
S3156000078042F26413C0F2010307F1080C0FCBACE828
S315600007900700ACF8003007F1080318464FF4817182
S315600007A001F086FBFB78002B4CD0FB78102B49D8E8
S315600007B0FA7842F26003C0F201039B5C87F8273047
S315600007C0FB78082B1FD87B681B6803F10803184663
S315600007D001F0B4FB034687F8263097F827306FEAB6
S315600007E00303DAB297F8263002EA030387F8263065
S315600007F07B681B6803F1080297F826301046194695
S3156000080001F09AFB1EE07B681B6803F10C03184637
S3156000081001F094FB034687F8263097F827306FEA95
S315600008200303DAB297F8263002EA030387F8263024
S315600008307B681B6803F10C0297F826301046194650
S3156000084001F07AFB07F12807BD4680BD80B586B00A
S3156000085000AF78607B681B6803F1E40318464FF0CD
S31560000860010101F051FB7B681B6803F1E403184644
S3156000087001F04CFB0346012B11D042F26413C0F227
S31560000880010307F1080C0FCBACE80700ACF80030A9
S3156000089007F1080318464FF4987101F009FB07F158
S315600008A01807BD4680BD00BF80B586B000AF7860D2
S315600008B07B681B6803F1E40318464FF0000101F002
S315600008C023FB7B681B6803F1E403184601F01EFBFB
S315600008D00346002B11D042F26413C0F2010307F104
S315600008E0080C0FCBACE80700ACF8003007F1080342
S315600008F018464FF4A17101F0DBFA07F11807BD46FF
S3156000090080BD00BF80B598B000AFF8600B467A60D6
S31560000910FB72FB7A002B11D142F26413C0F2010321
S3156000092007F1440C0FCBACE80700ACF8003007F1D8
S31560000930440318464FF4A97101F0BAFAFB7A102BFA
S3156000094011D942F26413C0F2010307F1340C0FCBE4
S31560000950ACE80700ACF8003007F13403184640F203
S31560000960531101F0A5FAFB681B6803F104031846EE
S3156000097001F0B4FA03467B657A687B6D9A4211D9B9
S3156000098042F26413C0F2010307F1240C0FCBACE80A
S315600009900700ACF8003007F1240318464FF4AD7138
S315600009A001F086FAFB7A002B57D0FB7A102B54D8CD
S315600009B07B68002B05D1FB7AF8681946FFF7C2FE03
S315600009C04BE0FB681A68F97A42F29803C0F20103B9
S315600009D053F82130134418464FF0000101F07CFAB9
S315600009E0FB681A68F97A42F2DC03C0F2010353F835
S315600009F0213013441846796801F06EFAFA7A42F2A9
S31560000A00DC03C0F2010353F82230FB65FB681A6809
S31560000A10FB6D1344184601F091FA034687F85B3084
S31560000A207B68DBB297F85B209A4211D042F264137E
S31560000A30C0F2010307F1140C0FCBACE80700ACF869
S31560000A40003007F11403184640F27D1101F030FAC8
S31560000A50FB7AF8681946FFF7F7FD07F16007BD46B0
S31560000A6080BD00BF80B5A2B000AFF8607A603B6021
S31560000A700B46FB72FB7A002B11D142F26413C0F273
S31560000A80010307F1640C0FCBACE80700ACF800304B
S31560000A9007F1640318464FF4C97101F009FAFB7A4D
S31560000AA0102B11D942F26413C0F2010307F1540C02
S31560000AB00FCBACE80700ACF8003007F154031846DA
S31560000AC040F2931101F0F4F9FB681B6803F104032B
S31560000AD0184601F003FA03467B677A687B6F9A4291
S31560000AE011D942F26413C0F2010307F1440C0FCB33
S31560000AF0ACE80700ACF8003007F14403184640F252
S31560000B009D1101F0D5F93A687B6F9A4211D942F28C
S31560000B106413C0F2010307F1340C0FCBACE8070095
S31560000B20ACF8003007F1340318464FF4CF7101F08A
S31560000B30BFF9FB7A002B74D0FB7A102B71D8FB6857
S31560000B401A68F97A42F29803C0F2010353F8213029
S31560000B5013441846796801F0BFF9FA7A42F29803AD
S31560000B60C0F2010353F82230FB67FB681A68FB6F1B
S31560000B701344184601F0E2F9034687F87B307B6838
S31560000B80DBB297F87B209A4211D042F26413C0F22E
S31560000B90010307F1240C0FCBACE80700ACF800307A
S31560000BA007F12403184640F2B51101F081F9FB689C
S31560000BB01A68F97A42F2DC03C0F2010353F8213075
S31560000BC013441846396801F087F9FA7A42F2DC0371
S31560000BD0C0F2010353F82230C7F88430FB681A6804
S31560000BE0D7F884301344184601F0A8F9034687F80D
S31560000BF083303B68DBB297F883209A4211D042F289
S31560000C006413C0F2010307F1140C0FCBACE80700C4
S31560000C10ACF8003007F1140318464FF4E57101F0A3
S31560000C2047F907F18807BD4680BD00BF80B590B023
S31560000C3000AF78600B46FB704FF000037B63FB7878
S31560000C40002B11D142F26413C0F2010307F11C0CB0
S31560000C500FCBACE80700ACF8003007F11C03184670
S31560000C604FF4F17101F024F9FB78102B11D942F29F
S31560000C706413C0F2010307F10C0C0FCBACE807005C
S31560000C80ACF8003007F10C03184640F2E31101F0AE
S31560000C900FF9FB78002B70D0FB78102B6DD8FA78A3
S31560000CA042F26003C0F201039B5C87F83F30FB7839
S31560000CB0082B12D87B681B6803F10803184601F0FD
S31560000CC03DF9034687F83E3097F83E2097F83F3067
S31560000CD002EA030387F83E3011E07B681B6803F184
S31560000CE00C03184601F02AF9034687F83E3097F858
S31560000CF03E2097F83F3002EA030387F83E3097F8C4
S31560000D003E30002B39D07B681A68F97842F2980336
S31560000D10C0F2010353F821301344184601F0DEF89F
S31560000D200346FB627B681A68F97842F2DC03C0F21C
S31560000D30010353F821301344184601F0CFF80346F7
S31560000D403B637B681B6803F10403184601F0C6F831
S31560000D500346BB63FA6A3B6B9A4205D83A6BFB6AF9
S31560000D60C3EB02037B6308E03A6BFB6AC3EB0202E8
S31560000D70BB6B134403F101037B637B6B184607F17E
S31560000D804007BD4680BD00BF80B59EB000AFF8602D
S31560000D907A600A46FA72FB704FF00003BB664FF04A
S31560000DA00003FB66FB7A002B11D142F26413C0F29A
S31560000DB0010307F1540C0FCBACE80700ACF8003028
S31560000DC007F15403184640F25E2101F071F8FB7A90
S31560000DD0102B11D942F26413C0F2010307F1440CDF
S31560000DE00FCBACE80700ACF8003007F144031846B7
S31560000DF040F25F2101F05CF8FB7A002B00F0DB80AB
S31560000E00FB7A102B00F2D780FB681B6803F10403A2
S31560000E10184601F063F803467B667A687B6E9A42F1
S31560000E2011D942F26413C0F2010307F1340C0FCBFF
S31560000E30ACE80700ACF8003007F13403184640F21E
S31560000E40692101F035F87B68002B05D1FB7AF868DB
S31560000E501946FFF777FCAEE0FB78012B09D0022B31
S31560000E602AD0002B32D14FF00003BB667B68FB664D
S31560000E702CE07A6E7B6882EA030303F00103DBB23F
S31560000E80002B0DD07A6E7B68C3EB020303F101037E
S31560000E904FEA5303BB66BA6E7B681344FB6615E084
S31560000EA07A6E7B68C3EB02034FEA5303BB66BA6E86
S31560000EB07B681344FB6609E07A6E7B68C3EB0203CA
S31560000EC003F10103BB664FF00003FB66FB681A681B
S31560000ED0F97A42F29803C0F2010353F821301344C1
S31560000EE01846B96E00F0F8FFFB681A68F97A42F2A4
S31560000EF0DC03C0F2010353F8213013441846F96E3F
S31560000F0000F0EAFFFA7A42F29803C0F2010353F85E
S31560000F1022307B67FB681A687B6F1344184601F0C2
S31560000F200DF8034687F87330BB6EDBB297F8732013
S31560000F309A4211D042F26413C0F2010307F1240C05
S31560000F400FCBACE80700ACF8003007F12403184675
S31560000F5040F2CB2100F0ACFFFA7A42F2DC03C0F239
S31560000F60010353F822307B67FB681A687B6F134472
S31560000F70184600F0E3FF034687F87330FB6EDBB27A
S31560000F8097F873209A4211D042F26413C0F20103BB
S31560000F9007F1140C0FCBACE80700ACF8003007F192
S31560000FA01403184640F2CF2100F082FFFB7AF868FE
S31560000FB01946FFF749FB07F17807BD4680BD00BFBC
S31560000FC080B590B000AF78600B46FB70FB78002B65
S31560000FD011D142F26413C0F2010307F12C0C0FCB5E
S31560000FE0ACE80700ACF8003007F12C03184640F275
S31560000FF0E52100F05DFFFB78102B11D942F26413F6
S31560001000C0F2010307F11C0C0FCBACE80700ACF88B
S31560001010003007F11C03184640F2E62100F048FF55
S31560001020FB78002B40D0FB78102B3DD8FA7842F243
S315600010307403C0F2010333F81230BB877B681B6808
S3156000104003F19003184600F061FF03467B877A8FB1
S31560001050BB8F42EA03037B877B681B6803F19002C0
S315600010607B8F1046194600F04FFF7B681B6803F1C3
S315600010709003184600F04AFF0346FB87FA8F7B8F82
S315600010809A4211D042F26413C0F2010307F10C0CCC
S315600010900FCBACE80700ACF8003007F10C0318463C
S315600010A040F2FE2100F004FF07F14007BD4680BD17
S315600010B080B590B000AF78600B46FB70FB78002B74
S315600010C011D142F26413C0F2010307F12C0C0FCB6D
S315600010D0ACE80700ACF8003007F12C03184640F284
S315600010E0123100F0E5FEFB78102B11D942F2641341
S315600010F0C0F2010307F11C0C0FCBACE80700ACF89B
S31560001100003007F11C03184640F2133100F0D0FEA0
S31560001110FB78002B43D0FB78102B40D8FA7842F24C
S315600011207403C0F2010333F81230BB877B681B6817
S3156000113003F19003184600F0E9FE03467B87BB8FF8
S315600011406FEA03039AB27B8F02EA03037B877B68AD
S315600011501B6803F190027B8F1046194600F0D4FE9F
S315600011607B681B6803F19003184600F0CFFE0346C8
S31560001170FB87FA8F7B8F9A4211D042F26413C0F2DA
S31560001180010307F10C0C0FCBACE80700ACF800309C
S3156000119007F10C03184640F22B3100F089FE07F187
S315600011A04007BD4680BD00BF80B586B000AF7860A1
S315600011B00B46FB707B681B6803F19402FB78104654
S315600011C0194600F0A1FE7B681B6803F1940318467C
S315600011D000F09CFE0346FB82FB8ADBB2FA789A42F9
S315600011E011D042F26413C0F2010307F1080C0FCB71
S315600011F0ACE80700ACF8003007F10803184640F287
S315600012004A3100F055FE7B681B6803F1A00318465F
S315600012104FF0000100F078FE7B681B6803F19C03C9
S3156000122018464FF0000100F06FFE7B681B6803F103
S31560001230980318464FF6FF7100F066FE07F118072F
S31560001240BD4680BD80B590B000AF786013460A4653
S31560001250FA703B80FB78002B11D142F26413C0F226
S31560001260010307F12C0C0FCBACE80700ACF800309B
S3156000127007F12C03184640F2693100F019FEFB783D
S31560001280102B11D942F26413C0F2010307F11C0C52
S315600012900FCBACE80700ACF8003007F11C0318462A
S315600012A040F26A3100F004FEFB78002B4CD0FB78EC
S315600012B0102B49D8FA7842F27403C0F2010333F86E
S315600012C01230BB877B681B6803F1A003184600F0E9
S315600012D01DFE03467B873B88002B05D07A8FBB8F2C
S315600012E042EA03037B8707E0BB8F6FEA03039AB288
S315600012F07B8F02EA03037B877B681B6803F1A0028E
S315600013007B8F1046194600F0FFFD7B681B6803F172
S31560001310A003184600F0FAFD0346FB87FA8F7B8F21
S315600013209A4211D042F26413C0F2010307F10C0C29
S315600013300FCBACE80700ACF8003007F10C03184699
S315600013404FF4617100F0B4FD07F14007BD4680BD02
S3156000135080B58AB000AF78600B46FB704FF0000333
S31560001360FB84FB78002B11D142F26413C0F20103B7
S3156000137007F1180C0FCBACE80700ACF8003007F1AA
S31560001380180318464FF4667100F092FDFB78102B37
S3156000139011D942F26413C0F2010307F1080C0FCBB6
S315600013A0ACE80700ACF8003007F10803184640F2D5
S315600013B0993100F07DFDFB78002B11D0FB78102B66
S315600013C00ED87B681A68F97842F22013C0F20103DE
S315600013D053F821301344184600F098FD0346FB8409
S315600013E0FB8C184607F12807BD4680BD80B58AB0DC
S315600013F000AF78600B46FB70FB78002B11D142F290
S315600014006413C0F2010307F1180C0FCBACE80700B8
S31560001410ACF8003007F11803184640F2B33100F01B
S3156000142047FDFB78102B11D942F26413C0F2010319
S3156000143007F1080C0FCBACE80700ACF8003007F1F9
S31560001440080318464FF46D7100F032FDFB78002BEF
S3156000145013D0FB78102B10D8FA7842F27403C0F2DE
S31560001460010333F81230FB847B681B6803F1980232
S31560001470FB8C1046194600F047FD07F12807BD466C
S3156000148080BD00BF80B58CB000AF78600B46FB7046
S315600014904FF00003FB85FB78002B11D142F26413F9
S315600014A0C0F2010307F11C0C0FCBACE80700ACF8E7
S315600014B0003007F11C03184640F2D33100F0F8FC07
S315600014C0FB78102B11D942F26413C0F2010307F1C5
S315600014D00C0C0FCBACE80700ACF8003007F10C033E
S315600014E018464FF4757100F0E3FCFB78002B18D0BA
S315600014F0FB78102B15D8FA7842F27403C0F2010318
S3156000150033F81230BB857B681B6803F19803184675
S3156000151000F0FCFC0346FB85FA8DBB8D02EA0303F3
S31560001520FB85FB8D184607F13007BD4680BD00BFC1
S3156000153080B584B000AF78607B681B6803F19C035C
S31560001540184600F0E3FC03467B817B681B6803F169
S315600015509803184600F0DAFC03463B813A897B899A
S3156000156002EA03033B813B89002B03D14FF0000362
S315600015707B7334E04FF00103FB813B8903F0FF038B
S31560001580002B07D1FB8903F10803FB813B894FEAF6
S3156000159013233B813B8903F00F03002B07D1FB89A3
S315600015A003F10403FB813B894FEA13133B813B89BB
S315600015B003F00303002B07D1FB8903F10203FB81D0
S315600015C03B894FEA93033B813B8903F00103002B80
S315600015D003D1FB8903F10103FB81FB897B737B7B71
S315600015E0184607F11007BD4680BD00BF80B590B0B4
S315600015F000AF78600B46FB70FB78002B11D142F28E
S315600016006413C0F2010307F12C0C0FCBACE80700A2
S31560001610ACF8003007F12C0318464FF4826100F0F5
S3156000162047FCFB78102B11D942F26413C0F2010318
S3156000163007F11C0C0FCBACE80700ACF8003007F1E3
S315600016401C03184640F2114100F032FCFB78002B77
S3156000165040D0FB78102B3DD8FA7842F27403C0F282
S31560001660010333F81230BB877B681B6803F19C0368
S31560001670184600F04BFC03467B877A8FBB8F42EAA5
S3156000168003037B877B681B6803F19C027B8F104694
S31560001690194600F039FC7B681B6803F19C03184609
S315600016A000F034FC0346FB87FA8F7B8F9A4211D099
S315600016B042F26413C0F2010307F10C0C0FCBACE8E5
S315600016C00700ACF8003007F10C03184640F22741DA
S315600016D000F0EEFB07F14007BD4680BD80B590B0D7
S315600016E000AF78600B46FB70FB78002B11D142F29D
S315600016F06413C0F2010307F12C0C0FCBACE80700B2
S31560001700ACF8003007F12C03184640F23B4100F07C
S31560001710CFFBFB78102B11D942F26413C0F20103A0
S3156000172007F11C0C0FCBACE80700ACF8003007F1F2
S315600017301C03184640F23C4100F0BAFBFB78002BD4
S3156000174043D0FB78102B40D8FA7842F27403C0F28B
S31560001750010333F81230BB877B681B6803F19C0377
S31560001760184600F0D3FB03467B87BB8F6FEA030303
S315600017709AB27B8F02EA03037B877B681B6803F15F
S315600017809C027B8F1046194600F0BEFB7B681B6887
S3156000179003F19C03184600F0B9FB0346FB87FA8FFA
S315600017A07B8F9A4211D042F26413C0F2010307F1B3
S315600017B00C0C0FCBACE80700ACF8003007F10C035B
S315600017C0184640F2524100F073FB07F14007BD46F0
S315600017D080BD00BF80B58AB000AF78600B46FB70F5
S315600017E0FB78002B11D142F26413C0F2010307F1BA
S315600017F0180C0FCBACE80700ACF8003007F1180303
S31560001800184640F2664100F053FBFB78102B11D965
S3156000181042F26413C0F2010307F1080C0FCBACE887
S315600018200700ACF8003007F10803184640F267413C
S3156000183000F03EFBFB78002B13D0FB78102B10D802
S31560001840FA7842F27403C0F2010333F81230FB8473
S315600018507B681B6803F19802FB8C1046194600F002
S3156000186053FB07F12807BD4680BD00BF000000009E
S3156000187080B500AF4FF01F004FF0010101F074FB1F
S3156000188080BD00BF80B500AF4FF01F004FF0000174
S3156000189001F06AFB80BD00BF80B500AF40F2186002
S315600018A0C2F2000040F20001C4F205014FF2E152BB
S315600018B0C0F205024FF48073FEF7F2FD40F21C6041
S315600018C0C2F2000040F20011C4F2050140F2E732B4
S315600018D040F2CF73FEF7E4FD80BD00BF80B582B0F5
S315600018E000AF78607B68002B10D140F21860C2F2BE
S315600018F000004FF00101FEF725FF40F21860C2F2CA
S3156000190000004FF00201FEF71DFF3BE07B68002BF5
S315600019101ADD7B6840F21860C2F200004FF00101E8
S315600019201A46FEF7EFFF40F21860C2F200004FF071
S315600019300101FEF789FE40F21860C2F200004FF026
S315600019400201FEF7FFFE1DE07B68C3F100037B60CA
S315600019507B6840F21860C2F200004FF002011A463E
S31560001960FEF7D0FF40F21860C2F200004FF00201AD
S31560001970FEF76AFE40F21860C2F200004FF0010105
S31560001980FEF7E0FE07F10807BD4680BD80B582B070
S3156000199000AF78607B68002B10D140F21860C2F20D
S315600019A000004FF00301FEF7CDFE40F21860C2F270
S315600019B000004FF00401FEF7C5FE3BE07B68002B9C
S315600019C01ADD7B6840F21860C2F200004FF0030136
S315600019D01A46FEF797FF40F21860C2F200004FF019
S315600019E00301FEF731FE40F21860C2F200004FF0CC
S315600019F00401FEF7A7FE1DE07B68C3F100037B6070
S31560001A007B6840F21860C2F200004FF004011A468B
S31560001A10FEF778FF40F21860C2F200004FF0040152
S31560001A20FEF712FE40F21860C2F200004FF00301AA
S31560001A30FEF788FE07F10807BD4680BD80B582B017
S31560001A4000AF78607B68002B10D140F21860C2F25C
S31560001A5000004FF00501FEF775FE40F21860C2F215
S31560001A6000004FF00601FEF76DFE3BE07B68002B41
S31560001A701ADD7B6840F21860C2F200004FF0050183
S31560001A801A46FEF73FFF40F21860C2F200004FF0C0
S31560001A900501FEF7D9FD40F21860C2F200004FF072
S31560001AA00601FEF74FFE1DE07B68C3F100037B6015
S31560001AB07B6840F21860C2F200004FF006011A46D9
S31560001AC0FEF720FF40F21860C2F200004FF00601F8
S31560001AD0FEF7BAFD40F21860C2F200004FF0050151
S31560001AE0FEF730FE07F10807BD4680BD80B582B0BF
S31560001AF000AF78607B68002B10D140F21860C2F2AC
S31560001B0000004FF00701FEF71DFE40F21860C2F2BA
S31560001B1000004FF00801FEF715FE3BE07B68002BE6
S31560001B201ADD7B6840F21860C2F200004FF00701D0
S31560001B301A46FEF7E7FE40F21860C2F200004FF068
S31560001B400701FEF781FD40F21860C2F200004FF017
S31560001B500801FEF7F7FD1DE07B68C3F100037B60BB
S31560001B607B6840F21860C2F200004FF008011A4626
S31560001B70FEF7C8FE40F21860C2F200004FF008019E
S31560001B80FEF762FD40F21860C2F200004FF00701F6
S31560001B90FEF7D8FD07F10807BD4680BD80B582B067
S31560001BA000AF78607B6803F12E037B607B6840F250
S31560001BB01C60C2F200004FF001011A46FEF7A2FE59
S31560001BC007F10807BD4680BD80B500AF03F082FB14
S31560001BD042F27410C0F2010004F042F903461A465C
S31560001BE040F22063C2F200031A7080BD80B588B0EF
S31560001BF002AF40F22063C2F200031B78184604F07D
S31560001C0093F90346FB80FB88184605F07FFB024686
S31560001C100B461046194630A3D3E9002305F016FD9E
S31560001C2002460B46104619464FF000024FF08043BD
S31560001C3003F5A01305F0E0FB02460B46C7E9022355
S31560001C40D7E9020126A3D3E9002305F0D5FB0246B6
S31560001C500B461046194605F0E1FD03463B613B69BC
S31560001C603B603A694AF6AB23C2F6AA2383FB0213AA
S31560001C704FEA63014FEAE273C3EB01037B613A69A2
S31560001C804AF6AB23C2F6AA2383FB02134FEA63012B
S31560001C904FEAE273C3EB01010B464FEA43030B4481
S31560001CA04FEA8303C3EB02033B61FB887A690092C8
S31560001CB03A69019242F28810C0F201001946D7E9EA
S31560001CC0022305F001FE3B69184607F11807BD4679
S31560001CD080BD00BFAFF300800000000000FEAF4093
S31560001CE0000000000080594080B5CCB004AFFFF71B
S31560001CF0D3FD01F0E5F8FFF767FF4FF01F004FF0E7
S31560001D00050101F013F940F21060C2F2000040F2E2
S31560001D100021C4F205014FF0A2024FF0010304F066
S31560001D202DF94FF00003C7F8183100E000BFD7F86F
S31560001D30182107F118031344D7F81821C2F58072E9
S31560001D4040F21060C2F20000194604F0D5FB03466B
S31560001D50C7F81C31D7F81C31002BE8D0D7F818210A
S31560001D60D7F81C311344C7F81831D7F8183103F186
S31560001D70FF3307F11802D35C002BD7D107F11801A6
S31560001D8007F1140207F1100307F10C00009007F148
S31560001D900800019007F10400029038460390084657
S31560001DA042F2B811C0F2010105F0EEFD07F114032D
S31560001DB0196807F110031A6807F10C031B6807F12D
S31560001DC00800D0F800E007F10400D0F800C03846FB
S31560001DD00068CDF800E0CDF804C0029042F2CC1065
S31560001DE0C0F2010005F070FD4FF00003C7F818312E
S31560001DF007F114031B681846FFF770FD07F110031F
S31560001E001B681846FFF7C2FD07F114031B681846E6
S31560001E10FFF714FE07F110031B681846FFF766FE0E
S31560001E2085E700BFAFF3008080B400AF00BEBD465B
S31560001E3080BC704780B483B000AF7860396000BE04
S31560001E4007F10C07BD4680BC704700BF80B483B005
S31560001E5000AF78600B46FB7000BE07F10C07BD460D
S31560001E6080BC704780B483B000AF786000BE07F175
S31560001E700C07BD4680BC704780B483B000AF786005
S31560001E8000BE07F10C07BD4680BC704780B483B0C6
S31560001E9000AF786000BE07F10C07BD4680BC704796
S31560001EA0EFF3108072B6704780F3108870470000B9
S31560001EB080B487B000AF786039607B687B613B68CF
S31560001EC03B617B691B78DBB2FB733B69BB60BB68BC
S31560001ED003F10103BB60F0E701607047006870477B
S31560001EE00EB503FA01F303EA020301686FEA020220
S31560001EF001EA020141EA030101600EBD006800EAE1
S31560001F00020020FA01F07047018070470088704730
S31560001F100EB503FA01F303EA020301886FEA0202CF
S31560001F2001EA020141EA030101800EBD008800EA70
S31560001F30020020FA01F07047017070470078704720
S31560001F400EB503FA01F303EA020301786FEA0202AF
S31560001F5001EA020141EA030101700EBD007800EA60
S31560001F60020020FA01F0704780B483B000AF0346E8
S31560001F70FB804EF20013CEF20003B7F906204FEA5B
S31560001F805212F98801F01F014FF0010000FA01F1C9
S31560001F9043F8221007F10C07BD4680BC704700BFAE
S31560001FA080B483B000AF0346FB804EF20013CEF2DE
S31560001FB00003B7F906204FEA5212F98801F01F01B3
S31560001FC04FF0010000FA01F102F1200243F82210FD
S31560001FD007F10C07BD4680BC704700BF80B483B074
S31560001FE000AF0346FB804EF20013CEF20003B7F952
S31560001FF006204FEA5212F98801F01F014FF00100E6
S3156000200000FA01F102F1600243F8221007F10C07B1
S31560002010BD4680BC704700BF80B588B000AFF86031
S31560002020B9601346FB714FF00103FB824FF000036A
S31560002030BB61FA6840F24C63C2F200039A4207D071
S31560002040FA6840F22463C2F200039A4200D000BEEE
S31560002050BB68002B00D100BE04F09AFDFA6840F21E
S315600020604C63C2F200039A422ED1FB684FF0804265
S315600020701A60FB684FF084425A60FB684FF00A02B0
S315600020801A8140F25803C2F200031B68BB6142F238
S315600020900003CEF2040342F20002CEF20402126B97
S315600020A042F080021A634FF00A00FFF797FF42F290
S315600020B00003CEF2040342F20002CEF20402126B77
S315600020C022F080021A6331E0FA6840F20003C4F23B
S315600020D001031360FA6840F20003C4F220235360E0
S315600020E0FB684FF00B021A8140F25C03C2F20003F8
S315600020F01B68BB6142F20003CEF2040342F20002A7
S31560002100CEF20402126B42F480721A634FF00B0037
S31560002110FFF764FF42F20003CEF2040342F20002CC
S31560002120CEF20402126B22F480721A63FB681B689B
S315600021304FF000021A71BB68002B21D0BA69BB68E8
S31560002140B2FBF3F3FB61FB6903F00803002B06D0D7
S31560002150FB694FEA131303F10103FB6103E0FB69BB
S315600021604FEA1313FB61FA694FF6FF739A4200D97F
S3156000217000BEFA694FF6FF739A4201D8FB69FB828B
S31560002180FB685B684FF00102C3F89C21FB681B6823
S31560002190FA8A4FEA122292B2D2B21A71FB681B68AF
S315600021A0FA8AD2B21A70FB685B684FF00002C3F815
S315600021B09C21FB681B68FA791A73FB681B684FF0F1
S315600021C00E021A72FB685B684FF00002C3F81022B9
S315600021D0FB684FF000021A61FB684FF00002DA609C
S315600021E0FB684FF000025A61FB684FF00002DA614B
S315600021F0FA6842F60D03C0F200031362FB684FF003
S3156000220000029A61FB684FF000025A62FB684FF069
S3156000221000029A7207F12007BD4680BD80B489B07E
S3156000222000AFF860B9607A604FF000033B61FA680E
S3156000223040F24C63C2F200039A4207D0FA6840F259
S315600022402463C2F200039A4200D000BEBB68002B32
S3156000225000D100BE7B68002B00D100BEFA6840F258
S315600022604C63C2F200039A4206D0FA6840F22463D5
S31560002270C2F200039A423DD1BB68002B3AD07B681C
S31560002280002B37D0FB681B681B7DFB76FB689A7A50
S31560002290FB7E42EA0303DAB2FB689A72FB7E03F0C6
S315600022A02003002B23D04FF01003FB617B680F2BBC
S315600022B001D87B68FB614FF000037B610EE0FB6831
S315600022C01B68B9683A690A4412781A703B6903F167
S315600022D001033B617B6903F101037B617A69FB69F9
S315600022E09A42ECD37A687B69C3EB02037B607B68B6
S315600022F0002BC7D107F12407BD4680BC704700BFDD
S3156000230080B487B000AF786039604FF00003BB607F
S315600023107A6840F24C63C2F200039A4207D07A6848
S3156000232040F22463C2F200039A4200D000BE3B68CA
S31560002330002B00D100BE7A6840F24C63C2F2000303
S315600023409A4206D07A6840F22463C2F200039A4247
S3156000235038D13B68002B35D03A68BB6813441B788C
S315600023603B612CE07B681B681B7DFB757B689A7AFA
S31560002370FB7D42EA0303DAB27B689A72FB7D03F067
S315600023802003002BEED04FF00003FB6011E07B686A
S315600023901B683A69D2B21A70FB6803F10103FB60ED
S315600023A0BB6803F10103BB603A68BB6813441B78E2
S315600023B03B613B69002B02D0FB680F2BE7D93B6979
S315600023C0002BCFD107F11C07BD4680BC704700BF0C
S315600023D080B584B000AFF860B9607A60FA6840F2A0
S315600023E04C63C2F200039A4207D0FA6840F2246353
S315600023F0C2F200039A4200D000BEBB68002B00D137
S3156000240000BE7B68002B00D100BE7B68002B32D0FB
S31560002410BB68002B2FD0FA6840F24C63C2F200030F
S315600024209A4206D0FA6840F22463C2F200039A42E6
S3156000243021D1FB68BA68DA60FB687A681A61FB6862
S315600024404FF000025A61FB681B891BB21846FFF702
S31560002450C5FDFA6842F60D03C0F200031362FB681D
S315600024605B684FF00102C3F88420FB681B891BB2CE
S315600024701846FFF779FD07F11007BD4680BD00BF1E
S3156000248080B485B000AF78604FF00003BB734FF047
S315600024900003FB737A6840F24C63C2F200039A420F
S315600024A007D07A6840F22463C2F200039A4200D0F1
S315600024B000BE7A6840F24C63C2F200039A4206D0CC
S315600024C07A6840F22463C2F200039A4217D17B68AD
S315600024D01B681B7DFB737B689A7AFB7B42EA03036E
S315600024E0DAB27B689A727B681B69002B07D1FB7B2B
S315600024F003F04003002B02D04FF00103BB73BB7B9C
S315600025005BB2184607F11407BD4680BC704700BF32
S3156000251080B487B000AFF860B9607A604FF00003AE
S315600025203B614FF00003FB75FA6840F24C63C2F200
S3156000253000039A4207D0FA6840F22463C2F20003AD
S315600025409A4200D000BEBB68002B00D100BE7B68FB
S31560002550002B00D100BEFA6840F24C63C2F2000361
S315600025609A4206D0FA6840F22463C2F200039A42A5
S3156000257034D1BB68002B31D07B68002B2ED0FB6832
S315600025801B681B7DFB75FB689A7AFB7D42EA030339
S31560002590DAB2FB689A7217E0BA683B691344FA6864
S315600025A012681278D2B21A703B6903F101033B617B
S315600025B0FB681B681B7DFB75FB689A7AFB7D42EAAC
S315600025C00303DAB2FB689A72FB7D03F00103DBB2A8
S315600025D0002B03D03A697B689A42DDD33B69184683
S315600025E007F11C07BD4680BC704700BF80B582B04E
S315600025F000AF78600B46FB707A6840F24C63C2F2BB
S3156000260000039A4207D07A6840F22463C2F200035C
S315600026109A4200D000BE7A6840F24C63C2F2000370
S315600026209A4206D07A6840F22463C2F200039A4264
S3156000263016D17B681B891BB21846FFF7CFFC7B68F7
S315600026401B687A6812681279D1B2FA7841EA020296
S31560002650D2B21A717B681B891BB21846FFF784FCDD
S3156000266007F10807BD4680BD80B582B000AF7860CF
S315600026700B46FB707A6840F24C63C2F200039A42E2
S3156000268007D07A6840F22463C2F200039A4200D00F
S3156000269000BE7A6840F24C63C2F200039A4206D0EA
S315600026A07A6840F22463C2F200039A421CD17B68C6
S315600026B01B687A6812681279D1B2FA786FEA0202F8
S315600026C0D2B201EA0202D2B21A717B681B891BB2CE
S315600026D01846FFF783FCFB780F2B05D17B681B89B7
S315600026E01BB21846FFF75CFC07F10807BD4680BDC4
S315600026F080B584B000AF78607A6840F24C63C2F20D
S3156000270000039A4207D07A6840F22463C2F200035B
S315600027109A4200D000BE7A6840F24C63C2F200036F
S315600027209A4206D07A6840F22463C2F200039A4263
S3156000273067D17B681B681B7ADBB203F00F03FB7300
S31560002740FB7B0C2B54D801A252F823F081270000A2
S31560002750F12700009D270000F1270000B92700003F
S31560002760F1270000D5270000F1270000F1270000BF
S31560002770F1270000F1270000F1270000B9270000CB
S315600027807B685B6A002B00D100BE7B685B6A002BAE
S3156000279030D07B685B6A7868984732E07B681B6AF2
S315600027A0002B00D100BE7B681B6A002B24D07B689F
S315600027B01B6A7868984724E07B68DB69002B00D148
S315600027C000BE7B68DB69002B18D07B68DB697868A4
S315600027D0984716E07B689B69002B00D100BE7B683A
S315600027E09B69002B0CD07B689B697868984708E0EA
S315600027F000BE06E000BF04E000BF02E000BF00E0EC
S3156000280000BF07F11007BD4680BD00BF80B487B02A
S3156000281000AF78607A6840F24C63C2F200039A4275
S3156000282007D07A6840F22463C2F200039A4200D06D
S3156000283000BE7B68DB68002B00D100BE7B681B692D
S31560002840002B00D100BE7A6840F24C63C2F20003EE
S315600028509A4206D07A6840F22463C2F200039A4232
S3156000286052D17B68DB68002B4ED07B681B69002BDE
S315600028704AD07B681B681B7DFB727B689A7AFB7A01
S3156000288042EA0303DAB27B689A72FB7A03F02003AA
S31560002890002B29D04FF010033B617B681A697B6877
S315600028A05B69C3EB02037B617B690F2B01D87B6994
S315600028B03B614FF00003FB6012E07B681B687A683F
S315600028C0D1687A6852690A4412781A707B685B69C3
S315600028D003F101027B685A61FB6803F10103FB6047
S315600028E0FA683B699A42E8D37B685A697B681B69D8
S315600028F09A4209D17B684FF000021A617B685B6877
S315600029004FF00002C3F8842007F11C07BD4680BC67
S31560002910704700BF80B584B000AFF860B9601346F9
S31560002920FB71FA6840F24C63C2F200039A4207D028
S31560002930FA6840F22463C2F200039A4200D000BEF5
S31560002940BB68002B00D100BEFB79C02B00D900BE4E
S31560002950FA6840F24C63C2F200039A4206D0FA6803
S3156000296040F22463C2F200039A4223D1BB68002B73
S3156000297020D0FB79C02B1DD8FB68BA68DA61FB688A
S315600029801A68FB7903F0C00343F00A03DBB21372E3
S31560002990FB681B891BB21846FFF720FBFB685B6868
S315600029A04FF00102C3F88020FB681B891BB21846F2
S315600029B0FFF7DAFA07F11007BD4680BD80B483B031
S315600029C000AF78600B46FB707A6840F24C63C2F2E7
S315600029D000039A4207D07A6840F22463C2F2000389
S315600029E09A4200D000BE7A6840F24C63C2F200039D
S315600029F09A4206D07A6840F22463C2F200039A4291
S31560002A000FD1FB78002B06D17B685B684FF0000224
S31560002A10C3F8102205E07B685B684FF00102C3F8DB
S31560002A20102207F10C07BD4680BC7047684620F04F
S31560002A3007018D4689B500AF40F24C60C2F20000D6
S31560002A40FFF756FE4FF00A00FFF7C8FABD46BDE82D
S31560002A5089408546704700BF684620F007018D466D
S31560002A6089B500AF40F22460C2F20000FFF740FE75
S31560002A704FF00B00FFF7B2FABD46BDE889408546C8
S31560002A80704700BF80B582B000AF786039607A6801
S31560002A9040F24C63C2F200039A4207D07A6840F271
S31560002AA02463C2F200039A4200D000BE3B68002B4A
S31560002AB000D100BE7A6840F24C63C2F200039A42CB
S31560002AC006D07A6840F22463C2F200039A4217D1B4
S31560002AD03B68002B14D07B683A689A617B681B89D7
S31560002AE01BB21846FFF77AFA7B685B684FF0010203
S31560002AF0C3F888207B681B891BB21846FFF734FA37
S31560002B0007F10807BD4680BD80B582B000AF78602A
S31560002B1039607A6840F24C63C2F200039A4207D089
S31560002B207A6840F22463C2F200039A4200D000BE83
S31560002B303B68002B00D100BE7A6840F24C63C2F25B
S31560002B4000039A4206D07A6840F22463C2F2000318
S31560002B509A421FD13B68002B1CD07B683A681A6288
S31560002B607B684FF00002DA607B684FF000021A6102
S31560002B707B681B891BB21846FFF730FA7B685B6877
S31560002B804FF00102C3F884207B681B891BB218468C
S31560002B90FFF7EAF907F10807BD4680BD80B582B048
S31560002BA000AF786039607A6840F24C63C2F2000325
S31560002BB09A4207D07A6840F22463C2F200039A42CE
S31560002BC000D000BE3B68002B00D100BE7A6840F2A0
S31560002BD04C63C2F200039A4206D07A6840F22463DC
S31560002BE0C2F200039A4217D13B68002B14D07B686F
S31560002BF03A685A627B681B891BB21846FFF7EEF982
S31560002C007B685B684FF00102C3F88C207B681B8988
S31560002C101BB21846FFF7A8F907F10807BD4680BD45
S31560002C2080B489B000AFF860B9607A604FF0000395
S31560002C30FB754FF00003BB61FA6840F24C63C2F269
S31560002C4000039A4207D0FA6840F22463C2F2000396
S31560002C509A4200D000BEBB68002B00D100BE7B68E4
S31560002C60002B00D100BEFA6840F24C63C2F200034A
S31560002C709A4206D0FA6840F22463C2F200039A428E
S31560002C8031D1BB68002B2ED07B68002B2BD0FB6824
S31560002C901B681B7DFB75FB689A7AFB7D42EA030322
S31560002CA0DAB2FB689A72FB7D03F02003002B1AD020
S31560002CB04FF01003FB617B680F2B01D87B68FB61CB
S31560002CC04FF00003BB610AE0FB681B68B968BA692C
S31560002CD00A4412781A70BB6903F10103BB61BA69D1
S31560002CE0FB699A42F0D3BB69184607F12407BD46D3
S31560002CF080BC704780B485B000AF78604FF0FF331A
S31560002D00FB737A6840F24C63C2F200039A4207D0C2
S31560002D107A6840F22463C2F200039A4200D000BE91
S31560002D207A6840F24C63C2F200039A4206D07A682F
S31560002D3040F22463C2F200039A4213D17B689A7A06
S31560002D407B681B681B7DDBB242EA0303DAB27B68F1
S31560002D509A727B689B7A23F06103FB737B684FF002
S31560002D6000029A72FB7B184607F11407BD4680BCC9
S31560002D70704700BF80B485B000AF78604FF0FF3316
S31560002D80FB737A6840F24C63C2F200039A4207D042
S31560002D907A6840F22463C2F200039A4200D000BE11
S31560002DA07A6840F24C63C2F200039A4206D07A68AF
S31560002DB040F22463C2F200039A4203D17B681B6827
S31560002DC01B7EFB73FB7B184607F11407BD4680BC70
S31560002DD0704700BF80B485B000AF78604FF00003E5
S31560002DE0FB737A6840F24C63C2F200039A4207D0E2
S31560002DF07A6840F22463C2F200039A4200D000BEB1
S31560002E007A6840F24C63C2F200039A4206D07A684E
S31560002E1040F22463C2F200039A420FD17B681B68BA
S31560002E201B7DFB737B689A7AFB7B42EA0303DAB20B
S31560002E307B689A72FB7B03F06003FB73FB7B18462F
S31560002E4007F11407BD4680BC704700BF80B483B0ED
S31560002E5000AF0346FB804EF20013CEF20003B7F9D3
S31560002E6006204FEA5212F98801F01F014FF0010067
S31560002E7000FA01F143F8221007F10C07BD4680BC49
S31560002E80704700BF80B483B000AF0346FB804EF24C
S31560002E900013CEF20003B7F906204FEA5212F98802
S31560002EA001F01F014FF0010000FA01F102F160022A
S31560002EB043F8221007F10C07BD4680BC704700BF7F
S31560002EC080B582B000AF42F20003CEF2040342F254
S31560002ED00002CEF20402126B42F480421A634FF093
S31560002EE000037B600EE07A6842F2F423C0F20103CD
S31560002EF033F812301BB21846FFF7C4FF7B6803F144
S31560002F0001037B607B681F2BEDD942F20003CEF292
S31560002F10040342F20002CEF20402126B22F48042F3
S31560002F201A6307F10807BD4680BD00BF80B485B04F
S31560002F3000AF03463960FB71FB79FB60FB681F2BB2
S31560002F4000D900BEFB681F2B08D8FA6842F27423CA
S31560002F50C0F2010353F822303A681A6007F1140789
S31560002F60BD4680BC704700BF80B485B000AF0246E6
S31560002F700B46FA71BB71FB79FB60FB681F2B00D9AE
S31560002F8000BEFB681F2B09D840F20003C4F226235B
S31560002F90FA68B97902F5886243F8221007F11407D6
S31560002FA0BD4680BC704700BF80B487B000AF0246A4
S31560002FB00B46FA71BB71FB797B617B691F2B00D96C
S31560002FC000BE7B691F2B7DD8BB79012B04D0022BF9
S31560002FD060D0002B2ED074E043F20003C4F20103EC
S31560002FE0D3F88830FB607B694FF0010202FA03F385
S31560002FF0FA6842EA0303FB6043F20003C4F201038A
S31560003000FA68C3F888207A6942F27423C0F2010331
S3156000301053F822301B683B613B6943F004033B6114
S315600030207A6942F27423C0F2010353F822303A6996
S315600030301A6047E043F20003C4F20103D3F8883014
S31560003040FB607B694FF0010202FA03F36FEA030348
S31560003050FA6802EA0303FB6043F20003C4F2010369
S31560003060FA68C3F888207A6942F27423C0F20103D1
S3156000307053F822301B683B613B6943F004033B61B4
S315600030807A6942F27423C0F2010353F822303A6936
S315600030901A6017E07A6942F27423C0F2010353F8AA
S315600030A022301B683B613B6923F004033B617A690C
S315600030B042F27423C0F2010353F822303A691A606F
S315600030C000E000BE07F11C07BD4680BC704700BF2C
S315600030D080B584B000AF0346FB71FB79FB60FB688B
S315600030E01F2B00D900BEFB681F2B1ED8FA6842F260
S315600030F07423C0F2010353F822301B68BB60FA6880
S3156000310042F27423C0F2010353F82230BA6842F0E7
S3156000311008021A60FA6842F2F423C0F2010333F837
S3156000312012301BB21846FFF791FE07F11007BD4635
S3156000313080BD00BF80B485B000AF0346FB71FB79EC
S31560003140FB60FB681F2B00D900BEFB681F2B13D8E2
S31560003150FA6842F27423C0F2010353F822301B6806
S31560003160BB60FA6842F27423C0F2010353F822305E
S31560003170BA6822F008021A6007F11407BD4680BCDF
S31560003180704700BF80B584B000AF0346FB71FB7922
S31560003190FB60FB681F2B00D900BEFB681F2B15D890
S315600031A043F20003C4F20103FA684FF0010101FA29
S315600031B002F2C3F88020FA6842F2F423C0F20103F7
S315600031C033F812301BB21846FFF75CFE07F11007A2
S315600031D0BD4680BD80B485B000AF0346FB714FF03D
S315600031E00003FB73FB79002B00D000BEFB79002B3C
S315600031F007D1FA7940F2C053C2F200039B5CFB73BD
S3156000320002E04FF00003FB73FB7B184607F11407DF
S31560003210BD4680BC704700BF80B485B000AF024633
S315600032200B46FA71BB80FA7940F21803C2F20003CA
S315600032304FEA021213441B79BB73BB7B4FEA13132D
S31560003240FB73FB7B40F21002C2F200024FEA83037B
S3156000325013445B88BA8802FB03F2F97B40F21003E1
S31560003260C2F2000333F82130B2FBF3F3BB60BB68F4
S31560003270184607F11407BD4680BC704780B487B016
S3156000328000AF40F20003C4F20203D3F8C830FB601B
S3156000329040F20003C4F202034FF00002C3F8C820F4
S315600032A04FF00003FB7139E0FB794FEA53037B74FF
S315600032B040F20002C4F20202797C0B464FEA4303F5
S315600032C00B444FEA0313134403F508731B79BB746D
S315600032D0FB7903F00103FB74FB7C002B0DD0F979BD
S315600032E0BB7C4FEA5313DBB21A4602F0030240F28C
S315600032F0B453C2F200035A540CE0F979BB7C4FEA2E
S315600033005303DBB21A4602F0030240F2B453C2F230
S3156000331000035A54FB7903F10103FB71FB79092B16
S31560003320C2D94FF00003BB6073E0BA6840F218037D
S31560003330C2F200034FEA021213441B79BB75BA7DD1
S3156000334042F26433C0F201039B5C3B75BA7D42F284
S315600033503433C0F201039B5C012B07D0022B27D0CC
S31560003360002B47D14FF00003FB7547E03B7DFF2BF9
S3156000337000D100BE40F20002C4F20202397D0B4663
S315600033804FEA43030B444FEA0313134403F50873F0
S315600033901B7A7B757B7D03F00103DBB2002B03D0C8
S315600033A04FF00003FB7529E04FF00103FB7525E044
S315600033B03B7DFF2B00D100BE40F20002C4F2020248
S315600033C0397D0B464FEA43030B444FEA031313441C
S315600033D003F50A731B797B757B7D03F00103DBB212
S315600033E0002B03D04FF00003FB7507E04FF002039C
S315600033F0FB7503E000BE4FF00003FB75BA6840F250
S31560003400C053C2F20003F97D9954BB6803F101030E
S31560003410BB60BB68002B88DD40F20003C4F2020388
S31560003420FA68C3F8C82007F11C07BD4680BC704720
S3156000343080B48DB000AF02460B46FA71BB80FA7954
S3156000344040F21803C2F200034FEA021213441B79DA
S31560003450BB74BB7C4FEA1313FB74BA7C42F29433A1
S31560003460C0F201039B5CFF2B1CD1FB7C40F2100277
S31560003470C2F200024FEA830313445B88BA8802FBF8
S3156000348003F240F20113C0F21003A3FB0213C3EB75
S3156000349002024FEA520213444FEAD3237B617B69EF
S315600034A0FB603DE0BA7C42F2C433C0F201039B5C30
S315600034B0FB76FA7E40F2B453C2F200039B5CBB76A5
S315600034C0BB88BB6240F6FF73FB62BA7E42F2F4339E
S315600034D0C0F201039B5C3B62BA7E42F2F833C0F2F3
S315600034E0010333F812301BB2FB61FB7C40F2100221
S315600034F0C2F200024FEA830313445B887B62FA6A76
S31560003500BB6AC3EB02037A6A396A01FB02F202FB09
S3156000351003F2FB6A92FBF3F3FA69C3EB0203FB6007
S31560003520FB68184607F13407BD4680BC704700BF8C
S3156000353080B586B000AF02460B46FA71BB804FF08D
S315600035400003BB60FB79002B00D000BEFB79002B2B
S3156000355042D1FA7940F21803C2F200034FEA02122E
S3156000356013441B79BB73BB7B2F2B00D900BEBA7B80
S3156000357042F23433C0F201039B5C012B2CD1BB7B3E
S3156000358003F004034FEA9303DAB2BB7B03F0300324
S315600035904FEAD303DBB21344FB73FB7B032B1BD8CD
S315600035A0FA7B42F20823C0F2010333F812303B6122
S315600035B0FA79BB8810461946FFF73AFF03467B61E6
S315600035C07A6913464FEA830313444FEA83031A4624
S315600035D03B69B2FBF3F3BB60BB68184607F118079B
S315600035E0BD4680BD80B586B000AF02460B46FA7117
S315600035F0BB804FF00003BB60FB79002B00D000BEA0
S31560003600FB79002B3FD1FA7940F21803C2F200032E
S315600036104FEA021213441B79BB73BB7B2F2B00D975
S3156000362000BEBA7B42F23433C0F201039B5C012BCD
S3156000363029D1BB7B03F004034FEA9303DAB2BB7B69
S3156000364003F030034FEAD303DBB21344FB73FB7B17
S31560003650032B18D8FA7B42F20823C0F2010333F831
S3156000366012303B61FA79BB8810461946FFF7E0FED7
S3156000367003467B617B6944F6206202FB03F23B6989
S31560003680B2FBF3F3BB60BB68184607F11807BD468B
S3156000369080BD00BF80B584B000AF02460B46FA71AC
S315600036A0BB80FA79BB8810461946FFF7C1FE034610
S315600036B0FB60FA6813464FEA830313444FEA4303F9
S315600036C01A4648F21F53C5F2EB13A3FB02134FEAE7
S315600036D0D303BB60BB68184607F11007BD4680BDC3
S315600036E080B584B000AF02460B46FA71BB80FA79AA
S315600036F0BB8810461946FFF79BFE0346FB60FB68D6
S315600037004FEA8303A3F52A63A3F10B03BB60BB688F
S31560003710184607F11007BD4680BD00BF80B584B06E
S3156000372000AF02460B46FA71BB80FA79BB88104639
S315600037301946FFF7AFFF0346FB60FA6813464FEA88
S31560003740C3031A4446F26763C6F2666383FB0213D9
S315600037504FEA63014FEAE273C3EB0103A3F5E47337
S31560003760A3F10303FB60FB68184607F11007BD462B
S3156000377080BD00BF80B485B000AF0346FB714FF0DB
S315600037800003FB60FB79002B09D1FA7940F218033C
S31560003790C2F200034FEA021213441B68FB60FB6827
S315600037A0184607F11407BD4680BC704780B487B0E1
S315600037B000AF03463960FB71FA7940F21803C2F232
S315600037C000034FEA021213441B79BB73BB7B4FEABB
S315600037D01313FB73FB7B40F21002C2F200024FEA46
S315600037E0830313445B881A463B689A420AD2FA7B83
S315600037F040F21003C2F2000333F8223003F1FF33C4
S31560003800BB811BE0FB7B40F21002C2F200024FEA72
S31560003810830313445B883B61FA7B40F21003C2F278
S31560003820000333F822307B617B6903F1FF333A682A
S3156000383002FB03F23B69B2FBF3F3BB81BB8918461B
S3156000384007F11C07BD4680BC704700BF80B485B0D9
S3156000385000AF03463960FB71FA7940F21803C2F291
S3156000386000034FEA021213441B79BB73BB7B4FEA1A
S315600038701313FB73FB7B40F21002C2F200024FEAA5
S31560003880830313445B881A463B689A4203D240F628
S31560003890FF73BB8111E03A6813464FEA0333C2EB0C
S315600038A00301FB7B40F21002C2F200024FEA83037F
S315600038B013445B88B1FBF3F3BB81BB89184607F100
S315600038C01407BD4680BC704780B48BB000AF03461A
S315600038D03960FB71FA7940F21803C2F200034FEACD
S315600038E0021213441B79BB72BB7A4FEA1313FB7245
S315600038F0BA7A42F29433C0F201039B5CFF2B1BD170
S315600039003B68002B02DD3B68FB6002E04FF0000382
S31560003910FB60FA6813464FEA0333C2EB0301FB7A96
S3156000392040F21002C2F200024FEA830313445B883E
S31560003930B1FBF3F33B813FE0BA7A42F2C433C0F2A3
S3156000394001039B5CBB74BA7C40F2B453C2F20003C1
S315600039509B5CFB7440F6FF737B62FA7C42F2F43345
S31560003960C0F201039B5CFB61FA7C42F2F833C0F261
S31560003970010333F812301BB27B61FB7A40F210020E
S31560003980C2F200024FEA830313445B883B627A69A2
S315600039903B68C3EB0203BB617B6A9AB2BB69796A17
S315600039A001FB03F1FB69B1FBF3F13B6AB1FBF3F396
S315600039B09BB2C3EB02033B813A8940F6FF739A429E
S315600039C002D940F6FF733B813B89184607F12C0705
S315600039D0BD4680BC704700BF80B586B000AF034669
S315600039E03960FB714FF000037B814FF001033B614F
S315600039F0FB79002B00D000BEFA7940F21803C2F2C0
S31560003A0000034FEA021213441B79BB75BB7D2F2B53
S31560003A1000D900BEBA7D42F23433C0F201039B5C2A
S31560003A20012B34D1BB7D03F004034FEA9303DAB272
S31560003A30BB7D03F030034FEAD303DBB21344FB755F
S31560003A40FB7D032B23D8FA7D42F20823C0F20103E3
S31560003A5033F812303B613B683A6902FB03F24CF67D
S31560003A60CD43CCF6CC43A3FB02134FEA1313FB60A2
S31560003A70FB791846F968FFF7E9FE03467B817A8988
S31560003A8040F6FF739A4202D940F6FF737B817B89C9
S31560003A90184607F11807BD4680BD00BF80B586B0E1
S31560003AA000AF03463960FB714FF000037B814FF036
S31560003AB001033B61FB79002B00D000BEFA7940F22E
S31560003AC01803C2F200034FEA021213441B79BB7556
S31560003AD0BB7D2F2B00D900BEBA7D42F23433C0F2D3
S31560003AE001039B5C012B34D1BB7D03F004034FEAD9
S31560003AF09303DAB2BB7D03F030034FEAD303DBB244
S31560003B001344FB75FB7D032B23D8FA7D42F2082311
S31560003B10C0F2010333F812303B613B683A6902FB3D
S31560003B2003F241F25973CDF2B713A3FB02134FEAC6
S31560003B309333FB60FB791846F968FFF787FE034607
S31560003B407B817A8940F6FF739A4202D940F6FF7309
S31560003B507B817B89184607F11807BD4680BD00BF8B
S31560003B6080B584B000AF03463960FB713A6813468E
S31560003B704FEA830313444FEA83021A444CF6CD435B
S31560003B80CCF6CC43A3FB02134FEAD303FB60FB796D
S31560003B901846F968FFF75AFE03467B817A8940F634
S31560003BA0FF739A4202D940F6FF737B817B89184680
S31560003BB007F11007BD4680BD80B584B000AF0346EF
S31560003BC03960FB713B6803F52A6303F10B033B60C5
S31560003BD03B684FEA9303FB60FB791846F968FFF789
S31560003BE035FE03467B817A8940F6FF739A4202D995
S31560003BF040F6FF737B817B89184607F11007BD4647
S31560003C0080BD00BF80B584B000AF03463960FB71EC
S31560003C103B6803F5E47303F103033B603B68FB60B9
S31560003C20FA6813464FEA83031A4448F63963C3F6C3
S31560003C30E303A3FB02134FEA5303FB60FB791846C9
S31560003C40F968FFF78DFF03467B817A8940F6FF733B
S31560003C509A4202D940F6FF737B817B89184607F149
S31560003C601007BD4680BD00BF80B485B000AF7860E8
S31560003C7039607B684FEA1323FB813B68002B05D0D4
S31560003C807B684FEA1363DAB23B681A70FB891846A1
S31560003C9007F11407BD4680BC704700BF80B483B08F
S31560003CA000AF0346FB804EF20013CEF20003B7F975
S31560003CB006204FEA5212F98801F01F014FF0010009
S31560003CC000FA01F102F1600243F8221007F10C07D5
S31560003CD0BD4680BC704700BF80B400AFBD4680BCA7
S31560003CE0704700BF80B485B000AF0346FB714FF0EC
S31560003CF00003FB60FB68184607F11407BD4680BCED
S31560003D00704700BF80B485B000AF0346FB714FF0CB
S31560003D100003FB60FB68184607F11407BD4680BCCC
S31560003D20704700BF80B483B000AF02460B46FA719D
S31560003D30BB8007F10C07BD4680BC704780B483B07A
S31560003D4000AF02460B46FA71BB8007F10C07BD4611
S31560003D5080BC704780B483B000AF02460B46FA71F0
S31560003D60BB8007F10C07BD4680BC704780B483B04A
S31560003D7000AF02460B46FA71BB8007F10C07BD46E1
S31560003D8080BC704780B483B000AF02460B46FA71C0
S31560003D90BB8007F10C07BD4680BC704780B485B018
S31560003DA000AF78604FF00003FB73FB7B184607F1AA
S31560003DB01407BD4680BC704780B485B000AF03462B
S31560003DC0FB714FF0FF33FB60FB68184607F1140781
S31560003DD0BD4680BC704700BF80B485B000AF034667
S31560003DE0FB714FF00003FB60FB68184607F1140790
S31560003DF0BD4680BC704700BF80B485B000AF034647
S31560003E00FB714FF00103FB73FB7B184607F1140748
S31560003E10BD4680BC704700BF80B485B000AF034626
S31560003E20FB714FF00003FB60FB68184607F114074F
S31560003E30BD4680BC704700BF80B485B000AF034606
S31560003E403960FB714FF00003FB73FB7B184607F18B
S31560003E501407BD4680BC704780B485B000AF03468A
S31560003E603960FB714FF00003FB73FB7B184607F16B
S31560003E701407BD4680BC704780B483B000AF03466C
S31560003E80FB7107F10C07BD4680BC704780B483B0F8
S31560003E9000AF0346FB7107F10C07BD4680BC704757
S31560003EA080B483B000AF0346FB7107F10C07BD46D3
S31560003EB080BC704780B483B000AF0346FB7107F1E6
S31560003EC00C07BD4680BC704780B483B000AF034624
S31560003ED0FB7107F10C07BD4680BC704780B483B0A8
S31560003EE000AF0346FB7107F10C07BD4680BC704707
S31560003EF080B483B000AF03463960FB7107F10C07ED
S31560003F00BD4680BC704700BF80B483B000AF034637
S31560003F103960FB7107F10C07BD4680BC704700BF76
S31560003F2080B483B000AF786007F10C07BD4680BCF3
S31560003F30704700BF80B483B000AF0346FB7107F1E2
S31560003F400C07BD4680BC7047684620F007018D4669
S31560003F5089B500AF4FF00000FFF7ECFF4FF0760039
S31560003F60FFF79CFEBD46BDE889408546704700BFA9
S31560003F70684620F007018D4689B500AF4FF0010015
S31560003F80FFF7D8FF4FF07700FFF788FEBD46BDE824
S31560003F9089408546704700BF684620F007018D4618
S31560003FA089B500AF4FF00200FFF7C4FF4FF078000D
S31560003FB0FFF774FEBD46BDE889408546704700BF81
S31560003FC0684620F007018D4689B500AF4FF00300C3
S31560003FD0FFF7B0FF4FF07900FFF760FEBD46BDE822
S31560003FE089408546704700BF684620F007018D46C8
S31560003FF089B500AF4FF00400FFF79CFF4FF07A00E1
S31560004000FFF74CFEBD46BDE889408546704700BF58
S31560004010684620F007018D4689B500AF4FF0050070
S31560004020FFF788FF4FF07B00FFF738FEBD46BDE81F
S3156000403089408546704700BF684620F007018D4677
S3156000404089B500AF4FF00600FFF774FF4FF07C00B4
S31560004050FFF724FEBD46BDE889408546704700BF30
S31560004060684620F007018D4689B500AF4FF007001E
S31560004070FFF760FF4FF07D00FFF710FEBD46BDE81D
S3156000408089408546704700BF684620F007018D4627
S3156000409089B500AF4FF00800FFF74CFF4FF07E0088
S315600040A0FFF7FCFDBD46BDE889408546704700BF09
S315600040B0684620F007018D4689B500AF4FF00900CC
S315600040C0FFF738FF4FF07F00FFF7E8FDBD46BDE81C
S315600040D089408546704700BF684620F007018D46D7
S315600040E089B500AF4FF00A00FFF724FF4FF080005C
S315600040F0FFF7D4FDBD46BDE889408546704700BFE1
S31560004100684620F007018D4689B500AF4FF00B0079
S31560004110FFF710FF4FF08100FFF7C0FDBD46BDE819
S3156000412089408546704700BF684620F007018D4686
S3156000413089B500AF4FF00C00FFF7FCFE4FF0820030
S31560004140FFF7ACFDBD46BDE889408546704700BFB8
S31560004150684620F007018D4689B500AF4FF00D0027
S31560004160FFF7E8FE4FF08300FFF798FDBD46BDE818
S3156000417089408546704700BF684620F007018D4636
S3156000418089B500AF4FF00E00FFF7D4FE4FF0840004
S31560004190FFF784FDBD46BDE889408546704700BF90
S315600041A0684620F007018D4689B500AF4FF00F00D5
S315600041B0FFF7C0FE4FF08500FFF770FDBD46BDE816
S315600041C089408546704700BF684620F007018D46E6
S315600041D089B500AF4FF01000FFF7ACFE4FF08600D8
S315600041E0FFF75CFDBD46BDE889408546704700BF68
S315600041F0684620F007018D4689B500AF4FF0110083
S31560004200FFF798FE4FF08700FFF748FDBD46BDE813
S3156000421089408546704700BF684620F007018D4695
S3156000422089B500AF4FF01200FFF784FE4FF08800AB
S31560004230FFF734FDBD46BDE889408546704700BF3F
S31560004240684620F007018D4689B500AF4FF0130030
S31560004250FFF770FE4FF08900FFF720FDBD46BDE811
S3156000426089408546704700BF684620F007018D4645
S3156000427089B500AF4FF01400FFF75CFE4FF08A007F
S31560004280FFF70CFDBD46BDE889408546704700BF17
S31560004290684620F007018D4689B500AF4FF01500DE
S315600042A0FFF748FE4FF08B00FFF7F8FCBD46BDE810
S315600042B089408546704700BF684620F007018D46F5
S315600042C089B500AF4FF01600FFF734FE4FF08C0053
S315600042D0FFF7E4FCBD46BDE889408546704700BFF0
S315600042E0684620F007018D4689B500AF4FF017008C
S315600042F0FFF720FE4FF08D00FFF7D0FCBD46BDE80E
S3156000430089408546704700BF684620F007018D46A4
S3156000431089B500AF4FF01800FFF70CFE4FF08E0026
S31560004320FFF7BCFCBD46BDE889408546704700BFC7
S31560004330684620F007018D4689B500AF4FF0190039
S31560004340FFF7F8FD4FF08F00FFF7A8FCBD46BDE80C
S3156000435089408546704700BF684620F007018D4654
S3156000436089B500AF4FF01A00FFF7E4FD4FF09000FB
S31560004370FFF794FCBD46BDE889408546704700BF9F
S31560004380684620F007018D4689B500AF4FF01B00E7
S31560004390FFF7D0FD4FF09100FFF780FCBD46BDE80A
S315600043A089408546704700BF684620F007018D4604
S315600043B089B500AF4FF01C00FFF7BCFD4FF09200CF
S315600043C0FFF76CFCBD46BDE889408546704700BF77
S315600043D0684620F007018D4689B500AF4FF01D0095
S315600043E0FFF7A8FD4FF09300FFF758FCBD46BDE808
S315600043F089408546704700BF684620F007018D46B4
S3156000440089B500AF4FF01E00FFF794FD4FF09400A2
S31560004410FFF744FCBD46BDE889408546704700BF4E
S31560004420684620F007018D4689B500AF4FF01F0042
S31560004430FFF780FD4FF09500FFF730FCBD46BDE805
S3156000444089408546704700BF80B584B000AF78600C
S315600044504FF6FF737B814FF000033B812DE0398976
S3156000446040F22802C2F200020B464FEA83030B4475
S315600044704FEA830313441B68002B1AD0398940F234
S315600044802802C2F200020B464FEA83030B444FEA4E
S31560004490830313441B68786819464FF0090203F0DA
S315600044A0D1FA0346FB60FB68002B02D13B897B8116
S315600044B006E03B8903F101033B813B89012BCED9A1
S315600044C07B89184607F11007BD4680BD80B485B06C
S315600044D000AF0346FB80FB88012B00D900BEFB883A
S315600044E0012B00F28580F98840F22802C2F20002B0
S315600044F00B464FEA83030B444FEA8303134403F1ED
S3156000450010031B78022B00D900BEF98840F22802FE
S31560004510C2F200020B464FEA83030B444FEA830361
S31560004520134403F110031B78022B61D8F98840F21B
S315600045302802C2F200020B464FEA83030B444FEA9D
S315600045408303134403F110031B781A4642F20043B7
S31560004550C0F2010353F822304FF000021A60F98866
S3156000456040F22802C2F200020B464FEA83030B4474
S315600045704FEA8303134403F10C031B68FB60F9885D
S3156000458040F22802C2F200020B464FEA83030B4454
S315600045904FEA83031344DB887B814FF000033B8142
S315600045A014E040F20003C4F2020379893A890A44AE
S315600045B0F968098802F5007243F82210FB6803F176
S315600045C00203FB603B8903F101033B81F98840F2FA
S315600045D02802C2F200020B464FEA83030B444FEAFD
S315600045E08303134403F108031B883A899A42D8D39C
S315600045F007F11407BD4680BC704700BF80B485B024
S3156000460000AF0346FB80FB88012B00D900BEFB8808
S31560004610012B00F28D80F98840F22802C2F2000276
S315600046200B464FEA83030B444FEA8303134403F1BB
S3156000463010031B78022B00D900BEF98840F22802CD
S31560004640C2F200020B464FEA83030B444FEA830330
S315600046501344DA8840F2FF139A4200D900BEF98803
S3156000466040F22802C2F200020B464FEA83030B4473
S315600046704FEA83031344DB88FB81FB89FF2B18D841
S31560004680F98840F22802C2F200020B464FEA830321
S315600046900B444FEA8303134403F110031B781A4655
S315600046A042F20C43C0F2010353F82230FA891A60D1
S315600046B019E0F98840F22802C2F200020B464FEA7E
S315600046C083030B444FEA8303134403F110031B78FF
S315600046D01A4642F21843C0F2010353F82230FA89AF
S315600046E0A2F580721A60F98840F22802C2F20002CE
S315600046F00B464FEA83030B444FEA8303134403F1EB
S3156000470010031B781A4642F20043C0F2010353F8C5
S3156000471022304FF001021A6040F20003C4F2020335
S3156000472040F20002C4F20202526842F001025A608C
S3156000473007F11407BD4680BC704700BF80B485B0E2
S3156000474000AF0346FB80FB88012B00D900BEF988C9
S3156000475040F22802C2F200020B464FEA83030B4482
S315600047604FEA8303134403F110031B78022B00D92D
S3156000477000BEF98840F22802C2F200020B464FEAF8
S3156000478083030B444FEA83031344DA8840F2FF1332
S315600047909A4200D900BEFB88012B5CD8F98840F2AA
S315600047A02802C2F200020B464FEA83030B444FEA2B
S315600047B0830313449B88FB81FB89FF2B18D8F988F8
S315600047C040F22802C2F200020B464FEA83030B4412
S315600047D04FEA8303134403F110031B781A4642F22F
S315600047E00C43C0F2010353F82230FA891A6019E0CB
S315600047F0F98840F22802C2F200020B464FEA8303B0
S315600048000B444FEA8303134403F110031B781A46E3
S3156000481042F21843C0F2010353F82230FA89A2F536
S3156000482080721A60F98840F22802C2F200020B46D2
S315600048304FEA83030B444FEA8303134403F11003E7
S315600048401B781A4642F20043C0F2010353F8223045
S315600048504FF001021A6007F11407BD4680BC70472D
S3156000486080B483B000AF0346FB80FB88012B00D980
S3156000487000BEFB88012B18D8F98840F22802C2F2E4
S3156000488000020B464FEA83030B444FEA830313444B
S3156000489003F110031B781A4642F20043C0F201038B
S315600048A053F822304FF000021A6007F10C07BD463C
S315600048B080BC704780B483B000AF0346FB80FB8842
S315600048C0012B00D900BEFB88012B18D8F98840F26D
S315600048D02802C2F200020B464FEA83030B444FEAFA
S315600048E08303134403F110031B781A4642F2004314
S315600048F0C0F2010353F822304FF001021A6007F14B
S315600049000C07BD4680BC704780B483B000AF0346D9
S31560004910FB71FB79142B00D900BE40F20003C4F290
S31560004920020340F20002C4F2020202F590521168DC
S31560004930FA794FF0010000FA02F241EA020203F549
S3156000494090531A6007F10C07BD4680BC704700BFE4
S3156000495080B485B000AF0346FB71FB79142B00D998
S3156000496000BE40F20003C4F2020340F20002C4F249
S31560004970020202F590521168FA794FF0010000FACE
S3156000498002F26FEA020201EA020203F590531A602C
S3156000499040F20003C4F2020303F590531B68FB6008
S315600049A0FB6803F10103FB6007F11407BD4680BC99
S315600049B0704700BF80B485B000AF0346FB71FB79DA
S315600049C0142B00D900BE40F20003C4F2020340F289
S315600049D00002C4F2020202F5905202F10802116866
S315600049E0FA794FF0010000FA02F241EA020203F599
S315600049F0905303F108031A6040F20003C4F2020305
S31560004A0003F5905303F108031B68FB60FB6803F131
S31560004A100103FB6007F11407BD4680BC704700BF09
S31560004A2080B483B000AF40F20003C4F202035B6857
S31560004A303B6040F20003C4F2020340F20002C4F29B
S31560004A400202526822F001025A6040F20003C4F288
S31560004A50020303F5A05303F104031B687B6040F275
S31560004A600003C4F2020340F20002C4F2020202F53D
S31560004A70A05202F10402126822F0010203F5A0536B
S31560004A8003F104031A6040F20003C4F2020340F229
S31560004A900002C4F20202D26D42F01002DA6540F200
S31560004AA00003C4F2020340F20002C4F20202D2F82A
S31560004AB09C2042F01002C3F89C2040F20003C4F22E
S31560004AC0020340F20002C4F20202D2F8DC2042F095
S31560004AD01002C3F8DC2040F20003C4F2020340F285
S31560004AE00002C4F2020202F5A45202F11002126838
S31560004AF042F0040203F5A45303F110031A6040F276
S31560004B000003C4F2020340F20002C4F2020202F59C
S31560004B10A45202F11C02126842F0040203F5A45387
S31560004B2003F11C031A6040F20003C4F2020340F270
S31560004B300002C4F2020202F5A45202F128021268CF
S31560004B4042F0040203F5A45303F128031A6040F20D
S31560004B500003C4F2020340F20002C4F2020202F54C
S31560004B609852126842F0040203F598531A6040F2B4
S31560004B700003C4F2020303F5A05303F104037A6849
S31560004B801A6040F20003C4F202033A685A6007F101
S31560004B900C07BD4680BC704780B483B000AF034647
S31560004BA0FB71FB79002B00D000BEFA7942F2282314
S31560004BB0C0F2010333F832301BB2184607F10C0716
S31560004BC0BD4680BC704700BF80B483B000AF03466B
S31560004BD0FB71FB79002B00D000BEFB7942F22822E4
S31560004BE0C0F201024FEAC30313445B881BB2184646
S31560004BF007F10C07BD4680BC704700BFB0B592B0E8
S31560004C0000AF13460246FA710A46BA807B8042F2CA
S31560004C107842C0F2010207F10C0392E803001860C3
S31560004C2003F104031980FB79002B00D000BEFB79E9
S31560004C30002B40F09D80FA7940F21803C2F200031F
S31560004C404FEA021213441B79FB74FA7C07F10C03DA
S31560004C501046194600F028F9FB89A7F842303B8ACE
S31560004C60A7F84430BB89A7F84630BB88184600F0E1
S31560004C7083F80446B7F84230184600F07DF80346DC
S31560004C8003FB04F3FB61FB691C464FEAE475B7F866
S31560004C904630184600F070F803461A464FEAE2734B
S31560004CA002FB05F104FB03F00144A4FB0223194453
S31560004CB00B46C7E90823C7E90823D7E9080100F0CE
S31560004CC0B3F803467B61BB88184600F055F8044686
S31560004CD0B7F84430184600F04FF8034603FB04F378
S31560004CE0FB62FB6A1C464FEAE475B7F84630184625
S31560004CF000F042F803461A464FEAE27302FB05F1FA
S31560004D0004FB03F00144A4FB022319440B46C7E9E4
S31560004D100C23C7E90C237B88184600F02DF804465F
S31560004D20B7F84630184600F027F8034603FB04F34D
S31560004D301A464FEAE2734FEA92414FEA833040EAFD
S31560004D400101F9634FEA8233BB63D7E90C01D7E906
S31560004D500E23121843EB01031046194600F024F89F
S31560004D600346BB61FB7918467969BA6900F05CFA5B
S31560004D7007F14807BD46B0BD80B485B000AF0346B5
S31560004D80FB804FF40043FB60FA88FB6882EA03020B
S31560004D90FB68C3EB0203BB60BB68184607F11407E8
S31560004DA0BD4680BC704700BFB0B489B000AFC7E9EC
S31560004DB000014FF0FF3041F6FF71C7E904014FF083
S31560004DC000004FF010414FEAE131C7E90601D7E92B
S31560004DD00001D7E90445844275EB010C04DAD7E992
S31560004DE00401C7E900010BE0D7E90045D7E90601F0
S31560004DF0844275EB010C03DAD7E90601C7E90001C5
S31560004E0079684FEA814138684FEA903241EA020296
S31560004E1079684FEAA1331346FB60FB68184607F1D1
S31560004E202407BD46B0BC7047B0B489B000AFC7E9CF
S31560004E3000014FF0FF3041F6FF71C7E904014FF002
S31560004E4000004FF010414FEAE131C7E90601D7E9AA
S31560004E500001D7E90445844275EB010C04DAD7E911
S31560004E600401C7E900010BE0D7E90045D7E906016F
S31560004E70844275EB010C03DAD7E90601C7E9000144
S31560004E8079684FEA013138684FEA105241EA020206
S31560004E9079684FEA21531346FB60FB68184607F1B1
S31560004EA02407BD46B0BC704790B4A4B000AF0346BB
S31560004EB03960FB714FF00F03BB654FF00103FB6573
S31560004EC04FF001033B6642F22843C0F2010307F14B
S31560004ED0480C0FCB8CE80F004FF00003BB67FA79E4
S31560004EE0BB6D02EA0303BB66BB6E07F19002134417
S31560004EF013F8483C87F86730FB7903F030034FEAD4
S31560004F001313FB66FB6E4FEA43037B67BB6E042B92
S31560004F1006D9BB6E082B03D87B6F03F101037B6751
S31560004F2097F86730052B00F2518101A252F823F001
S31560004F30494F0000974F0000ED4F000053500000AE
S31560004F40C55000002D51000040F20002C4F202027A
S31560004F50796F0B464FEA43030B444FEA031313443E
S31560004F6003F508731B79DBB203F006034FEA5303BC
S31560004F703B6742F22443C0F201031B6803F19003CE
S31560004F801A467B6F4FEAC3013B6F0B444FEA8303BC
S31560004F901344BB6722E140F20002C4F20202796F59
S31560004FA00B464FEA43030B444FEA0313134403F5DE
S31560004FB008731B79DBB203F060034FEA53133B6758
S31560004FC042F22443C0F201031B6803F190031A46C0
S31560004FD07B6F4FEA430303F101034FEA83013B6FA3
S31560004FE00B444FEA83031344BB67F7E040F20002C9
S31560004FF0C4F20202796F0B464FEA43030B444FEA51
S315600050000313134403F508731B7ADBB21A46FB6D70
S3156000501002EA0303FB67FB6F002B0CD142F22443C9
S31560005020C0F201031B6803F5C0727B6F4FEA83030E
S315600050301344BB67D2E042F22443C0F201031B680B
S3156000504003F5D8731A467B6F4FEAC3031344BB67F5
S31560005050C4E040F20002C4F20202796F0B464FEAE6
S3156000506043030B444FEA0313134403F50A731B7996
S31560005070DBB21A463B6E02EA0303C7F88030D7F804
S315600050808030002B0CD142F22443C0F201031B682E
S3156000509003F5CC727B6F4FEA83031344BB679DE0D5
S315600050A042F22443C0F201031B6803F5D8731A4623
S315600050B07B6F4FEA430303F101034FEA8303134413
S315600050C0BB678BE042F23843C0F2010307F1080C7C
S315600050D01C460FCCACE80F000FCCACE80F000FCC31
S315600050E0ACE80F0094E80F008CE80F00FA79BB6D0E
S315600050F002EA03034FEA830307F19002134453F86D
S31560005100883CC7F8843042F22443C0F201031B682E
S3156000511003F5F0731A46FB6E4FEA8301D7F88430C5
S315600051200B444FEA83031344BB6757E040F2000227
S31560005130C4F20202796F0B464FEA43030B444FEA0F
S315600051400313134403F506731B79DBB203F0010303
S31560005150C7F8883040F20002C4F20202796F0B464B
S315600051604FEA43030B444FEA0313134403F50673F4
S315600051701B79DBB203F00203C7F88C30D7F88830AE
S31560005180002B03D04FF00103C7F88830D7F88C3076
S31560005190002B03D04FF00103C7F88C3042F2244352
S315600051A0C0F201031B6803F5A8731A46FB6E4FEA4B
S315600051B04301D7F888300B444FEA4301D7F88C3067
S315600051C00B444FEA83031344BB6707E03B684FF425
S315600051D080425A803B684FF000029A80BB6F002B7A
S315600051E007D0BB6F1A883B685A80BB6F5A883B688A
S315600051F09A80FA6E42F21023C0F201039B5C002B88
S3156000520008D042F22443C0F201031B689A8B3B68C4
S315600052101A8003E03B684FF480421A8007F19007DA
S31560005220BD4690BC704700BF80B487B000AF0346F0
S31560005230B9607A60FB734FF07F437B61FA7B42F221
S315600052402823C0F2010333F832303B82FB7B42F203
S315600052502822C0F201024FEAC30313445B887B82B3
S3156000526040F20003C4F20203388A40F20002C4F23C
S315600052700202398A01F5C06152F821107A6901EAA1
S315600052800201BA684FEA122241EA020100F5C062E1
S3156000529043F8221040F20003C4F20203788A40F217
S315600052A00002C4F20202798A01F5C06152F8211047
S315600052B07A6901EA02017A684FEA122241EA02013A
S315600052C000F5C06243F8221007F11C07BD4680BC9A
S315600052D0704700BF80B500AFFEF7FEFCFDF7CEFF5E
S315600052E080BD00BF80B483B000AF0346FB7140F25F
S315600052F00003C4F20203FA796FEA42626FEA52620D
S31560005300D2B21A6507F10C07BD4680BC704700BF74
S3156000531080B485B000AF0346FB714FF000037B811C
S31560005320FB79022B00D900BEFB79022B1BD8FA79D8
S3156000533042F28043C0F2010353F822301B6803F443
S315600053408053FB60FB68002BF1D0FA7942F2804310
S31560005350C0F2010353F822301B689BB24FEA035335
S315600053604FEA13537B817B89184607F11407BD46C4
S3156000537080BC704790B486B000AFF871B9717A712D
S315600053803B71FB79022B00D900BEFB79022B00F240
S31560005390BC8042F2CC42C0F2010207F10C031268F3
S315600053A01146198003F102034FEA12421A704FF058
S315600053B00103BB744FF00003FB74FB7907F118021D
S315600053C0134413F80C3C7B7440F20003C4F20203EE
S315600053D0D3F8C8307B6140F20003C4F202034FF099
S315600053E00002C3F8C82040F20002C4F20202797CCF
S315600053F00B464FEA43030B444FEA0313134403F58A
S3156000540006737A791A717B7903F00103DBB2002B9C
S3156000541002D04FF00003BB747B7903F00203002BCC
S3156000542002D04FF00103FB7440F20002C4F20202A4
S31560005430797C42F2BC43C0F201031B68FC7997F8A1
S3156000544012C0F87C4FEA4404A4444FEA4C0C604412
S31560005450034403F1800318790B464FEA43030B4478
S315600054604FEA0313134403F5047302461A7140F2BC
S315600054700003C4F202037A69C3F8C820FA7942F2DB
S315600054808C43C0F2010353F82230BA791A60FA7974
S3156000549042F28C43C0F2010353F82220F97942F2BA
S315600054A08C43C0F2010353F821301B6843F040037C
S315600054B013603B79002B15D140F20003C4F202035E
S315600054C040F20002C4F202021169F87942F298428F
S315600054D0C0F2010252F820206FEA020201EA0202DB
S315600054E01A6112E040F20003C4F2020340F20002C5
S315600054F0C4F202021169F87942F29842C0F20102DE
S3156000550052F8202041EA02021A6107F11807BD46E7
