:0200000460009A
:100000000000012099020000090300000B0300001A
:100010000D0300000F0300001103000000000000AA
:1000200000000000000000000000000013030000BA
:100030001503000000000000170300001903000072
:100040001B030000C17100001F030000210300001A
:1000500023030000250300002703000029030000FC
:100060002B0300002D030000D51C0000011D000023
:10007000330300003503000037030000390300009C
:100080003B0300003D0300003F030000410300006C
:10009000430300004503000047030000490300003C
:1000A0004B03000000000000000000000000000002
:1000B0000000000000000000000000004D030000F0
:1000C0004F030000510300005303000055030000DC
:1000D00057030000590300005B0300005D030000AC
:1000E0005F0300006103000063030000650300007C
:1000F00067030000690300006B0300006D0300004C
:100100006F0300007103000073030000750300001B
:1001100077030000790300007B0300007D030000EB
:100120007F030000810300008303000085030000BB
:1001300087030000890300008B0300008D0300008B
:100140008F0300009103000093030000950300005B
:1001500097030000990300009B0300009D0300002B
:100160009F030000A1030000A3030000A5030000FB
:10017000A7030000A9030000AB030000AD030000CB
:10018000AF030000B1030000B3030000B50300009B
:10019000B7030000B9030000BB030000BD0300006B
:1001A000BF030000C1030000C3030000C50300003B
:1001B000C7030000C9030000CB030000CD0300000B
:1001C000CF030000D1030000D3030000D5030000DB
:1001D000D7030000D9030000DB030000DD030000AB
:1001E000DF030000E1030000E3030000E50300007B
:1001F000E7030000E9030000EB030000ED0300004B
:10020000EF030000F1030000F3030000F50300001A
:10021000F7030000F9030000F1310000193200007B
:10022000413200006932000091320000B932000012
:10023000E13200000933000031330000593300007F
:1002400081330000A9330000D1330000F9330000EE
:10025000213400004934000071340000993400005A
:10026000C1340000E93400001135000039350000C8
:100270006135000089350000B1350000D935000036
:1002800001360000293600005136000079360000A2
:10029000A1360000C9360000684880476848002839
:1002A0000BD168486849694A884206D091421CBF10
:1002B00050F8043B41F8043BF8D165486549664A6B
:1002C000884206D091421CBF50F8043B41F8043BE1
:1002D000F8D162486249634A914218BF41F8040B61
:1002E000FAD1000000000000000000000000000043
:1002F000DFF874010FF2030E00474FF000004FF0DB
:100300000001DFF868F1FEE7FEE7FEE7FEE7FEE743
:10031000FEE7FEE7FEE7FEE7FEE7FEE7FEE7FEE7B5
:10032000FEE7FEE7FEE7FEE7FEE7FEE7FEE7FEE7A5
:10033000FEE7FEE7FEE7FEE7FEE7FEE7FEE7FEE795
:10034000FEE7FEE7FEE7FEE7FEE7FEE7FEE7FEE785
:10035000FEE7FEE7FEE7FEE7FEE7FEE7FEE7FEE775
:10036000FEE7FEE7FEE7FEE7FEE7FEE7FEE7FEE765
:10037000FEE7FEE7FEE7FEE7FEE7FEE7FEE7FEE755
:10038000FEE7FEE7FEE7FEE7FEE7FEE7FEE7FEE745
:10039000FEE7FEE7FEE7FEE7FEE7FEE7FEE7FEE735
:1003A000FEE7FEE7FEE7FEE7FEE7FEE7FEE7FEE725
:1003B000FEE7FEE7FEE7FEE7FEE7FEE7FEE7FEE715
:1003C000FEE7FEE7FEE7FEE7FEE7FEE7FEE7FEE705
:1003D000FEE7FEE7FEE7FEE7FEE7FEE7FEE7FEE7F5
:1003E000FEE7FEE7FEE7FEE7FEE7FEE7FEE7FEE7E5
:1003F000FEE7FEE7FEE7FEE7FEE7FEE7FEE7FEE7D5
:10040000FEE7FEE7FEE7FEE7FEE7FEE7FEE7FEE7C4
:10041000FEE7FEE7FEE7FEE7FEE7FEE7FEE7FEE7B4
:10042000FEE7FEE7FEE7FEE7FEE7FEE7FEE7FEE7A4
:10043000FEE7FEE7FEE7FEE7FEE70000FD740000D2
:10044000010000007004006070040000080000203B
:10045000C432016008000020B00500200000000048
:10046000B00500209807002005820000990A0000CE
:1004700040F2B053C2F200031A780AB90120187092
:10048000704700BF40F20800C2F2000008B50368E0
:100490002BB140F20003C0F2000303B1984708BD3E
:1004A00080B500AF4FF00F004FF0010101F0B0FE3A
:1004B00040F23463C2F200034FF001021A6040F2CE
:1004C0004063C2F200034FF000021A6080BD00BF1B
:1004D00080B500AF4FF00F004FF0000101F098FE23
:1004E00040F23463C2F200034FF000021A6040F29F
:1004F0004063C2F200034FF000021A6080BD00BFEB
:1005000080B500AF40F22C60C2F200004FF0010154
:100510004FF0E10205F048FD40F21463C2F200031F
:100520004FF001021A6080BD80B500AF40F22C6030
:10053000C2F200004FF001014FF03C0205F034FD23
:1005400040F21463C2F200034FF000021A6080BD53
:1005500080B582B000AF78607B6840F22C60C2F258
:1005600000004FF001011A4605F01EFD07F10807D3
:10057000BD4680BD80B500AF40F22860C2F20000E9
:1005800040F20001C4F205014FF2E152C0F205024F
:100590004FF4807305F0ACFA40F22C60C2F2000018
:1005A00040F20011C4F2050140F2E73240F2CF738D
:1005B00005F09EFA80BD00BF80B582B000AF7860C4
:1005C0007B68002B10D140F22860C2F200004FF08F
:1005D000010105F0F1FB40F22860C2F200004FF08B
:1005E000020105F0E9FB3BE07B68002B1ADD7B682C
:1005F00040F22860C2F200004FF001011A4605F0F7
:10060000D3FC40F22860C2F200004FF0010105F077
:1006100049FB40F22860C2F200004FF0020105F0F1
:10062000CBFB1DE07B68C3F100037B607B6840F27D
:100630002860C2F200004FF002011A4605F0B4FC37
:1006400040F22860C2F200004FF0020105F02AFBE0
:1006500040F22860C2F200004FF0010105F0ACFB4F
:1006600007F10807BD4680BD80B582B000AF786055
:100670007B68002B10D140F22860C2F200004FF0DE
:10068000030105F099FB40F22860C2F200004FF030
:10069000040105F091FB3BE07B68002B1ADD7B68D1
:1006A00040F22860C2F200004FF003011A4605F044
:1006B0007BFC40F22860C2F200004FF0030105F01D
:1006C000F1FA40F22860C2F200004FF0040105F098
:1006D00073FB1DE07B68C3F100037B607B6840F225
:1006E0002860C2F200004FF004011A4605F05CFCDD
:1006F00040F22860C2F200004FF0040105F0D2FA87
:1007000040F22860C2F200004FF0030105F054FBF4
:1007100007F10807BD4680BD80B582B000AF7860A4
:100720007B68002B10D140F22860C2F200004FF02D
:10073000050105F041FB40F22860C2F200004FF0D5
:10074000060105F039FB3BE07B68002B1ADD7B6876
:1007500040F22860C2F200004FF005011A4605F091
:1007600023FC40F22860C2F200004FF0050105F0C2
:1007700099FA40F22860C2F200004FF0060105F03D
:100780001BFB1DE07B68C3F100037B607B6840F2CC
:100790002860C2F200004FF006011A4605F004FC82
:1007A00040F22860C2F200004FF0060105F07AFA2C
:1007B00040F22860C2F200004FF0050105F0FCFA9B
:1007C00007F10807BD4680BD80B582B000AF7860F4
:1007D0007B68002B10D140F22860C2F200004FF07D
:1007E000070105F0E9FA40F22860C2F200004FF07C
:1007F000080105F0E1FA3BE07B68002B1ADD7B681D
:1008000040F22860C2F200004FF007011A4605F0DE
:10081000CBFB40F22860C2F200004FF0070105F068
:1008200041FA40F22860C2F200004FF0080105F0E2
:10083000C3FA1DE07B68C3F100037B607B6840F274
:100840002860C2F200004FF008011A4605F0ACFB28
:1008500040F22860C2F200004FF0080105F022FAD1
:1008600040F22860C2F200004FF0070105F0A4FA40
:1008700007F10807BD4680BD80B483B000AF786043
:100880007B6803F12E037B6007F10C07BD4680BC3B
:10089000704700BF80B500AF03F070FE42F6E8106D
:1008A000C0F2010004F030FC03461A4640F23863FF
:1008B000C2F200031A7080BD80B483B000AF7860CC
:1008C00003E07B6803F1FF337B607B68002BF8DC7F
:1008D00007F10C07BD4680BC704700BF80B586B0ED
:1008E00000AF40F23863C2F200031B78184604F0F0
:1008F0006FFC0346FB80FB88184607F0C3F90246ED
:100900000B461046194616A3D3E9002307F05AFBFD
:1009100002460B46104619464FF000024FF0804346
:1009200003F5A01307F024FA02460B46C7E9022399
:10093000D7E902010CA3D3E9002307F019FA024614
:100940000B461046194607F025FC03467B617B6980
:10095000184607F11807BD4680BD00BFAFF3008001
:100960000000000000FEAF40000000000080594081
:1009700080B582B000AF78607B68002B30D040F249
:100980001063C2F200031A687B681A4440F21063D5
:10099000C2F200031A6040F21063C2F200031B6847
:1009A000042B06DC40F21063C2F200034FF0050294
:1009B0001A6040F21063C2F200031B68CC2B06DD04
:1009C00040F21063C2F200034FF0CC021A6040F212
:1009D0001063C2F200031B681846FFF74DFF00E0EA
:1009E00000BF07F10807BD4680BD00BF80B582B0DB
:1009F00000AF78607B68002B30D040F23063C2F2E9
:100A000000031A687B681A4440F23063C2F20003A4
:100A10001A6040F23063C2F200031B683B2B06DC15
:100A200040F23063C2F200034FF03C021A6040F221
:100A30003063C2F200031B68E12B06DD40F2306335
:100A4000C2F200034FF0E1021A6040F23063C2F2DA
:100A500000031B681846FFF77BFD00E000BF07F1AD
:100A60000807BD4680BD00BF80B584B000AFF86008
:100A7000B9607A603B60F868FFF79EFD7868FFF721
:100A80004BFEB868FFF7F0FD3868FFF79DFE07F1F1
:100A90001007BD4680BD00BF2DE9F047F0B006AF9E
:100AA000FFF768FD01F060FBFFF7F4FE4FF00F0069
:100AB0004FF0050101F08EFB40F21C60C2F2000015
:100AC00040F20021C4F205014FF0A2024FF00103F1
:100AD00004F0A8FB4FF00003C7F884314FF0000387
:100AE000C7F898314FF00003C7F89C314FF000036E
:100AF000C7F8A43140F23463C2F200034FF00002A1
:100B00001A6040F21063C2F200034FF000021A6054
:100B100040F23063C2F200034FF03C021A6040F230
:100B20001863C2F200034FF000021A6040F214632F
:100B3000C2F200034FF000021A6040F23C63C2F2BE
:100B400000034FF000021A6040F22463C2F2000377
:100B50004FF000021A604FF00F004FF0000101F05B
:100B600057FB07F1840340F21C60C2F200001946F3
:100B70004FF0010204F014FE0346C7F88C31D7F899
:100B80008C31002BEDD007F184031B78402B1BD157
:100B900007F1840340F21C60C2F2000019464FF0D6
:100BA000010204F0FDFD0346C7F88C31D7F88C3103
:100BB000002BEDD007F184031B78C7F888314FF084
:100BC0000003C7F8843101E07AE200BFD7F888312A
:100BD000002B14D0D7F8842107F184031344D7F8ED
:100BE000882140F21C60C2F20000194604F0D8FDD2
:100BF0000346C7F88C31D7F88C31002BE6D0D7F8F4
:100C00008421D7F88C311344C7F88431D7F8882170
:100C1000D7F88C31C3EB0203C7F88831D7F8883195
:100C2000002BD2DCD7F8843103F1FF3307F18402C3
:100C3000D35C002B00D043E207F1840107F180026E
:100C400007F17C0307F17800009007F17400019030
:100C500007F16C00029007F170000390084642F61D
:100C6000FC11C0F2010107F09FFB0346062B07D0E1
:100C700007F1840318464FF4807107F0B3FA1FE2BE
:100C800007F170031B68012B04DC07F170031B687C
:100C9000002B07DA07F1840318464FF4807107F040
:100CA000A1FA0DE24FF00003C7F8843107F1840187
:100CB00007F1800207F17C0307F17800009007F14B
:100CC0007400019007F16C00029007F1700003902E
:100CD000084642F6FC11C0F2010107F065FB03462D
:100CE000062B07D007F1840318464FF4807107F0F4
:100CF00079FAE5E107F180031E6807F17C031D68BE
:100D000007F178031C6807F17403D3F8009007F12A
:100D10006C03D3F800A007F17003D3F80080FFF74D
:100D2000DDFD0346CDF80090CDF804A0CDF8088095
:100D3000039342F61020C0F2010031462A462346B2
:100D400007F088FA07F170031B68002B19D0D7F859
:100D50009831002B15D1D7F89C3103F10103C7F866
:100D60009C31D7F89C31022B03DD4FF00003C7F80C
:100D70009C314FF00103C7F898314FF00003C7F8DA
:100D8000A43107F170031B68002B12D1D7F89831FA
:100D9000002B0ED0D7F8A431092B04DD4FF000034F
:100DA000C7F8983105E0D7F8A43103F10103C7F87B
:100DB000A43107F180031B684FEA830207F1800327
:100DC0001A6007F17C031B68184606F06BFF0246A9
:100DD0000B4610461946BCA3D3E9002306F0C8FF12
:100DE00002460B461046194607F0D4F9024607F1B1
:100DF0007C031A6007F17C031B68002B08DA07F1FB
:100E00007C031B68A3F1960207F17C031A600CE0D7
:100E100007F17C031B68002B07DD07F17C031B68CF
:100E200003F1960207F17C031A6007F178031B684F
:100E300013F1550F04DA07F178036FF054021A60CA
:100E400007F178031A6813464FEA8373C2EB030372
:100E50004FEA8303C2EB030207F180031B681344CC
:100E6000C7F8903107F178031A6813464FEA8303F5
:100E70001A4407F180031B681344C7F89431D7F86C
:100E8000903113F1FF0F03DA6FF0FE03C7F89031D2
:100E9000D7F89031FF2B03DD4FF0FF03C7F89031F7
:100EA000D7F8943113F1FF0F03DA6FF0FE03C7F8A0
:100EB0009431D7F89431FF2B03DD4FF0FF03C7F8CF
:100EC000943107F17C031B681846FFF775FBD7F8D0
:100ED0009001FFF7C9FB07F17C031B681846FFF779
:100EE0001BFCD7F89401FFF76FFC07F174031B6834
:100EF00003F10702002BB8BF13464FEAE30318467D
:100F0000FFF736FD07F16C031B68002B06D040F29B
:100F10003463C2F200031B68002B0FD0FFF7DEFC26
:100F20000346132B0CDC40F23463C2F200031B684F
:100F3000002B05D1D7F89C31002B01D0FFF7B0FA78
:100F400040F23463C2F200031B68002B12D040F25F
:100F50004063C2F200031B683B2B0BDC40F2406392
:100F6000C2F200031B6803F1010240F24063C2F2C7
:100F700000031A6040F23463C2F200031B68002BC6
:100F800014D040F24063C2F200031B683B2B0DDD1E
:100F9000FFF79EFA40F21863C2F200031B6803F1E8
:100FA000010240F21863C2F200031A6040F240638B
:100FB000C2F200031B68192B08DD40F21463C2F271
:100FC00000031B68002B01D1FFF79AFA40F240633F
:100FD000C2F200031B68372B08DD40F21463C2F233
:100FE00000031B68002B01D0FFF79EFAFFF776FC89
:100FF000044640F21863C2F200031D6840F2106319
:10100000C2F200031B68A3F10503184606F04AFE6E
:1010100002460B46104619464FF000024FF07E5331
:1010200003F5A00306F0A4FE02460B46104619463F
:101030004FF000024FF0804303F5A01306F0E4FCEC
:1010400002460B461046194640F23463C2F20003D2
:101050001A6807F108030095CDE9020104921846C9
:1010600042F65C21C0F20101D7F89C21234607F02B
:1010700023F9034603F10103C7F8A03107F1040384
:10108000184642F66C21C0F20101D7F8A02107F002
:1010900013F907F1040340F21C60C2F20000194684
:1010A0004FF0020204F00EFA07F1080340F21C6050
:1010B000C2F200001946D7F8A02104F003FA50E567
:1010C0004FE500BFAFF30080CDCCCCCCCCCCE43F1F
:1010D00080B400AF00BEBD4680BC704780B483B012
:1010E00000AF7860396000BE07F10C07BD4680BCD8
:1010F000704700BF80B483B000AF78600B46FB70D0
:1011000000BE07F10C07BD4680BC704780B483B0B9
:1011100000AF786000BE07F10C07BD4680BC704789
:1011200080B483B000AF786000BE07F10C07BD4605
:1011300080BC704780B483B000AF786000BE07F118
:101140000C07BD4680BC7047EFF3108072B6704745
:1011500080F310887047000080B487B000AF7860DB
:1011600039607B687B613B683B617B691B78DBB2E4
:10117000FB733B69BB60BB6803F10103BB60F0E735
:1011800001607047006870470EB503FA01F303EA87
:10119000020301686FEA020201EA020141EA030167
:1011A00001600EBD006800EA020020FA01F07047FD
:1011B00001807047008870470EB503FA01F303EA17
:1011C000020301886FEA020201EA020141EA030117
:1011D00001800EBD008800EA020020FA01F070478D
:1011E00001707047007870470EB503FA01F303EA07
:1011F000020301786FEA020201EA020141EA0301F7
:1012000001700EBD007800EA020020FA01F070477C
:1012100080B483B000AF0346FB804EF20013CEF2E1
:101220000003B7F906204FEA5212F98801F01F01B6
:101230004FF0010000FA01F143F8221007F10C070A
:10124000BD4680BC704700BF80B483B000AF03468A
:10125000FB804EF20013CEF20003B7F906204FEAEE
:101260005212F98801F01F014FF0010000FA01F15C
:1012700002F1200243F8221007F10C07BD4680BCA2
:10128000704700BF80B483B000AF0346FB804EF2CE
:101290000013CEF20003B7F906204FEA5212F98884
:1012A00001F01F014FF0010000FA01F102F16002AC
:1012B00043F8221007F10C07BD4680BC704700BF01
:1012C00080B588B000AFF860B9601346FB714FF08D
:1012D0000103FB824FF00003BB61FA6840F26C63CC
:1012E000C2F200039A4207D0FA6840F24463C2F2A5
:1012F00000039A4200D000BEBB68002B00D100BEA4
:1013000006F002F9FA6840F26C63C2F200039A42F6
:101310002ED1FB684FF080421A60FB684FF0844288
:101320005A60FB684FF00A021A8140F25803C2F279
:1013300000031B68BB6142F20003CEF2040342F2D9
:101340000002CEF20402126B42F080021A634FF0E8
:101350000A00FFF797FF42F20003CEF2040342F2C5
:101360000002CEF20402126B22F080021A6331E016
:10137000FA6840F20003C4F201031360FA6840F215
:101380000003C4F220235360FB684FF00B021A8164
:1013900040F25C03C2F200031B68BB6142F200032F
:1013A000CEF2040342F20002CEF20402126B42F4C7
:1013B00080721A634FF00B00FFF764FF42F20003E4
:1013C000CEF2040342F20002CEF20402126B22F4C7
:1013D00080721A63FB681B684FF000021A71BB68C9
:1013E000002B21D0BA69BB68B2FBF3F3FB61FB6948
:1013F00003F00803002B06D0FB694FEA131303F137
:101400000103FB6103E0FB694FEA1313FB61FA6917
:101410004FF6FF739A4200D900BEFA694FF6FF7388
:101420009A4201D8FB69FB82FB685B684FF00102BE
:10143000C3F89C21FB681B68FA8A4FEA122292B219
:10144000D2B21A71FB681B68FA8AD2B21A70FB68B2
:101450005B684FF00002C3F89C21FB681B68FA79B7
:101460001A73FB681B684FF00E021A72FB685B6808
:101470004FF00002C3F81022FB684FF000021A611F
:10148000FB684FF00002DA60FB684FF000025A611F
:10149000FB684FF00002DA61FA6841F6B523C0F24A
:1014A00000031362FB684FF000029A61FB684FF083
:1014B00000025A62FB684FF000029A7207F120079F
:1014C000BD4680BD80B489B000AFF860B9607A6075
:1014D0004FF000033B61FA6840F26C63C2F2000314
:1014E0009A4207D0FA6840F24463C2F200039A427B
:1014F00000D000BEBB68002B00D100BE7B68002B73
:1015000000D100BEFA6840F26C63C2F200039A4256
:1015100006D0FA6840F24463C2F200039A423DD119
:10152000BB68002B3AD07B68002B37D0FB681B6868
:101530001B7DFB76FB689A7AFB7E42EA0303DAB2F4
:10154000FB689A72FB7E03F02003002B23D04FF040
:101550001003FB617B680F2B01D87B68FB614FF0A8
:1015600000037B610EE0FB681B68B9683A690A44B6
:1015700012781A703B6903F101033B617B6903F147
:1015800001037B617A69FB699A42ECD37A687B69D3
:10159000C3EB02037B607B68002BC7D107F12407F4
:1015A000BD4680BC704700BF80B487B000AF786094
:1015B00039604FF00003BB607A6840F26C63C2F29E
:1015C00000039A4207D07A6840F24463C2F20003F3
:1015D0009A4200D000BE3B68002B00D100BE7A6862
:1015E00040F26C63C2F200039A4206D07A6840F27D
:1015F0004463C2F200039A4238D13B68002B35D0D5
:101600003A68BB6813441B783B612CE07B681B681D
:101610001B7DFB757B689A7AFB7D42EA0303DAB295
:101620007B689A72FB7D03F02003002BEED04FF015
:101630000003FB6011E07B681B683A69D2B21A7044
:10164000FB6803F10103FB60BB6803F10103BB60AE
:101650003A68BB6813441B783B613B69002B02D09E
:10166000FB680F2BE7D93B69002BCFD107F11C0793
:10167000BD4680BC704700BF80B584B000AFF86045
:10168000B9607A60FA6840F26C63C2F200039A4271
:1016900007D0FA6840F24463C2F200039A4200D0D5
:1016A00000BEBB68002B00D100BE7B68002B00D1C0
:1016B00000BE7B68002B32D0BB68002B2FD0FA68AD
:1016C00040F26C63C2F200039A4206D0FA6840F21C
:1016D0004463C2F200039A4221D1FB68BA68DA601F
:1016E000FB687A681A61FB684FF000025A61FB6878
:1016F0001B891BB21846FFF7C5FDFA6841F6B523F2
:10170000C0F200031362FB685B684FF00102C3F88C
:101710008420FB681B891BB21846FFF779FD07F18F
:101720001007BD4680BD00BF80B485B000AF7860B3
:101730004FF00003BB734FF00003FB737A6840F275
:101740006C63C2F200039A4207D07A6840F24463A5
:10175000C2F200039A4200D000BE7A6840F26C6385
:10176000C2F200039A4206D07A6840F24463C2F2A1
:1017700000039A4217D17B681B681B7DFB737B6853
:101780009A7AFB7B42EA0303DAB27B689A727B683F
:101790001B69002B07D1FB7B03F04003002B02D019
:1017A0004FF00103BB73BB7B5BB2184607F1140714
:1017B000BD4680BC704700BF80B487B000AFF86002
:1017C000B9607A604FF000033B614FF00003FB7596
:1017D000FA6840F26C63C2F200039A4207D0FA68DA
:1017E00040F24463C2F200039A4200D000BEBB68DC
:1017F000002B00D100BE7B68002B00D100BEFA6830
:1018000040F26C63C2F200039A4206D0FA6840F2DA
:101810004463C2F200039A4234D1BB68002B31D03A
:101820007B68002B2ED0FB681B681B7DFB75FB685B
:101830009A7AFB7D42EA0303DAB2FB689A7217E0F8
:10184000BA683B691344FA6812681278D2B21A7007
:101850003B6903F101033B61FB681B681B7DFB7562
:10186000FB689A7AFB7D42EA0303DAB2FB689A725C
:10187000FB7D03F00103DBB2002B03D03A697B68E8
:101880009A42DDD33B69184607F11C07BD4680BC70
:10189000704700BF80B582B000AF78600B46FB7028
:1018A0007A6840F26C63C2F200039A4207D07A6809
:1018B00040F24463C2F200039A4200D000BE7A684C
:1018C00040F26C63C2F200039A4206D07A6840F29A
:1018D0004463C2F200039A4216D17B681B891BB293
:1018E0001846FFF7CFFC7B681B687A68126812798C
:1018F000D1B2FA7841EA0202D2B21A717B681B892E
:101900001BB21846FFF784FC07F10807BD4680BDEF
:1019100080B582B000AF78600B46FB707A6840F209
:101920006C63C2F200039A4207D07A6840F24463C3
:10193000C2F200039A4200D000BE7A6840F26C63A3
:10194000C2F200039A4206D07A6840F24463C2F2BF
:1019500000039A421CD17B681B687A68126812796E
:10196000D1B2FA786FEA0202D2B201EA0202D2B22E
:101970001A717B681B891BB21846FFF783FCFB7842
:101980000F2B05D17B681B891BB21846FFF75CFC47
:1019900007F10807BD4680BD80B584B000AF786010
:1019A0007A6840F26C63C2F200039A4207D07A6808
:1019B00040F24463C2F200039A4200D000BE7A684B
:1019C00040F26C63C2F200039A4206D07A6840F299
:1019D0004463C2F200039A4267D17B681B681B7A9A
:1019E000DBB203F00F03FB73FB7B0C2B54D801A27B
:1019F00052F823F0291A0000991A0000451A000035
:101A0000991A0000611A0000991A00007D1A00005E
:101A1000991A0000991A0000991A0000991A0000FA
:101A2000991A0000611A00007B685B6A002B00D1E4
:101A300000BE7B685B6A002B30D07B685B6A78688D
:101A4000984732E07B681B6A002B00D100BE7B68A0
:101A50001B6A002B24D07B681B6A7868984724E0B7
:101A60007B68DB69002B00D100BE7B68DB69002B43
:101A700018D07B68DB697868984716E07B689B69BB
:101A8000002B00D100BE7B689B69002B0CD07B68CB
:101A90009B697868984708E000BE06E000BF04E054
:101AA00000BF02E000BF00E000BF07F11007BD4625
:101AB00080BD00BF80B487B000AF78607A6840F224
:101AC0006C63C2F200039A4207D07A6840F2446322
:101AD000C2F200039A4200D000BE7B68DB68002B94
:101AE00000D100BE7B681B69002B00D100BE7A6864
:101AF00040F26C63C2F200039A4206D07A6840F268
:101B00004463C2F200039A4252D17B68DB68002B27
:101B10004ED07B681B69002B4AD07B681B681B7DFD
:101B2000FB727B689A7AFB7A42EA0303DAB27B683B
:101B30009A72FB7A03F02003002B29D04FF0100398
:101B40003B617B681A697B685B69C3EB02037B615D
:101B50007B690F2B01D87B693B614FF00003FB6071
:101B600012E07B681B687A68D1687A6852690A4417
:101B700012781A707B685B6903F101027B685A6115
:101B8000FB6803F10103FB60FA683B699A42E8D302
:101B90007B685A697B681B699A4209D17B684FF060
:101BA00000021A617B685B684FF00002C3F8842072
:101BB00007F11C07BD4680BC704700BF80B584B0EC
:101BC00000AFF860B9601346FB71FA6840F26C63CD
:101BD000C2F200039A4207D0FA6840F24463C2F2AC
:101BE00000039A4200D000BEBB68002B00D100BEAB
:101BF000FB79C02B00D900BEFA6840F26C63C2F2D8
:101C000000039A4206D0FA6840F24463C2F200032D
:101C10009A4223D1BB68002B20D0FB79C02B1DD862
:101C2000FB68BA68DA61FB681A68FB7903F0C003E5
:101C300043F00A03DBB21372FB681B891BB2184620
:101C4000FFF720FBFB685B684FF00102C3F88020C0
:101C5000FB681B891BB21846FFF7DAFA07F1100779
:101C6000BD4680BD80B483B000AF78600B46FB708A
:101C70007A6840F26C63C2F200039A4207D07A6835
:101C800040F24463C2F200039A4200D000BE7A6878
:101C900040F26C63C2F200039A4206D07A6840F2C6
:101CA0004463C2F200039A420FD1FB78002B06D1A5
:101CB0007B685B684FF00002C3F8102205E07B6888
:101CC0005B684FF00102C3F8102207F10C07BD4614
:101CD00080BC7047684620F007018D4689B500AF8B
:101CE00040F26C60C2F20000FFF756FE4FF00A00AF
:101CF000FFF7C8FABD46BDE889408546704700BF7A
:101D0000684620F007018D4689B500AF40F2446077
:101D1000C2F20000FFF740FE4FF00B00FFF7B2FAEF
:101D2000BD46BDE889408546704700BF80B582B09A
:101D300000AF786039607A6840F26C63C2F20003E9
:101D40009A4207D07A6840F24463C2F200039A4292
:101D500000D000BE3B68002B00D100BE7A6840F284
:101D60006C63C2F200039A4206D07A6840F2446380
:101D7000C2F200039A4217D13B68002B14D07B6853
:101D80003A689A617B681B891BB21846FFF77AFA9A
:101D90007B685B684FF00102C3F888207B681B8971
:101DA0001BB21846FFF734FA07F10807BD4680BD9D
:101DB00080B582B000AF786039607A6840F26C63B9
:101DC000C2F200039A4207D07A6840F24463C2F23A
:101DD00000039A4200D000BE3B68002B00D100BE39
:101DE0007A6840F26C63C2F200039A4206D07A68C5
:101DF00040F24463C2F200039A421FD13B68002BB9
:101E00001CD07B683A681A627B684FF00002DA6087
:101E10007B684FF000021A617B681B891BB2184671
:101E2000FFF730FA7B685B684FF00102C3F884204B
:101E30007B681B891BB21846FFF7EAF907F1080710
:101E4000BD4680BD80B582B000AF786039607A68E9
:101E500040F26C63C2F200039A4207D07A6840F203
:101E60004463C2F200039A4200D000BE3B68002BDC
:101E700000D100BE7A6840F26C63C2F200039A425D
:101E800006D07A6840F24463C2F200039A4217D146
:101E90003B68002B14D07B683A685A627B681B89C8
:101EA0001BB21846FFF7EEF97B685B684FF0010242
:101EB000C3F88C207B681B891BB21846FFF7A8F972
:101EC00007F10807BD4680BD80B489B000AFF86057
:101ED000B9607A604FF00003FB754FF00003BB61FF
:101EE000FA6840F26C63C2F200039A4207D0FA68C3
:101EF00040F24463C2F200039A4200D000BEBB68C5
:101F0000002B00D100BE7B68002B00D100BEFA6818
:101F100040F26C63C2F200039A4206D0FA6840F2C3
:101F20004463C2F200039A4231D1BB68002B2ED029
:101F30007B68002B2BD0FB681B681B7DFB75FB6847
:101F40009A7AFB7D42EA0303DAB2FB689A72FB7D60
:101F500003F02003002B1AD04FF01003FB617B68C5
:101F60000F2B01D87B68FB614FF00003BB610AE0D7
:101F7000FB681B68B968BA690A4412781A70BB69B1
:101F800003F10103BB61BA69FB699A42F0D3BB69F3
:101F9000184607F12407BD4680BC704780B485B061
:101FA00000AF78604FF0FF33FB737A6840F26C63E8
:101FB000C2F200039A4207D07A6840F24463C2F248
:101FC00000039A4200D000BE7A6840F26C63C2F20D
:101FD00000039A4206D07A6840F24463C2F20003DA
:101FE0009A4213D17B689A7A7B681B681B7DDBB2AF
:101FF00042EA0303DAB27B689A727B689B7A23F029
:102000006103FB737B684FF000029A72FB7B1846FA
:1020100007F11407BD4680BC704700BF80B485B08F
:1020200000AF78604FF0FF33FB737A6840F26C6367
:10203000C2F200039A4207D07A6840F24463C2F2C7
:1020400000039A4200D000BE7A6840F26C63C2F28C
:1020500000039A4206D07A6840F24463C2F2000359
:102060009A4203D17B681B681B7EFB73FB7B18467F
:1020700007F11407BD4680BC704700BF80B485B02F
:1020800000AF78604FF00003FB737A6840F26C6336
:10209000C2F200039A4207D07A6840F24463C2F267
:1020A00000039A4200D000BE7A6840F26C63C2F22C
:1020B00000039A4206D07A6840F24463C2F20003F9
:1020C0009A420FD17B681B681B7DFB737B689A7AF1
:1020D000FB7B42EA0303DAB27B689A72FB7B03F074
:1020E0006003FB73FB7B184607F11407BD4680BCF9
:1020F000704700BF80B483B000AF0346FB804EF250
:102100000013CEF20003B7F906204FEA5212F98805
:1021100001F01F014FF0010000FA01F143F8221015
:1021200007F10C07BD4680BC704700BF80B483B088
:1021300000AF0346FB804EF20013CEF20003B7F966
:1021400006204FEA5212F98801F01F014FF00100FA
:1021500000FA01F102F1600243F8221007F10C07C6
:10216000BD4680BC704700BF80B582B000AF42F270
:102170000003CEF2040342F20002CEF20402126B1C
:1021800042F480421A634FF000037B600EE07A68ED
:1021900042F65C33C0F2010333F812301BB218462A
:1021A000FFF7C4FF7B6803F101037B607B681F2B93
:1021B000EDD942F20003CEF2040342F20002CEF265
:1021C0000402126B22F480421A6307F10807BD462D
:1021D00080BD00BF80B485B000AF03463960FB719D
:1021E000FB79FB60FB681F2B00D900BEFB681F2B2F
:1021F00008D8FA6842F6DC23C0F2010353F8223013
:102200003A681A6007F11407BD4680BC704700BFEA
:1022100080B485B000AF02460B46FA71BB71FB7902
:10222000FB60FB681F2B00D900BEFB681F2B09D881
:1022300040F20003C4F22623FA68B97902F58862F5
:1022400043F8221007F11407BD4680BC704700BF59
:1022500080B487B000AF02460B46FA71BB71FB79C0
:102260007B617B691F2B00D900BE7B691F2B7DD84A
:10227000BB79012B04D0022B60D0002B2ED074E050
:1022800043F20003C4F20103D3F88830FB607B699A
:102290004FF0010202FA03F3FA6842EA0303FB601B
:1022A00043F20003C4F20103FA68C3F888207A6994
:1022B00042F6DC23C0F2010353F822301B683B6175
:1022C0003B6943F004033B617A6942F6DC23C0F2C8
:1022D000010353F822303A691A6047E043F20003E1
:1022E000C4F20103D3F88830FB607B694FF0010230
:1022F00002FA03F36FEA0303FA6802EA0303FB60DE
:1023000043F20003C4F20103FA68C3F888207A6933
:1023100042F6DC23C0F2010353F822301B683B6114
:102320003B6943F004033B617A6942F6DC23C0F267
:10233000010353F822303A691A6017E07A6942F6CD
:10234000DC23C0F2010353F822301B683B613B6978
:1023500023F004033B617A6942F6DC23C0F20103F7
:1023600053F822303A691A6000E000BE07F11C07FA
:10237000BD4680BC704700BF80B584B000AF034647
:10238000FB71FB79FB60FB681F2B00D900BEFB686B
:102390001F2B1ED8FA6842F6DC23C0F2010353F863
:1023A00022301B68BB60FA6842F6DC23C0F20103EE
:1023B00053F82230BA6842F008021A60FA6842F60E
:1023C0005C33C0F2010333F812301BB21846FFF73A
:1023D00091FE07F11007BD4680BD00BF80B485B0F7
:1023E00000AF0346FB71FB79FB60FB681F2B00D934
:1023F00000BEFB681F2B13D8FA6842F6DC23C0F23C
:10240000010353F822301B68BB60FA6842F6DC23F4
:10241000C0F2010353F82230BA6822F008021A60B1
:1024200007F11407BD4680BC704700BF80B584B07B
:1024300000AF0346FB71FB79FB60FB681F2B00D9E3
:1024400000BEFB681F2B15D843F20003C4F2010342
:10245000FA684FF0010101FA02F2C3F88020FA682D
:1024600042F65C33C0F2010333F812301BB2184657
:10247000FFF75CFE07F11007BD4680BD80B485B054
:1024800000AF0346FB714FF00003FB73FB79002B99
:1024900000D000BEFB79002B07D1FA7940F2C0537F
:1024A000C2F200039B5CFB7302E04FF00003FB737E
:1024B000FB7B184607F11407BD4680BC704700BF80
:1024C00080B485B000AF02460B46FA71BB80FA7942
:1024D00040F21803C2F200034FEA021213441B79C0
:1024E000BB73BB7B4FEA1313FB73FB7B40F2100201
:1024F000C2F200024FEA830313445B88BA8802FBEE
:1025000003F2F97B40F21003C2F2000333F82130EA
:10251000B2FBF3F3BB60BB68184607F11407BD4676
:1025200080BC704780B487B000AF40F20003C4F2B3
:102530000203D3F8C830FB6040F20003C4F2020388
:102540004FF00002C3F8C8204FF00003FB7139E0E0
:10255000FB794FEA53037B7440F20002C4F202029B
:10256000797C0B464FEA43030B444FEA03131344B1
:1025700003F508731B79BB74FB7903F00103FB744B
:10258000FB7C002B0DD0F979BB7C4FEA5313DBB2F7
:102590001A4602F0030240F2B453C2F200035A5446
:1025A0000CE0F979BB7C4FEA5303DBB21A4602F028
:1025B000030240F2B453C2F200035A54FB7903F110
:1025C0000103FB71FB79092BC2D94FF00003BB60FB
:1025D00073E0BA6840F21803C2F200034FEA021235
:1025E00013441B79BB75BA7D42F6CC33C0F20103AC
:1025F0009B5C3B75BA7D42F69C33C0F201039B5C49
:10260000012B07D0022B27D0002B47D14FF000031E
:10261000FB7547E03B7DFF2B00D100BE40F200027E
:10262000C4F20202397D0B464FEA43030B444FEAE2
:102630000313134403F508731B7A7B757B7D03F04A
:102640000103DBB2002B03D04FF00003FB7529E040
:102650004FF00103FB7525E03B7DFF2B00D100BE51
:1026600040F20002C4F20202397D0B464FEA4303F6
:102670000B444FEA0313134403F50A731B797B756C
:102680007B7D03F00103DBB2002B03D04FF000038E
:10269000FB7507E04FF00203FB7503E000BE4FF04F
:1026A0000003FB75BA6840F2C053C2F20003F97D23
:1026B0009954BB6803F10103BB60BB68002B88DD44
:1026C00040F20003C4F20203FA68C3F8C82007F11D
:1026D0001C07BD4680BC704780B48DB000AF024679
:1026E0000B46FA71BB80FA7940F21803C2F200037C
:1026F0004FEA021213441B79BB74BB7C4FEA1313DD
:10270000FB74BA7C42F6FC33C0F201039B5CFF2BE6
:102710001CD1FB7C40F21002C2F200024FEA83039C
:1027200013445B88BA8802FB03F240F20113C0F243
:102730001003A3FB0213C3EB02024FEA520213443D
:102740004FEAD3237B617B69FB603DE0BA7C42F6B4
:102750002C43C0F201039B5CFB76FA7E40F2B4533B
:10276000C2F200039B5CBB76BB88BB6240F6FF7382
:10277000FB62BA7E42F65C43C0F201039B5C3B62A3
:10278000BA7E42F66043C0F2010333F812301BB246
:10279000FB61FB7C40F21002C2F200024FEA8303AD
:1027A00013445B887B62FA6ABB6AC3EB02037A6AF2
:1027B000396A01FB02F202FB03F2FB6A92FBF3F3BC
:1027C000FA69C3EB0203FB60FB68184607F13407A4
:1027D000BD4680BC704700BF80B586B000AF0246E2
:1027E0000B46FA71BB804FF00003BB60FB79002BF6
:1027F00000D000BEFB79002B42D1FA7940F21803D9
:10280000C2F200034FEA021213441B79BB73BB7B75
:102810002F2B00D900BEBA7B42F69C33C0F20103D5
:102820009B5C012B2CD1BB7B03F004034FEA930389
:10283000DAB2BB7B03F030034FEAD303DBB21344BD
:10284000FB73FB7B032B1BD8FA7B42F67023C0F291
:10285000010333F812303B61FA79BB881046194600
:10286000FFF73AFF03467B617A6913464FEA830319
:1028700013444FEA83031A463B69B2FBF3F3BB6090
:10288000BB68184607F11807BD4680BD80B586B005
:1028900000AF02460B46FA71BB804FF00003BB60ED
:1028A000FB79002B00D000BEFB79002B3FD1FA79D9
:1028B00040F21803C2F200034FEA021213441B79DC
:1028C000BB73BB7B2F2B00D900BEBA7B42F69C3377
:1028D000C0F201039B5C012B29D1BB7B03F00403F5
:1028E0004FEA9303DAB2BB7B03F030034FEAD30322
:1028F000DBB21344FB73FB7B032B18D8FA7B42F645
:102900007023C0F2010333F812303B61FA79BB88BF
:1029100010461946FFF7E0FE03467B617B6944F6EB
:10292000206202FB03F23B69B2FBF3F3BB60BB68BE
:10293000184607F11807BD4680BD00BF80B584B0BA
:1029400000AF02460B46FA71BB80FA79BB8810468D
:102950001946FFF7C1FE0346FB60FA6813464FEACB
:10296000830313444FEA43031A4648F21F53C5F248
:10297000EB13A3FB02134FEAD303BB60BB681846FB
:1029800007F11007BD4680BD80B584B000AF024698
:102990000B46FA71BB80FA79BB8810461946FFF7DF
:1029A0009BFE0346FB60FB684FEA8303A3F52A63A3
:1029B000A3F10B03BB60BB68184607F11007BD46C7
:1029C00080BD00BF80B584B000AF02460B46FA71EF
:1029D000BB80FA79BB8810461946FFF7AFFF034664
:1029E000FB60FA6813464FEAC3031A4446F2676372
:1029F000C6F2666383FB02134FEA63014FEAE27398
:102A0000C3EB0103A3F5E473A3F10303FB60FB68CD
:102A1000184607F11007BD4680BD00BF80B485B0E1
:102A200000AF0346FB714FF00003FB60FB79002B06
:102A300009D1FA7940F21803C2F200034FEA0212F8
:102A400013441B68FB60FB68184607F11407BD467A
:102A500080BC704780B487B000AF03463960FB711B
:102A6000FA7940F21803C2F200034FEA021213444B
:102A70001B79BB73BB7B4FEA1313FB73FB7B40F2E9
:102A80001002C2F200024FEA830313445B881A4625
:102A90003B689A420AD2FA7B40F21003C2F200036A
:102AA00033F8223003F1FF33BB811BE0FB7B40F2A4
:102AB0001002C2F200024FEA830313445B883B61B9
:102AC000FA7B40F21003C2F2000333F822307B613C
:102AD0007B6903F1FF333A6802FB03F23B69B2FB07
:102AE000F3F3BB81BB89184607F11C07BD4680BCC8
:102AF000704700BF80B485B000AF03463960FB71FA
:102B0000FA7940F21803C2F200034FEA02121344AA
:102B10001B79BB73BB7B4FEA1313FB73FB7B40F248
:102B20001002C2F200024FEA830313445B881A4684
:102B30003B689A4203D240F6FF73BB8111E03A68CA
:102B400013464FEA0333C2EB0301FB7B40F2100252
:102B5000C2F200024FEA830313445B88B1FBF3F334
:102B6000BB81BB89184607F11407BD4680BC70477E
:102B700080B48BB000AF03463960FB71FA7940F244
:102B80001803C2F200034FEA021213441B79BB720E
:102B9000BB7A4FEA1313FB72BA7A42F6FC33C0F2E7
:102BA00001039B5CFF2B1BD13B68002B02DD3B68C4
:102BB000FB6002E04FF00003FB60FA6813464FEA47
:102BC0000333C2EB0301FB7A40F21002C2F20002AF
:102BD0004FEA830313445B88B1FBF3F33B813FE08F
:102BE000BA7A42F62C43C0F201039B5CBB74BA7CF8
:102BF00040F2B453C2F200039B5CFB7440F6FF73D7
:102C00007B62FA7C42F65C43C0F201039B5CFB6191
:102C1000FA7C42F66043C0F2010333F812301BB273
:102C20007B61FB7A40F21002C2F200024FEA83039A
:102C300013445B883B627A693B68C3EB0203BB6168
:102C40007B6A9AB2BB69796A01FB03F1FB69B1FB4C
:102C5000F3F13B6AB1FBF3F39BB2C3EB02033B819D
:102C60003A8940F6FF739A4202D940F6FF733B81DE
:102C70003B89184607F12C07BD4680BC704700BF52
:102C800080B586B000AF03463960FB714FF000039A
:102C90007B814FF001033B61FB79002B00D000BE2C
:102CA000FA7940F21803C2F200034FEA0212134409
:102CB0001B79BB75BB7D2F2B00D900BEBA7D42F6B8
:102CC0009C33C0F201039B5C012B34D1BB7D03F02C
:102CD00004034FEA9303DAB2BB7D03F030034FEAFB
:102CE000D303DBB21344FB75FB7D032B23D8FA7DA2
:102CF00042F67023C0F2010333F812303B613B68A7
:102D00003A6902FB03F24CF6CD43CCF6CC43A3FB6D
:102D100002134FEA1313FB60FB791846F968FFF7BB
:102D2000E9FE03467B817A8940F6FF739A4202D915
:102D300040F6FF737B817B89184607F11807BD4673
:102D400080BD00BF80B586B000AF03463960FB711F
:102D50004FF000037B814FF001033B61FB79002BB7
:102D600000D000BEFA7940F21803C2F200034FEA25
:102D7000021213441B79BB75BB7D2F2B00D900BEFB
:102D8000BA7D42F69C33C0F201039B5C012B34D127
:102D9000BB7D03F004034FEA9303DAB2BB7D03F07B
:102DA00030034FEAD303DBB21344FB75FB7D032BE7
:102DB00023D8FA7D42F67023C0F2010333F81230B3
:102DC0003B613B683A6902FB03F241F25973CDF271
:102DD000B713A3FB02134FEA9333FB60FB7918464A
:102DE000F968FFF787FE03467B817A8940F6FF7317
:102DF0009A4202D940F6FF737B817B89184607F11E
:102E00001807BD4680BD00BF80B584B000AF034643
:102E10003960FB713A6813464FEA830313444FEA63
:102E200083021A444CF6CD43CCF6CC43A3FB0213E9
:102E30004FEAD303FB60FB791846F968FFF75AFEA7
:102E400003467B817A8940F6FF739A4202D940F6A5
:102E5000FF737B817B89184607F11007BD4680BD53
:102E600080B584B000AF03463960FB713B6803F561
:102E70002A6303F10B033B603B684FEA9303FB605B
:102E8000FB791846F968FFF735FE03467B817A899E
:102E900040F6FF739A4202D940F6FF737B817B892B
:102EA000184607F11007BD4680BD00BF80B584B04D
:102EB00000AF03463960FB713B6803F5E47303F12F
:102EC00003033B603B68FB60FA6813464FEA8303E9
:102ED0001A4448F63963C3F6E303A3FB02134FEA2F
:102EE0005303FB60FB791846F968FFF78DFF034633
:102EF0007B817A8940F6FF739A4202D940F6FF73CC
:102F00007B817B89184607F11007BD4680BD00BF55
:102F100080B485B000AF786039607B684FEA1323D6
:102F2000FB813B68002B05D07B684FEA1363DAB264
:102F30003B681A70FB89184607F11407BD4680BC30
:102F4000704700BF80B483B000AF0346FB804EF2F1
:102F50000013CEF20003B7F906204FEA5212F988A7
:102F600001F01F014FF0010000FA01F102F16002CF
:102F700043F8221007F10C07BD4680BC704700BF24
:102F800080B400AFBD4680BC704700BF80B485B040
:102F900000AF0346FB714FF00003FB60FB6818466F
:102FA00007F11407BD4680BC704700BF80B485B0F0
:102FB00000AF0346FB714FF00003FB60FB6818464F
:102FC00007F11407BD4680BC704700BF80B483B0D2
:102FD00000AF02460B46FA71BB8007F10C07BD46F5
:102FE00080BC704780B483B000AF02460B46FA71D4
:102FF000BB8007F10C07BD4680BC704780B483B02E
:1030000000AF02460B46FA71BB8007F10C07BD46C4
:1030100080BC704780B483B000AF02460B46FA71A3
:10302000BB8007F10C07BD4680BC704780B483B0FD
:1030300000AF02460B46FA71BB8007F10C07BD4694
:1030400080BC704780B485B000AF78604FF000035B
:10305000FB73FB7B184607F11407BD4680BC704725
:1030600080B485B000AF0346FB714FF0FF33FB60C7
:10307000FB68184607F11407BD4680BC704700BFC7
:1030800080B485B000AF0346FB714FF00003FB60D6
:10309000FB68184607F11407BD4680BC704700BFA7
:1030A00080B485B000AF0346FB714FF00103FB73A2
:1030B000FB7B184607F11407BD4680BC704700BF74
:1030C00080B485B000AF0346FB714FF00003FB6096
:1030D000FB68184607F11407BD4680BC704700BF67
:1030E00080B485B000AF03463960FB714FF0000338
:1030F000FB73FB7B184607F11407BD4680BC704785
:1031000080B485B000AF03463960FB714FF0000317
:10311000FB73FB7B184607F11407BD4680BC704764
:1031200080B483B000AF0346FB7107F10C07BD46C6
:1031300080BC704780B483B000AF0346FB7107F1D9
:103140000C07BD4680BC704780B483B000AF034617
:10315000FB7107F10C07BD4680BC704780B483B09B
:1031600000AF0346FB7107F10C07BD4680BC7047FA
:1031700080B483B000AF0346FB7107F10C07BD4676
:1031800080BC704780B483B000AF0346FB7107F189
:103190000C07BD4680BC704780B483B000AF0346C7
:1031A0003960FB7107F10C07BD4680BC704700BF5A
:1031B00080B483B000AF03463960FB7107F10C07A0
:1031C000BD4680BC704700BF80B483B000AF78605C
:1031D00007F10C07BD4680BC704700BF80B483B0C8
:1031E00000AF0346FB7107F10C07BD4680BC70477A
:1031F000684620F007018D4689B500AF4FF000000A
:10320000FFF7ECFF4FF07600FFF79CFEBD46BDE8F0
:1032100089408546704700BF684620F007018D460B
:1032200089B500AF4FF00100FFF7D8FF4FF07700EE
:10323000FFF788FEBD46BDE889408546704700BF60
:10324000684620F007018D4689B500AF4FF00200B7
:10325000FFF7C4FF4FF07800FFF774FEBD46BDE8EE
:1032600089408546704700BF684620F007018D46BB
:1032700089B500AF4FF00300FFF7B0FF4FF07900C2
:10328000FFF760FEBD46BDE889408546704700BF38
:10329000684620F007018D4689B500AF4FF0040065
:1032A000FFF79CFF4FF07A00FFF74CFEBD46BDE8EC
:1032B00089408546704700BF684620F007018D466B
:1032C00089B500AF4FF00500FFF788FF4FF07B0096
:1032D000FFF738FEBD46BDE889408546704700BF10
:1032E000684620F007018D4689B500AF4FF0060013
:1032F000FFF774FF4FF07C00FFF724FEBD46BDE8EA
:1033000089408546704700BF684620F007018D461A
:1033100089B500AF4FF00700FFF760FF4FF07D0069
:10332000FFF710FEBD46BDE889408546704700BFE7
:10333000684620F007018D4689B500AF4FF00800C0
:10334000FFF74CFF4FF07E00FFF7FCFDBD46BDE8E8
:1033500089408546704700BF684620F007018D46CA
:1033600089B500AF4FF00900FFF738FF4FF07F003D
:10337000FFF7E8FDBD46BDE889408546704700BFC0
:10338000684620F007018D4689B500AF4FF00A006E
:10339000FFF724FF4FF08000FFF7D4FDBD46BDE8E6
:1033A00089408546704700BF684620F007018D467A
:1033B00089B500AF4FF00B00FFF710FF4FF0810011
:1033C000FFF7C0FDBD46BDE889408546704700BF98
:1033D000684620F007018D4689B500AF4FF00C001C
:1033E000FFF7FCFE4FF08200FFF7ACFDBD46BDE8E5
:1033F00089408546704700BF684620F007018D462A
:1034000089B500AF4FF00D00FFF7E8FE4FF08300E5
:10341000FFF798FDBD46BDE889408546704700BF6F
:10342000684620F007018D4689B500AF4FF00E00C9
:10343000FFF7D4FE4FF08400FFF784FDBD46BDE8E2
:1034400089408546704700BF684620F007018D46D9
:1034500089B500AF4FF00F00FFF7C0FE4FF08500B9
:10346000FFF770FDBD46BDE889408546704700BF47
:10347000684620F007018D4689B500AF4FF0100077
:10348000FFF7ACFE4FF08600FFF75CFDBD46BDE8E0
:1034900089408546704700BF684620F007018D4689
:1034A00089B500AF4FF01100FFF798FE4FF087008D
:1034B000FFF748FDBD46BDE889408546704700BF1F
:1034C000684620F007018D4689B500AF4FF0120025
:1034D000FFF784FE4FF08800FFF734FDBD46BDE8DE
:1034E00089408546704700BF684620F007018D4639
:1034F00089B500AF4FF01300FFF770FE4FF0890061
:10350000FFF720FDBD46BDE889408546704700BFF6
:10351000684620F007018D4689B500AF4FF01400D2
:10352000FFF75CFE4FF08A00FFF70CFDBD46BDE8DB
:1035300089408546704700BF684620F007018D46E8
:1035400089B500AF4FF01500FFF748FE4FF08B0034
:10355000FFF7F8FCBD46BDE889408546704700BFCF
:10356000684620F007018D4689B500AF4FF0160080
:10357000FFF734FE4FF08C00FFF7E4FCBD46BDE8DA
:1035800089408546704700BF684620F007018D4698
:1035900089B500AF4FF01700FFF720FE4FF08D0008
:1035A000FFF7D0FCBD46BDE889408546704700BFA7
:1035B000684620F007018D4689B500AF4FF018002E
:1035C000FFF70CFE4FF08E00FFF7BCFCBD46BDE8D8
:1035D00089408546704700BF684620F007018D4648
:1035E00089B500AF4FF01900FFF7F8FD4FF08F00DD
:1035F000FFF7A8FCBD46BDE889408546704700BF7F
:10360000684620F007018D4689B500AF4FF01A00DB
:10361000FFF7E4FD4FF09000FFF794FCBD46BDE8D6
:1036200089408546704700BF684620F007018D46F7
:1036300089B500AF4FF01B00FFF7D0FD4FF09100B0
:10364000FFF780FCBD46BDE889408546704700BF56
:10365000684620F007018D4689B500AF4FF01C0089
:10366000FFF7BCFD4FF09200FFF76CFCBD46BDE8D4
:1036700089408546704700BF684620F007018D46A7
:1036800089B500AF4FF01D00FFF7A8FD4FF0930084
:10369000FFF758FCBD46BDE889408546704700BF2E
:1036A000684620F007018D4689B500AF4FF01E0037
:1036B000FFF794FD4FF09400FFF744FCBD46BDE8D2
:1036C00089408546704700BF684620F007018D4657
:1036D00089B500AF4FF01F00FFF780FD4FF0950058
:1036E000FFF730FCBD46BDE889408546704700BF06
:1036F00080B584B000AF78604FF6FF737B814FF0E8
:1037000000033B812DE0398940F22802C2F2000219
:103710000B464FEA83030B444FEA830313441B68B1
:10372000002B1AD0398940F22802C2F200020B465F
:103730004FEA83030B444FEA830313441B68786802
:1037400019464FF0090204F08DFE0346FB60FB684A
:10375000002B02D13B897B8106E03B8903F1010309
:103760003B813B89012BCED97B89184607F1100795
:10377000BD4680BD80B485B000AF0346FB80FB88AA
:10378000012B00D900BEFB88012B00F28580F9884F
:1037900040F22802C2F200020B464FEA83030B44B8
:1037A0004FEA8303134403F110031B78022B00D963
:1037B00000BEF98840F22802C2F200020B464FEA2E
:1037C00083030B444FEA8303134403F110031B7874
:1037D000022B61D8F98840F22802C2F200020B469F
:1037E0004FEA83030B444FEA8303134403F11003AE
:1037F0001B781A4642F66843C0F2010353F82230A0
:103800004FF000021A60F98840F22802C2F200026A
:103810000B464FEA83030B444FEA8303134403F13F
:103820000C031B68FB60F98840F22802C2F2000218
:103830000B464FEA83030B444FEA83031344DB88B0
:103840007B814FF000033B8114E040F20003C4F29F
:10385000020379893A890A44F968098802F50072F5
:1038600043F82210FB6803F10203FB603B8903F17C
:1038700001033B81F98840F22802C2F200020B46A4
:103880004FEA83030B444FEA8303134403F1080315
:103890001B883A899A42D8D307F11407BD4680BCE9
:1038A000704700BF80B485B000AF0346FB80FB8843
:1038B000012B00D900BEFB88012B00F28D80F98816
:1038C00040F22802C2F200020B464FEA83030B4487
:1038D0004FEA8303134403F110031B78022B00D932
:1038E00000BEF98840F22802C2F200020B464FEAFD
:1038F00083030B444FEA83031344DA8840F2FF1337
:103900009A4200D900BEF98840F22802C2F20002B1
:103910000B464FEA83030B444FEA83031344DB88CF
:10392000FB81FB89FF2B18D8F98840F22802C2F2EC
:1039300000020B464FEA83030B444FEA8303134410
:1039400003F110031B781A4642F67443C0F20103D8
:1039500053F82230FA891A6019E0F98840F22802F7
:10396000C2F200020B464FEA83030B444FEA830383
:10397000134403F110031B781A4642F68043C0F249
:10398000010353F82230FA89A2F580721A60F9888F
:1039900040F22802C2F200020B464FEA83030B44B6
:1039A0004FEA8303134403F110031B781A4642F6CF
:1039B0006843C0F2010353F822304FF001021A604D
:1039C00040F20003C4F2020340F20002C4F2020219
:1039D000526842F001025A6007F11407BD4680BCEC
:1039E000704700BF80B485B000AF0346FB80FB8802
:1039F000012B00D900BEF98840F22802C2F2000271
:103A00000B464FEA83030B444FEA8303134403F14D
:103A100010031B78022B00D900BEF98840F228025F
:103A2000C2F200020B464FEA83030B444FEA8303C2
:103A30001344DA8840F2FF139A4200D900BEFB8893
:103A4000012B5CD8F98840F22802C2F200020B4632
:103A50004FEA83030B444FEA830313449B88FB81A3
:103A6000FB89FF2B18D8F98840F22802C2F2000225
:103A70000B464FEA83030B444FEA8303134403F1DD
:103A800010031B781A4642F67443C0F2010353F840
:103A90002230FA891A6019E0F98840F22802C2F24D
:103AA00000020B464FEA83030B444FEA830313449F
:103AB00003F110031B781A4642F68043C0F201035B
:103AC00053F82230FA89A2F580721A60F98840F220
:103AD0002802C2F200020B464FEA83030B444FEA6E
:103AE0008303134403F110031B781A4642F668431C
:103AF000C0F2010353F822304FF001021A6007F1BF
:103B00001407BD4680BC704780B483B000AF034645
:103B1000FB80FB88012B00D900BEFB88012B18D845
:103B2000F98840F22802C2F200020B464FEA8303F2
:103B30000B444FEA8303134403F110031B781A4626
:103B400042F66843C0F2010353F822304FF00002FE
:103B50001A6007F10C07BD4680BC704780B483B083
:103B600000AF0346FB80FB88012B00D900BEFB8819
:103B7000012B18D8F98840F22802C2F200020B4645
:103B80004FEA83030B444FEA8303134403F110030A
:103B90001B781A4642F66843C0F2010353F82230FC
:103BA0004FF001021A6007F10C07BD4680BC704758
:103BB00080B483B000AF0346FB71FB79142B00D9AE
:103BC00000BE40F20003C4F2020340F20002C4F25D
:103BD000020202F590521168FA794FF0010000FAE2
:103BE00002F241EA020203F590531A6007F10C0752
:103BF000BD4680BC704700BF80B485B000AF0346AF
:103C0000FB71FB79142B00D900BE40F20003C4F213
:103C1000020340F20002C4F2020202F5905211685F
:103C2000FA794FF0010000FA02F26FEA020201EAAB
:103C3000020203F590531A6040F20003C4F202033B
:103C400003F590531B68FB60FB6803F10103FB6005
:103C500007F11407BD4680BC704700BF80B485B033
:103C600000AF0346FB71FB79142B00D900BE40F274
:103C70000003C4F2020340F20002C4F2020202F5A1
:103C8000905202F108021168FA794FF0010000FA2F
:103C900002F241EA020203F5905303F108031A60AD
:103CA00040F20003C4F2020303F5905303F108034A
:103CB0001B68FB60FB6803F10103FB6007F114075D
:103CC000BD4680BC704700BF80B483B000AF40F2F7
:103CD0000003C4F202035B683B6040F20003C4F2DD
:103CE000020340F20002C4F20202526822F0010212
:103CF0005A6040F20003C4F2020303F5A05303F13B
:103D000004031B687B6040F20003C4F2020340F22C
:103D10000002C4F2020202F5A05202F1040212688B
:103D200022F0010203F5A05303F104031A6040F2EC
:103D30000003C4F2020340F20002C4F20202D26D98
:103D400042F01002DA6540F20003C4F2020340F2CE
:103D50000002C4F20202D2F89C2042F01002C3F822
:103D60009C2040F20003C4F2020340F20002C4F2BD
:103D70000202D2F8DC2042F01002C3F8DC2040F24C
:103D80000003C4F2020340F20002C4F2020202F590
:103D9000A45202F11002126842F0040203F5A45387
:103DA00003F110031A6040F20003C4F2020340F270
:103DB0000002C4F2020202F5A45202F11C021268CF
:103DC00042F0040203F5A45303F11C031A6040F20D
:103DD0000003C4F2020340F20002C4F2020202F540
:103DE000A45202F12802126842F0040203F5A4531F
:103DF00003F128031A6040F20003C4F2020340F208
:103E00000002C4F2020202F59852126842F0040263
:103E100003F598531A6040F20003C4F2020303F55D
:103E2000A05303F104037A681A6040F20003C4F25D
:103E300002033A685A6007F10C07BD4680BC704720
:103E400080B483B000AF0346FB71FB79002B00D038
:103E500000BEFA7942F69023C0F2010333F8323003
:103E60001BB2184607F10C07BD4680BC704700BF67
:103E700080B483B000AF0346FB71FB79002B00D008
:103E800000BEFB7942F69022C0F201024FEAC30362
:103E900013445B881BB2184607F10C07BD4680BC73
:103EA000704700BFB0B592B000AF13460246FA713A
:103EB0000A46BA807B8042F6E042C0F2010207F176
:103EC0000C0392E80300186003F104031980FB79E6
:103ED000002B00D000BEFB79002B40F09D80FA79CA
:103EE00040F21803C2F200034FEA021213441B7996
:103EF000FB74FA7C07F10C031046194600F028F910
:103F0000FB89A7F842303B8AA7F84430BB89A7F861
:103F10004630BB88184600F083F80446B7F84230B4
:103F2000184600F07DF8034603FB04F3FB61FB69D0
:103F30001C464FEAE475B7F84630184600F070F8B2
:103F400003461A464FEAE27302FB05F104FB03F055
:103F50000144A4FB022319440B46C7E90823C7E91F
:103F60000823D7E9080100F0B3F803467B61BB885A
:103F7000184600F055F80446B7F84430184600F0EB
:103F80004FF8034603FB04F3FB62FB6A1C464FEA4F
:103F9000E475B7F84630184600F042F803461A4672
:103FA0004FEAE27302FB05F104FB03F00144A4FBBA
:103FB000022319440B46C7E90C23C7E90C237B886D
:103FC000184600F02DF80446B7F84630184600F0C1
:103FD00027F8034603FB04F31A464FEAE2734FEA5D
:103FE00092414FEA833040EA0101F9634FEA82339C
:103FF000BB63D7E90C01D7E90E23121843EB010389
:104000001046194600F024F80346BB61FB791846B8
:104010007969BA6900F05CFA07F14807BD46B0BD9E
:1040200080B485B000AF0346FB804FF40043FB60D3
:10403000FA88FB6882EA0302FB68C3EB0203BB60F9
:10404000BB68184607F11407BD4680BC704700BF27
:10405000B0B489B000AFC7E900014FF0FF3041F6BE
:10406000FF71C7E904014FF000004FF010414FEA23
:10407000E131C7E90601D7E90001D7E904458442E7
:1040800075EB010C04DAD7E90401C7E900010BE084
:10409000D7E90045D7E90601844275EB010C03DA44
:1040A000D7E90601C7E9000179684FEA814138681C
:1040B0004FEA903241EA020279684FEAA13313468F
:1040C000FB60FB68184607F12407BD46B0BC70478B
:1040D000B0B489B000AFC7E900014FF0FF3041F63E
:1040E000FF71C7E904014FF000004FF010414FEAA3
:1040F000E131C7E90601D7E90001D7E90445844267
:1041000075EB010C04DAD7E90401C7E900010BE003
:10411000D7E90045D7E90601844275EB010C03DAC3
:10412000D7E90601C7E9000179684FEA013138682B
:104130004FEA105241EA020279684FEA21531346CE
:10414000FB60FB68184607F12407BD46B0BC70470A
:1041500090B4A4B000AF03463960FB714FF00F0379
:10416000BB654FF00103FB654FF001033B6642F670
:104170009043C0F2010307F1480C0FCB8CE80F000D
:104180004FF00003BB67FA79BB6D02EA0303BB661D
:10419000BB6E07F19002134413F8483C87F8673070
:1041A000FB7903F030034FEA1313FB66FB6E4FEA13
:1041B00043037B67BB6E042B06D9BB6E082B03D869
:1041C0007B6F03F101037B6797F86730052B00F2E3
:1041D000518101A252F823F0F14100003F4200005A
:1041E00095420000FB4200006D430000D5430000F3
:1041F00040F20002C4F20202796F0B464FEA430319
:104200000B444FEA0313134403F508731B79DBB225
:1042100003F006034FEA53033B6742F68C43C0F2B8
:1042200001031B6803F190031A467B6F4FEAC30139
:104230003B6F0B444FEA83031344BB6722E140F218
:104240000002C4F20202796F0B464FEA43030B44AB
:104250004FEA0313134403F508731B79DBB203F031
:1042600060034FEA53133B6742F68C43C0F20103ED
:104270001B6803F190031A467B6F4FEA430303F177
:1042800001034FEA83013B6F0B444FEA830313445E
:10429000BB67F7E040F20002C4F20202796F0B46FE
:1042A0004FEA43030B444FEA0313134403F5087327
:1042B0001B7ADBB21A46FB6D02EA0303FB67FB6F56
:1042C000002B0CD142F68C43C0F201031B6803F5AE
:1042D000C0727B6F4FEA83031344BB67D2E042F6A0
:1042E0008C43C0F201031B6803F5D8731A467B6F39
:1042F0004FEAC3031344BB67C4E040F20002C4F2B8
:104300000202796F0B464FEA43030B444FEA031353
:10431000134403F50A731B79DBB21A463B6E02EABB
:104320000303C7F88030D7F88030002B0CD142F659
:104330008C43C0F201031B6803F5CC727B6F4FEA1C
:1043400083031344BB679DE042F68C43C0F2010334
:104350001B6803F5D8731A467B6F4FEA430303F1DA
:1043600001034FEA83031344BB678BE042F6A0438B
:10437000C0F2010307F1080C1C460FCCACE80F009B
:104380000FCCACE80F000FCCACE80F0094E80F00A6
:104390008CE80F00FA79BB6D02EA03034FEA83034E
:1043A00007F19002134453F8883CC7F8843042F672
:1043B0008C43C0F201031B6803F5F0731A46FB6ED1
:1043C0004FEA8301D7F884300B444FEA8303134448
:1043D000BB6757E040F20002C4F20202796F0B465D
:1043E0004FEA43030B444FEA0313134403F50673E8
:1043F0001B79DBB203F00103C7F8883040F20002FA
:10440000C4F20202796F0B464FEA43030B444FEAB2
:104410000313134403F506731B79DBB203F00203A5
:10442000C7F88C30D7F88830002B03D04FF0010349
:10443000C7F88830D7F88C30002B03D04FF0010339
:10444000C7F88C3042F68C43C0F201031B6803F5B9
:10445000A8731A46FB6E4FEA4301D7F888300B4425
:104460004FEA4301D7F88C300B444FEA83031344DF
:10447000BB6707E03B684FF480425A803B684FF0CF
:1044800000029A80BB6F002B07D0BB6F1A883B6875
:104490005A80BB6F5A883B689A80FA6E42F678233E
:1044A000C0F201039B5C002B08D042F68C43C0F2A3
:1044B00001031B689A8B3B681A8003E03B684FF44A
:1044C00080421A8007F19007BD4690BC704700BF3C
:1044D00080B487B000AF0346B9607A60FB734FF0D9
:1044E0007F437B61FA7B42F69023C0F2010333F8ED
:1044F00032303B82FB7B42F69022C0F201024FEA4F
:10450000C30313445B887B8240F20003C4F20203BE
:10451000388A40F20002C4F20202398A01F5C06111
:1045200052F821107A6901EA0201BA684FEA1222B0
:1045300041EA020100F5C06243F8221040F2000394
:10454000C4F20203788A40F20002C4F20202798ABD
:1045500001F5C06152F821107A6901EA02017A6816
:104560004FEA122241EA020100F5C06243F822102C
:1045700007F11C07BD4680BC704700BF80B500AF87
:10458000FEF7FEFCFDF7CEFF80BD00BF80B483B018
:1045900000AF0346FB7140F20003C4F20203FA7954
:1045A0006FEA42626FEA5262D2B21A6507F10C07F3
:1045B000BD4680BC704700BF80B485B000AF0346E5
:1045C000FB714FF000037B81FB79022B00D900BE09
:1045D000FB79022B1BD8FA7942F6E843C0F20103BB
:1045E00053F822301B6803F48053FB60FB68002BF8
:1045F000F1D0FA7942F6E843C0F2010353F82230D1
:104600001B689BB24FEA03534FEA13537B817B89AC
:10461000184607F11407BD4680BC704790B486B0B9
:1046200000AFF871B9717A713B71FB79022B00D937
:1046300000BEFB79022B00F2BC8042F63452C0F27D
:10464000010207F10C0312681146198003F10203FD
:104650004FEA12421A704FF00103BB744FF000038F
:10466000FB74FB7907F11802134413F80C3C7B74BC
:1046700040F20003C4F20203D3F8C8307B6140F279
:104680000003C4F202034FF00002C3F8C82040F256
:104690000002C4F20202797C0B464FEA43030B444A
:1046A0004FEA0313134403F506737A791A717B7981
:1046B00003F00103DBB2002B02D04FF00003BB7408
:1046C0007B7903F00203002B02D04FF00103FB744F
:1046D00040F20002C4F20202797C42F62453C0F296
:1046E00001031B68FC7997F812C0F87C4FEA440478
:1046F000A4444FEA4C0C6044034403F1800318794E
:104700000B464FEA43030B444FEA0313134403F5EC
:10471000047302461A7140F20003C4F202037A697C
:10472000C3F8C820FA7942F6F443C0F2010353F803
:104730002230BA791A60FA7942F6F443C0F20103E2
:1047400053F82220F97942F6F443C0F2010353F8FA
:1047500021301B6843F0400313603B79002B15D1D7
:1047600040F20003C4F2020340F20002C4F202026B
:104770001169F87942F60052C0F2010252F8202085
:104780006FEA020201EA02021A6112E040F200033B
:10479000C4F2020340F20002C4F202021169F87985
:1047A00042F60052C0F2010252F8202041EA020211
:1047B0001A6107F11807BD4690BC704780B483B0FA
:1047C00000AF0346FB71FB79022B00D900BEFB79D9
:1047D000022B11D8FA7942F6F443C0F2010353F8E0
:1047E0002220F97942F6F443C0F2010353F8213054
:1047F0001B6843F02003136007F10C07BD4680BC23
:10480000704700BF80B483B000AF0346FB71FB79F3
:10481000022B00D900BEFB79022B11D8FA7942F69F
:10482000F443C0F2010353F82220F97942F6F4432D
:10483000C0F2010353F821301B6823F020031360FA
:1048400007F10C07BD4680BC704700BF80B483B041
:1048500000AF03463960FB71FB79022B00D900BE23
:10486000FB79022B13D8FA7942F61853C0F20103F0
:1048700053F822303A684FEA12421A60FA7942F647
:104880000C53C0F2010353F822303A681A6007F162
:104890000C07BD4680BC704780B487B000AFF8609D
:1048A000B9607A6040F20003C4F202031B697B61C5
:1048B000FB68B3F1FF3F12D040F20003C4F20203E1
:1048C000FA684FEA1242DA6640F20003C4F20203C9
:1048D000FA68C3F800257B6943F001037B61BB687C
:1048E000B3F1FF3F13D040F20003C4F20203BA68F1
:1048F0004FEA1242C3F8AC2040F20003C4F20203B4
:10490000BA68C3F804257B6943F002037B617B68C6
:10491000B3F1FF3F1CD040F20003C4F202037A68F7
:104920004FEA1242C3F8EC2040F20003C4F2020343
:104930007A684FEA1222C3F8E82040F20003C4F27A
:1049400002037A68C3F808257B6943F004037B619E
:1049500040F20003C4F202037A691A6107F11C07EE
:10496000BD4680BC704700BF80B487B000AF024630
:104970000B46FA71BB71FB7903F001033B61FB79D4
:10498000092B00D900BEBB79032B00D900BE3B69BF
:10499000002B00D100BEFB79092B00F2B980BB7956
:1049A000032B00F2B5803B69002B00F0B180FA794F
:1049B00042F62853C0F201039B5CFB7340F20003F4
:1049C000C4F20203D3F8C8307B6140F20003C4F2A2
:1049D00002034FF00002C3F8C820BB79032B46D175
:1049E00040F20001C4F20201F87B40F20002C4F27E
:1049F000020297F80FC063464FEA430363444FEA4D
:104A00000313134403F50A731B79DBB21A4602F051
:104A1000DF0203464FEA430303444FEA03130B4408
:104A200003F50A731A7140F20001C4F20201F87B27
:104A300040F20002C4F2020297F80FC063464FEA48
:104A4000430363444FEA0313134403F50A731B7AC9
:104A5000DBB21A4602F0FC0203464FEA430303446A
:104A60004FEA03130B4403F50A731A7249E040F24C
:104A70000002C4F20202F87B40F20001C4F202011B
:104A800097F80FC063464FEA430363444FEA0313AA
:104A90000B4403F50A731B79DBB243F02003D9B250
:104AA00003464FEA430303444FEA0313134403F559
:104AB0000A730A461A7140F20002C4F20202F87B3D
:104AC00040F20001C4F2020197F80FC063464FEABA
:104AD000430363444FEA03130B4403F50A731B7A41
:104AE000DBB203F0FC03B9790B44D9B203464FEAB9
:104AF000430303444FEA0313134403F50A730A46BE
:104B00001A7240F20003C4F202037A69C3F8C820A3
:104B100007F11C07BD4680BC704700BF80B487B05A
:104B200000AF02460B46FA71BB71FB79092B00D925
:104B300000BEBB79032B00D900BEFB79092B7BD8C3
:104B4000BB79032B78D8FA7942F62853C0F20103D7
:104B50009B5CFB73FB7903F001033B6140F20003B4
:104B6000C4F20203D3F8C8307B6140F20003C4F200
:104B700002034FF00002C3F8C8203B69002B2AD083
:104B800040F20002C4F20202F87B40F20001C4F2DB
:104B9000020197F80FC063464FEA430363444FEAAC
:104BA00003130B4403F50A731B79DBB203F03F03D5
:104BB000B9794FEA8111C9B243EA0103D9B2034678
:104BC0004FEA430303444FEA0313134403F50A7304
:104BD0000A461A7129E040F20002C4F20202F87B90
:104BE00040F20001C4F2020197F80FC063464FEA99
:104BF000430363444FEA03130B4403F508731B7A22
:104C0000DBB203F03F03B9794FEA8111C9B243EA3D
:104C10000103D9B203464FEA430303444FEA0313A7
:104C2000134403F508730A461A7240F20003C4F2F3
:104C300002037A69C3F8C82007F11C07BD4680BC8F
:104C4000704700BF80B487B000AF0346FB71FB79AB
:104C5000092B00D900BEFB79092B6CD8FA7942F6F2
:104C60002853C0F201039B5CFB73FB7903F0010343
:104C70003B6140F20003C4F20203D3F8C8307B6109
:104C800040F20003C4F202034FF00002C3F8C82050
:104C90003B69002B24D040F20002C4F20202F87BF0
:104CA00040F20001C4F2020197F80FC063464FEAD8
:104CB000430363444FEA03130B4403F50A731B7960
:104CC000DBB243F01003D9B203464FEA4303034477
:104CD0004FEA0313134403F50A730A461A7123E0DB
:104CE00040F20002C4F20202F87B40F20001C4F27A
:104CF000020197F80FC063464FEA430363444FEA4B
:104D000003130B4403F508731B7ADBB243F0100363
:104D1000D9B203464FEA430303444FEA0313134453
:104D200003F508730A461A7240F20003C4F2020344
:104D30007A69C3F8C82007F11C07BD4680BC7047DC
:104D400080B487B000AF0346FB71FB79092B00D913
:104D500000BEFB79092B6AD8FA7942F62853C0F2D3
:104D600001039B5CFB73FB7903F001033B6140F2A1
:104D70000003C4F20203D3F8C8307B6140F20003A1
:104D8000C4F202034FF00002C3F8C8203B69002BB5
:104D900023D040F20001C4F20201F87B40F200028D
:104DA000C4F2020297F80FC063464FEA430363441C
:104DB0004FEA0313134403F50A731B79DBB21A4657
:104DC00002F0EF0203464FEA430303444FEA0313A2
:104DD0000B4403F50A731A7122E040F20001C4F299
:104DE0000201F87B40F20002C4F2020297F80FC001
:104DF00063464FEA430363444FEA0313134403F546
:104E000008731B7ADBB21A4602F0EF0203464FEA40
:104E1000430303444FEA03130B4403F508731A7268
:104E200040F20003C4F202037A69C3F8C82007F114
:104E30001C07BD4680BC704780B483B000AF0346FA
:104E4000FB71FB79092B00D900BE40F20003C4F2CC
:104E5000020340F20002C4F2020202F5905202F193
:104E60000C021168FA794FF4805000FA02F241EA1C
:104E7000020203F5905303F10C031A6007F10C07CB
:104E8000BD4680BC704700BF80B485B000AF03460C
:104E9000FB71FB79092B00D900BE40F20003C4F27C
:104EA000020340F20002C4F2020202F5905202F143
:104EB0000C021168FA794FF4805000FA02F26FEA9E
:104EC000020201EA020203F5905303F10C031A6097
:104ED00040F20003C4F2020303F5905303F10C0304
:104EE0001B68FB60FB6803F10103FB6007F114071B
:104EF000BD4680BC704700BF80B485B000AF03469C
:104F0000FB71FB79092B00D900BE40F20003C4F20B
:104F1000020340F20002C4F2020202F5905202F1D2
:104F200014021168FA794FF4805000FA02F241EA53
:104F3000020203F5905303F114031A6040F20003D8
:104F4000C4F2020303F5905303F114031B68FB60E2
:104F5000FB6803F10103FB6007F11407BD4680BC49
:104F6000704700BF80B483B000AF0346FB71FB798C
:104F7000092B00D900BE40F20003C4F2020340F244
:104F80000002C4F2020202F5905202F10C02116812
:104F9000FA794FF0010000FA02F241EA020203F549
:104FA000905303F10C031A6007F10C07BD4680BC57
:104FB000704700BF80B485B000AF0346FB71FB793A
:104FC000092B00D900BE40F20003C4F2020340F2F4
:104FD0000002C4F2020202F5905202F10C021168C2
:104FE000FA794FF0010000FA02F26FEA020201EAD8
:104FF000020203F5905303F10C031A6040F2000320
:10500000C4F2020303F5905303F10C031B68FB6029
:10501000FB6803F10103FB6007F11407BD4680BC88
:10502000704700BF80B485B000AF0346FB71FB79C9
:10503000092B00D900BE40F20003C4F2020340F283
:105040000002C4F2020202F5905202F11402116849
:10505000FA794FF0010000FA02F241EA020203F588
:10506000905303F114031A6040F20003C4F20203E8
:1050700003F5905303F114031B68FB60FB6803F115
:105080000103FB6007F11407BD4680BC704700BFF9
:1050900080B400AF40F20003C4F2020303F5905362
:1050A00003F110031B681846BD4680BC704700BF63
:1050B00080B400AF4FF001031846BD4680BC704776
:1050C00080B483B000AF4FF00003FB71FB7918464A
:1050D00007F10C07BD4680BC704700BF80B483B0A9
:1050E00000AF0346FB71FB7903F10103FB71FB7910
:1050F000002B02D04FF00003FB71FB79184607F13B
:105100000C07BD4680BC704780B584B000AF7860A6
:105110004FF00103FB724FF000033B8125E03A8919
:1051200040F21803C2F200034FEA021213441B6854
:10513000002B16D03A8940F21803C2F200034FEA5E
:10514000021213441B68786819464FF0100203F0EE
:1051500089F90346FB60FB68002B02D13B89FB7297
:1051600006E03B8903F101033B813B89002BD6D04C
:10517000FB7A184607F11007BD4680BD80B485B0A4
:1051800000AF0346FB714FF00103FB734FF00003C8
:10519000BB8112E0BA8940F21803C2F200034FEA61
:1051A000021213441B79FA799A4202D1BB89FB732C
:1051B00006E0BB8903F10103BB81BB89002BE9D069
:1051C000FB7B184607F11407BD4680BC704700BF43
:1051D00080B485B000AF0346FB71FA7940F2180342
:1051E000C2F200034FEA02121344DB88FB8140F253
:1051F0000003C4F20203FA8902F5C06253F82230B8
:105200004FEA1343BB81BB891BB2002B02DA4FF07C
:105210000003BB81BB89184607F11407BD4680BC5B
:10522000704700BF80B590B000AFF860B960FA80F9
:105230007B71FB68002B23D142F63853C0F2010387
:1052400007F1100C9E46BEE80F00ACE80F00BEE868
:105250000F00ACE80F009EE80300CCF800000CF152
:10526000040CACF800100CF1020C4FEA11438CF85E
:10527000003007F1100318464FF03001FBF76CFFC8
:105280007B79072B23D942F63853C0F2010307F18B
:10529000100C9E46BEE80F00ACE80F00BEE80F0001
:1052A000ACE80F009EE80300CCF800000CF1040C01
:1052B000ACF800100CF1020C4FEA11438CF80030EE
:1052C00007F1100318464FF03101FBF745FFFA884C
:1052D00041F6FF739A4223D942F63853C0F20103D4
:1052E00007F1100C9E46BEE80F00ACE80F00BEE8C8
:1052F0000F00ACE80F009EE80300CCF800000CF1B2
:10530000040CACF800100CF1020C4FEA11438CF8BD
:10531000003007F1100318464FF03201FBF71CFF75
:10532000FB68002B00F0CA807B79072B00F2C68057
:10533000FA8841F6FF739A4200F2C080BB6803F11D
:105340000802FB8803F0FF0310461946FBF748FFED
:10535000BB6803F10C027979FB8803F47F434FEAC1
:10536000631341EA030310461946FBF739FFFB6854
:10537000BA681A60FB681B6803F108031846FBF75C
:1053800031FF0346FB87FB681B6803F10C031846DB
:10539000FBF728FF034687F83C3097F83C3023F0B2
:1053A000070387F83D3097F83D304FEA43139AB230
:1053B000FB8F42EA0303FB8797F83C3003F00703B7
:1053C00087F83C30FA8FFB889A4223D042F6385354
:1053D000C0F2010307F1100C9E46BEE80F00ACE8D6
:1053E0000F00BEE80F00ACE80F009EE80300CCF809
:1053F00000000CF1040CACF800100CF1020C4FEAA8
:1054000011438CF8003007F1100318464FF0540197
:10541000FBF7A2FE97F83C207B799A4223D042F614
:105420003853C0F2010307F1100C9E46BEE80F008E
:10543000ACE80F00BEE80F00ACE80F009EE80300E8
:10544000CCF800000CF1040CACF800100CF1020CCC
:105450004FEA11438CF8003007F1100318464FF063
:105460005501FBF779FEFB681B6803F11003184632
:10547000FBF7B8FE034603F0020387F83B3015E064
:10548000FB681B6803F104031846FBF7ABFE0346F9
:1054900087F83A30FB681B6803F110031846FBF7E6
:1054A000A1FE034603F0020387F83B3097F83B3038
:1054B000002BE5D1FB684FF000021A7107F140079D
:1054C000BD4680BD80B590B000AFF860B9607A602D
:1054D000FB68002B23D142F63853C0F2010307F1D9
:1054E000100C9E46BEE80F00ACE80F00BEE80F00AF
:1054F000ACE80F009EE80300CCF800000CF1040CAF
:10550000ACF800100CF1020C4FEA11438CF800309B
:1055100007F1100318464FF07D01FBF71DFEBB6835
:10552000002B23D142F63853C0F2010307F1100CCF
:105530009E46BEE80F00ACE80F00BEE80F00ACE8E6
:105540000F009EE80300CCF800000CF1040CACF84E
:1055500000100CF1020C4FEA11438CF8003007F1F7
:10556000100318464FF07E01FBF7F6FD7B68002B19
:1055700023D142F63853C0F2010307F1100C9E46C6
:10558000BEE80F00ACE80F00BEE80F00ACE80F006B
:105590009EE80300CCF800000CF1040CACF80010FD
:1055A0000CF1020C4FEA11438CF8003007F11003A4
:1055B00018464FF07F01FBF7CFFDFB68002B2BD087
:1055C000BB68002B28D07B68002B25D04FF0000350
:1055D000BB631DE0FB681B6803F110031846FBF773
:1055E00001FE034603F0010387F83F3097F83F3090
:1055F000002BEFD0FB681A68B968BB6B0B441B78B3
:1056000010461946FBF7ECFDBB6B03F10103BB63CE
:10561000BA6B7B689A42DDD307F14007BD4680BD77
:1056200080B590B000AFF860B9607A604FF00003C9
:10563000FB63FB68002B23D142F63853C0F2010311
:1056400007F1140C9E46BEE80F00ACE80F00BEE860
:105650000F00ACE80F009EE80300CCF800000CF14E
:10566000040CACF800100CF1020C4FEA11438CF85A
:10567000003007F1140318464FF0A201FBF76CFD50
:10568000BB68002B23D142F63853C0F2010307F167
:10569000140C9E46BEE80F00ACE80F00BEE80F00F9
:1056A000ACE80F009EE80300CCF800000CF1040CFD
:1056B000ACF800100CF1020C4FEA11438CF80030EA
:1056C00007F1140318464FF0A301FBF745FD7B6873
:1056D000002B23D142F63853C0F2010307F1140C1A
:1056E0009E46BEE80F00ACE80F00BEE80F00ACE835
:1056F0000F009EE80300CCF800000CF1040CACF89D
:1057000000100CF1020C4FEA11438CF8003007F145
:10571000140318464FF0A401FBF71EFDFB68002B95
:1057200037D0BB68002B34D07B68002B31D0FB68AE
:105730001B6803F110031846FBF754FD034603F002
:10574000010387F83B3097F83B30002B21D0FB68F2
:105750001A68B968FB6B0B441B7810461946FBF7B7
:105760003FFDFB6B03F10103FB63FB681B6803F167
:1057700010031846FBF736FD034603F0010387F8D4
:105780003B3097F83B30002B03D0FA6B7B689A4292
:10579000DDD3FB6B184607F14007BD4680BD00BF57
:1057A00090B591B000AFF860B9607A604FF0000337
:1057B000FB63FB68002B23D142F63853C0F2010390
:1057C00007F1100C9E46BEE80F00ACE80F00BEE8E3
:1057D0000F00ACE80F009EE80300CCF800000CF1CD
:1057E000040CACF800100CF1020C4FEA11438CF8D9
:1057F000003007F1100318464FF0CC01FBF7ACFC6A
:10580000BB68002B23D142F63853C0F2010307F1E5
:10581000100C9E46BEE80F00ACE80F00BEE80F007B
:10582000ACE80F009EE80300CCF800000CF1040C7B
:10583000ACF800100CF1020C4FEA11438CF8003068
:1058400007F1100318464FF0CD01FBF785FC7B688C
:10585000002B23D142F63853C0F2010307F1100C9C
:105860009E46BEE80F00ACE80F00BEE80F00ACE8B3
:105870000F009EE80300CCF800000CF1040CACF81B
:1058800000100CF1020C4FEA11438CF8003007F1C4
:10589000100318464FF0CE01FBF75EFCFB68002BAF
:1058A00054D0BB68002B51D07B68002B4ED04FF0FA
:1058B0000003FB63FB681B6803F110031846FBF74A
:1058C00091FC034687F83A30FB681A7997F83A302A
:1058D00042EA0303DAB2FB681A7197F83A3003F030
:1058E000020387F83B3029E0BA68FB6B02EB030444
:1058F000FB681B6803F104031846FBF773FC0346BF
:105900002370FB6B03F10103FB63FB681B6803F16E
:1059100010031846FBF766FC034687F83A30FB682D
:105920001A7997F83A3042EA0303DAB2FB681A713F
:1059300097F83A3003F0020387F83B3097F83B3092
:10594000002B03D0FA6B7B689A42CDD3FB6B1846D1
:1059500007F14407BD4690BD80B58EB000AF7860BA
:1059600039607B68002B23D142F63853C0F2010323
:1059700007F1080C9E46BEE80F00ACE80F00BEE839
:105980000F00ACE80F009EE80300CCF800000CF11B
:10599000040CACF800100CF1020C4FEA11438CF827
:1059A000003007F1080318464FF0F301FBF7D4FB72
:1059B0003B68002B23D142F63853C0F2010307F1B4
:1059C000080C9E46BEE80F00ACE80F00BEE80F00D2
:1059D000ACE80F009EE80300CCF800000CF1040CCA
:1059E000ACF800100CF1020C4FEA11438CF80030B7
:1059F00007F1080318464FF0F401FBF7ADFB7B6895
:105A0000002B2AD03B68002B27D04FF000033B63CC
:105A10001DE07B681B6803F110031846FBF7E2FBEF
:105A2000034603F0010387F8373097F83730002B2F
:105A3000EFD07B681A6839683B6B0B441B781046C3
:105A40001946FBF7CDFB3B6B03F101033B633A685F
:105A50003B6B13441B78002BDBD107F13807BD46A5
:105A600080BD00BF80B58CB000AF78604FF0FF33D1
:105A700087F82F307B68002B23D142F63853C0F2D1
:105A8000010307F1080C9E46BEE80F00ACE80F00CA
:105A9000BEE80F00ACE80F009EE80300CCF8000061
:105AA0000CF1040CACF800100CF1020C4FEA11439D
:105AB0008CF8003007F1080318464FF48A71FBF7A1
:105AC0004BFB7B68002B0BD07B681B7903F01C031E
:105AD0004FEAA30387F82F307B684FF000021A715A
