S00D000066696E616C2E737265630D
S315600000000000012099020000090300000B030000B4
S315600000100D0300000F030000110300000000000044
S315600000200000000000000000000000001303000054
S31560000030150300000000000017030000190300000C
S315600000401B030000555E00001F0300002103000033
S315600000502303000025030000270300002903000096
S315600000602B0300002D030000F5250000212600006B
S315600000703303000035030000370300003903000036
S315600000803B0300003D0300003F0300004103000006
S3156000009043030000450300004703000049030000D6
S315600000A04B0300000000000000000000000000009C
S315600000B00000000000000000000000004D0300008A
S315600000C04F03000051030000530300005503000076
S315600000D057030000590300005B0300005D03000046
S315600000E05F03000061030000630300006503000016
S315600000F067030000690300006B0300006D030000E6
S315600001006F030000710300007303000075030000B5
S3156000011077030000790300007B0300007D03000085
S315600001207F03000081030000830300008503000055
S3156000013087030000890300008B0300008D03000025
S315600001408F030000910300009303000095030000F5
S3156000015097030000990300009B0300009D030000C5
S315600001609F030000A1030000A3030000A503000095
S31560000170A7030000A9030000AB030000AD03000065
S31560000180AF030000B1030000B3030000B503000035
S31560000190B7030000B9030000BB030000BD03000005
S315600001A0BF030000C1030000C3030000C5030000D5
S315600001B0C7030000C9030000CB030000CD030000A5
S315600001C0CF030000D1030000D3030000D503000075
S315600001D0D7030000D9030000DB030000DD03000045
S315600001E0DF030000E1030000E3030000E503000015
S315600001F0E7030000E9030000EB030000ED030000E5
S31560000200EF030000F1030000F3030000F5030000B4
S31560000210F7030000F9030000113B0000393B0000C2
S31560000220613B0000893B0000B13B0000D93B000008
S31560000230013C0000293C0000513C0000793C000074
S31560000240A13C0000C93C0000F13C0000193D0000E3
S31560000250413D0000693D0000913D0000B93D000050
S31560000260E13D0000093E0000313E0000593E0000BD
S31560000270813E0000A93E0000D13E0000F93E00002C
S31560000280213F0000493F0000713F0000993F000098
S31560000290C13F0000E93F0000684880476848002881
S315600002A00BD168486849694A884206D091421CBFAA
S315600002B050F8043B41F8043BF8D165486549664A05
S315600002C0884206D091421CBF50F8043B41F8043B7B
S315600002D0F8D162486249634A914218BF41F8040BFB
S315600002E0FAD10000000000000000000000000000DD
S315600002F0DFF874010FF2030E00474FF000004FF075
S315600003000001DFF868F1FEE7FEE7FEE7FEE7FEE7DD
S31560000310FEE7FEE7FEE7FEE7FEE7FEE7FEE7FEE74F
S31560000320FEE7FEE7FEE7FEE7FEE7FEE7FEE7FEE73F
S31560000330FEE7FEE7FEE7FEE7FEE7FEE7FEE7FEE72F
S31560000340FEE7FEE7FEE7FEE7FEE7FEE7FEE7FEE71F
S31560000350FEE7FEE7FEE7FEE7FEE7FEE7FEE7FEE70F
S31560000360FEE7FEE7FEE7FEE7FEE7FEE7FEE7FEE7FF
S31560000370FEE7FEE7FEE7FEE7FEE7FEE7FEE7FEE7EF
S31560000380FEE7FEE7FEE7FEE7FEE7FEE7FEE7FEE7DF
S31560000390FEE7FEE7FEE7FEE7FEE7FEE7FEE7FEE7CF
S315600003A0FEE7FEE7FEE7FEE7FEE7FEE7FEE7FEE7BF
S315600003B0FEE7FEE7FEE7FEE7FEE7FEE7FEE7FEE7AF
S315600003C0FEE7FEE7FEE7FEE7FEE7FEE7FEE7FEE79F
S315600003D0FEE7FEE7FEE7FEE7FEE7FEE7FEE7FEE78F
S315600003E0FEE7FEE7FEE7FEE7FEE7FEE7FEE7FEE77F
S315600003F0FEE7FEE7FEE7FEE7FEE7FEE7FEE7FEE76F
S31560000400FEE7FEE7FEE7FEE7FEE7FEE7FEE7FEE75E
S31560000410FEE7FEE7FEE7FEE7FEE7FEE7FEE7FEE74E
S31560000420FEE7FEE7FEE7FEE7FEE7FEE7FEE7FEE73E
S31560000430FEE7FEE7FEE7FEE7FEE7000091610000EB
S3156000044001000000700400607004000008000020D5
S315600004500C1F016008000020B005002000000000AD
S31560000460B005002090070020996E0000B1140000CE
S3156000047040F2B053C2F200031A780AB9012018702C
S31560000480704700BF40F20800C2F2000008B503687A
S315600004902BB140F20003C0F2000303B1984708BDD8
S315600004A080B584B000AFF860B9607A603B60FB6885
S315600004B0BA681A60FB681B6803F1080318464FF0B8
S315600004C0000101F01CFBFB681B6803F10C03184676
S315600004D04FF0000101F013FBFB681B681846796852
S315600004E001F0DDFAFB681B6803F1040318463968FE
S315600004F001F0D5FAFB681B6803F1100318464FF04C
S31560000500000101F0CCFAFB681B6803F1180318467A
S315600005104FF0000101F0C3FAFB681B6803F120038A
S3156000052018464FF0000101F0BAFAFB681B6803F148
S31560000530280318464FF0000101F0B1FAFB681B680A
S3156000054003F1300318464FF0000101F0A8FAFB688A
S315600005501B6803F1380318464FF0000101F09FFA5B
S31560000560FB681B6803F1400318464FF0000101F079
S3156000057096FAFB681B6803F1480318464FF00001C2
S3156000058001F08DFAFB681B6803F1500318464FF0C3
S31560000590000101F084FAFB681B6803F158031846F2
S315600005A04FF0000101F07BFAFB681B6803F1600302
S315600005B018464FF0000101F072FAFB681B6803F100
S315600005C0680318464FF0000101F069FAFB681B6882
S315600005D003F1700318464FF0000101F060FAFB6802
S315600005E01B6803F1780318464FF0000101F057FAD3
S315600005F0FB681B6803F1800318464FF0000101F0A9
S315600006004EFAFB681B6803F1880318464FF0000139
S3156000061001F045FA07F11007BD4680BD80B584B08C
S3156000062000AF78600B46FB70FB78002B3BD0FB7805
S31560000630102B38D8FA7841F27863C0F201039B5CDC
S31560000640FB73FB78082B17D87B681B6803F10803DC
S31560000650184601F056FA0346BB73BA7BFB7B42EA47
S315600006600303BB737B681B6803F10802BB7B104600
S31560000670194601F044FA16E07B681B6803F10C0327
S31560000680184601F03EFA0346BB73BA7BFB7B42EA2F
S315600006900303BB737B681B6803F10C02BB7B1046CC
S315600006A0194601F02CFA07F11007BD4680BD00BF60
S315600006B080B584B000AF78600B46FB70FB78002B8A
S315600006C041D0FB78102B3ED8FA7841F27863C0F2BD
S315600006D001039B5CFB73FB78082B1AD87B681B684D
S315600006E003F10803184601F00CFA0346BB73FB7B63
S315600006F06FEA0303DAB2BB7B02EA0303BB737B6870
S315600007001B6803F10802BB7B1046194601F0F7F936
S3156000071019E07B681B6803F10C03184601F0F1F9D8
S315600007200346BB73FB7B6FEA0303DAB2BB7B02EA69
S315600007300303BB737B681B6803F10C02BB7B10462B
S31560000740194601F0DCF907F11007BD4680BD00BF10
S3156000075080B582B000AF78607B681B6803F1E40304
S3156000076018464FF0010101F0B2F907F10807BD46DE
S3156000077080BD00BF80B582B000AF78607B681B68C3
S3156000078003F1E40318464FF0000101F0A0F907F108
S315600007900807BD4680BD00BF80B584B000AFF86075
S315600007A00B467A60FB72FB7A002B2DD0FB7A102BFE
S315600007B02AD87B68002B05D1FB7AF8681946FFF7C3
S315600007C077FF21E0FB681A68F97A41F2B063C0F2FC
S315600007D0010353F82130134418464FF0000101F02D
S315600007E05EF9FB681A68F97A41F2F463C0F20103B4
S315600007F053F8213013441846796801F050F9FB7AB2
S31560000800F8681946FFF70AFF07F11007BD4680BD75
S3156000081080B584B000AFF8607A603B600B46FB72CF
S31560000820FB7A002B1ED0FB7A102B1BD8FB681A684C
S31560000830F97A41F2B063C0F2010353F821301344F0
S315600008401846796801F02BF9FB681A68F97A41F263
S31560000850F463C0F2010353F8213013441846396833
S3156000086001F01DF907F11007BD4680BD80B588B05F
S3156000087000AF78600B46FB704FF000037B61FB783E
S31560000880002B66D0FB78102B63D8FA7841F2786338
S31560000890C0F201039B5CFB77FB78082B0ED87B6864
S315600008A01B6803F10803184601F02BF90346BB7772
S315600008B0BA7FFB7F02EA0303BB770DE07B681B68A8
S315600008C003F10C03184601F01CF90346BB77BA7FA7
S315600008D0FB7F02EA0303BB77BB7F002B39D07B68C3
S315600008E01A68F97841F2B063C0F2010353F8213017
S315600008F01344184601F0D5F80346FB607B681A6816
S31560000900F97841F2F463C0F2010353F821301344DD
S31560000910184601F0C6F803463B617B681B6803F125
S315600009200403184601F0BDF80346BB61FA683B69EB
S315600009309A4205D83A69FB68C3EB02037B6108E01B
S315600009403A69FB68C3EB0202BB69134403F1010316
S315600009507B617B69184607F12007BD4680BD00BFF5
S3156000096080B588B000AFF8607A600A46FA72FB70AC
S315600009704FF00003BB614FF00003FB61FB7A002B75
S315600009806FD0FB7A102B6CD8FB681B6803F10403ED
S31560000990184601F086F803467B617B68002B05D11B
S315600009A0FB7AF8681946FFF783FE5AE0FB78012B5D
S315600009B009D0022B2AD0002B32D14FF00003BB6145
S315600009C07B68FB612CE07A697B6882EA030303F04B
S315600009D00103DBB2002B0DD07A697B68C3EB02039F
S315600009E003F101034FEA5303BB61BA697B681344A1
S315600009F0FB6115E07A697B68C3EB02034FEA530338
S31560000A00BB61BA697B681344FB6109E07A697B68FC
S31560000A10C3EB020303F10103BB614FF00003FB610B
S31560000A20FB681A68F97A41F2B063C0F2010353F8C1
S31560000A30213013441846B96901F031F8FB681A6829
S31560000A40F97A41F2F463C0F2010353F8213013449A
S31560000A501846F96901F023F8FB7AF8681946FFF73A
S31560000A60DDFD07F12007BD4680BD00BF80B584B0BF
S31560000A7000AF78600B46FB70FB78002B21D0FB78CB
S31560000A80102B1ED8FA7841F28C63C0F2010333F85A
S31560000A901230FB817B681B6803F19003184601F0F6
S31560000AA018F80346BB81BA89FB8942EA0303BB8116
S31560000AB07B681B6803F19002BB891046194601F0FA
S31560000AC006F807F11007BD4680BD00BF80B584B04B
S31560000AD000AF78600B46FB70FB78002B24D0FB7868
S31560000AE0102B21D8FA7841F28C63C0F2010333F8F7
S31560000AF01230FB817B681B6803F19003184600F097
S31560000B00E8FF0346BB81FB896FEA03039AB2BB89A0
S31560000B1002EA0303BB817B681B6803F19002BB8911
S31560000B201046194600F0D3FF07F11007BD4680BD99
S31560000B3080B582B000AF78600B46FB707B681B683F
S31560000B4003F19402FB781046194600F0C0FF7B68FB
S31560000B501B6803F1A00318464FF0000100F0B7FFD1
S31560000B607B681B6803F19C0318464FF0000100F098
S31560000B70AEFF7B681B6803F1980318464FF6FF715A
S31560000B8000F0A5FF07F10807BD4680BD80B584B0BB
S31560000B9000AF786013460A46FA703B80FB78002BFC
S31560000BA02DD0FB78102B2AD8FA7841F28C63C0F2EC
S31560000BB0010333F81230FB817B681B6803F1A003E5
S31560000BC0184600F086FF0346BB813B88002B05D0A4
S31560000BD0BA89FB8942EA0303BB8107E0FB896FEAB6
S31560000BE003039AB2BB8902EA0303BB817B681B6875
S31560000BF003F1A002BB891046194600F068FF07F1B1
S31560000C001007BD4680BD00BF80B584B000AF786078
S31560000C100B46FB704FF00003FB81FB78002B11D075
S31560000C20FB78102B0ED87B681A68F97841F2387316
S31560000C30C0F2010353F821301344184600F049FF0F
S31560000C400346FB81FB89184607F11007BD4680BD48
S31560000C5080B584B000AF78600B46FB70FB78002BE4
S31560000C6013D0FB78102B10D8FA7841F28C63C0F25F
S31560000C70010333F81230FB817B681B6803F198022D
S31560000C80FB891046194600F022FF07F11007BD46A2
S31560000C9080BD00BF80B584B000AF78600B46FB7046
S31560000CA04FF00003FB81FB78002B18D0FB78102BEC
S31560000CB015D8FA7841F28C63C0F2010333F812302A
S31560000CC0BB817B681B6803F19803184600F001FF3F
S31560000CD00346FB81FA89BB8902EA0303FB81FB8930
S31560000CE0184607F11007BD4680BD00BF80B584B0C9
S31560000CF000AF78607B681B6803F19C03184600F0C0
S31560000D00E8FE03467B817B681B6803F198031846FF
S31560000D1000F0DFFE03463B813A897B8902EA0303E2
S31560000D203B813B89002B03D14FF000037B7334E09A
S31560000D304FF00103FB813B8903F0FF03002B07D1D2
S31560000D40FB8903F10803FB813B894FEA13233B814F
S31560000D503B8903F00F03002B07D1FB8903F10403E2
S31560000D60FB813B894FEA13133B813B8903F0030305
S31560000D70002B07D1FB8903F10203FB813B894FEA14
S31560000D8093033B813B8903F00103002B03D1FB896D
S31560000D9003F10103FB81FB897B737B7B184607F1BB
S31560000DA01007BD4680BD00BF80B584B000AF7860D7
S31560000DB00B46FB70FB78002B21D0FB78102B1ED8DE
S31560000DC0FA7841F28C63C0F2010333F81230FB818A
S31560000DD07B681B6803F19C03184600F07AFE0346A5
S31560000DE0BB81BA89FB8942EA0303BB817B681B68C6
S31560000DF003F19C02BB891046194600F068FE07F1B4
S31560000E001007BD4680BD00BF80B584B000AF786076
S31560000E100B46FB70FB78002B24D0FB78102B21D877
S31560000E20FA7841F28C63C0F2010333F81230FB8129
S31560000E307B681B6803F19C03184600F04AFE034674
S31560000E40BB81FB896FEA03039AB2BB8902EA03039B
S31560000E50BB817B681B6803F19C02BB8910461946FF
S31560000E6000F035FE07F11007BD4680BD80B584B041
S31560000E7000AF78600B46FB70FB78002B13D0FB78D5
S31560000E80102B10D8FA7841F28C63C0F2010333F864
S31560000E901230FB817B681B6803F19802FB89104660
S31560000EA0194600F014FE07F11007BD4680BD00BF6D
S31560000EB080B500AF4FF00F004FF0010101F038FE32
S31560000EC040F23063C2F200034FF001021A6040F252
S31560000ED03863C2F200034FF000021A6080BD00BFA3
S31560000EE080B500AF4FF00F004FF0000101F020FE1B
S31560000EF040F23063C2F200034FF000021A6080BD18
S31560000F0080B500AF40F22860C2F200004FF00201E7
S31560000F1040F6C412FFF740FC40F21463C2F20003CD
S31560000F204FF001021A6080BD80B500AF40F22860C4
S31560000F30C2F200004FF002014FF41672FFF72CFC6C
S31560000F4040F21463C2F200034FF000021A6080BDE3
S31560000F5080B582B000AF78607B6840F22860C2F2EC
S31560000F6000004FF002011A46FFF716FC07F108076A
S31560000F70BD4680BD80B500AF40F22460C2F200007D
S31560000F8040F20001C4F205014FF2E152C0F20502DF
S31560000F904FF48073FFF784FA40F22860C2F20000D3
S31560000FA040F20011C4F2050140F2E73240F2CF731D
S31560000FB0FFF776FA80BD00BF80B582B000AF78607B
S31560000FC07B68002B10D140F22460C2F200004FF023
S31560000FD00101FFF76DFB40F22460C2F200004FF0A2
S31560000FE00201FFF765FB3BE07B68002B1ADD7B683F
S31560000FF040F22460C2F200004FF001011A46FFF78A
S31560001000CBFB40F22460C2F200004FF00101FFF713
S3156000101005FB40F22460C2F200004FF00201FFF7C8
S3156000102047FB1DE07B68C3F100037B607B6840F291
S315600010302460C2F200004FF002011A46FFF7ACFBD3
S3156000104040F22460C2F200004FF00201FFF7E6FAB8
S3156000105040F22460C2F200004FF00101FFF728FB66
S3156000106007F10807BD4680BD80B582B000AF7860E5
S315600010707B68002B10D140F22460C2F200004FF072
S315600010800301FFF715FB40F22460C2F200004FF047
S315600010900401FFF70DFB3BE07B68002B1ADD7B68E4
S315600010A040F22460C2F200004FF003011A46FFF7D7
S315600010B073FB40F22460C2F200004FF00301FFF7B9
S315600010C0ADFA40F22460C2F200004FF00401FFF76F
S315600010D0EFFA1DE07B68C3F100037B607B6840F23A
S315600010E02460C2F200004FF004011A46FFF754FB79
S315600010F040F22460C2F200004FF00401FFF78EFA5E
S3156000110040F22460C2F200004FF00301FFF7D0FA0C
S3156000111007F10807BD4680BD80B582B000AF786034
S315600011207B68002B10D140F22460C2F200004FF0C1
S315600011300501FFF7BDFA40F22460C2F200004FF0ED
S315600011400601FFF7B5FA3BE07B68002B1ADD7B688A
S3156000115040F22460C2F200004FF005011A46FFF724
S315600011601BFB40F22460C2F200004FF00501FFF75E
S3156000117055FA40F22460C2F200004FF00601FFF714
S3156000118097FA1DE07B68C3F100037B607B6840F2E1
S315600011902460C2F200004FF006011A46FFF7FCFA1F
S315600011A040F22460C2F200004FF00601FFF736FA03
S315600011B040F22460C2F200004FF00501FFF778FAB2
S315600011C007F10807BD4680BD80B582B000AF786084
S315600011D07B68002B10D140F22460C2F200004FF011
S315600011E00701FFF765FA40F22460C2F200004FF093
S315600011F00801FFF75DFA3BE07B68002B1ADD7B6830
S3156000120040F22460C2F200004FF007011A46FFF771
S31560001210C3FA40F22460C2F200004FF00701FFF704
S31560001220FDF940F22460C2F200004FF00801FFF7BA
S315600012303FFA1DE07B68C3F100037B607B6840F288
S315600012402460C2F200004FF008011A46FFF7A4FAC4
S3156000125040F22460C2F200004FF00801FFF7DEF9A9
S3156000126040F22460C2F200004FF00701FFF720FA57
S3156000127007F10807BD4680BD80B582B000AF7860D3
S315600012807B6803F12E037B607B6840F22860C2F2C4
S3156000129000004FF001011A46FFF77EFA07F10807D2
S315600012A0BD4680BD80B500AF03F0F8FD41F27C70AD
S315600012B0C0F2010004F0B8FB03461A4640F23463FC
S315600012C0C2F200031A7080BD80B483B000AF78604C
S315600012D003E07B6803F1FF337B607B68002BF8DCFF
S315600012E007F10C07BD4680BC704700BF80B586B06D
S315600012F000AF40F23463C2F200031B78184604F074
S31560001300F7FB0346FB80FB88184605F005FB0246A3
S315600013100B461046194616A3D3E9002305F09CFC3C
S3156000132002460B46104619464FF000024FF08043C6
S3156000133003F5A01305F066FB02460B46C7E90223D8
S31560001340D7E902010CA3D3E9002305F05BFB024653
S315600013500B461046194605F067FD03467B617B69BF
S31560001360184607F11807BD4680BD00BFAFF3008081
S315600013700000000000FEAF40000000000080594001
S3156000138080B582B000AF78607B68002B30D040F2C9
S315600013901063C2F200031A687B681A4440F2106355
S315600013A0C2F200031A6040F21063C2F200031B68C7
S315600013B0042B06DC40F21063C2F200034FF0050214
S315600013C01A6040F21063C2F200031B68CC2B06DD84
S315600013D040F21063C2F200034FF0CC021A6040F292
S315600013E01063C2F200031B681846FFF745FF00E072
S315600013F000BF07F10807BD4680BD00BF80B582B05B
S3156000140000AF78607B68002B34D040F22C63C2F268
S3156000141000031A687B681A4440F22C63C2F2000328
S315600014201A6040F21063C2F200031A6840F2572352
S315600014309A4206DC40F21063C2F200034FF4167261
S315600014401A6040F21063C2F200031A6840F6C413D1
S315600014509A4206DD40F21063C2F2000340F6C412FF
S315600014601A6040F21063C2F200031B681846FFF769
S315600014706FFD00E000BF07F10807BD4680BD00BFF5
S3156000148080B584B000AFF860B9607A603B60F86898
S31560001490FFF792FD7868FFF73FFEB868FFF7E4FD57
S315600014A03868FFF791FE07F11007BD4680BD00BFA3
S315600014B02DE9F047ECB004AFFFF75CFD01F0E4FA0C
S315600014C0FFF7F0FE4FF00F004FF0050101F012FB41
S315600014D040F21C60C2F2000040F20021C4F2050135
S315600014E04FF0A2024FF0010304F02CFB4FF0000313
S315600014F0C7F87C314FF00003C7F890314FF0000316
S31560001500C7F894314FF00003C7F89C3140F230635E
S31560001510C2F200034FF000021A6040F21063C2F29A
S3156000152000034FF000021A6040F22C63C2F200031F
S315600015304FF416721A6040F21863C2F200034FF05D
S3156000154000021A6040F21463C2F200034FF0000218
S315600015501A60FFF7E9FC4FF00F004FF0000101F051
S31560001560E7FA07F17C0340F21C60C2F200001946FC
S315600015704FF0010204F0BEFB0346C7F88431D7F88A
S315600015808431002BEDD007F17C031B78402B1BD1F7
S3156000159007F17C0340F21C60C2F2000019464FF06E
S315600015A0010204F0A7FB0346C7F88431D7F88431FB
S315600015B0002BEDD007F17C031B78C7F880314FF024
S315600015C00003C7F87C3101E021E200BFD7F87C2137
S315600015D007F17C031344D7F8802140F21C60C2F205
S315600015E00000194604F086FB0346C7F88431D7F835
S315600015F08431002B03D1D7F88031002BE6D1D7F8A0
S315600016007C21D7F884311344C7F87C31D7F8802120
S31560001610D7F88431C3EB0203C7F88031D7F880313D
S31560001620002BD2DCD7F87C3103F1FF3307F17C0263
S31560001630D35C002B00D0EAE107F17C0107F1780268
S3156000164007F1740307F17000009007F16C000190D8
S3156000165007F16400029007F168000390084641F2C2
S315600016609071C0F2010105F0E9FC0346062B07D034
S3156000167007F17C0318464FF4807105F0FDFBC6E167
S3156000168007F168031B68012B04DC07F168031B681C
S31560001690002B07DA07F17C0318464FF4807105F0DA
S315600016A0EBFBB4E14FF00003C7F87C3107F17C0136
S315600016B007F1780207F1740307F17000009007F1F3
S315600016C06C00019007F16400029007F168000390D6
S315600016D0084641F29071C0F2010105F0AFFC034685
S315600016E0062B07D007F17C0318464FF4807105F08E
S315600016F0C3FB8CE107F178031E6807F174031D686C
S3156000170007F170031C6807F16C03D3F8009007F1CA
S315600017106403D3F800A007F16803D3F80080FFF7ED
S31560001720E5FD0346CDF80090CDF804A0CDF808801D
S31560001730039341F2A470C0F2010031462A46234663
S3156000174005F0D2FB07F168031B68002B13D0D7F8AE
S315600017509031002B0FD1D7F89431002B14BF0023A2
S315600017600123C7F894314FF00103C7F890314FF069
S315600017700003C7F89C3107F168031B68002B12D180
S31560001780D7F89031002B0ED0D7F89C31092B04DDA9
S315600017904FF00003C7F8903105E0D7F89C3103F1AC
S315600017A00103C7F89C3107F178031B684FEA83028F
S315600017B007F178031A6007F174031B68184605F091
S315600017C0BBF802460B461046194691A3D3E900239F
S315600017D005F018F902460B461046194605F024FB3B
S315600017E0024607F174031A6007F174031B68002B45
S315600017F008DA07F174031B68A3F1960207F1740314
S315600018001A600CE007F174031B68002B07DD07F113
S3156000181074031B6803F1960207F174031A6007F1FB
S3156000182070031B6813F1550F04DA07F170036FF04C
S3156000183054021A6007F170031A6813464FEAC373BD
S31560001840C2EB03034FEA43031A4607F178031B68AA
S315600018501344C7F8883107F170031B684FEA4302E7
S3156000186007F178031B681344C7F88C31D7F88831C1
S3156000187013F1FF0F03DA6FF0FE03C7F88831D7F86C
S315600018808831FF2B03DD4FF0FF03C7F88831D7F8A7
S315600018908C3113F1FF0F03DA6FF0FE03C7F88C315A
S315600018A0D7F88C31FF2B03DD4FF0FF03C7F88C317F
S315600018B007F174031B681846FFF77EFBD7F88801AB
S315600018C0FFF7D2FB07F174031B681846FFF724FC89
S315600018D0D7F88C01FFF778FC07F16C031B6803F1FE
S315600018E00702002BB8BF13464FEAE3031846FFF71B
S315600018F085FD07F164031B68002B08D040F2306356
S31560001900C2F200031B68002B01D1FFF7D1FA40F247
S315600019103063C2F200031B68002B12D040F23863BA
S31560001920C2F200031B68C82B0BDC40F23863C2F2BC
S3156000193000031B6803F1010240F23863C2F2000340
S315600019401A6040F23063C2F200031B68002B14D0A9
S3156000195040F23863C2F200031B68C72B0DDDFFF748
S31560001960BFFA40F21863C2F200031B6803F101027A
S3156000197040F21863C2F200031A6040F23863C2F2A2
S3156000198000031B68642B08DD40F21463C2F2000397
S315600019901B68002B01D1FFF7B3FA40F23863C2F23D
S315600019A000031B68962B08DD40F21463C2F2000345
S315600019B01B68002B01D0FFF7B7FAFFF797FC844648
S315600019C040F21863C2F20003196840F21063C2F273
S315600019D000031A683B4600910192184641F2F07185
S315600019E0C0F20101D7F89421634605F0AFFA0346C9
S315600019F003F10103C7F898313B4640F21C60C2F21E
S31560001A0000001946D7F8982104F0F6F8A9E5A8E58C
S31560001A10CDCCCCCCCCCCE43F80B400AF00BEBD46D0
S31560001A2080BC704780B483B000AF7860396000BE18
S31560001A3007F10C07BD4680BC704700BF80B483B019
S31560001A4000AF78600B46FB7000BE07F10C07BD4621
S31560001A5080BC704780B483B000AF786000BE07F189
S31560001A600C07BD4680BC704780B483B000AF786019
S31560001A7000BE07F10C07BD4680BC704780B483B0DA
S31560001A8000AF786000BE07F10C07BD4680BC7047AA
S31560001A90EFF3108072B6704780F31088704701606C
S31560001AA07047006870470EB503FA01F303EA020354
S31560001AB001686FEA020201EA020141EA030101607C
S31560001AC00EBD006800EA020020FA01F0704701804E
S31560001AD07047008870470EB503FA01F303EA020304
S31560001AE001886FEA020201EA020141EA030101800C
S31560001AF00EBD008800EA020020FA01F0704701700E
S31560001B007047007870470EB503FA01F303EA0203E3
S31560001B1001786FEA020201EA020141EA03010170FB
S31560001B200EBD007800EA020020FA01F0704700005E
S31560001B3080B483B000AF0346FB804EF20013CEF252
S31560001B400003B7F906204FEA5212F98801F01F0127
S31560001B504FF0010000FA01F143F8221007F10C077B
S31560001B60BD4680BC704700BF80B483B000AF0346FB
S31560001B70FB804EF20013CEF20003B7F906204FEA5F
S31560001B805212F98801F01F014FF0010000FA01F1CD
S31560001B9002F1200243F8221007F10C07BD4680BC13
S31560001BA0704700BF80B483B000AF0346FB804EF23F
S31560001BB00013CEF20003B7F906204FEA5212F988F5
S31560001BC001F01F014FF0010000FA01F102F160021D
S31560001BD043F8221007F10C07BD4680BC704700BF72
S31560001BE080B588B000AFF860B9601346FB714FF0FE
S31560001BF00103FB824FF00003BB61FA6840F2646345
S31560001C00C2F200039A4207D0FA6840F23C63C2F21D
S31560001C1000039A4200D000BEBB68002B00D100BE14
S31560001C2004F0BCFAFA6840F26463C2F200039A42B6
S31560001C302ED1FB684FF080421A60FB684FF08442F9
S31560001C405A60FB684FF00A021A8140F25803C2F2EA
S31560001C5000031B68BB6142F20003CEF2040342F24A
S31560001C600002CEF20402126B42F080021A634FF059
S31560001C700A00FFF797FF42F20003CEF2040342F236
S31560001C800002CEF20402126B22F080021A6331E087
S31560001C90FA6840F20003C4F201031360FA6840F286
S31560001CA00003C4F220235360FB684FF00B021A81D5
S31560001CB040F25C03C2F200031B68BB6142F20003A0
S31560001CC0CEF2040342F20002CEF20402126B42F438
S31560001CD080721A634FF00B00FFF764FF42F2000355
S31560001CE0CEF2040342F20002CEF20402126B22F438
S31560001CF080721A63FB681B684FF000021A71BB683A
S31560001D00002B21D0BA69BB68B2FBF3F3FB61FB69B8
S31560001D1003F00803002B06D0FB694FEA131303F1A7
S31560001D200103FB6103E0FB694FEA1313FB61FA6988
S31560001D304FF6FF739A4200D900BEFA694FF6FF73F9
S31560001D409A4201D8FB69FB82FB685B684FF001022F
S31560001D50C3F89C21FB681B68FA8A4FEA122292B28A
S31560001D60D2B21A71FB681B68FA8AD2B21A70FB6823
S31560001D705B684FF00002C3F89C21FB681B68FA7928
S31560001D801A73FB681B684FF00E021A72FB685B6879
S31560001D904FF00002C3F81022FB684FF000021A6190
S31560001DA0FB684FF00002DA60FB684FF000025A6190
S31560001DB0FB684FF00002DA61FA6842F2D533C0F28E
S31560001DC000031362FB684FF000029A61FB684FF0F4
S31560001DD000025A62FB684FF000029A7207F1200710
S31560001DE0BD4680BD80B489B000AFF860B9607A60E6
S31560001DF04FF000033B61FA6840F26463C2F200038D
S31560001E009A4207D0FA6840F23C63C2F200039A42F3
S31560001E1000D000BEBB68002B00D100BE7B68002BE3
S31560001E2000D100BEFA6840F26463C2F200039A42CF
S31560001E3006D0FA6840F23C63C2F200039A423DD192
S31560001E40BB68002B3AD07B68002B37D0FB681B68D9
S31560001E501B7DFB76FB689A7AFB7E42EA0303DAB265
S31560001E60FB689A72FB7E03F02003002B23D04FF0B1
S31560001E701003FB617B680F2B01D87B68FB614FF019
S31560001E8000037B610EE0FB681B68B9683A690A4427
S31560001E9012781A703B6903F101033B617B6903F1B8
S31560001EA001037B617A69FB699A42ECD37A687B6944
S31560001EB0C3EB02037B607B68002BC7D107F1240765
S31560001EC0BD4680BC704700BF80B487B000AF786005
S31560001ED039604FF00003BB607A6840F26463C2F217
S31560001EE000039A4207D07A6840F23C63C2F200036C
S31560001EF09A4200D000BE3B68002B00D100BE7A68D3
S31560001F0040F26463C2F200039A4206D07A6840F2F5
S31560001F103C63C2F200039A4238D13B68002B35D04D
S31560001F203A68BB6813441B783B612CE07B681B688E
S31560001F301B7DFB757B689A7AFB7D42EA0303DAB206
S31560001F407B689A72FB7D03F02003002BEED04FF086
S31560001F500003FB6011E07B681B683A69D2B21A70B5
S31560001F60FB6803F10103FB60BB6803F10103BB601F
S31560001F703A68BB6813441B783B613B69002B02D00F
S31560001F80FB680F2BE7D93B69002BCFD107F11C0704
S31560001F90BD4680BC704700BF80B584B000AFF860B6
S31560001FA0B9607A60FA6840F26463C2F200039A42EA
S31560001FB007D0FA6840F23C63C2F200039A4200D04E
S31560001FC000BEBB68002B00D100BE7B68002B00D131
S31560001FD000BE7B68002B32D0BB68002B2FD0FA681E
S31560001FE040F26463C2F200039A4206D0FA6840F295
S31560001FF03C63C2F200039A4221D1FB68BA68DA6098
S31560002000FB687A681A61FB684FF000025A61FB68E8
S315600020101B891BB21846FFF7C5FDFA6842F2D53335
S31560002020C0F200031362FB685B684FF00102C3F8FD
S315600020308420FB681B891BB21846FFF779FD07F100
S315600020401007BD4680BD00BF80B485B000AF786024
S315600020504FF00003BB734FF00003FB737A6840F2E6
S315600020606463C2F200039A4207D07A6840F23C6326
S31560002070C2F200039A4200D000BE7A6840F26463FE
S31560002080C2F200039A4206D07A6840F23C63C2F21A
S3156000209000039A4217D17B681B681B7DFB737B68C4
S315600020A09A7AFB7B42EA0303DAB27B689A727B68B0
S315600020B01B69002B07D1FB7B03F04003002B02D08A
S315600020C04FF00103BB73BB7B5BB2184607F1140785
S315600020D0BD4680BC704700BF80B487B000AFF86073
S315600020E0B9607A604FF000033B614FF00003FB7507
S315600020F0FA6840F26463C2F200039A4207D0FA6853
S3156000210040F23C63C2F200039A4200D000BEBB6854
S31560002110002B00D100BE7B68002B00D100BEFA68A0
S3156000212040F26463C2F200039A4206D0FA6840F253
S315600021303C63C2F200039A4234D1BB68002B31D0B3
S315600021407B68002B2ED0FB681B681B7DFB75FB68CC
S315600021509A7AFB7D42EA0303DAB2FB689A7217E069
S31560002160BA683B691344FA6812681278D2B21A7078
S315600021703B6903F101033B61FB681B681B7DFB75D3
S31560002180FB689A7AFB7D42EA0303DAB2FB689A72CD
S31560002190FB7D03F00103DBB2002B03D03A697B6859
S315600021A09A42DDD33B69184607F11C07BD4680BCE1
S315600021B0704700BF80B582B000AF78600B46FB7099
S315600021C07A6840F26463C2F200039A4207D07A6882
S315600021D040F23C63C2F200039A4200D000BE7A68C5
S315600021E040F26463C2F200039A4206D07A6840F213
S315600021F03C63C2F200039A4216D17B681B891BB20C
S315600022001846FFF7CFFC7B681B687A6812681279FC
S31560002210D1B2FA7841EA0202D2B21A717B681B899E
S315600022201BB21846FFF784FC07F10807BD4680BD60
S3156000223080B582B000AF78600B46FB707A6840F27A
S315600022406463C2F200039A4207D07A6840F23C6344
S31560002250C2F200039A4200D000BE7A6840F264631C
S31560002260C2F200039A4206D07A6840F23C63C2F238
S3156000227000039A421CD17B681B687A6812681279DF
S31560002280D1B2FA786FEA0202D2B201EA0202D2B29F
S315600022901A717B681B891BB21846FFF783FCFB78B3
S315600022A00F2B05D17B681B891BB21846FFF75CFCB8
S315600022B007F10807BD4680BD80B584B000AF786081
S315600022C07A6840F26463C2F200039A4207D07A6881
S315600022D040F23C63C2F200039A4200D000BE7A68C4
S315600022E040F26463C2F200039A4206D07A6840F212
S315600022F03C63C2F200039A4267D17B681B681B7A13
S31560002300DBB203F00F03FB73FB7B0C2B54D801A2EB
S3156000231052F823F049230000B9230000652300002A
S31560002320B923000081230000B92300009D2300002B
S31560002330B9230000B9230000B9230000B9230000C7
S31560002340B9230000812300007B685B6A002B00D103
S3156000235000BE7B685B6A002B30D07B685B6A7868FE
S31560002360984732E07B681B6A002B00D100BE7B6811
S315600023701B6A002B24D07B681B6A7868984724E028
S315600023807B68DB69002B00D100BE7B68DB69002BB4
S3156000239018D07B68DB697868984716E07B689B692C
S315600023A0002B00D100BE7B689B69002B0CD07B683C
S315600023B09B697868984708E000BE06E000BF04E0C5
S315600023C000BF02E000BF00E000BF07F11007BD4696
S315600023D080BD00BF80B487B000AF78607A6840F295
S315600023E06463C2F200039A4207D07A6840F23C63A3
S315600023F0C2F200039A4200D000BE7B68DB68002B05
S3156000240000D100BE7B681B69002B00D100BE7A68D4
S3156000241040F26463C2F200039A4206D07A6840F2E0
S315600024203C63C2F200039A4252D17B68DB68002BA0
S315600024304ED07B681B69002B4AD07B681B681B7D6E
S31560002440FB727B689A7AFB7A42EA0303DAB27B68AC
S315600024509A72FB7A03F02003002B29D04FF0100309
S315600024603B617B681A697B685B69C3EB02037B61CE
S315600024707B690F2B01D87B693B614FF00003FB60E2
S3156000248012E07B681B687A68D1687A6852690A4488
S3156000249012781A707B685B6903F101027B685A6186
S315600024A0FB6803F10103FB60FA683B699A42E8D373
S315600024B07B685A697B681B699A4209D17B684FF0D1
S315600024C000021A617B685B684FF00002C3F88420E3
S315600024D007F11C07BD4680BC704700BF80B584B05D
S315600024E000AFF860B9601346FB71FA6840F2646346
S315600024F0C2F200039A4207D0FA6840F23C63C2F225
S3156000250000039A4200D000BEBB68002B00D100BE1B
S31560002510FB79C02B00D900BEFA6840F26463C2F250
S3156000252000039A4206D0FA6840F23C63C2F20003A6
S315600025309A4223D1BB68002B20D0FB79C02B1DD8D3
S31560002540FB68BA68DA61FB681A68FB7903F0C00356
S3156000255043F00A03DBB21372FB681B891BB2184691
S31560002560FFF720FBFB685B684FF00102C3F8802031
S31560002570FB681B891BB21846FFF7DAFA07F11007EA
S31560002580BD4680BD80B483B000AF78600B46FB70FB
S315600025907A6840F26463C2F200039A4207D07A68AE
S315600025A040F23C63C2F200039A4200D000BE7A68F1
S315600025B040F26463C2F200039A4206D07A6840F23F
S315600025C03C63C2F200039A420FD1FB78002B06D11E
S315600025D07B685B684FF00002C3F8102205E07B68F9
S315600025E05B684FF00102C3F8102207F10C07BD4685
S315600025F080BC7047684620F007018D4689B500AFFC
S3156000260040F26460C2F20000FFF756FE4FF00A0027
S31560002610FFF7C8FABD46BDE889408546704700BFEA
S31560002620684620F007018D4689B500AF40F23C60F0
S31560002630C2F20000FFF740FE4FF00B00FFF7B2FA60
S31560002640BD46BDE889408546704700BF80B582B00B
S3156000265000AF786039607A6840F26463C2F2000362
S315600026609A4207D07A6840F23C63C2F200039A420B
S3156000267000D000BE3B68002B00D100BE7A6840F2F5
S315600026806463C2F200039A4206D07A6840F23C6301
S31560002690C2F200039A4217D13B68002B14D07B68C4
S315600026A03A689A617B681B891BB21846FFF77AFA0B
S315600026B07B685B684FF00102C3F888207B681B89E2
S315600026C01BB21846FFF734FA07F10807BD4680BD0E
S315600026D080B582B000AF786039607A6840F2646332
S315600026E0C2F200039A4207D07A6840F23C63C2F2B3
S315600026F000039A4200D000BE3B68002B00D100BEAA
S315600027007A6840F26463C2F200039A4206D07A683D
S3156000271040F23C63C2F200039A421FD13B68002B31
S315600027201CD07B683A681A627B684FF00002DA60F8
S315600027307B684FF000021A617B681B891BB21846E2
S31560002740FFF730FA7B685B684FF00102C3F88420BC
S315600027507B681B891BB21846FFF7EAF907F1080781
S31560002760BD4680BD80B582B000AF786039607A685A
S3156000277040F26463C2F200039A4207D07A6840F27C
S315600027803C63C2F200039A4200D000BE3B68002B55
S3156000279000D100BE7A6840F26463C2F200039A42D6
S315600027A006D07A6840F23C63C2F200039A4217D1BF
S315600027B03B68002B14D07B683A685A627B681B8939
S315600027C01BB21846FFF7EEF97B685B684FF00102B3
S315600027D0C3F88C207B681B891BB21846FFF7A8F9E3
S315600027E007F10807BD4680BD80B489B000AFF860C8
S315600027F0B9607A604FF00003FB754FF00003BB6170
S31560002800FA6840F26463C2F200039A4207D0FA683B
S3156000281040F23C63C2F200039A4200D000BEBB683D
S31560002820002B00D100BE7B68002B00D100BEFA6889
S3156000283040F26463C2F200039A4206D0FA6840F23C
S315600028403C63C2F200039A4231D1BB68002B2ED0A2
S315600028507B68002B2BD0FB681B681B7DFB75FB68B8
S315600028609A7AFB7D42EA0303DAB2FB689A72FB7DD1
S3156000287003F02003002B1AD04FF01003FB617B6836
S315600028800F2B01D87B68FB614FF00003BB610AE048
S31560002890FB681B68B968BA690A4412781A70BB6922
S315600028A003F10103BB61BA69FB699A42F0D3BB6964
S315600028B0184607F12407BD4680BC704780B485B0D2
S315600028C000AF78604FF0FF33FB737A6840F2646361
S315600028D0C2F200039A4207D07A6840F23C63C2F2C1
S315600028E000039A4200D000BE7A6840F26463C2F286
S315600028F000039A4206D07A6840F23C63C2F2000353
S315600029009A4213D17B689A7A7B681B681B7DDBB21F
S3156000291042EA0303DAB27B689A727B689B7A23F099
S315600029206103FB737B684FF000029A72FB7B18466B
S3156000293007F11407BD4680BC704700BF80B485B000
S3156000294000AF78604FF0FF33FB737A6840F26463E0
S31560002950C2F200039A4207D07A6840F23C63C2F240
S3156000296000039A4200D000BE7A6840F26463C2F205
S3156000297000039A4206D07A6840F23C63C2F20003D2
S315600029809A4203D17B681B681B7EFB73FB7B1846F0
S3156000299007F11407BD4680BC704700BF80B485B0A0
S315600029A000AF78604FF00003FB737A6840F26463AF
S315600029B0C2F200039A4207D07A6840F23C63C2F2E0
S315600029C000039A4200D000BE7A6840F26463C2F2A5
S315600029D000039A4206D07A6840F23C63C2F2000372
S315600029E09A420FD17B681B681B7DFB737B689A7A62
S315600029F0FB7B42EA0303DAB27B689A72FB7B03F0E5
S31560002A006003FB73FB7B184607F11407BD4680BC69
S31560002A10704700BF80B483B000AF0346FB804EF2C0
S31560002A200013CEF20003B7F906204FEA5212F98876
S31560002A3001F01F014FF0010000FA01F143F8221086
S31560002A4007F10C07BD4680BC704700BF80B483B0F9
S31560002A5000AF0346FB804EF20013CEF20003B7F9D7
S31560002A6006204FEA5212F98801F01F014FF001006B
S31560002A7000FA01F102F1600243F8221007F10C0737
S31560002A80BD4680BC704700BF80B582B000AF42F2E1
S31560002A900003CEF2040342F20002CEF20402126B8D
S31560002AA042F480421A634FF000037B600EE07A685E
S31560002AB041F6F003C0F2010333F812301BB2184638
S31560002AC0FFF7C4FF7B6803F101037B607B681F2B04
S31560002AD0EDD942F20003CEF2040342F20002CEF2D6
S31560002AE00402126B22F480421A6307F10807BD469E
S31560002AF080BD00BF80B485B000AF03463960FB710E
S31560002B00FB79FB60FB681F2B00D900BEFB681F2B9F
S31560002B1008D8FA6841F67003C0F2010353F8223010
S31560002B203A681A6007F11407BD4680BC704700BF5B
S31560002B3080B485B000AF02460B46FA71BB71FB7973
S31560002B40FB60FB681F2B00D900BEFB681F2B09D8F2
S31560002B5040F20003C4F22623FA68B97902F5886266
S31560002B6043F8221007F11407BD4680BC704700BFCA
S31560002B7080B487B000AF02460B46FA71BB71FB7931
S31560002B807B617B691F2B00D900BE7B691F2B7DD8BB
S31560002B90BB79012B04D0022B60D0002B2ED074E0C1
S31560002BA043F20003C4F20103D3F88830FB607B690B
S31560002BB04FF0010202FA03F3FA6842EA0303FB608C
S31560002BC043F20003C4F20103FA68C3F888207A6905
S31560002BD041F67003C0F2010353F822301B683B6173
S31560002BE03B6943F004033B617A6941F67003C0F2C6
S31560002BF0010353F822303A691A6047E043F2000352
S31560002C00C4F20103D3F88830FB607B694FF00102A0
S31560002C1002FA03F36FEA0303FA6802EA0303FB604E
S31560002C2043F20003C4F20103FA68C3F888207A69A4
S31560002C3041F67003C0F2010353F822301B683B6112
S31560002C403B6943F004033B617A6941F67003C0F265
S31560002C50010353F822303A691A6017E07A6941F63F
S31560002C607003C0F2010353F822301B683B613B6975
S31560002C7023F004033B617A6941F67003C0F20103F5
S31560002C8053F822303A691A6000E000BE07F11C076B
S31560002C90BD4680BC704700BF80B584B000AF0346B8
S31560002CA0FB71FB79FB60FB681F2B00D900BEFB68DC
S31560002CB01F2B1ED8FA6841F67003C0F2010353F861
S31560002CC022301B68BB60FA6841F67003C0F20103EC
S31560002CD053F82230BA6842F008021A60FA6841F680
S31560002CE0F003C0F2010333F812301BB21846FFF747
S31560002CF091FE07F11007BD4680BD00BF80B485B068
S31560002D0000AF0346FB71FB79FB60FB681F2B00D9A4
S31560002D1000BEFB681F2B13D8FA6841F67003C0F239
S31560002D20010353F822301B68BB60FA6841F67003F2
S31560002D30C0F2010353F82230BA6822F008021A6022
S31560002D4007F11407BD4680BC704700BF80B584B0EC
S31560002D5000AF0346FB71FB79FB60FB681F2B00D954
S31560002D6000BEFB681F2B15D843F20003C4F20103B3
S31560002D70FA684FF0010101FA02F2C3F88020FA689E
S31560002D8041F6F003C0F2010333F812301BB2184665
S31560002D90FFF75CFE07F11007BD4680BD80B485B0C5
S31560002DA000AF0346FB714FF00003FB73FB79002B0A
S31560002DB000D000BEFB79002B07D1FA7940F2C053F0
S31560002DC0C2F200039B5CFB7302E04FF00003FB73EF
S31560002DD0FB7B184607F11407BD4680BC704700BFF1
S31560002DE080B485B000AF02460B46FA71BB80FA79B3
S31560002DF040F21803C2F200034FEA021213441B7931
S31560002E00BB73BB7B4FEA1313FB73FB7B40F2100271
S31560002E10C2F200024FEA830313445B88BA8802FB5E
S31560002E2003F2F97B40F21003C2F2000333F821305B
S31560002E30B2FBF3F3BB60BB68184607F11407BD46E7
S31560002E4080BC704780B487B000AF40F20003C4F224
S31560002E500203D3F8C830FB6040F20003C4F20203F9
S31560002E604FF00002C3F8C8204FF00003FB7139E051
S31560002E70FB794FEA53037B7440F20002C4F202020C
S31560002E80797C0B464FEA43030B444FEA0313134422
S31560002E9003F508731B79BB74FB7903F00103FB74BC
S31560002EA0FB7C002B0DD0F979BB7C4FEA5313DBB268
S31560002EB01A4602F0030240F2B453C2F200035A54B7
S31560002EC00CE0F979BB7C4FEA5303DBB21A4602F099
S31560002ED0030240F2B453C2F200035A54FB7903F181
S31560002EE00103FB71FB79092BC2D94FF00003BB606C
S31560002EF073E0BA6840F21803C2F200034FEA0212A6
S31560002F0013441B79BB75BA7D41F66013C0F20103A9
S31560002F109B5C3B75BA7D41F63013C0F201039B5C46
S31560002F20012B07D0022B27D0002B47D14FF000038F
S31560002F30FB7547E03B7DFF2B00D100BE40F20002EF
S31560002F40C4F20202397D0B464FEA43030B444FEA53
S31560002F500313134403F508731B7A7B757B7D03F0BB
S31560002F600103DBB2002B03D04FF00003FB7529E0B1
S31560002F704FF00103FB7525E03B7DFF2B00D100BEC2
S31560002F8040F20002C4F20202397D0B464FEA430367
S31560002F900B444FEA0313134403F50A731B797B75DD
S31560002FA07B7D03F00103DBB2002B03D04FF00003FF
S31560002FB0FB7507E04FF00203FB7503E000BE4FF0C0
S31560002FC00003FB75BA6840F2C053C2F20003F97D94
S31560002FD09954BB6803F10103BB60BB68002B88DDB5
S31560002FE040F20003C4F20203FA68C3F8C82007F18E
S31560002FF01C07BD4680BC704780B48DB000AF0246EA
S315600030000B46FA71BB80FA7940F21803C2F20003EC
S315600030104FEA021213441B79BB74BB7C4FEA13134D
S31560003020FB74BA7C41F69013C0F201039B5CFF2BE4
S315600030301CD1FB7C40F21002C2F200024FEA83030D
S3156000304013445B88BA8802FB03F240F20113C0F2B4
S315600030501003A3FB0213C3EB02024FEA52021344AE
S315600030604FEAD3237B617B69FB603DE0BA7C41F626
S31560003070C013C0F201039B5CFB76FA7E40F2B45348
S31560003080C2F200039B5CBB76BB88BB6240F6FF73F3
S31560003090FB62BA7E41F6F013C0F201039B5C3B62B1
S315600030A0BA7E41F6F413C0F2010333F812301BB254
S315600030B0FB61FB7C40F21002C2F200024FEA83031E
S315600030C013445B887B62FA6ABB6AC3EB02037A6A63
S315600030D0396A01FB02F202FB03F2FB6A92FBF3F32D
S315600030E0FA69C3EB0203FB60FB68184607F1340715
S315600030F0BD4680BC704700BF80B586B000AF024653
S315600031000B46FA71BB804FF00003BB60FB79002B66
S3156000311000D000BEFB79002B42D1FA7940F2180349
S31560003120C2F200034FEA021213441B79BB73BB7BE6
S315600031302F2B00D900BEBA7B41F63013C0F20103D3
S315600031409B5C012B2CD1BB7B03F004034FEA9303FA
S31560003150DAB2BB7B03F030034FEAD303DBB213442E
S31560003160FB73FB7B032B1BD8FA7B41F60403C0F28F
S31560003170010333F812303B61FA79BB881046194671
S31560003180FFF73AFF03467B617A6913464FEA83038A
S3156000319013444FEA83031A463B69B2FBF3F3BB6001
S315600031A0BB68184607F11807BD4680BD80B586B076
S315600031B000AF02460B46FA71BB804FF00003BB605E
S315600031C0FB79002B00D000BEFB79002B3FD1FA794A
S315600031D040F21803C2F200034FEA021213441B794D
S315600031E0BB73BB7B2F2B00D900BEBA7B41F6301375
S315600031F0C0F201039B5C012B29D1BB7B03F0040366
S315600032004FEA9303DAB2BB7B03F030034FEAD30392
S31560003210DBB21344FB73FB7B032B18D8FA7B41F6B6
S315600032200403C0F2010333F812303B61FA79BB88BC
S3156000323010461946FFF7E0FE03467B617B6944F65C
S31560003240206202FB03F23B69B2FBF3F3BB60BB682F
S31560003250184607F11807BD4680BD00BF80B584B02B
S3156000326000AF02460B46FA71BB80FA79BB881046FE
S315600032701946FFF7C1FE0346FB60FA6813464FEA3C
S31560003280830313444FEA43031A4648F21F53C5F2B9
S31560003290EB13A3FB02134FEAD303BB60BB6818466C
S315600032A007F11007BD4680BD80B584B000AF024609
S315600032B00B46FA71BB80FA79BB8810461946FFF750
S315600032C09BFE0346FB60FB684FEA8303A3F52A6314
S315600032D0A3F10B03BB60BB68184607F11007BD4638
S315600032E080BD00BF80B584B000AF02460B46FA7160
S315600032F0BB80FA79BB8810461946FFF7AFFF0346D5
S31560003300FB60FA6813464FEAC3031A4446F26763E2
S31560003310C6F2666383FB02134FEA63014FEAE27308
S31560003320C3EB0103A3F5E473A3F10303FB60FB683E
S31560003330184607F11007BD4680BD00BF80B485B052
S3156000334000AF0346FB714FF00003FB60FB79002B77
S3156000335009D1FA7940F21803C2F200034FEA021269
S3156000336013441B68FB60FB68184607F11407BD46EB
S3156000337080BC704780B487B000AF03463960FB718C
S31560003380FA7940F21803C2F200034FEA02121344BC
S315600033901B79BB73BB7B4FEA1313FB73FB7B40F25A
S315600033A01002C2F200024FEA830313445B881A4696
S315600033B03B689A420AD2FA7B40F21003C2F20003DB
S315600033C033F8223003F1FF33BB811BE0FB7B40F215
S315600033D01002C2F200024FEA830313445B883B612A
S315600033E0FA7B40F21003C2F2000333F822307B61AD
S315600033F07B6903F1FF333A6802FB03F23B69B2FB78
S31560003400F3F3BB81BB89184607F11C07BD4680BC38
S31560003410704700BF80B485B000AF03463960FB716A
S31560003420FA7940F21803C2F200034FEA021213441B
S315600034301B79BB73BB7B4FEA1313FB73FB7B40F2B9
S315600034401002C2F200024FEA830313445B881A46F5
S315600034503B689A4203D240F6FF73BB8111E03A683B
S3156000346013464FEA0333C2EB0301FB7B40F21002C3
S31560003470C2F200024FEA830313445B88B1FBF3F3A5
S31560003480BB81BB89184607F11407BD4680BC7047EF
S3156000349080B48BB000AF03463960FB71FA7940F2B5
S315600034A01803C2F200034FEA021213441B79BB727F
S315600034B0BB7A4FEA1313FB72BA7A41F69013C0F2E5
S315600034C001039B5CFF2B1BD13B68002B02DD3B6835
S315600034D0FB6002E04FF00003FB60FA6813464FEAB8
S315600034E00333C2EB0301FB7A40F21002C2F2000220
S315600034F04FEA830313445B88B1FBF3F33B813FE000
S31560003500BA7A41F6C013C0F201039B5CBB74BA7C05
S3156000351040F2B453C2F200039B5CFB7440F6FF7347
S315600035207B62FA7C41F6F013C0F201039B5CFB619F
S31560003530FA7C41F6F413C0F2010333F812301BB281
S315600035407B61FB7A40F21002C2F200024FEA83030B
S3156000355013445B883B627A693B68C3EB0203BB61D9
S315600035607B6A9AB2BB69796A01FB03F1FB69B1FBBD
S31560003570F3F13B6AB1FBF3F39BB2C3EB02033B810E
S315600035803A8940F6FF739A4202D940F6FF733B814F
S315600035903B89184607F12C07BD4680BC704700BFC3
S315600035A080B586B000AF03463960FB714FF000030B
S315600035B07B814FF001033B61FB79002B00D000BE9D
S315600035C0FA7940F21803C2F200034FEA021213447A
S315600035D01B79BB75BB7D2F2B00D900BEBA7D41F62A
S315600035E03013C0F201039B5C012B34D1BB7D03F029
S315600035F004034FEA9303DAB2BB7D03F030034FEA6C
S31560003600D303DBB21344FB75FB7D032B23D8FA7D12
S3156000361041F60403C0F2010333F812303B613B68A4
S315600036203A6902FB03F24CF6CD43CCF6CC43A3FBDE
S3156000363002134FEA1313FB60FB791846F968FFF72C
S31560003640E9FE03467B817A8940F6FF739A4202D986
S3156000365040F6FF737B817B89184607F11807BD46E4
S3156000366080BD00BF80B586B000AF03463960FB7190
S315600036704FF000037B814FF001033B61FB79002B28
S3156000368000D000BEFA7940F21803C2F200034FEA96
S31560003690021213441B79BB75BB7D2F2B00D900BE6C
S315600036A0BA7D41F63013C0F201039B5C012B34D125
S315600036B0BB7D03F004034FEA9303DAB2BB7D03F0EC
S315600036C030034FEAD303DBB21344FB75FB7D032B58
S315600036D023D8FA7D41F60403C0F2010333F81230B1
S315600036E03B613B683A6902FB03F241F25973CDF2E2
S315600036F0B713A3FB02134FEA9333FB60FB791846BB
S31560003700F968FFF787FE03467B817A8940F6FF7387
S315600037109A4202D940F6FF737B817B89184607F18E
S315600037201807BD4680BD00BF80B584B000AF0346B4
S315600037303960FB713A6813464FEA830313444FEAD4
S3156000374083021A444CF6CD43CCF6CC43A3FB02135A
S315600037504FEAD303FB60FB791846F968FFF75AFE18
S3156000376003467B817A8940F6FF739A4202D940F616
S31560003770FF737B817B89184607F11007BD4680BDC4
S3156000378080B584B000AF03463960FB713B6803F5D2
S315600037902A6303F10B033B603B684FEA9303FB60CC
S315600037A0FB791846F968FFF735FE03467B817A890F
S315600037B040F6FF739A4202D940F6FF737B817B899C
S315600037C0184607F11007BD4680BD00BF80B584B0BE
S315600037D000AF03463960FB713B6803F5E47303F1A0
S315600037E003033B603B68FB60FA6813464FEA83035A
S315600037F01A4448F63963C3F6E303A3FB02134FEAA0
S315600038005303FB60FB791846F968FFF78DFF0346A3
S315600038107B817A8940F6FF739A4202D940F6FF733C
S315600038207B817B89184607F11007BD4680BD00BFC6
S3156000383080B485B000AF786039607B684FEA132347
S31560003840FB813B68002B05D07B684FEA1363DAB2D5
S315600038503B681A70FB89184607F11407BD4680BCA1
S31560003860704700BF80B483B000AF0346FB804EF262
S315600038700013CEF20003B7F906204FEA5212F98818
S3156000388001F01F014FF0010000FA01F102F1600240
S3156000389043F8221007F10C07BD4680BC704700BF95
S315600038A080B400AFBD4680BC704700BF80B485B0B1
S315600038B000AF0346FB714FF00003FB60FB681846E0
S315600038C007F11407BD4680BC704700BF80B485B061
S315600038D000AF0346FB714FF00003FB60FB681846C0
S315600038E007F11407BD4680BC704700BF80B483B043
S315600038F000AF02460B46FA71BB8007F10C07BD4666
S3156000390080BC704780B483B000AF02460B46FA7144
S31560003910BB8007F10C07BD4680BC704780B483B09E
S3156000392000AF02460B46FA71BB8007F10C07BD4635
S3156000393080BC704780B483B000AF02460B46FA7114
S31560003940BB8007F10C07BD4680BC704780B483B06E
S3156000395000AF02460B46FA71BB8007F10C07BD4605
S3156000396080BC704780B485B000AF78604FF00003CC
S31560003970FB73FB7B184607F11407BD4680BC704796
S3156000398080B485B000AF0346FB714FF0FF33FB6038
S31560003990FB68184607F11407BD4680BC704700BF38
S315600039A080B485B000AF0346FB714FF00003FB6047
S315600039B0FB68184607F11407BD4680BC704700BF18
S315600039C080B485B000AF0346FB714FF00103FB7313
S315600039D0FB7B184607F11407BD4680BC704700BFE5
S315600039E080B485B000AF0346FB714FF00003FB6007
S315600039F0FB68184607F11407BD4680BC704700BFD8
S31560003A0080B485B000AF03463960FB714FF00003A8
S31560003A10FB73FB7B184607F11407BD4680BC7047F5
S31560003A2080B485B000AF03463960FB714FF0000388
S31560003A30FB73FB7B184607F11407BD4680BC7047D5
S31560003A4080B483B000AF0346FB7107F10C07BD4637
S31560003A5080BC704780B483B000AF0346FB7107F14A
S31560003A600C07BD4680BC704780B483B000AF034688
S31560003A70FB7107F10C07BD4680BC704780B483B00C
S31560003A8000AF0346FB7107F10C07BD4680BC70476B
S31560003A9080B483B000AF0346FB7107F10C07BD46E7
S31560003AA080BC704780B483B000AF0346FB7107F1FA
S31560003AB00C07BD4680BC704780B483B000AF034638
S31560003AC03960FB7107F10C07BD4680BC704700BFCB
S31560003AD080B483B000AF03463960FB7107F10C0711
S31560003AE0BD4680BC704700BF80B483B000AF7860CD
S31560003AF007F10C07BD4680BC704700BF80B483B039
S31560003B0000AF0346FB7107F10C07BD4680BC7047EA
S31560003B10684620F007018D4689B500AF4FF000007A
S31560003B20FFF7ECFF4FF07600FFF79CFEBD46BDE861
S31560003B3089408546704700BF684620F007018D467C
S31560003B4089B500AF4FF00100FFF7D8FF4FF077005F
S31560003B50FFF788FEBD46BDE889408546704700BFD1
S31560003B60684620F007018D4689B500AF4FF0020028
S31560003B70FFF7C4FF4FF07800FFF774FEBD46BDE85F
S31560003B8089408546704700BF684620F007018D462C
S31560003B9089B500AF4FF00300FFF7B0FF4FF0790033
S31560003BA0FFF760FEBD46BDE889408546704700BFA9
S31560003BB0684620F007018D4689B500AF4FF00400D6
S31560003BC0FFF79CFF4FF07A00FFF74CFEBD46BDE85D
S31560003BD089408546704700BF684620F007018D46DC
S31560003BE089B500AF4FF00500FFF788FF4FF07B0007
S31560003BF0FFF738FEBD46BDE889408546704700BF81
S31560003C00684620F007018D4689B500AF4FF0060083
S31560003C10FFF774FF4FF07C00FFF724FEBD46BDE85A
S31560003C2089408546704700BF684620F007018D468B
S31560003C3089B500AF4FF00700FFF760FF4FF07D00DA
S31560003C40FFF710FEBD46BDE889408546704700BF58
S31560003C50684620F007018D4689B500AF4FF0080031
S31560003C60FFF74CFF4FF07E00FFF7FCFDBD46BDE859
S31560003C7089408546704700BF684620F007018D463B
S31560003C8089B500AF4FF00900FFF738FF4FF07F00AE
S31560003C90FFF7E8FDBD46BDE889408546704700BF31
S31560003CA0684620F007018D4689B500AF4FF00A00DF
S31560003CB0FFF724FF4FF08000FFF7D4FDBD46BDE857
S31560003CC089408546704700BF684620F007018D46EB
S31560003CD089B500AF4FF00B00FFF710FF4FF0810082
S31560003CE0FFF7C0FDBD46BDE889408546704700BF09
S31560003CF0684620F007018D4689B500AF4FF00C008D
S31560003D00FFF7FCFE4FF08200FFF7ACFDBD46BDE855
S31560003D1089408546704700BF684620F007018D469A
S31560003D2089B500AF4FF00D00FFF7E8FE4FF0830056
S31560003D30FFF798FDBD46BDE889408546704700BFE0
S31560003D40684620F007018D4689B500AF4FF00E003A
S31560003D50FFF7D4FE4FF08400FFF784FDBD46BDE853
S31560003D6089408546704700BF684620F007018D464A
S31560003D7089B500AF4FF00F00FFF7C0FE4FF085002A
S31560003D80FFF770FDBD46BDE889408546704700BFB8
S31560003D90684620F007018D4689B500AF4FF01000E8
S31560003DA0FFF7ACFE4FF08600FFF75CFDBD46BDE851
S31560003DB089408546704700BF684620F007018D46FA
S31560003DC089B500AF4FF01100FFF798FE4FF08700FE
S31560003DD0FFF748FDBD46BDE889408546704700BF90
S31560003DE0684620F007018D4689B500AF4FF0120096
S31560003DF0FFF784FE4FF08800FFF734FDBD46BDE84F
S31560003E0089408546704700BF684620F007018D46A9
S31560003E1089B500AF4FF01300FFF770FE4FF08900D1
S31560003E20FFF720FDBD46BDE889408546704700BF67
S31560003E30684620F007018D4689B500AF4FF0140043
S31560003E40FFF75CFE4FF08A00FFF70CFDBD46BDE84C
S31560003E5089408546704700BF684620F007018D4659
S31560003E6089B500AF4FF01500FFF748FE4FF08B00A5
S31560003E70FFF7F8FCBD46BDE889408546704700BF40
S31560003E80684620F007018D4689B500AF4FF01600F1
S31560003E90FFF734FE4FF08C00FFF7E4FCBD46BDE84B
S31560003EA089408546704700BF684620F007018D4609
S31560003EB089B500AF4FF01700FFF720FE4FF08D0079
S31560003EC0FFF7D0FCBD46BDE889408546704700BF18
S31560003ED0684620F007018D4689B500AF4FF018009F
S31560003EE0FFF70CFE4FF08E00FFF7BCFCBD46BDE849
S31560003EF089408546704700BF684620F007018D46B9
S31560003F0089B500AF4FF01900FFF7F8FD4FF08F004D
S31560003F10FFF7A8FCBD46BDE889408546704700BFEF
S31560003F20684620F007018D4689B500AF4FF01A004C
S31560003F30FFF7E4FD4FF09000FFF794FCBD46BDE847
S31560003F4089408546704700BF684620F007018D4668
S31560003F5089B500AF4FF01B00FFF7D0FD4FF0910021
S31560003F60FFF780FCBD46BDE889408546704700BFC7
S31560003F70684620F007018D4689B500AF4FF01C00FA
S31560003F80FFF7BCFD4FF09200FFF76CFCBD46BDE845
S31560003F9089408546704700BF684620F007018D4618
S31560003FA089B500AF4FF01D00FFF7A8FD4FF09300F5
S31560003FB0FFF758FCBD46BDE889408546704700BF9F
S31560003FC0684620F007018D4689B500AF4FF01E00A8
S31560003FD0FFF794FD4FF09400FFF744FCBD46BDE843
S31560003FE089408546704700BF684620F007018D46C8
S31560003FF089B500AF4FF01F00FFF780FD4FF09500C9
S31560004000FFF730FCBD46BDE889408546704700BF76
S3156000401080B584B000AF78604FF6FF737B814FF058
S3156000402000033B812DE0398940F22802C2F200028A
S315600040300B464FEA83030B444FEA830313441B6822
S31560004040002B1AD0398940F22802C2F200020B46D0
S315600040504FEA83030B444FEA830313441B68786873
S3156000406019464FF0090203F047F80346FB60FB6808
S31560004070002B02D13B897B8106E03B8903F101037A
S315600040803B813B89012BCED97B89184607F1100706
S31560004090BD4680BD80B485B000AF0346FB80FB881B
S315600040A0012B00D900BEFB88012B00F28580F988C0
S315600040B040F22802C2F200020B464FEA83030B4429
S315600040C04FEA8303134403F110031B78022B00D9D4
S315600040D000BEF98840F22802C2F200020B464FEA9F
S315600040E083030B444FEA8303134403F110031B78E5
S315600040F0022B61D8F98840F22802C2F200020B4610
S315600041004FEA83030B444FEA8303134403F110031E
S315600041101B781A4641F6FC13C0F2010353F82230AD
S315600041204FF000021A60F98840F22802C2F20002DB
S315600041300B464FEA83030B444FEA8303134403F1B0
S315600041400C031B68FB60F98840F22802C2F2000289
S315600041500B464FEA83030B444FEA83031344DB8821
S315600041607B814FF000033B8114E040F20003C4F210
S31560004170020379893A890A44F968098802F5007266
S3156000418043F82210FB6803F10203FB603B8903F1ED
S3156000419001033B81F98840F22802C2F200020B4615
S315600041A04FEA83030B444FEA8303134403F1080386
S315600041B01B883A899A42D8D307F11407BD4680BC5A
S315600041C0704700BF80B485B000AF0346FB80FB88B4
S315600041D0012B00D900BEFB88012B00F28D80F98887
S315600041E040F22802C2F200020B464FEA83030B44F8
S315600041F04FEA8303134403F110031B78022B00D9A3
S3156000420000BEF98840F22802C2F200020B464FEA6D
S3156000421083030B444FEA83031344DA8840F2FF13A7
S315600042209A4200D900BEF98840F22802C2F2000222
S315600042300B464FEA83030B444FEA83031344DB8840
S31560004240FB81FB89FF2B18D8F98840F22802C2F25D
S3156000425000020B464FEA83030B444FEA8303134481
S3156000426003F110031B781A4641F60823C0F20103D6
S3156000427053F82230FA891A6019E0F98840F2280268
S31560004280C2F200020B464FEA83030B444FEA8303F4
S31560004290134403F110031B781A4641F61423C0F247
S315600042A0010353F82230FA89A2F580721A60F98800
S315600042B040F22802C2F200020B464FEA83030B4427
S315600042C04FEA8303134403F110031B781A4641F641
S315600042D0FC13C0F2010353F822304FF001021A605A
S315600042E040F20003C4F2020340F20002C4F202028A
S315600042F0526842F001025A6007F11407BD4680BC5D
S31560004300704700BF80B485B000AF0346FB80FB8872
S31560004310012B00D900BEF98840F22802C2F20002E1
S315600043200B464FEA83030B444FEA8303134403F1BE
S3156000433010031B78022B00D900BEF98840F22802D0
S31560004340C2F200020B464FEA83030B444FEA830333
S315600043501344DA8840F2FF139A4200D900BEFB8804
S31560004360012B5CD8F98840F22802C2F200020B46A3
S315600043704FEA83030B444FEA830313449B88FB8114
S31560004380FB89FF2B18D8F98840F22802C2F2000296
S315600043900B464FEA83030B444FEA8303134403F14E
S315600043A010031B781A4641F60823C0F2010353F83E
S315600043B02230FA891A6019E0F98840F22802C2F2BE
S315600043C000020B464FEA83030B444FEA8303134410
S315600043D003F110031B781A4641F61423C0F2010359
S315600043E053F82230FA89A2F580721A60F98840F291
S315600043F02802C2F200020B464FEA83030B444FEADF
S315600044008303134403F110031B781A4641F6FC1329
S31560004410C0F2010353F822304FF001021A6007F12F
S315600044201407BD4680BC704780B483B000AF0346B6
S31560004430FB80FB88012B00D900BEFB88012B18D8B6
S31560004440F98840F22802C2F200020B464FEA830363
S315600044500B444FEA8303134403F110031B781A4697
S3156000446041F6FC13C0F2010353F822304FF000020C
S315600044701A6007F10C07BD4680BC704780B483B0F4
S3156000448000AF0346FB80FB88012B00D900BEFB888A
S31560004490012B18D8F98840F22802C2F200020B46B6
S315600044A04FEA83030B444FEA8303134403F110037B
S315600044B01B781A4641F6FC13C0F2010353F822300A
S315600044C04FF001021A6007F10C07BD4680BC7047C9
S315600044D080B483B000AF0346FB71FB79142B00D91F
S315600044E000BE40F20003C4F2020340F20002C4F2CE
S315600044F0020202F590521168FA794FF0010000FA53
S3156000450002F241EA020203F590531A6007F10C07C2
S31560004510BD4680BC704700BF80B485B000AF03461F
S31560004520FB71FB79142B00D900BE40F20003C4F284
S31560004530020340F20002C4F2020202F590521168D0
S31560004540FA794FF0010000FA02F26FEA020201EA1C
S31560004550020203F590531A6040F20003C4F20203AC
S3156000456003F590531B68FB60FB6803F10103FB6076
S3156000457007F11407BD4680BC704700BF80B485B0A4
S3156000458000AF0346FB71FB79142B00D900BE40F2E5
S315600045900003C4F2020340F20002C4F2020202F512
S315600045A0905202F108021168FA794FF0010000FAA0
S315600045B002F241EA020203F5905303F108031A601E
S315600045C040F20003C4F2020303F5905303F10803BB
S315600045D01B68FB60FB6803F10103FB6007F11407CE
S315600045E0BD4680BC704700BF80B483B000AF40F268
S315600045F00003C4F202035B683B6040F20003C4F24E
S31560004600020340F20002C4F20202526822F0010282
S315600046105A6040F20003C4F2020303F5A05303F1AB
S3156000462004031B687B6040F20003C4F2020340F29D
S315600046300002C4F2020202F5A05202F104021268FC
S3156000464022F0010203F5A05303F104031A6040F25D
S315600046500003C4F2020340F20002C4F20202D26D09
S3156000466042F01002DA6540F20003C4F2020340F23F
S315600046700002C4F20202D2F89C2042F01002C3F893
S315600046809C2040F20003C4F2020340F20002C4F22E
S315600046900202D2F8DC2042F01002C3F8DC2040F2BD
S315600046A00003C4F2020340F20002C4F2020202F501
S315600046B0A45202F11002126842F0040203F5A453F8
S315600046C003F110031A6040F20003C4F2020340F2E1
S315600046D00002C4F2020202F5A45202F11C02126840
S315600046E042F0040203F5A45303F11C031A6040F27E
S315600046F00003C4F2020340F20002C4F2020202F5B1
S31560004700A45202F12802126842F0040203F5A4538F
S3156000471003F128031A6040F20003C4F2020340F278
S315600047200002C4F2020202F59852126842F00402D4
S3156000473003F598531A6040F20003C4F2020303F5CE
S31560004740A05303F104037A681A6040F20003C4F2CE
S3156000475002033A685A6007F10C07BD4680BC704791
S3156000476080B483B000AF0346FB71FB79002B00D0A9
S3156000477000BEFA7941F62403C0F2010333F8323001
S315600047801BB2184607F10C07BD4680BC704700BFD8
S3156000479080B483B000AF0346FB71FB79002B00D079
S315600047A000BEFB7941F62402C0F201024FEAC30360
S315600047B013445B881BB2184607F10C07BD4680BCE4
S315600047C0704700BFB0B592B000AF13460246FA71AB
S315600047D00A46BA807B8041F67422C0F2010207F174
S315600047E00C0392E80300186003F104031980FB7957
S315600047F0002B00D000BEFB79002B40F09D80FA793B
S3156000480040F21803C2F200034FEA021213441B7906
S31560004810FB74FA7C07F10C031046194600F028F980
S31560004820FB89A7F842303B8AA7F84430BB89A7F8D2
S315600048304630BB88184600F083F80446B7F8423025
S31560004840184600F07DF8034603FB04F3FB61FB6941
S315600048501C464FEAE475B7F84630184600F070F823
S3156000486003461A464FEAE27302FB05F104FB03F0C6
S315600048700144A4FB022319440B46C7E90823C7E990
S315600048800823D7E9080100F0B3F803467B61BB88CB
S31560004890184600F055F80446B7F84430184600F05C
S315600048A04FF8034603FB04F3FB62FB6A1C464FEAC0
S315600048B0E475B7F84630184600F042F803461A46E3
S315600048C04FEAE27302FB05F104FB03F00144A4FB2B
S315600048D0022319440B46C7E90C23C7E90C237B88DE
S315600048E0184600F02DF80446B7F84630184600F032
S315600048F027F8034603FB04F31A464FEAE2734FEACE
S3156000490092414FEA833040EA0101F9634FEA82330C
S31560004910BB63D7E90C01D7E90E23121843EB0103F9
S315600049201046194600F024F80346BB61FB79184629
S315600049307969BA6900F05CFA07F14807BD46B0BD0F
S3156000494080B485B000AF0346FB804FF40043FB6044
S31560004950FA88FB6882EA0302FB68C3EB0203BB606A
S31560004960BB68184607F11407BD4680BC704700BF98
S31560004970B0B489B000AFC7E900014FF0FF3041F62F
S31560004980FF71C7E904014FF000004FF010414FEA94
S31560004990E131C7E90601D7E90001D7E90445844258
S315600049A075EB010C04DAD7E90401C7E900010BE0F5
S315600049B0D7E90045D7E90601844275EB010C03DAB5
S315600049C0D7E90601C7E9000179684FEA814138688D
S315600049D04FEA903241EA020279684FEAA133134600
S315600049E0FB60FB68184607F12407BD46B0BC7047FC
S315600049F0B0B489B000AFC7E900014FF0FF3041F6AF
S31560004A00FF71C7E904014FF000004FF010414FEA13
S31560004A10E131C7E90601D7E90001D7E904458442D7
S31560004A2075EB010C04DAD7E90401C7E900010BE074
S31560004A30D7E90045D7E90601844275EB010C03DA34
S31560004A40D7E90601C7E9000179684FEA013138689C
S31560004A504FEA105241EA020279684FEA215313463F
S31560004A60FB60FB68184607F12407BD46B0BC70477B
S31560004A7090B4A4B000AF03463960FB714FF00F03EA
S31560004A80BB654FF00103FB654FF001033B6641F6E2
S31560004A902423C0F2010307F1480C0FCB8CE80F000A
S31560004AA04FF00003BB67FA79BB6D02EA0303BB668E
S31560004AB0BB6E07F19002134413F8483C87F86730E1
S31560004AC0FB7903F030034FEA1313FB66FB6E4FEA84
S31560004AD043037B67BB6E042B06D9BB6E082B03D8DA
S31560004AE07B6F03F101037B6797F86730052B00F254
S31560004AF0518101A252F823F0114B00005F4B000078
S31560004B00B54B00001B4C00008D4C0000F54C0000BE
S31560004B1040F20002C4F20202796F0B464FEA430389
S31560004B200B444FEA0313134403F508731B79DBB296
S31560004B3003F006034FEA53033B6741F62023C0F2B6
S31560004B4001031B6803F190031A467B6F4FEAC301AA
S31560004B503B6F0B444FEA83031344BB6722E140F289
S31560004B600002C4F20202796F0B464FEA43030B441C
S31560004B704FEA0313134403F508731B79DBB203F0A2
S31560004B8060034FEA53133B6741F62023C0F20103EB
S31560004B901B6803F190031A467B6F4FEA430303F1E8
S31560004BA001034FEA83013B6F0B444FEA83031344CF
S31560004BB0BB67F7E040F20002C4F20202796F0B466F
S31560004BC04FEA43030B444FEA0313134403F5087398
S31560004BD01B7ADBB21A46FB6D02EA0303FB67FB6FC7
S31560004BE0002B0CD141F62023C0F201031B6803F5AC
S31560004BF0C0727B6F4FEA83031344BB67D2E041F612
S31560004C002023C0F201031B6803F5D8731A467B6F35
S31560004C104FEAC3031344BB67C4E040F20002C4F228
S31560004C200202796F0B464FEA43030B444FEA0313C4
S31560004C30134403F50A731B79DBB21A463B6E02EA2C
S31560004C400303C7F88030D7F88030002B0CD141F6CB
S31560004C502023C0F201031B6803F5CC727B6F4FEA19
S31560004C6083031344BB679DE041F62023C0F2010332
S31560004C701B6803F5D8731A467B6F4FEA430303F14B
S31560004C8001034FEA83031344BB678BE041F6342389
S31560004C90C0F2010307F1080C1C460FCCACE80F000C
S31560004CA00FCCACE80F000FCCACE80F0094E80F0017
S31560004CB08CE80F00FA79BB6D02EA03034FEA8303BF
S31560004CC007F19002134453F8883CC7F8843041F6E4
S31560004CD02023C0F201031B6803F5F0731A46FB6ECE
S31560004CE04FEA8301D7F884300B444FEA83031344B9
S31560004CF0BB6757E040F20002C4F20202796F0B46CE
S31560004D004FEA43030B444FEA0313134403F5067358
S31560004D101B79DBB203F00103C7F8883040F200026A
S31560004D20C4F20202796F0B464FEA43030B444FEA23
S31560004D300313134403F506731B79DBB203F0020316
S31560004D40C7F88C30D7F88830002B03D04FF00103BA
S31560004D50C7F88830D7F88C30002B03D04FF00103AA
S31560004D60C7F88C3041F62023C0F201031B6803F5B7
S31560004D70A8731A46FB6E4FEA4301D7F888300B4496
S31560004D804FEA4301D7F88C300B444FEA8303134450
S31560004D90BB6707E03B684FF480425A803B684FF040
S31560004DA000029A80BB6F002B07D0BB6F1A883B68E6
S31560004DB05A80BB6F5A883B689A80FA6E41F60C033C
S31560004DC0C0F201039B5C002B08D041F62023C0F2A1
S31560004DD001031B689A8B3B681A8003E03B684FF4BB
S31560004DE080421A8007F19007BD4690BC704700BFAD
S31560004DF080B487B000AF0346B9607A60FB734FF04A
S31560004E007F437B61FA7B41F62403C0F2010333F8EA
S31560004E1032303B82FB7B41F62402C0F201024FEA4C
S31560004E20C30313445B887B8240F20003C4F202032F
S31560004E30388A40F20002C4F20202398A01F5C06182
S31560004E4052F821107A6901EA0201BA684FEA122221
S31560004E5041EA020100F5C06243F8221040F2000305
S31560004E60C4F20203788A40F20002C4F20202798A2E
S31560004E7001F5C06152F821107A6901EA02017A6887
S31560004E804FEA122241EA020100F5C06243F822109D
S31560004E9007F11C07BD4680BC704700BF80B500AFF8
S31560004EA0FEF7FEFCFDF7CEFF80BD00BF80B483B089
S31560004EB000AF0346FB7140F20003C4F20203FA79C5
S31560004EC06FEA42626FEA5262D2B21A6507F10C0764
S31560004ED0BD4680BC704700BF80B485B000AF034656
S31560004EE0FB714FF000037B81FB79022B00D900BE7A
S31560004EF0FB79022B1BD8FA7941F67C23C0F20103B9
S31560004F0053F822301B6803F48053FB60FB68002B68
S31560004F10F1D0FA7941F67C23C0F2010353F82230CE
S31560004F201B689BB24FEA03534FEA13537B817B891D
S31560004F30184607F11407BD4680BC704790B486B02A
S31560004F4000AFF871B9717A713B71FB79022B00D9A8
S31560004F5000BEFB79022B00F2BC8041F6C822C0F28B
S31560004F60010207F10C0312681146198003F102036E
S31560004F704FEA12421A704FF00103BB744FF0000300
S31560004F80FB74FB7907F11802134413F80C3C7B742D
S31560004F9040F20003C4F20203D3F8C8307B6140F2EA
S31560004FA00003C4F202034FF00002C3F8C82040F2C7
S31560004FB00002C4F20202797C0B464FEA43030B44BB
S31560004FC04FEA0313134403F506737A791A717B79F2
S31560004FD003F00103DBB2002B02D04FF00003BB7479
S31560004FE07B7903F00203002B02D04FF00103FB74C0
S31560004FF040F20002C4F20202797C41F6B823C0F2A4
S3156000500001031B68FC7997F812C0F87C4FEA4404E8
S31560005010A4444FEA4C0C6044034403F180031879BE
S315600050200B464FEA43030B444FEA0313134403F55D
S31560005030047302461A7140F20003C4F202037A69ED
S31560005040C3F8C820FA7941F68823C0F2010353F801
S315600050502230BA791A60FA7941F68823C0F20103E0
S3156000506053F82220F97941F68823C0F2010353F8F8
S3156000507021301B6843F0400313603B79002B15D148
S3156000508040F20003C4F2020340F20002C4F20202DC
S315600050901169F87941F69422C0F2010252F8202093
S315600050A06FEA020201EA02021A6112E040F20003AC
S315600050B0C4F2020340F20002C4F202021169F879F6
S315600050C041F69422C0F2010252F8202041EA02021F
S315600050D01A6107F11807BD4690BC704780B483B06B
S315600050E000AF0346FB71FB79022B00D900BEFB794A
S315600050F0022B11D8FA7941F68823C0F2010353F8DE
S315600051002220F97941F68823C0F2010353F8213051
S315600051101B6843F02003136007F10C07BD4680BC93
S31560005120704700BF80B483B000AF0346FB71FB7964
S31560005130022B00D900BEFB79022B11D8FA7941F611
S315600051408823C0F2010353F82220F97941F68823B7
S31560005150C0F2010353F821301B6823F0200313606B
S3156000516007F10C07BD4680BC704700BF80B483B0B2
S3156000517000AF03463960FB71FB79022B00D900BE94
S31560005180FB79022B13D8FA7941F6AC23C0F20103FE
S3156000519053F822303A684FEA12421A60FA7941F6B9
S315600051A0A023C0F2010353F822303A681A6007F16F
S315600051B00C07BD4680BC704780B487B000AFF8600E
S315600051C0B9607A6040F20003C4F202031B697B6136
S315600051D0FB68B3F1FF3F12D040F20003C4F2020352
S315600051E0FA684FEA1242DA6640F20003C4F202033A
S315600051F0FA68C3F800257B6943F001037B61BB68ED
S31560005200B3F1FF3F13D040F20003C4F20203BA6861
S315600052104FEA1242C3F8AC2040F20003C4F2020324
S31560005220BA68C3F804257B6943F002037B617B6837
S31560005230B3F1FF3F1CD040F20003C4F202037A6868
S315600052404FEA1242C3F8EC2040F20003C4F20203B4
S315600052507A684FEA1222C3F8E82040F20003C4F2EB
S3156000526002037A68C3F808257B6943F004037B610F
S3156000527040F20003C4F202037A691A6107F11C075F
S31560005280BD4680BC704700BF80B487B000AF0246A1
S315600052900B46FA71BB71FB7903F001033B61FB7945
S315600052A0092B00D900BEBB79032B00D900BE3B6930
S315600052B0002B00D100BEFB79092B00F2B980BB79C7
S315600052C0032B00F2B5803B69002B00F0B180FA79C0
S315600052D041F6BC23C0F201039B5CFB7340F2000302
S315600052E0C4F20203D3F8C8307B6140F20003C4F213
S315600052F002034FF00002C3F8C820BB79032B46D1E6
S3156000530040F20001C4F20201F87B40F20002C4F2EE
S31560005310020297F80FC063464FEA430363444FEABD
S315600053200313134403F50A731B79DBB21A4602F0C2
S31560005330DF0203464FEA430303444FEA03130B4479
S3156000534003F50A731A7140F20001C4F20201F87B98
S3156000535040F20002C4F2020297F80FC063464FEAB9
S31560005360430363444FEA0313134403F50A731B7A3A
S31560005370DBB21A4602F0FC0203464FEA43030344DB
S315600053804FEA03130B4403F50A731A7249E040F2BD
S315600053900002C4F20202F87B40F20001C4F202018C
S315600053A097F80FC063464FEA430363444FEA03131B
S315600053B00B4403F50A731B79DBB243F02003D9B2C1
S315600053C003464FEA430303444FEA0313134403F5CA
S315600053D00A730A461A7140F20002C4F20202F87BAE
S315600053E040F20001C4F2020197F80FC063464FEA2B
S315600053F0430363444FEA03130B4403F50A731B7AB2
S31560005400DBB203F0FC03B9790B44D9B203464FEA29
S31560005410430303444FEA0313134403F50A730A462E
S315600054201A7240F20003C4F202037A69C3F8C82014
S3156000543007F11C07BD4680BC704700BF80B487B0CB
S3156000544000AF02460B46FA71BB71FB79092B00D996
S3156000545000BEBB79032B00D900BEFB79092B7BD834
S31560005460BB79032B78D8FA7941F6BC23C0F20103E5
S315600054709B5CFB73FB7903F001033B6140F2000325
S31560005480C4F20203D3F8C8307B6140F20003C4F271
S3156000549002034FF00002C3F8C8203B69002B2AD0F4
S315600054A040F20002C4F20202F87B40F20001C4F24C
S315600054B0020197F80FC063464FEA430363444FEA1D
S315600054C003130B4403F50A731B79DBB203F03F0346
S315600054D0B9794FEA8111C9B243EA0103D9B20346E9
S315600054E04FEA430303444FEA0313134403F50A7375
S315600054F00A461A7129E040F20002C4F20202F87B01
S3156000550040F20001C4F2020197F80FC063464FEA09
