S00D000066696E616C2E737265630D
S315600000000000012099020000090300000B030000B4
S315600000100D0300000F030000110300000000000044
S315600000200000000000000000000000001303000054
S31560000030150300000000000017030000190300000C
S315600000401B030000316B00001F030000210300004A
S315600000502303000025030000270300002903000096
S315600000602B0300002D030000152D0000412D00001C
S315600000703303000035030000370300003903000036
S315600000803B0300003D0300003F0300004103000006
S3156000009043030000450300004703000049030000D6
S315600000A04B0300000000000000000000000000009C
S315600000B00000000000000000000000004D0300008A
S315600000C04F03000051030000530300005503000076
S315600000D057030000590300005B0300005D03000046
S315600000E05F03000061030000630300006503000016
S315600000F067030000690300006B0300006D030000E6
S315600001006F030000710300007303000075030000B5
S3156000011077030000790300007B0300007D03000085
S315600001207F03000081030000830300008503000055
S3156000013087030000890300008B0300008D03000025
S315600001408F030000910300009303000095030000F5
S3156000015097030000990300009B0300009D030000C5
S315600001609F030000A1030000A3030000A503000095
S31560000170A7030000A9030000AB030000AD03000065
S31560000180AF030000B1030000B3030000B503000035
S31560000190B7030000B9030000BB030000BD03000005
S315600001A0BF030000C1030000C3030000C5030000D5
S315600001B0C7030000C9030000CB030000CD030000A5
S315600001C0CF030000D1030000D3030000D503000075
S315600001D0D7030000D9030000DB030000DD03000045
S315600001E0DF030000E1030000E3030000E503000015
S315600001F0E7030000E9030000EB030000ED030000E5
S31560000200EF030000F1030000F3030000F5030000B4
S31560000210F7030000F9030000314200005942000074
S3156000022081420000A9420000D1420000F94200006C
S3156000023021430000494300007143000099430000D8
S31560000240C1430000E9430000114400003944000046
S315600002506144000089440000B1440000D9440000B4
S315600002600145000029450000514500007945000020
S31560000270A1450000C9450000F1450000194600008F
S31560000280414600006946000091460000B9460000FC
S31560000290E146000009470000684880476848002832
S315600002A00BD168486849694A884206D091421CBFAA
S315600002B050F8043B41F8043BF8D165486549664A05
S315600002C0884206D091421CBF50F8043B41F8043B7B
S315600002D0F8D162486249634A914218BF41F8040BFB
S315600002E0FAD10000000000000000000000000000DD
S315600002F0DFF874010FF2030E00474FF000004FF075
S315600003000001DFF868F1FEE7FEE7FEE7FEE7FEE7DD
S31560000310FEE7FEE7FEE7FEE7FEE7FEE7FEE7FEE74F
S31560000320FEE7FEE7FEE7FEE7FEE7FEE7FEE7FEE73F
S31560000330FEE7FEE7FEE7FEE7FEE7FEE7FEE7FEE72F
S31560000340FEE7FEE7FEE7FEE7FEE7FEE7FEE7FEE71F
S31560000350FEE7FEE7FEE7FEE7FEE7FEE7FEE7FEE70F
S31560000360FEE7FEE7FEE7FEE7FEE7FEE7FEE7FEE7FF
S31560000370FEE7FEE7FEE7FEE7FEE7FEE7FEE7FEE7EF
S31560000380FEE7FEE7FEE7FEE7FEE7FEE7FEE7FEE7DF
S31560000390FEE7FEE7FEE7FEE7FEE7FEE7FEE7FEE7CF
S315600003A0FEE7FEE7FEE7FEE7FEE7FEE7FEE7FEE7BF
S315600003B0FEE7FEE7FEE7FEE7FEE7FEE7FEE7FEE7AF
S315600003C0FEE7FEE7FEE7FEE7FEE7FEE7FEE7FEE79F
S315600003D0FEE7FEE7FEE7FEE7FEE7FEE7FEE7FEE78F
S315600003E0FEE7FEE7FEE7FEE7FEE7FEE7FEE7FEE77F
S315600003F0FEE7FEE7FEE7FEE7FEE7FEE7FEE7FEE76F
S31560000400FEE7FEE7FEE7FEE7FEE7FEE7FEE7FEE75E
S31560000410FEE7FEE7FEE7FEE7FEE7FEE7FEE7FEE74E
S31560000420FEE7FEE7FEE7FEE7FEE7FEE7FEE7FEE73E
S31560000430FEE7FEE7FEE7FEE7FEE700006D6E000002
S3156000044001000000700400607004000008000020D5
S315600004500C2C016008000020B005002000000000A0
S31560000460B005002088070020757B0000951D000000
S3156000047040F2B053C2F200031A780AB9012018702C
S31560000480704700BF40F20800C2F2000008B503687A
S315600004902BB140F20003C0F2000303B1984708BDD8
S315600004A080B588B000AFF860B9607A603B60FB6881
S315600004B0BA681A60FB681B6803F1080318464FF0B8
S315600004C0000101F0ADFEFB681B6803F10C031846E2
S315600004D04FF0000101F0A4FEFB681B6818467968BE
S315600004E001F06EFE3B68002B11D142F25C43C0F214
S315600004F0010307F1100C0FCBACE80700ACF8003035
S3156000050007F1100318464FF0AE0101F045FEFB6897
S315600005101B6803F104031846396801F051FEFB6855
S315600005201B6803F1100318464FF0000101F048FE06
S31560000530FB681B6803F1180318464FF0000101F0D1
S315600005403FFEFB681B6803F1200318464FF000016D
S3156000055001F036FEFB681B6803F1280318464FF06E
S31560000560000101F02DFEFB681B6803F1300318469D
S315600005704FF0000101F024FEFB681B6803F13803AD
S3156000058018464FF0000101F01BFEFB681B6803F183
S31560000590400318464FF0000101F012FEFB681B682D
S315600005A003F1480318464FF0000101F009FEFB68AD
S315600005B01B6803F1500318464FF0000101F000FE7E
S315600005C0FB681B6803F1580318464FF0000101F001
S315600005D0F7FDFB681B6803F1600318464FF00001E6
S315600005E001F0EEFDFB681B6803F1680318464FF0E7
S315600005F0000101F0E5FDFB681B6803F17003184616
S315600006004FF0000101F0DCFDFB681B6803F1780325
S3156000061018464FF0000101F0D3FDFB681B6803F13B
S31560000620800318464FF0000101F0CAFDFB681B68A5
S3156000063003F1880318464FF0000101F0C1FD07F190
S315600006402007BD4680BD00BF80B58AB000AF786028
S315600006500B46FB70FB78002B11D142F25C43C0F273
S31560000660010307F1180C0FCBACE80700ACF80030BB
S3156000067007F1180318464FF0D30101F08DFDFB78A2
S31560000680102B11D942F25C43C0F2010307F1080C4A
S315600006900FCBACE80700ACF8003007F1080318464A
S315600006A04FF0D40101F078FDFB78002B46D0FB7843
S315600006B0102B43D8FA7842F25833C0F201039B5CA0
S315600006C087F82730FB78082B1CD87B681B6803F1FA
S315600006D00803184601F0A6FD034687F8263097F80A
S315600006E0262097F8273042EA030387F826307B688E
S315600006F01B6803F1080297F826301046194601F088
S315600007008FFD1BE07B681B6803F10C03184601F044
S3156000071089FD034687F8263097F8262097F8273014
S3156000072042EA030387F826307B681B6803F10C02F4
S3156000073097F826301046194601F072FD07F1280732
S31560000740BD4680BD80B58AB000AF78600B46FB7051
S31560000750FB78002B11D142F25C43C0F2010307F132
S31560000760180C0FCBACE80700ACF8003007F11803A3
S31560000770184640F2011101F00FFDFB78102B11D9DC
S3156000078042F25C43C0F2010307F1080C0FCBACE800
S315600007900700ACF8003007F1080318464FF4817182
S315600007A001F0FAFCFB78002B4CD0FB78102B49D873
S315600007B0FA7842F25833C0F201039B5C87F827301F
S315600007C0FB78082B1FD87B681B6803F10803184663
S315600007D001F028FD034687F8263097F827306FEA40
S315600007E00303DAB297F8263002EA030387F8263065
S315600007F07B681B6803F1080297F826301046194695
S3156000080001F00EFD1EE07B681B6803F10C031846C1
S3156000081001F008FD034687F8263097F827306FEA1F
S315600008200303DAB297F8263002EA030387F8263024
S315600008307B681B6803F10C0297F826301046194650
S3156000084001F0EEFC07F12807BD4680BD80B586B095
S3156000085000AF78607B681B6803F1E40318464FF0CD
S31560000860010101F0C5FC7B681B6803F1E4031846CF
S3156000087001F0C0FC0346012B11D042F25C43C0F28A
S31560000880010307F1080C0FCBACE80700ACF80030A9
S3156000089007F1080318464FF4987101F07DFC07F1E3
S315600008A01807BD4680BD00BF80B586B000AF7860D2
S315600008B07B681B6803F1E40318464FF0000101F002
S315600008C097FC7B681B6803F1E403184601F092FC11
S315600008D00346002B11D042F25C43C0F2010307F1DC
S315600008E0080C0FCBACE80700ACF8003007F1080342
S315600008F018464FF4A17101F04FFC07F11807BD4689
S3156000090080BD00BF80B598B000AFF8600B467A60D6
S31560000910FB72FB7A002B11D142F25C43C0F20103F9
S3156000092007F1440C0FCBACE80700ACF8003007F1D8
S31560000930440318464FF4A97101F02EFCFB7A102B84
S3156000094011D942F25C43C0F2010307F1340C0FCBBC
S31560000950ACE80700ACF8003007F13403184640F203
S31560000960531101F019FCFB681B6803F10403184678
S3156000097001F028FC03467B657A687B6D9A4211D943
S3156000098042F25C43C0F2010307F1240C0FCBACE8E2
S315600009900700ACF8003007F1240318464FF4AD7138
S315600009A001F0FAFBFB7A002B57D0FB7A102B54D858
S315600009B07B68002B05D1FB7AF8681946FFF7C2FE03
S315600009C04BE0FB681A68F97A42F29033C0F2010391
S315600009D053F82130134418464FF0000101F0F0FB44
S315600009E0FB681A68F97A42F2D433C0F2010353F80D
S315600009F0213013441846796801F0E2FBFA7A42F234
S31560000A00D433C0F2010353F82230FB65FB681A68E1
S31560000A10FB6D1344184601F005FC034687F85B300E
S31560000A207B68DBB297F85B209A4211D042F25C4356
S31560000A30C0F2010307F1140C0FCBACE80700ACF869
S31560000A40003007F11403184640F27D1101F0A4FB53
S31560000A50FB7AF8681946FFF7F7FD07F16007BD46B0
S31560000A6080BD00BF80B5A2B000AFF8607A603B6021
S31560000A700B46FB72FB7A002B11D142F25C43C0F24B
S31560000A80010307F1640C0FCBACE80700ACF800304B
S31560000A9007F1640318464FF4C97101F07DFBFB7AD8
S31560000AA0102B11D942F25C43C0F2010307F1540CDA
S31560000AB00FCBACE80700ACF8003007F154031846DA
S31560000AC040F2931101F068FBFB681B6803F10403B5
S31560000AD0184601F077FB03467B677A687B6F9A421C
S31560000AE011D942F25C43C0F2010307F1440C0FCB0B
S31560000AF0ACE80700ACF8003007F14403184640F252
S31560000B009D1101F049FB3A687B6F9A4211D942F216
S31560000B105C43C0F2010307F1340C0FCBACE807006D
S31560000B20ACF8003007F1340318464FF4CF7101F08A
S31560000B3033FBFB7A002B74D0FB7A102B71D8FB68E1
S31560000B401A68F97A42F29033C0F2010353F8213001
S31560000B5013441846796801F033FBFA7A42F290330F
S31560000B60C0F2010353F82230FB67FB681A68FB6F1B
S31560000B701344184601F056FB034687F87B307B68C2
S31560000B80DBB297F87B209A4211D042F25C43C0F206
S31560000B90010307F1240C0FCBACE80700ACF800307A
S31560000BA007F12403184640F2B51101F0F5FAFB6827
S31560000BB01A68F97A42F2D433C0F2010353F821304D
S31560000BC013441846396801F0FBFAFA7A42F2D433D4
S31560000BD0C0F2010353F82230C7F88430FB681A6804
S31560000BE0D7F884301344184601F01CFB034687F897
S31560000BF083303B68DBB297F883209A4211D042F289
S31560000C005C43C0F2010307F1140C0FCBACE807009C
S31560000C10ACF8003007F1140318464FF4E57101F0A3
S31560000C20BBFA07F18807BD4680BD00BF80B590B0AE
S31560000C3000AF78600B46FB704FF000037B63FB7878
S31560000C40002B11D142F25C43C0F2010307F11C0C88
S31560000C500FCBACE80700ACF8003007F11C03184670
S31560000C604FF4F17101F098FAFB78102B11D942F22A
S31560000C705C43C0F2010307F10C0C0FCBACE8070034
S31560000C80ACF8003007F10C03184640F2E31101F0AE
S31560000C9083FAFB78002B70D0FB78102B6DD8FA782E
S31560000CA042F25833C0F201039B5C87F83F30FB7811
S31560000CB0082B12D87B681B6803F10803184601F0FD
S31560000CC0B1FA034687F83E3097F83E2097F83F30F2
S31560000CD002EA030387F83E3011E07B681B6803F184
S31560000CE00C03184601F09EFA034687F83E3097F8E3
S31560000CF03E2097F83F3002EA030387F83E3097F8C4
S31560000D003E30002B39D07B681A68F97842F290330E
S31560000D10C0F2010353F821301344184601F052FA29
S31560000D200346FB627B681A68F97842F2D433C0F2F4
S31560000D30010353F821301344184601F043FA034681
S31560000D403B637B681B6803F10403184601F03AFABB
S31560000D500346BB63FA6A3B6B9A4205D83A6BFB6AF9
S31560000D60C3EB02037B6308E03A6BFB6AC3EB0202E8
S31560000D70BB6B134403F101037B637B6B184607F17E
S31560000D804007BD4680BD00BF80B59EB000AFF8602D
S31560000D907A600A46FA72FB704FF00003BB664FF04A
S31560000DA00003FB66FB7A002B11D142F25C43C0F272
S31560000DB0010307F1540C0FCBACE80700ACF8003028
S31560000DC007F15403184640F25E2101F0E5F9FB7A1B
S31560000DD0102B11D942F25C43C0F2010307F1440CB7
S31560000DE00FCBACE80700ACF8003007F144031846B7
S31560000DF040F25F2101F0D0F9FB7A002B00F0DB8036
S31560000E00FB7A102B00F2D780FB681B6803F10403A2
S31560000E10184601F0D7F903467B667A687B6E9A427C
S31560000E2011D942F25C43C0F2010307F1340C0FCBD7
S31560000E30ACE80700ACF8003007F13403184640F21E
S31560000E40692101F0A9F97B68002B05D1FB7AF86866
S31560000E501946FFF777FCAEE0FB78012B09D0022B31
S31560000E602AD0002B32D14FF00003BB667B68FB664D
S31560000E702CE07A6E7B6882EA030303F00103DBB23F
S31560000E80002B0DD07A6E7B68C3EB020303F101037E
S31560000E904FEA5303BB66BA6E7B681344FB6615E084
S31560000EA07A6E7B68C3EB02034FEA5303BB66BA6E86
S31560000EB07B681344FB6609E07A6E7B68C3EB0203CA
S31560000EC003F10103BB664FF00003FB66FB681A681B
S31560000ED0F97A42F29033C0F2010353F82130134499
S31560000EE01846B96E01F06CF9FB681A68F97A42F235
S31560000EF0D433C0F2010353F8213013441846F96E17
S31560000F0001F05EF9FA7A42F29033C0F2010353F8C7
S31560000F1022307B67FB681A687B6F1344184601F0C2
S31560000F2081F9034687F87330BB6EDBB297F873209E
S31560000F309A4211D042F25C43C0F2010307F1240CDD
S31560000F400FCBACE80700ACF8003007F12403184675
S31560000F5040F2CB2101F020F9FA7A42F2D433C0F2A2
S31560000F60010353F822307B67FB681A687B6F134472
S31560000F70184601F057F9034687F87330FB6EDBB20B
S31560000F8097F873209A4211D042F25C43C0F2010393
S31560000F9007F1140C0FCBACE80700ACF8003007F192
S31560000FA01403184640F2CF2101F0F6F8FB7AF86890
S31560000FB01946FFF749FB07F17807BD4680BD00BFBC
S31560000FC080B590B000AF78600B46FB70FB78002B65
S31560000FD011D142F25C43C0F2010307F12C0C0FCB36
S31560000FE0ACE80700ACF8003007F12C03184640F275
S31560000FF0E52101F0D1F8FB78102B11D942F25C4360
S31560001000C0F2010307F11C0C0FCBACE80700ACF88B
S31560001010003007F11C03184640F2E62101F0BCF8E7
S31560001020FB78002B40D0FB78102B3DD8FA7842F243
S315600010306C33C0F2010333F81230BB877B681B68E0
S3156000104003F19003184601F0D5F803467B877A8F43
S31560001050BB8F42EA03037B877B681B6803F19002C0
S315600010607B8F1046194601F0C3F87B681B6803F155
S315600010709003184601F0BEF80346FB87FA8F7B8F14
S315600010809A4211D042F25C43C0F2010307F10C0CA4
S315600010900FCBACE80700ACF8003007F10C0318463C
S315600010A040F2FE2101F078F807F14007BD4680BDA9
S315600010B080B590B000AF78600B46FB70FB78002B74
S315600010C011D142F25C43C0F2010307F12C0C0FCB45
S315600010D0ACE80700ACF8003007F12C03184640F284
S315600010E0123101F059F8FB78102B11D942F25C43AA
S315600010F0C0F2010307F11C0C0FCBACE80700ACF89B
S31560001100003007F11C03184640F2133101F044F831
S31560001110FB78002B43D0FB78102B40D8FA7842F24C
S315600011206C33C0F2010333F81230BB877B681B68EF
S3156000113003F19003184601F05DF803467B87BB8F89
S315600011406FEA03039AB27B8F02EA03037B877B68AD
S315600011501B6803F190027B8F1046194601F048F830
S315600011607B681B6803F19003184601F043F8034659
S31560001170FB87FA8F7B8F9A4211D042F25C43C0F2B2
S31560001180010307F10C0C0FCBACE80700ACF800309C
S3156000119007F10C03184640F22B3100F0FDFF07F112
S315600011A04007BD4680BD00BF80B586B000AF7860A1
S315600011B00B46FB707B681B6803F19402FB78104654
S315600011C0194601F015F87B681B6803F1940318460D
S315600011D001F010F80346FB82FB8ADBB2FA789A428A
S315600011E011D042F25C43C0F2010307F1080C0FCB49
S315600011F0ACE80700ACF8003007F10803184640F287
S315600012004A3100F0C9FF7B681B6803F1A0031846EA
S315600012104FF0000100F0ECFF7B681B6803F19C0354
S3156000122018464FF0000100F0E3FF7B681B6803F18E
S31560001230980318464FF6FF7100F0DAFF07F11807BA
S31560001240BD4680BD80B590B000AF786013460A4653
S31560001250FA703B80FB78002B11D142F25C43C0F2FE
S31560001260010307F12C0C0FCBACE80700ACF800309B
S3156000127007F12C03184640F2693100F08DFFFB78C8
S31560001280102B11D942F25C43C0F2010307F11C0C2A
S315600012900FCBACE80700ACF8003007F11C0318462A
S315600012A040F26A3100F078FFFB78002B4CD0FB7877
S315600012B0102B49D8FA7842F26C33C0F2010333F846
S315600012C01230BB877B681B6803F1A003184600F0E9
S315600012D091FF03467B873B88002B05D07A8FBB8FB7
S315600012E042EA03037B8707E0BB8F6FEA03039AB288
S315600012F07B8F02EA03037B877B681B6803F1A0028E
S315600013007B8F1046194600F073FF7B681B6803F1FC
S31560001310A003184600F06EFF0346FB87FA8F7B8FAB
S315600013209A4211D042F25C43C0F2010307F10C0C01
S315600013300FCBACE80700ACF8003007F10C03184699
S315600013404FF4617100F028FF07F14007BD4680BD8C
S3156000135080B58AB000AF78600B46FB704FF0000333
S31560001360FB84FB78002B11D142F25C43C0F201038F
S3156000137007F1180C0FCBACE80700ACF8003007F1AA
S31560001380180318464FF4667100F006FFFB78102BC1
S3156000139011D942F25C43C0F2010307F1080C0FCB8E
S315600013A0ACE80700ACF8003007F10803184640F2D5
S315600013B0993100F0F1FEFB78002B11D0FB78102BF1
S315600013C00ED87B681A68F97842F21843C0F20103B6
S315600013D053F821301344184600F00CFF0346FB8493
S315600013E0FB8C184607F12807BD4680BD80B58AB0DC
S315600013F000AF78600B46FB70FB78002B11D142F290
S315600014005C43C0F2010307F1180C0FCBACE8070090
S31560001410ACF8003007F11803184640F2B33100F01B
S31560001420BBFEFB78102B11D942F25C43C0F201037C
S3156000143007F1080C0FCBACE80700ACF8003007F1F9
S31560001440080318464FF46D7100F0A6FEFB78002B7A
S3156000145013D0FB78102B10D8FA7842F26C33C0F2B6
S31560001460010333F81230FB847B681B6803F1980232
S31560001470FB8C1046194600F0BBFE07F12807BD46F7
S3156000148080BD00BF80B58CB000AF78600B46FB7046
S315600014904FF00003FB85FB78002B11D142F25C43D1
S315600014A0C0F2010307F11C0C0FCBACE80700ACF8E7
S315600014B0003007F11C03184640F2D33100F06CFE91
S315600014C0FB78102B11D942F25C43C0F2010307F19D
S315600014D00C0C0FCBACE80700ACF8003007F10C033E
S315600014E018464FF4757100F057FEFB78002B18D044
S315600014F0FB78102B15D8FA7842F26C33C0F20103F0
S3156000150033F81230BB857B681B6803F19803184675
S3156000151000F070FE0346FB85FA8DBB8D02EA03037D
S31560001520FB85FB8D184607F13007BD4680BD00BFC1
S3156000153080B584B000AF78607B681B6803F19C035C
S31560001540184600F057FE03467B817B681B6803F1F3
S315600015509803184600F04EFE03463B813A897B8924
S3156000156002EA03033B813B89002B03D14FF0000362
S315600015707B7334E04FF00103FB813B8903F0FF038B
S31560001580002B07D1FB8903F10803FB813B894FEAF6
S3156000159013233B813B8903F00F03002B07D1FB89A3
S315600015A003F10403FB813B894FEA13133B813B89BB
S315600015B003F00303002B07D1FB8903F10203FB81D0
S315600015C03B894FEA93033B813B8903F00103002B80
S315600015D003D1FB8903F10103FB81FB897B737B7B71
S315600015E0184607F11007BD4680BD00BF80B590B0B4
S315600015F000AF78600B46FB70FB78002B11D142F28E
S315600016005C43C0F2010307F12C0C0FCBACE807007A
S31560001610ACF8003007F12C0318464FF4826100F0F5
S31560001620BBFDFB78102B11D942F25C43C0F201037B
S3156000163007F11C0C0FCBACE80700ACF8003007F1E3
S315600016401C03184640F2114100F0A6FDFB78002B02
S3156000165040D0FB78102B3DD8FA7842F26C33C0F25A
S31560001660010333F81230BB877B681B6803F19C0368
S31560001670184600F0BFFD03467B877A8FBB8F42EA30
S3156000168003037B877B681B6803F19C027B8F104694
S31560001690194600F0ADFD7B681B6803F19C03184694
S315600016A000F0A8FD0346FB87FA8F7B8F9A4211D024
S315600016B042F25C43C0F2010307F10C0C0FCBACE8BD
S315600016C00700ACF8003007F10C03184640F22741DA
S315600016D000F062FD07F14007BD4680BD80B590B061
S315600016E000AF78600B46FB70FB78002B11D142F29D
S315600016F05C43C0F2010307F12C0C0FCBACE807008A
S31560001700ACF8003007F12C03184640F23B4100F07C
S3156000171043FDFB78102B11D942F25C43C0F2010302
S3156000172007F11C0C0FCBACE80700ACF8003007F1F2
S315600017301C03184640F23C4100F02EFDFB78002B5E
S3156000174043D0FB78102B40D8FA7842F26C33C0F263
S31560001750010333F81230BB877B681B6803F19C0377
S31560001760184600F047FD03467B87BB8F6FEA03038D
S315600017709AB27B8F02EA03037B877B681B6803F15F
S315600017809C027B8F1046194600F032FD7B681B6811
S3156000179003F19C03184600F02DFD0346FB87FA8F84
S315600017A07B8F9A4211D042F25C43C0F2010307F18B
S315600017B00C0C0FCBACE80700ACF8003007F10C035B
S315600017C0184640F2524100F0E7FC07F14007BD467B
S315600017D080BD00BF80B58AB000AF78600B46FB70F5
S315600017E0FB78002B11D142F25C43C0F2010307F192
S315600017F0180C0FCBACE80700ACF8003007F1180303
S31560001800184640F2664100F0C7FCFB78102B11D9F0
S3156000181042F25C43C0F2010307F1080C0FCBACE85F
S315600018200700ACF8003007F10803184640F267413C
S3156000183000F0B2FCFB78002B13D0FB78102B10D88D
S31560001840FA7842F26C33C0F2010333F81230FB844B
S315600018507B681B6803F19802FB8C1046194600F002
S31560001860C7FC07F12807BD4680BD00BF0000000029
S3156000187080B500AF4FF01F004FF0010101F0E8FCAA
S3156000188040F22463C2F200034FF001021A6040F294
S315600018902C63C2F200034FF000021A6080BD00BFE5
S315600018A080B500AF4FF01F004FF0000101F0D0FC93
S315600018B040F22463C2F200034FF000021A6080BD5A
S315600018C080B500AF40F21C60C2F2000040F2000139
S315600018D0C4F205014FF2E152C0F205024FF4807383
S315600018E0FEF7DEFD40F22060C2F2000040F2001119
S315600018F0C4F2050140F2E73240F2CF73FEF7D0FD45
S3156000190080BD00BF80B582B000AF78607B68002B79
S3156000191010D140F21C60C2F200004FF00101FEF7E8
S3156000192011FF40F21C60C2F200004FF00201FEF7A8
S3156000193009FF3BE07B68002B1ADD7B6840F21C6088
S31560001940C2F200004FF001011A46FEF7DBFF40F2DB
S315600019501C60C2F200004FF00101FEF775FE40F216
S315600019601C60C2F200004FF00201FEF7EBFE1DE0C4
S315600019707B68C3F100037B607B6840F21C60C2F247
S3156000198000004FF002011A46FEF7BCFF40F21C60F1
S31560001990C2F200004FF00201FEF756FE40F21C60F4
S315600019A0C2F200004FF00101FEF7CCFE07F1080716
S315600019B0BD4680BD80B582B000AF78607B68002B85
S315600019C010D140F21C60C2F200004FF00301FEF736
S315600019D0B9FE40F21C60C2F200004FF00401FEF74F
S315600019E0B1FE3BE07B68002B1ADD7B6840F21C6031
S315600019F0C2F200004FF003011A46FEF783FF40F281
S31560001A001C60C2F200004FF00301FEF71DFE40F2BB
S31560001A101C60C2F200004FF00401FEF793FE1DE069
S31560001A207B68C3F100037B607B6840F21C60C2F296
S31560001A3000004FF004011A46FEF764FF40F21C6096
S31560001A40C2F200004FF00401FEF7FEFD40F21C609A
S31560001A50C2F200004FF00301FEF774FE07F10807BB
S31560001A60BD4680BD80B582B000AF78607B68002BD4
S31560001A7010D140F21C60C2F200004FF00501FEF783
S31560001A8061FE40F21C60C2F200004FF00601FEF7F4
S31560001A9059FE3BE07B68002B1ADD7B6840F21C60D8
S31560001AA0C2F200004FF005011A46FEF72BFF40F226
S31560001AB01C60C2F200004FF00501FEF7C5FD40F262
S31560001AC01C60C2F200004FF00601FEF73BFE1DE00F
S31560001AD07B68C3F100037B607B6840F21C60C2F2E6
S31560001AE000004FF006011A46FEF70CFF40F21C603C
S31560001AF0C2F200004FF00601FEF7A6FD40F21C6040
S31560001B00C2F200004FF00501FEF71CFE07F1080760
S31560001B10BD4680BD80B582B000AF78607B68002B23
S31560001B2010D140F21C60C2F200004FF00701FEF7D0
S31560001B3009FE40F21C60C2F200004FF00801FEF799
S31560001B4001FE3BE07B68002B1ADD7B6840F21C607F
S31560001B50C2F200004FF007011A46FEF7D3FE40F2CC
S31560001B601C60C2F200004FF00701FEF76DFD40F207
S31560001B701C60C2F200004FF00801FEF7E3FD1DE0B5
S31560001B807B68C3F100037B607B6840F21C60C2F235
S31560001B9000004FF008011A46FEF7B4FE40F21C60E2
S31560001BA0C2F200004FF00801FEF74EFD40F21C60E5
S31560001BB0C2F200004FF00701FEF7C4FD07F1080707
S31560001BC0BD4680BD80B582B000AF78607B6803F1AA
S31560001BD02E037B607B6840F22060C2F200004FF00B
S31560001BE001011A46FEF78EFE07F10807BD4680BD65
S31560001BF080B500AF03F0E2FC42F26C40C0F2010037
S31560001C0004F0A2FA03461A4640F22863C2F20003C1
S31560001C101A7080BD80B483B000AF786003E07B68E3
S31560001C2003F1FF337B607B68002BF8DC07F10C0760
S31560001C30BD4680BC704700BF80B586B000AF40F23D
S31560001C402863C2F200031B78184604F0E1FA0346E3
S31560001C50FB80FB88184605F0CDFC02460B46104615
S31560001C60194629A3D3E9002305F064FE02460B4614
S31560001C70104619464FF000024FF0804303F5A0135B
S31560001C8005F02EFD02460B46C7E90223D7E902019D
S31560001C901FA3D3E9002305F023FD02460B46104639
S31560001CA0194605F02FFF03463B613B693B603A6985
S31560001CB04AF6AB23C2F6AA2383FB02134FEA6301FB
S31560001CC04FEAE273C3EB01037B613A694AF6AB23E1
S31560001CD0C2F6AA2383FB02134FEA63014FEAE2735B
S31560001CE0C3EB01010B464FEA43030B444FEA830300
S31560001CF0C3EB02033B613B69184607F11807BD4613
S31560001D0080BD00BFAFF300800000000000FEAF4062
S31560001D10000000000080594080B582B000AF786056
S31560001D207B68002B30D040F21063C2F200031A6861
S31560001D307B681A4440F21063C2F200031A6040F2F4
S31560001D401063C2F200031B68002B06DA40F21063D0
S31560001D50C2F200034FF000021A6040F21063C2F252
S31560001D6000031B68CC2B06DD40F21063C2F2000351
S31560001D704FF0CC021A6040F21063C2F200031B6897
S31560001D801846FFF71FFF00E000BF07F10807BD46D2
S31560001D9080BD00BF80B5E8B004AFFFF791FD01F0EC
S31560001DA003FAFFF725FF4FF01F004FF0050101F022
S31560001DB031FA40F21460C2F2000040F20021C4F22F
S31560001DC005014FF0A2024FF0010304F04BFA4FF009
S31560001DD00003C7F87C314FF00003C7F884314FF039
S31560001DE00003C7F8883140F22463C2F200034FF063
S31560001DF000021A6040F21063C2F200034FF0000264
S31560001E001A604FF01F004FF0000101F021FAD7F879
S31560001E107C2107F17C031344D7F87C21C2F58072DC
S31560001E2040F21460C2F20000194604F0D9FC034681
S31560001E30C7F88031D7F88031002BE8D0D7F87C21FD
S31560001E40D7F880311344C7F87C31D7F87C3103F179
S31560001E50FF3307F17C02D35C002B40F0528107F11F
S31560001E607C0107F1780207F1740307F170000090B6
S31560001E7007F16C00019007F16400029007F16800B9
S31560001E800390084642F28041C0F2010105F044FF2A
S31560001E900346062B07D007F17C0318464FF4807182
S31560001EA005F058FE2EE14FF00003C7F87C3107F1CC
S31560001EB068031B68002B0FD0D7F88431002B0BD139
S31560001EC0D7F88831002B14BF00230123C7F8883167
S31560001ED04FF00103C7F8843107F168031B68002BD4
S31560001EE007D1D7F88431002B03D04FF00003C7F831
S31560001EF0843107F178031B68184605F08BFB0246B0
S31560001F000B461046194680A3D3E9002305F0E8FB8B
S31560001F1002460B461046194605F0F4FD024607F1E7
S31560001F2078031A6007F174031B68184605F072FBA4
S31560001F3002460B461046194673A3D3E9002305F003
S31560001F40CFFB02460B461046194605F0DBFD0246FE
S31560001F5007F174031A6007F178031B68002B08DA2F
S31560001F6007F178031B68A3F1960207F178031A60FC
S31560001F700CE007F178031B68002B07DD07F1780397
S31560001F801B6803F1960207F178031A6007F1740380
S31560001F901B68002B08DA07F174031B68A3F196022D
S31560001FA007F174031A600CE007F174031B68002BD9
S31560001FB007DD07F174031B6803F1960207F17403EA
S31560001FC01A6007F17803196807F174031A6807F154
S31560001FD070031B6807F16C00D0F800E007F164003D
S31560001FE0D0F800C007F168000068CDF800E0CDF8D1
S31560001FF004C0029042F29440C0F2010005F0E2FD96
S3156000200007F174031B681846FFF77CFC07F1780339
S315600020101B681846FFF7CEFC07F174031B68184669
S31560002020FFF720FD07F178031B681846FFF772FD7E
S3156000203007F16C031B681846FFF76EFE07F1640331
S315600020401B68002B08D040F22463C2F200031B68B1
S31560002050002B01D1FFF70CFC40F22463C2F20003AF
S315600020601B68002B16D040F22C63C2F200031A687C
S3156000207048F2A063C0F201039A420BDC40F22C6383
S31560002080C2F200031B6803F1010240F22C63C2F244
S3156000209000031A6007F164031B68002B13D140F23A
S315600020A02463C2F200031B68002B0CD040F22C6341
S315600020B0C2F200031A6848F29F63C0F201039A42B3
S315600020C001DDFFF7EDFBFFF7B7FD03463A46104625
S315600020D042F2D441C0F20101D7F8882105F0A4FD8F
S315600020E0034603F10103C7F88C31D7F88C313A46C1
S315600020F040F21460C2F2000011461A4604F002FA79
S3156000210085E600BF83E600BFCDCCCCCCCCCCE43F2B
S3156000211080B400AF00BEBD4680BC704780B483B05B
S3156000212000AF7860396000BE07F10C07BD4680BC21
S31560002130704700BF80B483B000AF78600B46FB7019
S3156000214000BE07F10C07BD4680BC704780B483B003
S3156000215000AF786000BE07F10C07BD4680BC7047D3
S3156000216080B483B000AF786000BE07F10C07BD464F
S3156000217080BC704780B483B000AF786000BE07F162
S315600021800C07BD4680BC7047EFF3108072B670478F
S3156000219080F310887047000080B487B000AF786025
S315600021A039607B687B613B683B617B691B78DBB22E
S315600021B0FB733B69BB60BB6803F10103BB60F0E77F
S315600021C001607047006870470EB503FA01F303EAD1
S315600021D0020301686FEA020201EA020141EA0301B1
S315600021E001600EBD006800EA020020FA01F0704747
S315600021F001807047008870470EB503FA01F303EA61
S31560002200020301886FEA020201EA020141EA030160
S3156000221001800EBD008800EA020020FA01F07047D6
S3156000222001707047007870470EB503FA01F303EA50
S31560002230020301786FEA020201EA020141EA030140
S3156000224001700EBD007800EA020020FA01F07047C6
S3156000225080B483B000AF0346FB804EF20013CEF22B
S315600022600003B7F906204FEA5212F98801F01F0100
S315600022704FF0010000FA01F143F8221007F10C0754
S31560002280BD4680BC704700BF80B483B000AF0346D4
S31560002290FB804EF20013CEF20003B7F906204FEA38
S315600022A05212F98801F01F014FF0010000FA01F1A6
S315600022B002F1200243F8221007F10C07BD4680BCEC
S315600022C0704700BF80B483B000AF0346FB804EF218
S315600022D00013CEF20003B7F906204FEA5212F988CE
S315600022E001F01F014FF0010000FA01F102F16002F6
S315600022F043F8221007F10C07BD4680BC704700BF4B
S3156000230080B588B000AFF860B9601346FB714FF0D6
S315600023100103FB824FF00003BB61FA6840F2586329
S31560002320C2F200039A4207D0FA6840F23063C2F202
S3156000233000039A4200D000BEBB68002B00D100BEED
S3156000234004F09AFDFA6840F25863C2F200039A42BA
S315600023502ED1FB684FF080421A60FB684FF08442D2
S315600023605A60FB684FF00A021A8140F25803C2F2C3
S3156000237000031B68BB6142F20003CEF2040342F223
S315600023800002CEF20402126B42F080021A634FF032
S315600023900A00FFF797FF42F20003CEF2040342F20F
S315600023A00002CEF20402126B22F080021A6331E060
S315600023B0FA6840F20003C4F201031360FA6840F25F
S315600023C00003C4F220235360FB684FF00B021A81AE
S315600023D040F25C03C2F200031B68BB6142F2000379
S315600023E0CEF2040342F20002CEF20402126B42F411
S315600023F080721A634FF00B00FFF764FF42F200032E
S31560002400CEF2040342F20002CEF20402126B22F410
S3156000241080721A63FB681B684FF000021A71BB6812
S31560002420002B21D0BA69BB68B2FBF3F3FB61FB6991
S3156000243003F00803002B06D0FB694FEA131303F180
S315600024400103FB6103E0FB694FEA1313FB61FA6961
S315600024504FF6FF739A4200D900BEFA694FF6FF73D2
S315600024609A4201D8FB69FB82FB685B684FF0010208
S31560002470C3F89C21FB681B68FA8A4FEA122292B263
S31560002480D2B21A71FB681B68FA8AD2B21A70FB68FC
S315600024905B684FF00002C3F89C21FB681B68FA7901
S315600024A01A73FB681B684FF00E021A72FB685B6852
S315600024B04FF00002C3F81022FB684FF000021A6169
S315600024C0FB684FF00002DA60FB684FF000025A6169
S315600024D0FB684FF00002DA61FA6842F6F523C0F253
S315600024E000031362FB684FF000029A61FB684FF0CD
S315600024F000025A62FB684FF000029A7207F12007E9
S31560002500BD4680BD80B489B000AFF860B9607A60BE
S315600025104FF000033B61FA6840F25863C2F2000371
S315600025209A4207D0FA6840F23063C2F200039A42D8
S3156000253000D000BEBB68002B00D100BE7B68002BBC
S3156000254000D100BEFA6840F25863C2F200039A42B4
S3156000255006D0FA6840F23063C2F200039A423DD177
S31560002560BB68002B3AD07B68002B37D0FB681B68B2
S315600025701B7DFB76FB689A7AFB7E42EA0303DAB23E
S31560002580FB689A72FB7E03F02003002B23D04FF08A
S315600025901003FB617B680F2B01D87B68FB614FF0F2
S315600025A000037B610EE0FB681B68B9683A690A4400
S315600025B012781A703B6903F101033B617B6903F191
S315600025C001037B617A69FB699A42ECD37A687B691D
S315600025D0C3EB02037B607B68002BC7D107F124073E
S315600025E0BD4680BC704700BF80B487B000AF7860DE
S315600025F039604FF00003BB607A6840F25863C2F2FC
S3156000260000039A4207D07A6840F23063C2F2000350
S315600026109A4200D000BE3B68002B00D100BE7A68AB
S3156000262040F25863C2F200039A4206D07A6840F2DA
S315600026303063C2F200039A4238D13B68002B35D032
S315600026403A68BB6813441B783B612CE07B681B6867
S315600026501B7DFB757B689A7AFB7D42EA0303DAB2DF
S315600026607B689A72FB7D03F02003002BEED04FF05F
S315600026700003FB6011E07B681B683A69D2B21A708E
S31560002680FB6803F10103FB60BB6803F10103BB60F8
S315600026903A68BB6813441B783B613B69002B02D0E8
S315600026A0FB680F2BE7D93B69002BCFD107F11C07DD
S315600026B0BD4680BC704700BF80B584B000AFF8608F
S315600026C0B9607A60FA6840F25863C2F200039A42CF
S315600026D007D0FA6840F23063C2F200039A4200D033
S315600026E000BEBB68002B00D100BE7B68002B00D10A
S315600026F000BE7B68002B32D0BB68002B2FD0FA68F7
S3156000270040F25863C2F200039A4206D0FA6840F279
S315600027103063C2F200039A4221D1FB68BA68DA607C
S31560002720FB687A681A61FB684FF000025A61FB68C1
S315600027301B891BB21846FFF7C5FDFA6842F6F523FA
S31560002740C0F200031362FB685B684FF00102C3F8D6
S315600027508420FB681B891BB21846FFF779FD07F1D9
S315600027601007BD4680BD00BF80B485B000AF7860FD
S315600027704FF00003BB734FF00003FB737A6840F2BF
S315600027805863C2F200039A4207D07A6840F2306317
S31560002790C2F200039A4200D000BE7A6840F25863E3
S315600027A0C2F200039A4206D07A6840F23063C2F2FF
S315600027B000039A4217D17B681B681B7DFB737B689D
S315600027C09A7AFB7B42EA0303DAB27B689A727B6889
S315600027D01B69002B07D1FB7B03F04003002B02D063
S315600027E04FF00103BB73BB7B5BB2184607F114075E
S315600027F0BD4680BC704700BF80B487B000AFF8604C
S31560002800B9607A604FF000033B614FF00003FB75DF
S31560002810FA6840F25863C2F200039A4207D0FA6837
S3156000282040F23063C2F200039A4200D000BEBB6839
S31560002830002B00D100BE7B68002B00D100BEFA6879
S3156000284040F25863C2F200039A4206D0FA6840F238
S315600028503063C2F200039A4234D1BB68002B31D098
S315600028607B68002B2ED0FB681B681B7DFB75FB68A5
S315600028709A7AFB7D42EA0303DAB2FB689A7217E042
S31560002880BA683B691344FA6812681278D2B21A7051
S315600028903B6903F101033B61FB681B681B7DFB75AC
S315600028A0FB689A7AFB7D42EA0303DAB2FB689A72A6
S315600028B0FB7D03F00103DBB2002B03D03A697B6832
S315600028C09A42DDD33B69184607F11C07BD4680BCBA
S315600028D0704700BF80B582B000AF78600B46FB7072
S315600028E07A6840F25863C2F200039A4207D07A6867
S315600028F040F23063C2F200039A4200D000BE7A68AA
S3156000290040F25863C2F200039A4206D07A6840F2F7
S315600029103063C2F200039A4216D17B681B891BB2F0
S315600029201846FFF7CFFC7B681B687A6812681279D5
S31560002930D1B2FA7841EA0202D2B21A717B681B8977
S315600029401BB21846FFF784FC07F10807BD4680BD39
S3156000295080B582B000AF78600B46FB707A6840F253
S315600029605863C2F200039A4207D07A6840F2306335
S31560002970C2F200039A4200D000BE7A6840F2586301
S31560002980C2F200039A4206D07A6840F23063C2F21D
S3156000299000039A421CD17B681B687A6812681279B8
S315600029A0D1B2FA786FEA0202D2B201EA0202D2B278
S315600029B01A717B681B891BB21846FFF783FCFB788C
S315600029C00F2B05D17B681B891BB21846FFF75CFC91
S315600029D007F10807BD4680BD80B584B000AF78605A
S315600029E07A6840F25863C2F200039A4207D07A6866
S315600029F040F23063C2F200039A4200D000BE7A68A9
S31560002A0040F25863C2F200039A4206D07A6840F2F6
S31560002A103063C2F200039A4267D17B681B681B7AF7
S31560002A20DBB203F00F03FB73FB7B0C2B54D801A2C4
S31560002A3052F823F0692A0000D92A0000852A00008E
S31560002A40D92A0000A12A0000D92A0000BD2A000068
S31560002A50D92A0000D92A0000D92A0000D92A000004
S31560002A60D92A0000A12A00007B685B6A002B00D18E
S31560002A7000BE7B685B6A002B30D07B685B6A7868D7
S31560002A80984732E07B681B6A002B00D100BE7B68EA
S31560002A901B6A002B24D07B681B6A7868984724E001
S31560002AA07B68DB69002B00D100BE7B68DB69002B8D
S31560002AB018D07B68DB697868984716E07B689B6905
S31560002AC0002B00D100BE7B689B69002B0CD07B6815
S31560002AD09B697868984708E000BE06E000BF04E09E
S31560002AE000BF02E000BF00E000BF07F11007BD466F
S31560002AF080BD00BF80B487B000AF78607A6840F26E
S31560002B005863C2F200039A4207D07A6840F2306393
S31560002B10C2F200039A4200D000BE7B68DB68002BDD
S31560002B2000D100BE7B681B69002B00D100BE7A68AD
S31560002B3040F25863C2F200039A4206D07A6840F2C5
S31560002B403063C2F200039A4252D17B68DB68002B85
S31560002B504ED07B681B69002B4AD07B681B681B7D47
S31560002B60FB727B689A7AFB7A42EA0303DAB27B6885
S31560002B709A72FB7A03F02003002B29D04FF01003E2
S31560002B803B617B681A697B685B69C3EB02037B61A7
S31560002B907B690F2B01D87B693B614FF00003FB60BB
S31560002BA012E07B681B687A68D1687A6852690A4461
S31560002BB012781A707B685B6903F101027B685A615F
S31560002BC0FB6803F10103FB60FA683B699A42E8D34C
S31560002BD07B685A697B681B699A4209D17B684FF0AA
S31560002BE000021A617B685B684FF00002C3F88420BC
S31560002BF007F11C07BD4680BC704700BF80B584B036
S31560002C0000AFF860B9601346FB71FA6840F258632A
S31560002C10C2F200039A4207D0FA6840F23063C2F209
S31560002C2000039A4200D000BEBB68002B00D100BEF4
S31560002C30FB79C02B00D900BEFA6840F25863C2F235
S31560002C4000039A4206D0FA6840F23063C2F200038B
S31560002C509A4223D1BB68002B20D0FB79C02B1DD8AC
S31560002C60FB68BA68DA61FB681A68FB7903F0C0032F
S31560002C7043F00A03DBB21372FB681B891BB218466A
S31560002C80FFF720FBFB685B684FF00102C3F880200A
S31560002C90FB681B891BB21846FFF7DAFA07F11007C3
S31560002CA0BD4680BD80B483B000AF78600B46FB70D4
S31560002CB07A6840F25863C2F200039A4207D07A6893
S31560002CC040F23063C2F200039A4200D000BE7A68D6
S31560002CD040F25863C2F200039A4206D07A6840F224
S31560002CE03063C2F200039A420FD1FB78002B06D103
S31560002CF07B685B684FF00002C3F8102205E07B68D2
S31560002D005B684FF00102C3F8102207F10C07BD465D
S31560002D1080BC7047684620F007018D4689B500AFD4
S31560002D2040F25860C2F20000FFF756FE4FF00A000C
S31560002D30FFF7C8FABD46BDE889408546704700BFC3
S31560002D40684620F007018D4689B500AF40F23060D5
S31560002D50C2F20000FFF740FE4FF00B00FFF7B2FA39
S31560002D60BD46BDE889408546704700BF80B582B0E4
S31560002D7000AF786039607A6840F25863C2F2000347
S31560002D809A4207D07A6840F23063C2F200039A42F0
S31560002D9000D000BE3B68002B00D100BE7A6840F2CE
S31560002DA05863C2F200039A4206D07A6840F23063F2
S31560002DB0C2F200039A4217D13B68002B14D07B689D
S31560002DC03A689A617B681B891BB21846FFF77AFAE4
S31560002DD07B685B684FF00102C3F888207B681B89BB
S31560002DE01BB21846FFF734FA07F10807BD4680BDE7
S31560002DF080B582B000AF786039607A6840F2586317
S31560002E00C2F200039A4207D07A6840F23063C2F297
S31560002E1000039A4200D000BE3B68002B00D100BE82
S31560002E207A6840F25863C2F200039A4206D07A6822
S31560002E3040F23063C2F200039A421FD13B68002B16
S31560002E401CD07B683A681A627B684FF00002DA60D1
S31560002E507B684FF000021A617B681B891BB21846BB
S31560002E60FFF730FA7B685B684FF00102C3F8842095
S31560002E707B681B891BB21846FFF7EAF907F108075A
S31560002E80BD4680BD80B582B000AF786039607A6833
S31560002E9040F25863C2F200039A4207D07A6840F261
S31560002EA03063C2F200039A4200D000BE3B68002B3A
S31560002EB000D100BE7A6840F25863C2F200039A42BB
S31560002EC006D07A6840F23063C2F200039A4217D1A4
S31560002ED03B68002B14D07B683A685A627B681B8912
S31560002EE01BB21846FFF7EEF97B685B684FF001028C
S31560002EF0C3F88C207B681B891BB21846FFF7A8F9BC
S31560002F0007F10807BD4680BD80B489B000AFF860A0
S31560002F10B9607A604FF00003FB754FF00003BB6148
S31560002F20FA6840F25863C2F200039A4207D0FA6820
S31560002F3040F23063C2F200039A4200D000BEBB6822
S31560002F40002B00D100BE7B68002B00D100BEFA6862
S31560002F5040F25863C2F200039A4206D0FA6840F221
S31560002F603063C2F200039A4231D1BB68002B2ED087
S31560002F707B68002B2BD0FB681B681B7DFB75FB6891
S31560002F809A7AFB7D42EA0303DAB2FB689A72FB7DAA
S31560002F9003F02003002B1AD04FF01003FB617B680F
S31560002FA00F2B01D87B68FB614FF00003BB610AE021
S31560002FB0FB681B68B968BA690A4412781A70BB69FB
S31560002FC003F10103BB61BA69FB699A42F0D3BB693D
S31560002FD0184607F12407BD4680BC704780B485B0AB
S31560002FE000AF78604FF0FF33FB737A6840F2586346
S31560002FF0C2F200039A4207D07A6840F23063C2F2A6
S3156000300000039A4200D000BE7A6840F25863C2F26A
S3156000301000039A4206D07A6840F23063C2F2000337
S315600030209A4213D17B689A7A7B681B681B7DDBB2F8
S3156000303042EA0303DAB27B689A727B689B7A23F072
S315600030406103FB737B684FF000029A72FB7B184644
S3156000305007F11407BD4680BC704700BF80B485B0D9
S3156000306000AF78604FF0FF33FB737A6840F25863C5
S31560003070C2F200039A4207D07A6840F23063C2F225
S3156000308000039A4200D000BE7A6840F25863C2F2EA
S3156000309000039A4206D07A6840F23063C2F20003B7
S315600030A09A4203D17B681B681B7EFB73FB7B1846C9
S315600030B007F11407BD4680BC704700BF80B485B079
S315600030C000AF78604FF00003FB737A6840F2586394
S315600030D0C2F200039A4207D07A6840F23063C2F2C5
S315600030E000039A4200D000BE7A6840F25863C2F28A
S315600030F000039A4206D07A6840F23063C2F2000357
S315600031009A420FD17B681B681B7DFB737B689A7A3A
S31560003110FB7B42EA0303DAB27B689A72FB7B03F0BD
S315600031206003FB73FB7B184607F11407BD4680BC42
S31560003130704700BF80B483B000AF0346FB804EF299
S315600031400013CEF20003B7F906204FEA5212F9884F
S3156000315001F01F014FF0010000FA01F143F822105F
S3156000316007F10C07BD4680BC704700BF80B483B0D2
S3156000317000AF0346FB804EF20013CEF20003B7F9B0
S3156000318006204FEA5212F98801F01F014FF0010044
S3156000319000FA01F102F1600243F8221007F10C0710
S315600031A0BD4680BC704700BF80B582B000AF42F2BA
S315600031B00003CEF2040342F20002CEF20402126B66
S315600031C042F480421A634FF000037B600EE07A6837
S315600031D042F2C853C0F2010333F812301BB21846EC
S315600031E0FFF7C4FF7B6803F101037B607B681F2BDD
S315600031F0EDD942F20003CEF2040342F20002CEF2AF
S315600032000402126B22F480421A6307F10807BD4676
S3156000321080BD00BF80B485B000AF03463960FB71E6
S31560003220FB79FB60FB681F2B00D900BEFB681F2B78
S3156000323008D8FA6842F24853C0F2010353F82230C4
S315600032403A681A6007F11407BD4680BC704700BF34
S3156000325080B485B000AF02460B46FA71BB71FB794C
S31560003260FB60FB681F2B00D900BEFB681F2B09D8CB
S3156000327040F20003C4F22623FA68B97902F588623F
S3156000328043F8221007F11407BD4680BC704700BFA3
S3156000329080B487B000AF02460B46FA71BB71FB790A
S315600032A07B617B691F2B00D900BE7B691F2B7DD894
S315600032B0BB79012B04D0022B60D0002B2ED074E09A
S315600032C043F20003C4F20103D3F88830FB607B69E4
S315600032D04FF0010202FA03F3FA6842EA0303FB6065
S315600032E043F20003C4F20103FA68C3F888207A69DE
S315600032F042F24853C0F2010353F822301B683B6127
S315600033003B6943F004033B617A6942F24853C0F279
S31560003310010353F822303A691A6047E043F200032A
S31560003320C4F20103D3F88830FB607B694FF0010279
S3156000333002FA03F36FEA0303FA6802EA0303FB6027
S3156000334043F20003C4F20103FA68C3F888207A697D
S3156000335042F24853C0F2010353F822301B683B61C6
S315600033603B6943F004033B617A6942F24853C0F219
S31560003370010353F822303A691A6017E07A6942F21B
S315600033804853C0F2010353F822301B683B613B6926
S3156000339023F004033B617A6942F24853C0F20103A9
S315600033A053F822303A691A6000E000BE07F11C0744
S315600033B0BD4680BC704700BF80B584B000AF034691
S315600033C0FB71FB79FB60FB681F2B00D900BEFB68B5
S315600033D01F2B1ED8FA6842F24853C0F2010353F815
S315600033E022301B68BB60FA6842F24853C0F20103A0
S315600033F053F82230BA6842F008021A60FA6842F25C
S31560003400C853C0F2010333F812301BB21846FFF7F7
S3156000341091FE07F11007BD4680BD00BF80B485B040
S3156000342000AF0346FB71FB79FB60FB681F2B00D97D
S3156000343000BEFB681F2B13D8FA6842F24853C0F2ED
S31560003440010353F822301B68BB60FA6842F24853A6
S31560003450C0F2010353F82230BA6822F008021A60FB
S3156000346007F11407BD4680BC704700BF80B584B0C5
S3156000347000AF0346FB71FB79FB60FB681F2B00D92D
S3156000348000BEFB681F2B15D843F20003C4F201038C
S31560003490FA684FF0010101FA02F2C3F88020FA6877
S315600034A042F2C853C0F2010333F812301BB2184619
S315600034B0FFF75CFE07F11007BD4680BD80B485B09E
S315600034C000AF0346FB714FF00003FB73FB79002BE3
S315600034D000D000BEFB79002B07D1FA7940F2C053C9
S315600034E0C2F200039B5CFB7302E04FF00003FB73C8
S315600034F0FB7B184607F11407BD4680BC704700BFCA
S3156000350080B485B000AF02460B46FA71BB80FA798B
S3156000351040F21803C2F200034FEA021213441B7909
S31560003520BB73BB7B4FEA1313FB73FB7B40F210024A
S31560003530C2F200024FEA830313445B88BA8802FB37
S3156000354003F2F97B40F21003C2F2000333F8213034
S31560003550B2FBF3F3BB60BB68184607F11407BD46C0
S3156000356080BC704780B487B000AF40F20003C4F2FD
S315600035700203D3F8C830FB6040F20003C4F20203D2
S315600035804FF00002C3F8C8204FF00003FB7139E02A
S31560003590FB794FEA53037B7440F20002C4F20202E5
S315600035A0797C0B464FEA43030B444FEA03131344FB
S315600035B003F508731B79BB74FB7903F00103FB7495
S315600035C0FB7C002B0DD0F979BB7C4FEA5313DBB241
S315600035D01A4602F0030240F2B453C2F200035A5490
S315600035E00CE0F979BB7C4FEA5303DBB21A4602F072
S315600035F0030240F2B453C2F200035A54FB7903F15A
S315600036000103FB71FB79092BC2D94FF00003BB6044
S3156000361073E0BA6840F21803C2F200034FEA02127E
S3156000362013441B79BB75BA7D42F23863C0F201035D
S315600036309B5C3B75BA7D42F20863C0F201039B5CFA
S31560003640012B07D0022B27D0002B47D14FF0000368
S31560003650FB7547E03B7DFF2B00D100BE40F20002C8
S31560003660C4F20202397D0B464FEA43030B444FEA2C
S315600036700313134403F508731B7A7B757B7D03F094
S315600036800103DBB2002B03D04FF00003FB7529E08A
S315600036904FF00103FB7525E03B7DFF2B00D100BE9B
S315600036A040F20002C4F20202397D0B464FEA430340
S315600036B00B444FEA0313134403F50A731B797B75B6
S315600036C07B7D03F00103DBB2002B03D04FF00003D8
S315600036D0FB7507E04FF00203FB7503E000BE4FF099
S315600036E00003FB75BA6840F2C053C2F20003F97D6D
S315600036F09954BB6803F10103BB60BB68002B88DD8E
S3156000370040F20003C4F20203FA68C3F8C82007F166
S315600037101C07BD4680BC704780B48DB000AF0246C2
S315600037200B46FA71BB80FA7940F21803C2F20003C5
S315600037304FEA021213441B79BB74BB7C4FEA131326
S31560003740FB74BA7C42F26863C0F201039B5CFF2B98
S315600037501CD1FB7C40F21002C2F200024FEA8303E6
S3156000376013445B88BA8802FB03F240F20113C0F28D
S315600037701003A3FB0213C3EB02024FEA5202134487
S315600037804FEAD3237B617B69FB603DE0BA7C42F202
S315600037909863C0F201039B5CFB76FA7E40F2B453F9
S315600037A0C2F200039B5CBB76BB88BB6240F6FF73CC
S315600037B0FB62BA7E42F2C863C0F201039B5C3B6265
S315600037C0BA7E42F2CC63C0F2010333F812301BB208
S315600037D0FB61FB7C40F21002C2F200024FEA8303F7
S315600037E013445B887B62FA6ABB6AC3EB02037A6A3C
S315600037F0396A01FB02F202FB03F2FB6A92FBF3F306
S31560003800FA69C3EB0203FB60FB68184607F13407ED
S31560003810BD4680BC704700BF80B586B000AF02462B
S315600038200B46FA71BB804FF00003BB60FB79002B3F
S3156000383000D000BEFB79002B42D1FA7940F2180322
S31560003840C2F200034FEA021213441B79BB73BB7BBF
S315600038502F2B00D900BEBA7B42F20863C0F2010387
S315600038609B5C012B2CD1BB7B03F004034FEA9303D3
S31560003870DAB2BB7B03F030034FEAD303DBB2134407
S31560003880FB73FB7B032B1BD8FA7B42F2DC43C0F253
S31560003890010333F812303B61FA79BB88104619464A
S315600038A0FFF73AFF03467B617A6913464FEA830363
S315600038B013444FEA83031A463B69B2FBF3F3BB60DA
S315600038C0BB68184607F11807BD4680BD80B586B04F
S315600038D000AF02460B46FA71BB804FF00003BB6037
S315600038E0FB79002B00D000BEFB79002B3FD1FA7923
S315600038F040F21803C2F200034FEA021213441B7926
S31560003900BB73BB7B2F2B00D900BEBA7B42F2086328
S31560003910C0F201039B5C012B29D1BB7B03F004033E
S315600039204FEA9303DAB2BB7B03F030034FEAD3036B
S31560003930DBB21344FB73FB7B032B18D8FA7B42F292
S31560003940DC43C0F2010333F812303B61FA79BB887D
S3156000395010461946FFF7E0FE03467B617B6944F635
S31560003960206202FB03F23B69B2FBF3F3BB60BB6808
S31560003970184607F11807BD4680BD00BF80B584B004
S3156000398000AF02460B46FA71BB80FA79BB881046D7
S315600039901946FFF7C1FE0346FB60FA6813464FEA15
S315600039A0830313444FEA43031A4648F21F53C5F292
S315600039B0EB13A3FB02134FEAD303BB60BB68184645
S315600039C007F11007BD4680BD80B584B000AF0246E2
S315600039D00B46FA71BB80FA79BB8810461946FFF729
S315600039E09BFE0346FB60FB684FEA8303A3F52A63ED
S315600039F0A3F10B03BB60BB68184607F11007BD4611
S31560003A0080BD00BF80B584B000AF02460B46FA7138
S31560003A10BB80FA79BB8810461946FFF7AFFF0346AD
S31560003A20FB60FA6813464FEAC3031A4446F26763BB
S31560003A30C6F2666383FB02134FEA63014FEAE273E1
S31560003A40C3EB0103A3F5E473A3F10303FB60FB6817
S31560003A50184607F11007BD4680BD00BF80B485B02B
S31560003A6000AF0346FB714FF00003FB60FB79002B50
S31560003A7009D1FA7940F21803C2F200034FEA021242
S31560003A8013441B68FB60FB68184607F11407BD46C4
S31560003A9080BC704780B487B000AF03463960FB7165
S31560003AA0FA7940F21803C2F200034FEA0212134495
S31560003AB01B79BB73BB7B4FEA1313FB73FB7B40F233
S31560003AC01002C2F200024FEA830313445B881A466F
S31560003AD03B689A420AD2FA7B40F21003C2F20003B4
S31560003AE033F8223003F1FF33BB811BE0FB7B40F2EE
S31560003AF01002C2F200024FEA830313445B883B6103
S31560003B00FA7B40F21003C2F2000333F822307B6185
S31560003B107B6903F1FF333A6802FB03F23B69B2FB50
S31560003B20F3F3BB81BB89184607F11C07BD4680BC11
S31560003B30704700BF80B485B000AF03463960FB7143
S31560003B40FA7940F21803C2F200034FEA02121344F4
S31560003B501B79BB73BB7B4FEA1313FB73FB7B40F292
S31560003B601002C2F200024FEA830313445B881A46CE
S31560003B703B689A4203D240F6FF73BB8111E03A6814
S31560003B8013464FEA0333C2EB0301FB7B40F210029C
S31560003B90C2F200024FEA830313445B88B1FBF3F37E
S31560003BA0BB81BB89184607F11407BD4680BC7047C8
S31560003BB080B48BB000AF03463960FB71FA7940F28E
S31560003BC01803C2F200034FEA021213441B79BB7258
S31560003BD0BB7A4FEA1313FB72BA7A42F26863C0F299
S31560003BE001039B5CFF2B1BD13B68002B02DD3B680E
S31560003BF0FB6002E04FF00003FB60FA6813464FEA91
S31560003C000333C2EB0301FB7A40F21002C2F20002F8
S31560003C104FEA830313445B88B1FBF3F33B813FE0D8
S31560003C20BA7A42F29863C0F201039B5CBB74BA7CB9
S31560003C3040F2B453C2F200039B5CFB7440F6FF7320
S31560003C407B62FA7C42F2C863C0F201039B5CFB6153
S31560003C50FA7C42F2CC63C0F2010333F812301BB235
S31560003C607B61FB7A40F21002C2F200024FEA8303E4
S31560003C7013445B883B627A693B68C3EB0203BB61B2
S31560003C807B6A9AB2BB69796A01FB03F1FB69B1FB96
S31560003C90F3F13B6AB1FBF3F39BB2C3EB02033B81E7
S31560003CA03A8940F6FF739A4202D940F6FF733B8128
S31560003CB03B89184607F12C07BD4680BC704700BF9C
S31560003CC080B586B000AF03463960FB714FF00003E4
S31560003CD07B814FF001033B61FB79002B00D000BE76
S31560003CE0FA7940F21803C2F200034FEA0212134453
S31560003CF01B79BB75BB7D2F2B00D900BEBA7D42F206
S31560003D000863C0F201039B5C012B34D1BB7D03F0D9
S31560003D1004034FEA9303DAB2BB7D03F030034FEA44
S31560003D20D303DBB21344FB75FB7D032B23D8FA7DEB
S31560003D3042F2DC43C0F2010333F812303B613B6868
S31560003D403A6902FB03F24CF6CD43CCF6CC43A3FBB7
S31560003D5002134FEA1313FB60FB791846F968FFF705
S31560003D60E9FE03467B817A8940F6FF739A4202D95F
S31560003D7040F6FF737B817B89184607F11807BD46BD
S31560003D8080BD00BF80B586B000AF03463960FB7169
S31560003D904FF000037B814FF001033B61FB79002B01
S31560003DA000D000BEFA7940F21803C2F200034FEA6F
S31560003DB0021213441B79BB75BB7D2F2B00D900BE45
S31560003DC0BA7D42F20863C0F201039B5C012B34D1D9
S31560003DD0BB7D03F004034FEA9303DAB2BB7D03F0C5
S31560003DE030034FEAD303DBB21344FB75FB7D032B31
S31560003DF023D8FA7D42F2DC43C0F2010333F8123075
S31560003E003B613B683A6902FB03F241F25973CDF2BA
S31560003E10B713A3FB02134FEA9333FB60FB79184693
S31560003E20F968FFF787FE03467B817A8940F6FF7360
S31560003E309A4202D940F6FF737B817B89184607F167
S31560003E401807BD4680BD00BF80B584B000AF03468D
S31560003E503960FB713A6813464FEA830313444FEAAD
S31560003E6083021A444CF6CD43CCF6CC43A3FB021333
S31560003E704FEAD303FB60FB791846F968FFF75AFEF1
S31560003E8003467B817A8940F6FF739A4202D940F6EF
S31560003E90FF737B817B89184607F11007BD4680BD9D
S31560003EA080B584B000AF03463960FB713B6803F5AB
S31560003EB02A6303F10B033B603B684FEA9303FB60A5
S31560003EC0FB791846F968FFF735FE03467B817A89E8
S31560003ED040F6FF739A4202D940F6FF737B817B8975
S31560003EE0184607F11007BD4680BD00BF80B584B097
S31560003EF000AF03463960FB713B6803F5E47303F179
S31560003F0003033B603B68FB60FA6813464FEA830332
S31560003F101A4448F63963C3F6E303A3FB02134FEA78
S31560003F205303FB60FB791846F968FFF78DFF03467C
S31560003F307B817A8940F6FF739A4202D940F6FF7315
S31560003F407B817B89184607F11007BD4680BD00BF9F
S31560003F5080B485B000AF786039607B684FEA132320
S31560003F60FB813B68002B05D07B684FEA1363DAB2AE
S31560003F703B681A70FB89184607F11407BD4680BC7A
S31560003F80704700BF80B483B000AF0346FB804EF23B
S31560003F900013CEF20003B7F906204FEA5212F988F1
S31560003FA001F01F014FF0010000FA01F102F1600219
S31560003FB043F8221007F10C07BD4680BC704700BF6E
S31560003FC080B400AFBD4680BC704700BF80B485B08A
S31560003FD000AF0346FB714FF00003FB60FB681846B9
S31560003FE007F11407BD4680BC704700BF80B485B03A
S31560003FF000AF0346FB714FF00003FB60FB68184699
S3156000400007F11407BD4680BC704700BF80B483B01B
S3156000401000AF02460B46FA71BB8007F10C07BD463E
S3156000402080BC704780B483B000AF02460B46FA711D
S31560004030BB8007F10C07BD4680BC704780B483B077
S3156000404000AF02460B46FA71BB8007F10C07BD460E
S3156000405080BC704780B483B000AF02460B46FA71ED
S31560004060BB8007F10C07BD4680BC704780B483B047
S3156000407000AF02460B46FA71BB8007F10C07BD46DE
S3156000408080BC704780B485B000AF78604FF00003A5
S31560004090FB73FB7B184607F11407BD4680BC70476F
S315600040A080B485B000AF0346FB714FF0FF33FB6011
S315600040B0FB68184607F11407BD4680BC704700BF11
S315600040C080B485B000AF0346FB714FF00003FB6020
S315600040D0FB68184607F11407BD4680BC704700BFF1
S315600040E080B485B000AF0346FB714FF00103FB73EC
S315600040F0FB7B184607F11407BD4680BC704700BFBE
S3156000410080B485B000AF0346FB714FF00003FB60DF
S31560004110FB68184607F11407BD4680BC704700BFB0
S3156000412080B485B000AF03463960FB714FF0000381
S31560004130FB73FB7B184607F11407BD4680BC7047CE
S3156000414080B485B000AF03463960FB714FF0000361
S31560004150FB73FB7B184607F11407BD4680BC7047AE
S3156000416080B483B000AF0346FB7107F10C07BD4610
S3156000417080BC704780B483B000AF0346FB7107F123
S315600041800C07BD4680BC704780B483B000AF034661
S31560004190FB7107F10C07BD4680BC704780B483B0E5
S315600041A000AF0346FB7107F10C07BD4680BC704744
S315600041B080B483B000AF0346FB7107F10C07BD46C0
S315600041C080BC704780B483B000AF0346FB7107F1D3
S315600041D00C07BD4680BC704780B483B000AF034611
S315600041E03960FB7107F10C07BD4680BC704700BFA4
S315600041F080B483B000AF03463960FB7107F10C07EA
S31560004200BD4680BC704700BF80B483B000AF7860A5
S3156000421007F10C07BD4680BC704700BF80B483B011
S3156000422000AF0346FB7107F10C07BD4680BC7047C3
S31560004230684620F007018D4689B500AF4FF0000053
S31560004240FFF7ECFF4FF07600FFF79CFEBD46BDE83A
S3156000425089408546704700BF684620F007018D4655
S3156000426089B500AF4FF00100FFF7D8FF4FF0770038
S31560004270FFF788FEBD46BDE889408546704700BFAA
S31560004280684620F007018D4689B500AF4FF0020001
S31560004290FFF7C4FF4FF07800FFF774FEBD46BDE838
S315600042A089408546704700BF684620F007018D4605
S315600042B089B500AF4FF00300FFF7B0FF4FF079000C
S315600042C0FFF760FEBD46BDE889408546704700BF82
S315600042D0684620F007018D4689B500AF4FF00400AF
S315600042E0FFF79CFF4FF07A00FFF74CFEBD46BDE836
S315600042F089408546704700BF684620F007018D46B5
S3156000430089B500AF4FF00500FFF788FF4FF07B00DF
S31560004310FFF738FEBD46BDE889408546704700BF59
S31560004320684620F007018D4689B500AF4FF006005C
S31560004330FFF774FF4FF07C00FFF724FEBD46BDE833
S3156000434089408546704700BF684620F007018D4664
S3156000435089B500AF4FF00700FFF760FF4FF07D00B3
S31560004360FFF710FEBD46BDE889408546704700BF31
S31560004370684620F007018D4689B500AF4FF008000A
S31560004380FFF74CFF4FF07E00FFF7FCFDBD46BDE832
S3156000439089408546704700BF684620F007018D4614
S315600043A089B500AF4FF00900FFF738FF4FF07F0087
S315600043B0FFF7E8FDBD46BDE889408546704700BF0A
S315600043C0684620F007018D4689B500AF4FF00A00B8
S315600043D0FFF724FF4FF08000FFF7D4FDBD46BDE830
S315600043E089408546704700BF684620F007018D46C4
S315600043F089B500AF4FF00B00FFF710FF4FF081005B
S31560004400FFF7C0FDBD46BDE889408546704700BFE1
S31560004410684620F007018D4689B500AF4FF00C0065
S31560004420FFF7FCFE4FF08200FFF7ACFDBD46BDE82E
S3156000443089408546704700BF684620F007018D4673
S3156000444089B500AF4FF00D00FFF7E8FE4FF083002F
S31560004450FFF798FDBD46BDE889408546704700BFB9
S31560004460684620F007018D4689B500AF4FF00E0013
S31560004470FFF7D4FE4FF08400FFF784FDBD46BDE82C
S3156000448089408546704700BF684620F007018D4623
S3156000449089B500AF4FF00F00FFF7C0FE4FF0850003
S315600044A0FFF770FDBD46BDE889408546704700BF91
S315600044B0684620F007018D4689B500AF4FF01000C1
S315600044C0FFF7ACFE4FF08600FFF75CFDBD46BDE82A
S315600044D089408546704700BF684620F007018D46D3
S315600044E089B500AF4FF01100FFF798FE4FF08700D7
S315600044F0FFF748FDBD46BDE889408546704700BF69
S31560004500684620F007018D4689B500AF4FF012006E
S31560004510FFF784FE4FF08800FFF734FDBD46BDE827
S3156000452089408546704700BF684620F007018D4682
S3156000453089B500AF4FF01300FFF770FE4FF08900AA
S31560004540FFF720FDBD46BDE889408546704700BF40
S31560004550684620F007018D4689B500AF4FF014001C
S31560004560FFF75CFE4FF08A00FFF70CFDBD46BDE825
S3156000457089408546704700BF684620F007018D4632
S3156000458089B500AF4FF01500FFF748FE4FF08B007E
S31560004590FFF7F8FCBD46BDE889408546704700BF19
S315600045A0684620F007018D4689B500AF4FF01600CA
S315600045B0FFF734FE4FF08C00FFF7E4FCBD46BDE824
S315600045C089408546704700BF684620F007018D46E2
S315600045D089B500AF4FF01700FFF720FE4FF08D0052
S315600045E0FFF7D0FCBD46BDE889408546704700BFF1
S315600045F0684620F007018D4689B500AF4FF0180078
S31560004600FFF70CFE4FF08E00FFF7BCFCBD46BDE821
S3156000461089408546704700BF684620F007018D4691
S3156000462089B500AF4FF01900FFF7F8FD4FF08F0026
S31560004630FFF7A8FCBD46BDE889408546704700BFC8
S31560004640684620F007018D4689B500AF4FF01A0025
S31560004650FFF7E4FD4FF09000FFF794FCBD46BDE820
S3156000466089408546704700BF684620F007018D4641
S3156000467089B500AF4FF01B00FFF7D0FD4FF09100FA
S31560004680FFF780FCBD46BDE889408546704700BFA0
S31560004690684620F007018D4689B500AF4FF01C00D3
S315600046A0FFF7BCFD4FF09200FFF76CFCBD46BDE81E
S315600046B089408546704700BF684620F007018D46F1
S315600046C089B500AF4FF01D00FFF7A8FD4FF09300CE
S315600046D0FFF758FCBD46BDE889408546704700BF78
S315600046E0684620F007018D4689B500AF4FF01E0081
S315600046F0FFF794FD4FF09400FFF744FCBD46BDE81C
S3156000470089408546704700BF684620F007018D46A0
S3156000471089B500AF4FF01F00FFF780FD4FF09500A1
S31560004720FFF730FCBD46BDE889408546704700BF4F
S3156000473080B584B000AF78604FF6FF737B814FF031
S3156000474000033B812DE0398940F22802C2F2000263
S315600047500B464FEA83030B444FEA830313441B68FB
S31560004760002B1AD0398940F22802C2F200020B46A9
S315600047704FEA83030B444FEA830313441B6878684C
S3156000478019464FF0090203F025FB0346FB60FB6800
S31560004790002B02D13B897B8106E03B8903F1010353
S315600047A03B813B89012BCED97B89184607F11007DF
S315600047B0BD4680BD80B485B000AF0346FB80FB88F4
S315600047C0012B00D900BEFB88012B00F28580F98899
S315600047D040F22802C2F200020B464FEA83030B4402
S315600047E04FEA8303134403F110031B78022B00D9AD
S315600047F000BEF98840F22802C2F200020B464FEA78
S3156000480083030B444FEA8303134403F110031B78BD
S31560004810022B61D8F98840F22802C2F200020B46E8
S315600048204FEA83030B444FEA8303134403F11003F7
S315600048301B781A4642F2D463C0F2010353F8223061
S315600048404FF000021A60F98840F22802C2F20002B4
S315600048500B464FEA83030B444FEA8303134403F189
S315600048600C031B68FB60F98840F22802C2F2000262
S315600048700B464FEA83030B444FEA83031344DB88FA
S315600048807B814FF000033B8114E040F20003C4F2E9
S31560004890020379893A890A44F968098802F500723F
S315600048A043F82210FB6803F10203FB603B8903F1C6
S315600048B001033B81F98840F22802C2F200020B46EE
S315600048C04FEA83030B444FEA8303134403F108035F
S315600048D01B883A899A42D8D307F11407BD4680BC33
S315600048E0704700BF80B485B000AF0346FB80FB888D
S315600048F0012B00D900BEFB88012B00F28D80F98860
S3156000490040F22802C2F200020B464FEA83030B44D0
S315600049104FEA8303134403F110031B78022B00D97B
S3156000492000BEF98840F22802C2F200020B464FEA46
S3156000493083030B444FEA83031344DA8840F2FF1380
S315600049409A4200D900BEF98840F22802C2F20002FB
S315600049500B464FEA83030B444FEA83031344DB8819
S31560004960FB81FB89FF2B18D8F98840F22802C2F236
S3156000497000020B464FEA83030B444FEA830313445A
S3156000498003F110031B781A4642F2E063C0F201039A
S3156000499053F82230FA891A6019E0F98840F2280241
S315600049A0C2F200020B464FEA83030B444FEA8303CD
S315600049B0134403F110031B781A4642F2EC63C0F20B
S315600049C0010353F82230FA89A2F580721A60F988D9
S315600049D040F22802C2F200020B464FEA83030B4400
S315600049E04FEA8303134403F110031B781A4642F21D
S315600049F0D463C0F2010353F822304FF001021A600B
S31560004A0040F20003C4F2020340F20002C4F2020262
S31560004A10526842F001025A6007F11407BD4680BC35
S31560004A20704700BF80B485B000AF0346FB80FB884B
S31560004A30012B00D900BEF98840F22802C2F20002BA
S31560004A400B464FEA83030B444FEA8303134403F197
S31560004A5010031B78022B00D900BEF98840F22802A9
S31560004A60C2F200020B464FEA83030B444FEA83030C
S31560004A701344DA8840F2FF139A4200D900BEFB88DD
S31560004A80012B5CD8F98840F22802C2F200020B467C
S31560004A904FEA83030B444FEA830313449B88FB81ED
S31560004AA0FB89FF2B18D8F98840F22802C2F200026F
S31560004AB00B464FEA83030B444FEA8303134403F127
S31560004AC010031B781A4642F2E063C0F2010353F802
S31560004AD02230FA891A6019E0F98840F22802C2F297
S31560004AE000020B464FEA83030B444FEA83031344E9
S31560004AF003F110031B781A4642F2EC63C0F201031D
S31560004B0053F82230FA89A2F580721A60F98840F269
S31560004B102802C2F200020B464FEA83030B444FEAB7
S31560004B208303134403F110031B781A4642F2D463DD
S31560004B30C0F2010353F822304FF001021A6007F108
S31560004B401407BD4680BC704780B483B000AF03468F
S31560004B50FB80FB88012B00D900BEFB88012B18D88F
S31560004B60F98840F22802C2F200020B464FEA83033C
S31560004B700B444FEA8303134403F110031B781A4670
S31560004B8042F2D463C0F2010353F822304FF00002C0
S31560004B901A6007F10C07BD4680BC704780B483B0CD
S31560004BA000AF0346FB80FB88012B00D900BEFB8863
S31560004BB0012B18D8F98840F22802C2F200020B468F
S31560004BC04FEA83030B444FEA8303134403F1100354
S31560004BD01B781A4642F2D463C0F2010353F82230BE
S31560004BE04FF001021A6007F10C07BD4680BC7047A2
S31560004BF080B483B000AF0346FB71FB79142B00D9F8
S31560004C0000BE40F20003C4F2020340F20002C4F2A6
S31560004C10020202F590521168FA794FF0010000FA2B
S31560004C2002F241EA020203F590531A6007F10C079B
S31560004C30BD4680BC704700BF80B485B000AF0346F8
S31560004C40FB71FB79142B00D900BE40F20003C4F25D
S31560004C50020340F20002C4F2020202F590521168A9
S31560004C60FA794FF0010000FA02F26FEA020201EAF5
S31560004C70020203F590531A6040F20003C4F2020385
S31560004C8003F590531B68FB60FB6803F10103FB604F
S31560004C9007F11407BD4680BC704700BF80B485B07D
S31560004CA000AF0346FB71FB79142B00D900BE40F2BE
S31560004CB00003C4F2020340F20002C4F2020202F5EB
S31560004CC0905202F108021168FA794FF0010000FA79
S31560004CD002F241EA020203F5905303F108031A60F7
S31560004CE040F20003C4F2020303F5905303F1080394
S31560004CF01B68FB60FB6803F10103FB6007F11407A7
S31560004D00BD4680BC704700BF80B483B000AF40F240
S31560004D100003C4F202035B683B6040F20003C4F226
S31560004D20020340F20002C4F20202526822F001025B
S31560004D305A6040F20003C4F2020303F5A05303F184
S31560004D4004031B687B6040F20003C4F2020340F276
S31560004D500002C4F2020202F5A05202F104021268D5
S31560004D6022F0010203F5A05303F104031A6040F236
S31560004D700003C4F2020340F20002C4F20202D26DE2
S31560004D8042F01002DA6540F20003C4F2020340F218
S31560004D900002C4F20202D2F89C2042F01002C3F86C
S31560004DA09C2040F20003C4F2020340F20002C4F207
S31560004DB00202D2F8DC2042F01002C3F8DC2040F296
S31560004DC00003C4F2020340F20002C4F2020202F5DA
S31560004DD0A45202F11002126842F0040203F5A453D1
S31560004DE003F110031A6040F20003C4F2020340F2BA
S31560004DF00002C4F2020202F5A45202F11C02126819
S31560004E0042F0040203F5A45303F11C031A6040F256
S31560004E100003C4F2020340F20002C4F2020202F589
S31560004E20A45202F12802126842F0040203F5A45368
S31560004E3003F128031A6040F20003C4F2020340F251
S31560004E400002C4F2020202F59852126842F00402AD
S31560004E5003F598531A6040F20003C4F2020303F5A7
S31560004E60A05303F104037A681A6040F20003C4F2A7
S31560004E7002033A685A6007F10C07BD4680BC70476A
S31560004E8080B483B000AF0346FB71FB79002B00D082
S31560004E9000BEFA7942F2FC43C0F2010333F83230C5
S31560004EA01BB2184607F10C07BD4680BC704700BFB1
S31560004EB080B483B000AF0346FB71FB79002B00D052
S31560004EC000BEFB7942F2FC42C0F201024FEAC30324
S31560004ED013445B881BB2184607F10C07BD4680BCBD
S31560004EE0704700BFB0B592B000AF13460246FA7184
S31560004EF00A46BA807B8042F24C72C0F2010207F128
S31560004F000C0392E80300186003F104031980FB792F
S31560004F10002B00D000BEFB79002B40F09D80FA7913
S31560004F2040F21803C2F200034FEA021213441B79DF
S31560004F30FB74FA7C07F10C031046194600F028F959
S31560004F40FB89A7F842303B8AA7F84430BB89A7F8AB
S31560004F504630BB88184600F083F80446B7F84230FE
S31560004F60184600F07DF8034603FB04F3FB61FB691A
S31560004F701C464FEAE475B7F84630184600F070F8FC
S31560004F8003461A464FEAE27302FB05F104FB03F09F
S31560004F900144A4FB022319440B46C7E90823C7E969
S31560004FA00823D7E9080100F0B3F803467B61BB88A4
S31560004FB0184600F055F80446B7F84430184600F035
S31560004FC04FF8034603FB04F3FB62FB6A1C464FEA99
S31560004FD0E475B7F84630184600F042F803461A46BC
S31560004FE04FEAE27302FB05F104FB03F00144A4FB04
S31560004FF0022319440B46C7E90C23C7E90C237B88B7
S31560005000184600F02DF80446B7F84630184600F00A
S3156000501027F8034603FB04F31A464FEAE2734FEAA6
S3156000502092414FEA833040EA0101F9634FEA8233E5
S31560005030BB63D7E90C01D7E90E23121843EB0103D2
S315600050401046194600F024F80346BB61FB79184602
S315600050507969BA6900F05CFA07F14807BD46B0BDE8
S3156000506080B485B000AF0346FB804FF40043FB601D
S31560005070FA88FB6882EA0302FB68C3EB0203BB6043
S31560005080BB68184607F11407BD4680BC704700BF71
S31560005090B0B489B000AFC7E900014FF0FF3041F608
S315600050A0FF71C7E904014FF000004FF010414FEA6D
S315600050B0E131C7E90601D7E90001D7E90445844231
S315600050C075EB010C04DAD7E90401C7E900010BE0CE
S315600050D0D7E90045D7E90601844275EB010C03DA8E
S315600050E0D7E90601C7E9000179684FEA8141386866
S315600050F04FEA903241EA020279684FEAA1331346D9
S31560005100FB60FB68184607F12407BD46B0BC7047D4
S31560005110B0B489B000AFC7E900014FF0FF3041F687
S31560005120FF71C7E904014FF000004FF010414FEAEC
S31560005130E131C7E90601D7E90001D7E904458442B0
S3156000514075EB010C04DAD7E90401C7E900010BE04D
S31560005150D7E90045D7E90601844275EB010C03DA0D
S31560005160D7E90601C7E9000179684FEA0131386875
S315600051704FEA105241EA020279684FEA2153134618
S31560005180FB60FB68184607F12407BD46B0BC704754
S3156000519090B4A4B000AF03463960FB714FF00F03C3
S315600051A0BB654FF00103FB654FF001033B6642F2BE
S315600051B0FC63C0F2010307F1480C0FCB8CE80F00CB
S315600051C04FF00003BB67FA79BB6D02EA0303BB6667
S315600051D0BB6E07F19002134413F8483C87F86730BA
S315600051E0FB7903F030034FEA1313FB66FB6E4FEA5D
S315600051F043037B67BB6E042B06D9BB6E082B03D8B3
S315600052007B6F03F101037B6797F86730052B00F22C
S31560005210518101A252F823F0315200007F52000002
S31560005220D55200003B530000AD53000015540000FA
S3156000523040F20002C4F20202796F0B464FEA430362
S315600052400B444FEA0313134403F508731B79DBB26F
S3156000525003F006034FEA53033B6742F2F863C0F27A
S3156000526001031B6803F190031A467B6F4FEAC30183
S315600052703B6F0B444FEA83031344BB6722E140F262
S315600052800002C4F20202796F0B464FEA43030B44F5
S315600052904FEA0313134403F508731B79DBB203F07B
S315600052A060034FEA53133B6742F2F863C0F20103AF
S315600052B01B6803F190031A467B6F4FEA430303F1C1
S315600052C001034FEA83013B6F0B444FEA83031344A8
S315600052D0BB67F7E040F20002C4F20202796F0B4648
S315600052E04FEA43030B444FEA0313134403F5087371
S315600052F01B7ADBB21A46FB6D02EA0303FB67FB6FA0
S31560005300002B0CD142F2F863C0F201031B6803F56F
S31560005310C0727B6F4FEA83031344BB67D2E042F2ED
S31560005320F863C0F201031B6803F5D8731A467B6FF6
S315600053304FEAC3031344BB67C4E040F20002C4F201
S315600053400202796F0B464FEA43030B444FEA03139D
S31560005350134403F50A731B79DBB21A463B6E02EA05
S315600053600303C7F88030D7F88030002B0CD142F2A7
S31560005370F863C0F201031B6803F5CC727B6F4FEADA
S3156000538083031344BB679DE042F2F863C0F20103F6
S315600053901B6803F5D8731A467B6F4FEA430303F124
S315600053A001034FEA83031344BB678BE042F20C733D
S315600053B0C0F2010307F1080C1C460FCCACE80F00E5
S315600053C00FCCACE80F000FCCACE80F0094E80F00F0
S315600053D08CE80F00FA79BB6D02EA03034FEA830398
S315600053E007F19002134453F8883CC7F8843042F2C0
S315600053F0F863C0F201031B6803F5F0731A46FB6E8F
S315600054004FEA8301D7F884300B444FEA8303134491
S31560005410BB6757E040F20002C4F20202796F0B46A6
S315600054204FEA43030B444FEA0313134403F5067331
S315600054301B79DBB203F00103C7F8883040F2000243
S31560005440C4F20202796F0B464FEA43030B444FEAFC
S315600054500313134403F506731B79DBB203F00203EF
S31560005460C7F88C30D7F88830002B03D04FF0010393
S31560005470C7F88830D7F88C30002B03D04FF0010383
S31560005480C7F88C3042F2F863C0F201031B6803F57B
S31560005490A8731A46FB6E4FEA4301D7F888300B446F
S315600054A04FEA4301D7F88C300B444FEA8303134429
S315600054B0BB6707E03B684FF480425A803B684FF019
S315600054C000029A80BB6F002B07D0BB6F1A883B68BF
S315600054D05A80BB6F5A883B689A80FA6E42F2E44300
S315600054E0C0F201039B5C002B08D042F2F863C0F265
S315600054F001031B689A8B3B681A8003E03B684FF494
S3156000550080421A8007F19007BD4690BC704700BF85
